{
	"JaiHo/system-contracts/Staking.sol": {
		"Staking": {
			"abi": [
				{
					"anonymous": false,
					"inputs": [
						{
							"indexed": false,
							"internalType": "uint256",
							"name": "reward",
							"type": "uint256"
						},
						{
							"indexed": false,
							"internalType": "uint256",
							"name": "time",
							"type": "uint256"
						}
					],
					"name": "LogDistributeReward",
					"type": "event"
				},
				{
					"anonymous": false,
					"inputs": [
						{
							"indexed": true,
							"internalType": "address",
							"name": "staker",
							"type": "address"
						},
						{
							"indexed": false,
							"internalType": "uint256",
							"name": "time",
							"type": "uint256"
						}
					],
					"name": "LogRemoveFromCurrentStaker",
					"type": "event"
				},
				{
					"anonymous": false,
					"inputs": [
						{
							"indexed": true,
							"internalType": "address",
							"name": "staker",
							"type": "address"
						},
						{
							"indexed": false,
							"internalType": "uint256",
							"name": "staking",
							"type": "uint256"
						},
						{
							"indexed": false,
							"internalType": "uint256",
							"name": "time",
							"type": "uint256"
						}
					],
					"name": "LogStake",
					"type": "event"
				},
				{
					"anonymous": false,
					"inputs": [
						{
							"indexed": true,
							"internalType": "address",
							"name": "staker",
							"type": "address"
						},
						{
							"indexed": false,
							"internalType": "uint256",
							"name": "amount",
							"type": "uint256"
						},
						{
							"indexed": false,
							"internalType": "uint256",
							"name": "penalty",
							"type": "uint256"
						},
						{
							"indexed": false,
							"internalType": "uint256",
							"name": "time",
							"type": "uint256"
						}
					],
					"name": "LogUnstake",
					"type": "event"
				},
				{
					"anonymous": false,
					"inputs": [
						{
							"indexed": true,
							"internalType": "address",
							"name": "previousOwner",
							"type": "address"
						},
						{
							"indexed": true,
							"internalType": "address",
							"name": "newOwner",
							"type": "address"
						}
					],
					"name": "OwnershipTransferred",
					"type": "event"
				},
				{
					"anonymous": false,
					"inputs": [
						{
							"indexed": true,
							"internalType": "address",
							"name": "user",
							"type": "address"
						},
						{
							"indexed": false,
							"internalType": "uint256",
							"name": "reward",
							"type": "uint256"
						},
						{
							"indexed": false,
							"internalType": "uint256",
							"name": "timeStamp",
							"type": "uint256"
						}
					],
					"name": "withdrawStakingRewardEv",
					"type": "event"
				},
				{
					"inputs": [],
					"name": "MaxStakers",
					"outputs": [
						{
							"internalType": "uint16",
							"name": "",
							"type": "uint16"
						}
					],
					"stateMutability": "view",
					"type": "function"
				},
				{
					"inputs": [],
					"name": "MinimalStakingCoin",
					"outputs": [
						{
							"internalType": "uint256",
							"name": "",
							"type": "uint256"
						}
					],
					"stateMutability": "view",
					"type": "function"
				},
				{
					"inputs": [
						{
							"internalType": "address",
							"name": "staker",
							"type": "address"
						}
					],
					"name": "checkforpenalty",
					"outputs": [
						{
							"internalType": "bool",
							"name": "isPenalty",
							"type": "bool"
						}
					],
					"stateMutability": "view",
					"type": "function"
				},
				{
					"inputs": [
						{
							"internalType": "uint256",
							"name": "",
							"type": "uint256"
						}
					],
					"name": "currentStakerSet",
					"outputs": [
						{
							"internalType": "address",
							"name": "",
							"type": "address"
						}
					],
					"stateMutability": "view",
					"type": "function"
				},
				{
					"inputs": [],
					"name": "distributeReward",
					"outputs": [],
					"stateMutability": "payable",
					"type": "function"
				},
				{
					"inputs": [],
					"name": "getActiveStakers",
					"outputs": [
						{
							"internalType": "address[]",
							"name": "",
							"type": "address[]"
						}
					],
					"stateMutability": "view",
					"type": "function"
				},
				{
					"inputs": [
						{
							"internalType": "address",
							"name": "staker",
							"type": "address"
						}
					],
					"name": "getStakingInfo",
					"outputs": [
						{
							"internalType": "uint256",
							"name": "",
							"type": "uint256"
						}
					],
					"stateMutability": "view",
					"type": "function"
				},
				{
					"inputs": [],
					"name": "getTotalStakeOfActiveStakers",
					"outputs": [
						{
							"internalType": "uint256",
							"name": "total",
							"type": "uint256"
						},
						{
							"internalType": "uint256",
							"name": "len",
							"type": "uint256"
						}
					],
					"stateMutability": "view",
					"type": "function"
				},
				{
					"inputs": [
						{
							"internalType": "address",
							"name": "who",
							"type": "address"
						}
					],
					"name": "isActiveStaker",
					"outputs": [
						{
							"internalType": "bool",
							"name": "",
							"type": "bool"
						}
					],
					"stateMutability": "view",
					"type": "function"
				},
				{
					"inputs": [],
					"name": "lastRewardTime",
					"outputs": [
						{
							"internalType": "uint256",
							"name": "",
							"type": "uint256"
						}
					],
					"stateMutability": "view",
					"type": "function"
				},
				{
					"inputs": [
						{
							"internalType": "address",
							"name": "validator",
							"type": "address"
						},
						{
							"internalType": "uint256",
							"name": "value",
							"type": "uint256"
						}
					],
					"name": "mutateValStakeTimeMapping",
					"outputs": [],
					"stateMutability": "nonpayable",
					"type": "function"
				},
				{
					"inputs": [],
					"name": "owner",
					"outputs": [
						{
							"internalType": "address",
							"name": "",
							"type": "address"
						}
					],
					"stateMutability": "view",
					"type": "function"
				},
				{
					"inputs": [],
					"name": "penaltyPercentage",
					"outputs": [
						{
							"internalType": "uint256",
							"name": "",
							"type": "uint256"
						}
					],
					"stateMutability": "view",
					"type": "function"
				},
				{
					"inputs": [
						{
							"internalType": "uint256",
							"name": "",
							"type": "uint256"
						}
					],
					"name": "reflectionPercentSum",
					"outputs": [
						{
							"internalType": "uint256",
							"name": "",
							"type": "uint256"
						}
					],
					"stateMutability": "view",
					"type": "function"
				},
				{
					"inputs": [],
					"name": "renounceOwnership",
					"outputs": [],
					"stateMutability": "nonpayable",
					"type": "function"
				},
				{
					"inputs": [],
					"name": "rescueCoins",
					"outputs": [],
					"stateMutability": "nonpayable",
					"type": "function"
				},
				{
					"inputs": [
						{
							"internalType": "address",
							"name": "",
							"type": "address"
						}
					],
					"name": "rewardWithdrawalTime",
					"outputs": [
						{
							"internalType": "uint256",
							"name": "",
							"type": "uint256"
						}
					],
					"stateMutability": "view",
					"type": "function"
				},
				{
					"inputs": [],
					"name": "stake",
					"outputs": [
						{
							"internalType": "bool",
							"name": "",
							"type": "bool"
						}
					],
					"stateMutability": "payable",
					"type": "function"
				},
				{
					"inputs": [
						{
							"internalType": "address",
							"name": "",
							"type": "address"
						}
					],
					"name": "stakeTime",
					"outputs": [
						{
							"internalType": "uint256",
							"name": "",
							"type": "uint256"
						}
					],
					"stateMutability": "view",
					"type": "function"
				},
				{
					"inputs": [],
					"name": "stakingLockPeriod",
					"outputs": [
						{
							"internalType": "uint64",
							"name": "",
							"type": "uint64"
						}
					],
					"stateMutability": "view",
					"type": "function"
				},
				{
					"inputs": [],
					"name": "totalPenalty",
					"outputs": [
						{
							"internalType": "uint256",
							"name": "",
							"type": "uint256"
						}
					],
					"stateMutability": "view",
					"type": "function"
				},
				{
					"inputs": [],
					"name": "totalStake",
					"outputs": [
						{
							"internalType": "uint256",
							"name": "",
							"type": "uint256"
						}
					],
					"stateMutability": "view",
					"type": "function"
				},
				{
					"inputs": [
						{
							"internalType": "address",
							"name": "newOwner",
							"type": "address"
						}
					],
					"name": "transferOwnership",
					"outputs": [],
					"stateMutability": "nonpayable",
					"type": "function"
				},
				{
					"inputs": [],
					"name": "unstake",
					"outputs": [
						{
							"internalType": "bool",
							"name": "",
							"type": "bool"
						}
					],
					"stateMutability": "nonpayable",
					"type": "function"
				},
				{
					"inputs": [
						{
							"internalType": "uint16",
							"name": "_MaxStakers",
							"type": "uint16"
						}
					],
					"name": "updateMaxStakers",
					"outputs": [],
					"stateMutability": "nonpayable",
					"type": "function"
				},
				{
					"inputs": [
						{
							"internalType": "uint256",
							"name": "_MinimalStakingCoin",
							"type": "uint256"
						}
					],
					"name": "updateMinimalStakingCoin",
					"outputs": [],
					"stateMutability": "nonpayable",
					"type": "function"
				},
				{
					"inputs": [
						{
							"internalType": "uint64",
							"name": "_penaltyPercentage",
							"type": "uint64"
						}
					],
					"name": "updatePenaltyPercentage",
					"outputs": [],
					"stateMutability": "nonpayable",
					"type": "function"
				},
				{
					"inputs": [
						{
							"internalType": "uint64",
							"name": "_stakingLockPeriod",
							"type": "uint64"
						}
					],
					"name": "updateStakingLockPeriod",
					"outputs": [],
					"stateMutability": "nonpayable",
					"type": "function"
				},
				{
					"inputs": [
						{
							"internalType": "address",
							"name": "_validatorData",
							"type": "address"
						}
					],
					"name": "updateValidatorDataContract",
					"outputs": [],
					"stateMutability": "nonpayable",
					"type": "function"
				},
				{
					"inputs": [],
					"name": "valDataContract",
					"outputs": [
						{
							"internalType": "contract InterfaceValidator",
							"name": "",
							"type": "address"
						}
					],
					"stateMutability": "view",
					"type": "function"
				},
				{
					"inputs": [
						{
							"internalType": "address",
							"name": "",
							"type": "address"
						}
					],
					"name": "valStakeTime",
					"outputs": [
						{
							"internalType": "uint256",
							"name": "",
							"type": "uint256"
						}
					],
					"stateMutability": "view",
					"type": "function"
				},
				{
					"inputs": [
						{
							"internalType": "address",
							"name": "_staker",
							"type": "address"
						}
					],
					"name": "viewStakeReward",
					"outputs": [
						{
							"internalType": "uint256",
							"name": "valReward",
							"type": "uint256"
						},
						{
							"internalType": "uint256",
							"name": "stakerReward",
							"type": "uint256"
						}
					],
					"stateMutability": "view",
					"type": "function"
				},
				{
					"inputs": [
						{
							"internalType": "address",
							"name": "staker",
							"type": "address"
						}
					],
					"name": "withdrawStakingReward",
					"outputs": [
						{
							"internalType": "bool",
							"name": "",
							"type": "bool"
						}
					],
					"stateMutability": "nonpayable",
					"type": "function"
				}
			],
			"devdoc": {
				"kind": "dev",
				"methods": {
					"owner()": {
						"details": "Returns the address of the current owner."
					},
					"renounceOwnership()": {
						"details": "Leaves the contract without owner. It will not be possible to call `onlyOwner` functions anymore. Can only be called by the current owner. NOTE: Renouncing ownership will leave the contract without an owner, thereby removing any functionality that is only available to the owner."
					},
					"transferOwnership(address)": {
						"details": "Transfers ownership of the contract to a new account (`newOwner`). Can only be called by the current owner."
					}
				},
				"version": 1
			},
			"evm": {
				"assembly": "    /* \"JaiHo/system-contracts/Staking.sol\":4252:14667  contract Staking is Ownable {... */\n  mstore(0x40, 0x80)\n    /* \"JaiHo/system-contracts/Staking.sol\":4287:4393  InterfaceValidator public valDataContract = InterfaceValidator(0x0c4F6F3E5458AC81005EEF84521373904F18e36e) */\n  0x01\n  dup1\n  sload\n  not(sub(shl(0xa0, 0x01), 0x01))\n  and\n    /* \"JaiHo/system-contracts/Staking.sol\":4350:4392  0x0c4F6F3E5458AC81005EEF84521373904F18e36e */\n  0x0c4f6f3e5458ac81005eef84521373904f18e36e\n    /* \"JaiHo/system-contracts/Staking.sol\":4287:4393  InterfaceValidator public valDataContract = InterfaceValidator(0x0c4F6F3E5458AC81005EEF84521373904F18e36e) */\n  or\n  swap1\n  sstore\n    /* \"JaiHo/system-contracts/Staking.sol\":4533:4540  1 ether */\n  0x0de0b6b3a7640000\n    /* \"JaiHo/system-contracts/Staking.sol\":4496:4540  uint256 public  MinimalStakingCoin = 1 ether */\n  0x03\n  swap1\n  dup2\n  sstore\n    /* \"JaiHo/system-contracts/Staking.sol\":4547:4575  uint16 public MaxStakers = 3 */\n  0x04\n  dup1\n  sload\n  not(0xffff)\n  and\n  swap1\n  swap2\n  or\n  swap1\n  sstore\n    /* \"JaiHo/system-contracts/Staking.sol\":4723:4764  uint64 public stakingLockPeriod = 7776000 */\n  0x08\n  dup1\n  sload\n  not(sub(shl(0x40, 0x01), 0x01))\n  and\n    /* \"JaiHo/system-contracts/Staking.sol\":4757:4764  7776000 */\n  0x76a700\n    /* \"JaiHo/system-contracts/Staking.sol\":4723:4764  uint64 public stakingLockPeriod = 7776000 */\n  or\n  swap1\n  sstore\n    /* \"JaiHo/system-contracts/Staking.sol\":4806:4810  1000 */\n  0x03e8\n    /* \"JaiHo/system-contracts/Staking.sol\":4771:4810  uint256 public penaltyPercentage = 1000 */\n  0x09\n  sstore\n    /* \"JaiHo/system-contracts/Staking.sol\":4252:14667  contract Staking is Ownable {... */\n  callvalue\n  dup1\n  iszero\n  tag_1\n  jumpi\n  0x00\n  dup1\n  revert\ntag_1:\n  pop\n    /* \"JaiHo/system-contracts/Staking.sol\":1590:1622  _transferOwnership(_msgSender()) */\n  tag_4\n    /* \"JaiHo/system-contracts/Staking.sol\":665:675  msg.sender */\n  caller\n    /* \"JaiHo/system-contracts/Staking.sol\":1590:1608  _transferOwnership */\n  tag_7\n    /* \"JaiHo/system-contracts/Staking.sol\":1590:1622  _transferOwnership(_msgSender()) */\n  jump\t// in\ntag_4:\n    /* \"JaiHo/system-contracts/Staking.sol\":4252:14667  contract Staking is Ownable {... */\n  jump(tag_8)\n    /* \"JaiHo/system-contracts/Staking.sol\":3121:3308  function _transferOwnership(address newOwner) internal virtual {... */\ntag_7:\n    /* \"JaiHo/system-contracts/Staking.sol\":3194:3210  address oldOwner */\n  0x00\n    /* \"JaiHo/system-contracts/Staking.sol\":3213:3219  _owner */\n  dup1\n  sload\n  sub(shl(0xa0, 0x01), 0x01)\n    /* \"JaiHo/system-contracts/Staking.sol\":3229:3246  _owner = newOwner */\n  dup4\n  dup2\n  and\n  not(sub(shl(0xa0, 0x01), 0x01))\n  dup4\n  and\n  dup2\n  or\n  dup5\n  sstore\n    /* \"JaiHo/system-contracts/Staking.sol\":3261:3301  OwnershipTransferred(oldOwner, newOwner) */\n  mload(0x40)\n    /* \"JaiHo/system-contracts/Staking.sol\":3213:3219  _owner */\n  swap2\n  swap1\n  swap3\n  and\n  swap3\n  dup4\n  swap2\n    /* \"JaiHo/system-contracts/Staking.sol\":3261:3301  OwnershipTransferred(oldOwner, newOwner) */\n  0x8be0079c531659141344cd1fd0a4f28419497f9722a3daafe3b4186f6b6457e0\n  swap2\n    /* \"JaiHo/system-contracts/Staking.sol\":3194:3210  address oldOwner */\n  swap1\n    /* \"JaiHo/system-contracts/Staking.sol\":3261:3301  OwnershipTransferred(oldOwner, newOwner) */\n  log3\n    /* \"JaiHo/system-contracts/Staking.sol\":3184:3308  {... */\n  pop\n    /* \"JaiHo/system-contracts/Staking.sol\":3121:3308  function _transferOwnership(address newOwner) internal virtual {... */\n  pop\n  jump\t// out\n    /* \"JaiHo/system-contracts/Staking.sol\":4252:14667  contract Staking is Ownable {... */\ntag_8:\n  dataSize(sub_0)\n  dup1\n  dataOffset(sub_0)\n  0x00\n  codecopy\n  0x00\n  return\nstop\n\nsub_0: assembly {\n        /* \"JaiHo/system-contracts/Staking.sol\":4252:14667  contract Staking is Ownable {... */\n      mstore(0x40, 0x80)\n      jumpi(tag_1, lt(calldatasize, 0x04))\n      shr(0xe0, calldataload(0x00))\n      dup1\n      0x9fb82db9\n      gt\n      tag_35\n      jumpi\n      dup1\n      0xe0639364\n      gt\n      tag_36\n      jumpi\n      dup1\n      0xf2fde38b\n      gt\n      tag_37\n      jumpi\n      dup1\n      0xf2fde38b\n      eq\n      tag_30\n      jumpi\n      dup1\n      0xf3883538\n      eq\n      tag_31\n      jumpi\n      dup1\n      0xf67c4dfd\n      eq\n      tag_32\n      jumpi\n      dup1\n      0xf6b663c3\n      eq\n      tag_33\n      jumpi\n      dup1\n      0xfe32f55e\n      eq\n      tag_34\n      jumpi\n      0x00\n      dup1\n      revert\n    tag_37:\n      dup1\n      0xe0639364\n      eq\n      tag_26\n      jumpi\n      dup1\n      0xe6af61c8\n      eq\n      tag_27\n      jumpi\n      dup1\n      0xe75bcb96\n      eq\n      tag_28\n      jumpi\n      dup1\n      0xee7cb288\n      eq\n      tag_29\n      jumpi\n      0x00\n      dup1\n      revert\n    tag_36:\n      dup1\n      0xbddd6de4\n      gt\n      tag_38\n      jumpi\n      dup1\n      0xbddd6de4\n      eq\n      tag_22\n      jumpi\n      dup1\n      0xbe645692\n      eq\n      tag_23\n      jumpi\n      dup1\n      0xc7907f54\n      eq\n      tag_24\n      jumpi\n      dup1\n      0xcc001f16\n      eq\n      tag_25\n      jumpi\n      0x00\n      dup1\n      revert\n    tag_38:\n      dup1\n      0x9fb82db9\n      eq\n      tag_18\n      jumpi\n      dup1\n      0xa9e30ccf\n      eq\n      tag_19\n      jumpi\n      dup1\n      0xaa4704f3\n      eq\n      tag_20\n      jumpi\n      dup1\n      0xb0806108\n      eq\n      tag_21\n      jumpi\n      0x00\n      dup1\n      revert\n    tag_35:\n      dup1\n      0x68015791\n      gt\n      tag_39\n      jumpi\n      dup1\n      0x8b0e9f3f\n      gt\n      tag_40\n      jumpi\n      dup1\n      0x8b0e9f3f\n      eq\n      tag_14\n      jumpi\n      dup1\n      0x8da5cb5b\n      eq\n      tag_15\n      jumpi\n      dup1\n      0x8f73c5ae\n      eq\n      tag_16\n      jumpi\n      dup1\n      0x9231cf74\n      eq\n      tag_17\n      jumpi\n      0x00\n      dup1\n      revert\n    tag_40:\n      dup1\n      0x68015791\n      eq\n      tag_10\n      jumpi\n      dup1\n      0x715018a6\n      eq\n      tag_11\n      jumpi\n      dup1\n      0x72d30a70\n      eq\n      tag_12\n      jumpi\n      dup1\n      0x82cb1c18\n      eq\n      tag_13\n      jumpi\n      0x00\n      dup1\n      revert\n    tag_39:\n      dup1\n      0x3a4b66f1\n      gt\n      tag_41\n      jumpi\n      dup1\n      0x3a4b66f1\n      eq\n      tag_6\n      jumpi\n      dup1\n      0x41f349b5\n      eq\n      tag_7\n      jumpi\n      dup1\n      0x5fa34ebd\n      eq\n      tag_8\n      jumpi\n      dup1\n      0x6285b5a2\n      eq\n      tag_9\n      jumpi\n      0x00\n      dup1\n      revert\n    tag_41:\n      dup1\n      0x062b6139\n      eq\n      tag_2\n      jumpi\n      dup1\n      0x15908d51\n      eq\n      tag_3\n      jumpi\n      dup1\n      0x2170e472\n      eq\n      tag_4\n      jumpi\n      dup1\n      0x2def6620\n      eq\n      tag_5\n      jumpi\n    tag_1:\n      0x00\n      dup1\n      revert\n        /* \"JaiHo/system-contracts/Staking.sol\":13725:13934  function updatePenaltyPercentage(uint64 _penaltyPercentage) external onlyOwner... */\n    tag_2:\n      callvalue\n      dup1\n      iszero\n      tag_42\n      jumpi\n      0x00\n      dup1\n      revert\n    tag_42:\n      pop\n      tag_43\n      tag_44\n      calldatasize\n      0x04\n      tag_45\n      jump\t// in\n    tag_44:\n      tag_46\n      jump\t// in\n    tag_43:\n      stop\n        /* \"JaiHo/system-contracts/Staking.sol\":4771:4810  uint256 public penaltyPercentage = 1000 */\n    tag_3:\n      callvalue\n      dup1\n      iszero\n      tag_47\n      jumpi\n      0x00\n      dup1\n      revert\n    tag_47:\n      pop\n      tag_48\n      sload(0x09)\n      dup2\n      jump\n    tag_48:\n      mload(0x40)\n        /* \"#utility.yul\":449:474   */\n      swap1\n      dup2\n      mstore\n        /* \"#utility.yul\":437:439   */\n      0x20\n        /* \"#utility.yul\":422:440   */\n      add\n        /* \"JaiHo/system-contracts/Staking.sol\":4771:4810  uint256 public penaltyPercentage = 1000 */\n    tag_50:\n      mload(0x40)\n      dup1\n      swap2\n      sub\n      swap1\n      return\n        /* \"JaiHo/system-contracts/Staking.sol\":4884:4925  mapping(address => uint) public stakeTime */\n    tag_4:\n      callvalue\n      dup1\n      iszero\n      tag_52\n      jumpi\n      0x00\n      dup1\n      revert\n    tag_52:\n      pop\n      tag_48\n      tag_54\n      calldatasize\n      0x04\n      tag_55\n      jump\t// in\n    tag_54:\n      mstore(0x20, 0x0b)\n      0x00\n      swap1\n      dup2\n      mstore\n      0x40\n      swap1\n      keccak256\n      sload\n      dup2\n      jump\n        /* \"JaiHo/system-contracts/Staking.sol\":6694:7865  function unstake() external returns (bool){ ... */\n    tag_5:\n      callvalue\n      dup1\n      iszero\n      tag_58\n      jumpi\n      0x00\n      dup1\n      revert\n    tag_58:\n      pop\n      tag_59\n      tag_60\n      jump\t// in\n    tag_59:\n      mload(0x40)\n        /* \"#utility.yul\":1038:1052   */\n      swap1\n      iszero\n        /* \"#utility.yul\":1031:1053   */\n      iszero\n        /* \"#utility.yul\":1013:1054   */\n      dup2\n      mstore\n        /* \"#utility.yul\":1001:1003   */\n      0x20\n        /* \"#utility.yul\":986:1004   */\n      add\n        /* \"JaiHo/system-contracts/Staking.sol\":6694:7865  function unstake() external returns (bool){ ... */\n      tag_50\n        /* \"#utility.yul\":873:1060   */\n      jump\n        /* \"JaiHo/system-contracts/Staking.sol\":5619:6688  function stake()... */\n    tag_6:\n      tag_59\n      tag_64\n      jump\t// in\n        /* \"JaiHo/system-contracts/Staking.sol\":10861:11091  function checkforpenalty(address staker) external view returns(bool isPenalty)... */\n    tag_7:\n      callvalue\n      dup1\n      iszero\n      tag_66\n      jumpi\n      0x00\n      dup1\n      revert\n    tag_66:\n      pop\n      tag_59\n      tag_68\n      calldatasize\n      0x04\n      tag_55\n      jump\t// in\n    tag_68:\n      tag_69\n      jump\t// in\n        /* \"JaiHo/system-contracts/Staking.sol\":5076:5125  mapping(uint => uint) public reflectionPercentSum */\n    tag_8:\n      callvalue\n      dup1\n      iszero\n      tag_71\n      jumpi\n      0x00\n      dup1\n      revert\n    tag_71:\n      pop\n      tag_48\n      tag_73\n      calldatasize\n      0x04\n      tag_74\n      jump\t// in\n    tag_73:\n      mstore(0x20, 0x0e)\n      0x00\n      swap1\n      dup2\n      mstore\n      0x40\n      swap1\n      keccak256\n      sload\n      dup2\n      jump\n        /* \"JaiHo/system-contracts/Staking.sol\":14304:14525  function updateValidatorDataContract(address _validatorData) external onlyOwner... */\n    tag_9:\n      callvalue\n      dup1\n      iszero\n      tag_77\n      jumpi\n      0x00\n      dup1\n      revert\n    tag_77:\n      pop\n      tag_43\n      tag_79\n      calldatasize\n      0x04\n      tag_55\n      jump\t// in\n    tag_79:\n      tag_80\n      jump\t// in\n        /* \"JaiHo/system-contracts/Staking.sol\":12027:12284  function isActiveStaker(address who) public view returns (bool) {... */\n    tag_10:\n      callvalue\n      dup1\n      iszero\n      tag_81\n      jumpi\n      0x00\n      dup1\n      revert\n    tag_81:\n      pop\n      tag_59\n      tag_83\n      calldatasize\n      0x04\n      tag_55\n      jump\t// in\n    tag_83:\n      tag_84\n      jump\t// in\n        /* \"JaiHo/system-contracts/Staking.sol\":2485:2586  function renounceOwnership() public virtual onlyOwner {... */\n    tag_11:\n      callvalue\n      dup1\n      iszero\n      tag_86\n      jumpi\n      0x00\n      dup1\n      revert\n    tag_86:\n      pop\n      tag_43\n      tag_88\n      jump\t// in\n        /* \"JaiHo/system-contracts/Staking.sol\":7871:9045  function withdrawStakingReward(address staker) public returns(bool)... */\n    tag_12:\n      callvalue\n      dup1\n      iszero\n      tag_89\n      jumpi\n      0x00\n      dup1\n      revert\n    tag_89:\n      pop\n      tag_59\n      tag_91\n      calldatasize\n      0x04\n      tag_55\n      jump\t// in\n    tag_91:\n      tag_92\n      jump\t// in\n        /* \"JaiHo/system-contracts/Staking.sol\":4932:4976  mapping(address => uint) public valStakeTime */\n    tag_13:\n      callvalue\n      dup1\n      iszero\n      tag_94\n      jumpi\n      0x00\n      dup1\n      revert\n    tag_94:\n      pop\n      tag_48\n      tag_96\n      calldatasize\n      0x04\n      tag_55\n      jump\t// in\n    tag_96:\n      mstore(0x20, 0x0c)\n      0x00\n      swap1\n      dup2\n      mstore\n      0x40\n      swap1\n      keccak256\n      sload\n      dup2\n      jump\n        /* \"JaiHo/system-contracts/Staking.sol\":4657:4682  uint256 public totalStake */\n    tag_14:\n      callvalue\n      dup1\n      iszero\n      tag_99\n      jumpi\n      0x00\n      dup1\n      revert\n    tag_99:\n      pop\n      tag_48\n      sload(0x06)\n      dup2\n      jump\n        /* \"JaiHo/system-contracts/Staking.sol\":1855:1940  function owner() public view virtual returns (address) {... */\n    tag_15:\n      callvalue\n      dup1\n      iszero\n      tag_103\n      jumpi\n      0x00\n      dup1\n      revert\n    tag_103:\n      pop\n        /* \"JaiHo/system-contracts/Staking.sol\":1901:1908  address */\n      0x00\n        /* \"JaiHo/system-contracts/Staking.sol\":1927:1933  _owner */\n      sload\n      sub(shl(0xa0, 0x01), 0x01)\n      and\n        /* \"JaiHo/system-contracts/Staking.sol\":1855:1940  function owner() public view virtual returns (address) {... */\n    tag_104:\n      mload(0x40)\n      sub(shl(0xa0, 0x01), 0x01)\n        /* \"#utility.yul\":1414:1446   */\n      swap1\n      swap2\n      and\n        /* \"#utility.yul\":1396:1447   */\n      dup2\n      mstore\n        /* \"#utility.yul\":1384:1386   */\n      0x20\n        /* \"#utility.yul\":1369:1387   */\n      add\n        /* \"JaiHo/system-contracts/Staking.sol\":1855:1940  function owner() public view virtual returns (address) {... */\n      tag_50\n        /* \"#utility.yul\":1250:1453   */\n      jump\n        /* \"JaiHo/system-contracts/Staking.sol\":9132:10242  function distributeReward()... */\n    tag_16:\n      tag_43\n      tag_109\n      jump\t// in\n        /* \"JaiHo/system-contracts/Staking.sol\":5003:5029  uint public lastRewardTime */\n    tag_17:\n      callvalue\n      dup1\n      iszero\n      tag_110\n      jumpi\n      0x00\n      dup1\n      revert\n    tag_110:\n      pop\n      tag_48\n      sload(0x0d)\n      dup2\n      jump\n        /* \"JaiHo/system-contracts/Staking.sol\":11289:11396  function getActiveStakers() public view returns (address[] memory) {... */\n    tag_18:\n      callvalue\n      dup1\n      iszero\n      tag_114\n      jumpi\n      0x00\n      dup1\n      revert\n    tag_114:\n      pop\n      tag_115\n      tag_116\n      jump\t// in\n    tag_115:\n      mload(0x40)\n      tag_50\n      swap2\n      swap1\n      tag_118\n      jump\t// in\n        /* \"JaiHo/system-contracts/Staking.sol\":14103:14297  function mutateValStakeTimeMapping(address validator, uint value) external onlyValDataContract{... */\n    tag_19:\n      callvalue\n      dup1\n      iszero\n      tag_119\n      jumpi\n      0x00\n      dup1\n      revert\n    tag_119:\n      pop\n      tag_43\n      tag_121\n      calldatasize\n      0x04\n      tag_122\n      jump\t// in\n    tag_121:\n      tag_123\n      jump\t// in\n        /* \"JaiHo/system-contracts/Staking.sol\":11097:11283  function getStakingInfo(address staker)... */\n    tag_20:\n      callvalue\n      dup1\n      iszero\n      tag_124\n      jumpi\n      0x00\n      dup1\n      revert\n    tag_124:\n      pop\n      tag_48\n      tag_126\n      calldatasize\n      0x04\n      tag_55\n      jump\t// in\n    tag_126:\n      sub(shl(0xa0, 0x01), 0x01)\n        /* \"JaiHo/system-contracts/Staking.sol\":11248:11266  stakerInfo[staker] */\n      and\n        /* \"JaiHo/system-contracts/Staking.sol\":11195:11202  uint256 */\n      0x00\n        /* \"JaiHo/system-contracts/Staking.sol\":11248:11266  stakerInfo[staker] */\n      swap1\n      dup2\n      mstore\n        /* \"JaiHo/system-contracts/Staking.sol\":11248:11258  stakerInfo */\n      0x02\n        /* \"JaiHo/system-contracts/Staking.sol\":11248:11266  stakerInfo[staker] */\n      0x20\n      mstore\n      0x40\n      swap1\n      keccak256\n      sload\n      swap1\n        /* \"JaiHo/system-contracts/Staking.sol\":11097:11283  function getStakingInfo(address staker)... */\n      jump\n        /* \"JaiHo/system-contracts/Staking.sol\":13980:14097  function rescueCoins() external onlyOwner{        ... */\n    tag_21:\n      callvalue\n      dup1\n      iszero\n      tag_129\n      jumpi\n      0x00\n      dup1\n      revert\n    tag_129:\n      pop\n      tag_43\n      tag_131\n      jump\t// in\n        /* \"JaiHo/system-contracts/Staking.sol\":4547:4575  uint16 public MaxStakers = 3 */\n    tag_22:\n      callvalue\n      dup1\n      iszero\n      tag_132\n      jumpi\n      0x00\n      dup1\n      revert\n    tag_132:\n      pop\n      sload(0x04)\n      tag_133\n      swap1\n      0xffff\n      and\n      dup2\n      jump\n    tag_133:\n      mload(0x40)\n        /* \"#utility.yul\":2615:2621   */\n      0xffff\n        /* \"#utility.yul\":2603:2622   */\n      swap1\n      swap2\n      and\n        /* \"#utility.yul\":2585:2623   */\n      dup2\n      mstore\n        /* \"#utility.yul\":2573:2575   */\n      0x20\n        /* \"#utility.yul\":2558:2576   */\n      add\n        /* \"JaiHo/system-contracts/Staking.sol\":4547:4575  uint16 public MaxStakers = 3 */\n      tag_50\n        /* \"#utility.yul\":2441:2629   */\n      jump\n        /* \"JaiHo/system-contracts/Staking.sol\":4496:4540  uint256 public  MinimalStakingCoin = 1 ether */\n    tag_23:\n      callvalue\n      dup1\n      iszero\n      tag_137\n      jumpi\n      0x00\n      dup1\n      revert\n    tag_137:\n      pop\n      tag_48\n      sload(0x03)\n      dup2\n      jump\n        /* \"JaiHo/system-contracts/Staking.sol\":13225:13343  function updateMaxStakers(... */\n    tag_24:\n      callvalue\n      dup1\n      iszero\n      tag_141\n      jumpi\n      0x00\n      dup1\n      revert\n    tag_141:\n      pop\n      tag_43\n      tag_143\n      calldatasize\n      0x04\n      tag_144\n      jump\t// in\n    tag_143:\n      tag_145\n      jump\t// in\n        /* \"JaiHo/system-contracts/Staking.sol\":4825:4877  mapping(address => uint) public rewardWithdrawalTime */\n    tag_25:\n      callvalue\n      dup1\n      iszero\n      tag_146\n      jumpi\n      0x00\n      dup1\n      revert\n    tag_146:\n      pop\n      tag_48\n      tag_148\n      calldatasize\n      0x04\n      tag_55\n      jump\t// in\n    tag_148:\n      mstore(0x20, 0x0a)\n      0x00\n      swap1\n      dup2\n      mstore\n      0x40\n      swap1\n      keccak256\n      sload\n      dup2\n      jump\n        /* \"JaiHo/system-contracts/Staking.sol\":4723:4764  uint64 public stakingLockPeriod = 7776000 */\n    tag_26:\n      callvalue\n      dup1\n      iszero\n      tag_151\n      jumpi\n      0x00\n      dup1\n      revert\n    tag_151:\n      pop\n      sload(0x08)\n      tag_152\n      swap1\n      sub(shl(0x40, 0x01), 0x01)\n      and\n      dup2\n      jump\n    tag_152:\n      mload(0x40)\n      sub(shl(0x40, 0x01), 0x01)\n        /* \"#utility.yul\":3073:3104   */\n      swap1\n      swap2\n      and\n        /* \"#utility.yul\":3055:3105   */\n      dup2\n      mstore\n        /* \"#utility.yul\":3043:3045   */\n      0x20\n        /* \"#utility.yul\":3028:3046   */\n      add\n        /* \"JaiHo/system-contracts/Staking.sol\":4723:4764  uint64 public stakingLockPeriod = 7776000 */\n      tag_50\n        /* \"#utility.yul\":2911:3111   */\n      jump\n        /* \"JaiHo/system-contracts/Staking.sol\":4689:4716  uint256 public totalPenalty */\n    tag_27:\n      callvalue\n      dup1\n      iszero\n      tag_156\n      jumpi\n      0x00\n      dup1\n      revert\n    tag_156:\n      pop\n      tag_48\n      sload(0x07)\n      dup2\n      jump\n        /* \"JaiHo/system-contracts/Staking.sol\":11402:11589  function getTotalStakeOfActiveStakers()... */\n    tag_28:\n      callvalue\n      dup1\n      iszero\n      tag_160\n      jumpi\n      0x00\n      dup1\n      revert\n    tag_160:\n      pop\n      tag_161\n      tag_162\n      jump\t// in\n    tag_161:\n      0x40\n      dup1\n      mload\n        /* \"#utility.yul\":3290:3315   */\n      swap3\n      dup4\n      mstore\n        /* \"#utility.yul\":3346:3348   */\n      0x20\n        /* \"#utility.yul\":3331:3349   */\n      dup4\n      add\n        /* \"#utility.yul\":3324:3358   */\n      swap2\n      swap1\n      swap2\n      mstore\n        /* \"#utility.yul\":3263:3281   */\n      add\n        /* \"JaiHo/system-contracts/Staking.sol\":11402:11589  function getTotalStakeOfActiveStakers()... */\n      tag_50\n        /* \"#utility.yul\":3116:3364   */\n      jump\n        /* \"JaiHo/system-contracts/Staking.sol\":13575:13719  function updateStakingLockPeriod(uint64 _stakingLockPeriod) external onlyOwner... */\n    tag_29:\n      callvalue\n      dup1\n      iszero\n      tag_165\n      jumpi\n      0x00\n      dup1\n      revert\n    tag_165:\n      pop\n      tag_43\n      tag_167\n      calldatasize\n      0x04\n      tag_45\n      jump\t// in\n    tag_167:\n      tag_168\n      jump\t// in\n        /* \"JaiHo/system-contracts/Staking.sol\":2735:2967  function transferOwnership(address newOwner) public virtual onlyOwner {... */\n    tag_30:\n      callvalue\n      dup1\n      iszero\n      tag_169\n      jumpi\n      0x00\n      dup1\n      revert\n    tag_169:\n      pop\n      tag_43\n      tag_171\n      calldatasize\n      0x04\n      tag_55\n      jump\t// in\n    tag_171:\n      tag_172\n      jump\t// in\n        /* \"JaiHo/system-contracts/Staking.sol\":12290:13219  function viewStakeReward(address _staker) public view returns(uint256 valReward, uint256 stakerReward){... */\n    tag_31:\n      callvalue\n      dup1\n      iszero\n      tag_173\n      jumpi\n      0x00\n      dup1\n      revert\n    tag_173:\n      pop\n      tag_161\n      tag_175\n      calldatasize\n      0x04\n      tag_55\n      jump\t// in\n    tag_175:\n      tag_176\n      jump\t// in\n        /* \"JaiHo/system-contracts/Staking.sol\":13348:13570  function updateMinimalStakingCoin(uint256 _MinimalStakingCoin... */\n    tag_32:\n      callvalue\n      dup1\n      iszero\n      tag_178\n      jumpi\n      0x00\n      dup1\n      revert\n    tag_178:\n      pop\n      tag_43\n      tag_180\n      calldatasize\n      0x04\n      tag_74\n      jump\t// in\n    tag_180:\n      tag_181\n      jump\t// in\n        /* \"JaiHo/system-contracts/Staking.sol\":4583:4616  address[] public currentStakerSet */\n    tag_33:\n      callvalue\n      dup1\n      iszero\n      tag_182\n      jumpi\n      0x00\n      dup1\n      revert\n    tag_182:\n      pop\n      tag_104\n      tag_184\n      calldatasize\n      0x04\n      tag_74\n      jump\t// in\n    tag_184:\n      tag_185\n      jump\t// in\n        /* \"JaiHo/system-contracts/Staking.sol\":4287:4393  InterfaceValidator public valDataContract = InterfaceValidator(0x0c4F6F3E5458AC81005EEF84521373904F18e36e) */\n    tag_34:\n      callvalue\n      dup1\n      iszero\n      tag_187\n      jumpi\n      0x00\n      dup1\n      revert\n    tag_187:\n      pop\n      sload(0x01)\n      tag_104\n      swap1\n      sub(shl(0xa0, 0x01), 0x01)\n      and\n      dup2\n      jump\n        /* \"JaiHo/system-contracts/Staking.sol\":13725:13934  function updatePenaltyPercentage(uint64 _penaltyPercentage) external onlyOwner... */\n    tag_46:\n        /* \"JaiHo/system-contracts/Staking.sol\":1748:1761  _checkOwner() */\n      tag_193\n        /* \"JaiHo/system-contracts/Staking.sol\":1748:1759  _checkOwner */\n      tag_194\n        /* \"JaiHo/system-contracts/Staking.sol\":1748:1761  _checkOwner() */\n      jump\t// in\n    tag_193:\n        /* \"JaiHo/system-contracts/Staking.sol\":13847:13852  10000 */\n      0x2710\n        /* \"JaiHo/system-contracts/Staking.sol\":13826:13844  _penaltyPercentage */\n      dup2\n      sub(shl(0x40, 0x01), 0x01)\n        /* \"JaiHo/system-contracts/Staking.sol\":13826:13852  _penaltyPercentage < 10000 */\n      and\n      lt\n        /* \"JaiHo/system-contracts/Staking.sol\":13818:13879  require(_penaltyPercentage < 10000, \"Penalty cannot be 100%\") */\n      tag_196\n      jumpi\n      mload(0x40)\n      shl(0xe5, 0x461bcd)\n      dup2\n      mstore\n        /* \"#utility.yul\":3805:3807   */\n      0x20\n        /* \"JaiHo/system-contracts/Staking.sol\":13818:13879  require(_penaltyPercentage < 10000, \"Penalty cannot be 100%\") */\n      0x04\n      dup3\n      add\n        /* \"#utility.yul\":3787:3808   */\n      mstore\n        /* \"#utility.yul\":3844:3846   */\n      0x16\n        /* \"#utility.yul\":3824:3842   */\n      0x24\n      dup3\n      add\n        /* \"#utility.yul\":3817:3847   */\n      mstore\n      shl(0x50, 0x50656e616c74792063616e6e6f742062652031303025)\n        /* \"#utility.yul\":3863:3881   */\n      0x44\n      dup3\n      add\n        /* \"#utility.yul\":3856:3908   */\n      mstore\n        /* \"#utility.yul\":3925:3943   */\n      0x64\n      add\n        /* \"JaiHo/system-contracts/Staking.sol\":13818:13879  require(_penaltyPercentage < 10000, \"Penalty cannot be 100%\") */\n    tag_197:\n      mload(0x40)\n      dup1\n      swap2\n      sub\n      swap1\n      revert\n    tag_196:\n      sub(shl(0x40, 0x01), 0x01)\n        /* \"JaiHo/system-contracts/Staking.sol\":13889:13927  penaltyPercentage = _penaltyPercentage */\n      and\n        /* \"JaiHo/system-contracts/Staking.sol\":13889:13906  penaltyPercentage */\n      0x09\n        /* \"JaiHo/system-contracts/Staking.sol\":13889:13927  penaltyPercentage = _penaltyPercentage */\n      sstore\n        /* \"JaiHo/system-contracts/Staking.sol\":13725:13934  function updatePenaltyPercentage(uint64 _penaltyPercentage) external onlyOwner... */\n      jump\t// out\n        /* \"JaiHo/system-contracts/Staking.sol\":6694:7865  function unstake() external returns (bool){ ... */\n    tag_60:\n        /* \"JaiHo/system-contracts/Staking.sol\":6781:6790  tx.origin */\n      origin\n        /* \"JaiHo/system-contracts/Staking.sol\":6731:6735  bool */\n      0x00\n        /* \"JaiHo/system-contracts/Staking.sol\":6826:6844  stakerInfo[staker] */\n      dup2\n      dup2\n      mstore\n        /* \"JaiHo/system-contracts/Staking.sol\":6826:6836  stakerInfo */\n      0x02\n        /* \"JaiHo/system-contracts/Staking.sol\":6826:6844  stakerInfo[staker] */\n      0x20\n      mstore\n      0x40\n      dup2\n      keccak256\n      sload\n        /* \"JaiHo/system-contracts/Staking.sol\":6731:6735  bool */\n      swap1\n      swap2\n        /* \"JaiHo/system-contracts/Staking.sol\":6781:6790  tx.origin */\n      swap1\n        /* \"JaiHo/system-contracts/Staking.sol\":6863:6880  unstakeAmount > 0 */\n      dup1\n        /* \"JaiHo/system-contracts/Staking.sol\":6855:6909  require(unstakeAmount > 0, \"You don't have any stake\") */\n      tag_200\n      jumpi\n      mload(0x40)\n      shl(0xe5, 0x461bcd)\n      dup2\n      mstore\n        /* \"#utility.yul\":4156:4158   */\n      0x20\n        /* \"JaiHo/system-contracts/Staking.sol\":6855:6909  require(unstakeAmount > 0, \"You don't have any stake\") */\n      0x04\n      dup3\n      add\n        /* \"#utility.yul\":4138:4159   */\n      mstore\n        /* \"#utility.yul\":4195:4197   */\n      0x18\n        /* \"#utility.yul\":4175:4193   */\n      0x24\n      dup3\n      add\n        /* \"#utility.yul\":4168:4198   */\n      mstore\n        /* \"#utility.yul\":4234:4260   */\n      0x596f7520646f6e2774206861766520616e79207374616b650000000000000000\n        /* \"#utility.yul\":4214:4232   */\n      0x44\n      dup3\n      add\n        /* \"#utility.yul\":4207:4261   */\n      mstore\n        /* \"#utility.yul\":4278:4296   */\n      0x64\n      add\n        /* \"JaiHo/system-contracts/Staking.sol\":6855:6909  require(unstakeAmount > 0, \"You don't have any stake\") */\n      tag_197\n        /* \"#utility.yul\":3954:4302   */\n      jump\n        /* \"JaiHo/system-contracts/Staking.sol\":6855:6909  require(unstakeAmount > 0, \"You don't have any stake\") */\n    tag_200:\n        /* \"JaiHo/system-contracts/Staking.sol\":6920:6949  withdrawStakingReward(staker) */\n      tag_203\n        /* \"JaiHo/system-contracts/Staking.sol\":6942:6948  staker */\n      dup3\n        /* \"JaiHo/system-contracts/Staking.sol\":6920:6941  withdrawStakingReward */\n      tag_92\n        /* \"JaiHo/system-contracts/Staking.sol\":6920:6949  withdrawStakingReward(staker) */\n      jump\t// in\n    tag_203:\n      pop\n      sub(shl(0xa0, 0x01), 0x01)\n        /* \"JaiHo/system-contracts/Staking.sol\":6989:7007  stakerInfo[staker] */\n      dup3\n      and\n      0x00\n      swap1\n      dup2\n      mstore\n        /* \"JaiHo/system-contracts/Staking.sol\":6989:6999  stakerInfo */\n      0x02\n        /* \"JaiHo/system-contracts/Staking.sol\":6989:7007  stakerInfo[staker] */\n      0x20\n      mstore\n      0x40\n      swap1\n      keccak256\n      sload\n        /* \"JaiHo/system-contracts/Staking.sol\":6989:7025  stakerInfo[staker] - (unstakeAmount) */\n      tag_204\n      swap1\n        /* \"JaiHo/system-contracts/Staking.sol\":7011:7024  unstakeAmount */\n      dup3\n      swap1\n        /* \"JaiHo/system-contracts/Staking.sol\":6989:7025  stakerInfo[staker] - (unstakeAmount) */\n      tag_205\n      jump\t// in\n    tag_204:\n      sub(shl(0xa0, 0x01), 0x01)\n        /* \"JaiHo/system-contracts/Staking.sol\":6968:6986  stakerInfo[staker] */\n      dup4\n      and\n      0x00\n      swap1\n      dup2\n      mstore\n        /* \"JaiHo/system-contracts/Staking.sol\":6968:6978  stakerInfo */\n      0x02\n        /* \"JaiHo/system-contracts/Staking.sol\":6968:6986  stakerInfo[staker] */\n      0x20\n      mstore\n      0x40\n      swap1\n      keccak256\n        /* \"JaiHo/system-contracts/Staking.sol\":6968:7025  stakerInfo[staker] = stakerInfo[staker] - (unstakeAmount) */\n      sstore\n        /* \"JaiHo/system-contracts/Staking.sol\":7056:7066  totalStake */\n      sload(0x06)\n        /* \"JaiHo/system-contracts/Staking.sol\":7056:7084  totalStake - (unstakeAmount) */\n      tag_206\n      swap1\n        /* \"JaiHo/system-contracts/Staking.sol\":7070:7083  unstakeAmount */\n      dup3\n      swap1\n        /* \"JaiHo/system-contracts/Staking.sol\":7056:7084  totalStake - (unstakeAmount) */\n      tag_205\n      jump\t// in\n    tag_206:\n        /* \"JaiHo/system-contracts/Staking.sol\":7043:7053  totalStake */\n      0x06\n        /* \"JaiHo/system-contracts/Staking.sol\":7043:7084  totalStake = totalStake - (unstakeAmount) */\n      sstore\n        /* \"JaiHo/system-contracts/Staking.sol\":7095:7130  removeStakerFromCurrrentSet(staker) */\n      tag_207\n        /* \"JaiHo/system-contracts/Staking.sol\":7123:7129  staker */\n      dup3\n        /* \"JaiHo/system-contracts/Staking.sol\":7095:7122  removeStakerFromCurrrentSet */\n      tag_208\n        /* \"JaiHo/system-contracts/Staking.sol\":7095:7130  removeStakerFromCurrrentSet(staker) */\n      jump\t// in\n    tag_207:\n        /* \"JaiHo/system-contracts/Staking.sol\":7237:7254  stakingLockPeriod */\n      sload(0x08)\n      sub(shl(0xa0, 0x01), 0x01)\n        /* \"JaiHo/system-contracts/Staking.sol\":7217:7234  stakeTime[staker] */\n      dup4\n      and\n        /* \"JaiHo/system-contracts/Staking.sol\":7141:7158  uint256 remaining */\n      0x00\n        /* \"JaiHo/system-contracts/Staking.sol\":7217:7234  stakeTime[staker] */\n      swap1\n      dup2\n      mstore\n        /* \"JaiHo/system-contracts/Staking.sol\":7217:7226  stakeTime */\n      0x0b\n        /* \"JaiHo/system-contracts/Staking.sol\":7217:7234  stakeTime[staker] */\n      0x20\n      mstore\n      0x40\n      dup2\n      keccak256\n      sload\n        /* \"JaiHo/system-contracts/Staking.sol\":7141:7158  uint256 remaining */\n      swap1\n      swap2\n      dup3\n      swap2\n        /* \"JaiHo/system-contracts/Staking.sol\":7217:7254  stakeTime[staker] + stakingLockPeriod */\n      tag_209\n      swap2\n      sub(shl(0x40, 0x01), 0x01)\n        /* \"JaiHo/system-contracts/Staking.sol\":7237:7254  stakingLockPeriod */\n      and\n      swap1\n        /* \"JaiHo/system-contracts/Staking.sol\":7217:7254  stakeTime[staker] + stakingLockPeriod */\n      tag_210\n      jump\t// in\n    tag_209:\n        /* \"JaiHo/system-contracts/Staking.sol\":7197:7212  block.timestamp */\n      timestamp\n        /* \"JaiHo/system-contracts/Staking.sol\":7197:7255  block.timestamp <= (stakeTime[staker] + stakingLockPeriod) */\n      gt\n      iszero\n        /* \"JaiHo/system-contracts/Staking.sol\":7197:7280  block.timestamp <= (stakeTime[staker] + stakingLockPeriod) && penaltyPercentage > 0 */\n      dup1\n      iszero\n      tag_211\n      jumpi\n      pop\n        /* \"JaiHo/system-contracts/Staking.sol\":7279:7280  0 */\n      0x00\n        /* \"JaiHo/system-contracts/Staking.sol\":7259:7276  penaltyPercentage */\n      sload(0x09)\n        /* \"JaiHo/system-contracts/Staking.sol\":7259:7280  penaltyPercentage > 0 */\n      gt\n        /* \"JaiHo/system-contracts/Staking.sol\":7197:7280  block.timestamp <= (stakeTime[staker] + stakingLockPeriod) && penaltyPercentage > 0 */\n    tag_211:\n        /* \"JaiHo/system-contracts/Staking.sol\":7194:7687  if(block.timestamp <= (stakeTime[staker] + stakingLockPeriod) && penaltyPercentage > 0) {... */\n      iszero\n      tag_212\n      jumpi\n        /* \"JaiHo/system-contracts/Staking.sol\":7345:7350  10000 */\n      0x2710\n        /* \"JaiHo/system-contracts/Staking.sol\":7324:7341  penaltyPercentage */\n      sload(0x09)\n        /* \"JaiHo/system-contracts/Staking.sol\":7308:7321  unstakeAmount */\n      dup5\n        /* \"JaiHo/system-contracts/Staking.sol\":7308:7341  unstakeAmount * penaltyPercentage */\n      tag_213\n      swap2\n      swap1\n      tag_214\n      jump\t// in\n    tag_213:\n        /* \"JaiHo/system-contracts/Staking.sol\":7307:7350  (unstakeAmount * penaltyPercentage) / 10000 */\n      tag_215\n      swap2\n      swap1\n      tag_216\n      jump\t// in\n    tag_215:\n        /* \"JaiHo/system-contracts/Staking.sol\":7296:7351  penalty = ((unstakeAmount * penaltyPercentage) / 10000) */\n      swap1\n      pop\n        /* \"JaiHo/system-contracts/Staking.sol\":7442:7465  unstakeAmount - penalty */\n      tag_217\n        /* \"JaiHo/system-contracts/Staking.sol\":7296:7351  penalty = ((unstakeAmount * penaltyPercentage) / 10000) */\n      dup2\n        /* \"JaiHo/system-contracts/Staking.sol\":7442:7455  unstakeAmount */\n      dup5\n        /* \"JaiHo/system-contracts/Staking.sol\":7442:7465  unstakeAmount - penalty */\n      tag_205\n      jump\t// in\n    tag_217:\n        /* \"JaiHo/system-contracts/Staking.sol\":7430:7465  remaining = unstakeAmount - penalty */\n      swap2\n      pop\n        /* \"JaiHo/system-contracts/Staking.sol\":7509:7516  penalty */\n      dup1\n        /* \"JaiHo/system-contracts/Staking.sol\":7494:7506  totalPenalty */\n      sload(0x07)\n        /* \"JaiHo/system-contracts/Staking.sol\":7494:7516  totalPenalty + penalty */\n      tag_218\n      swap2\n      swap1\n      tag_210\n      jump\t// in\n    tag_218:\n        /* \"JaiHo/system-contracts/Staking.sol\":7479:7491  totalPenalty */\n      0x07\n        /* \"JaiHo/system-contracts/Staking.sol\":7479:7516  totalPenalty = totalPenalty + penalty */\n      sstore\n        /* \"JaiHo/system-contracts/Staking.sol\":7530:7565  payable(staker).transfer(remaining) */\n      mload(0x40)\n      sub(shl(0xa0, 0x01), 0x01)\n        /* \"JaiHo/system-contracts/Staking.sol\":7530:7554  payable(staker).transfer */\n      dup6\n      and\n      swap1\n        /* \"JaiHo/system-contracts/Staking.sol\":7530:7565  payable(staker).transfer(remaining) */\n      dup4\n      iszero\n      0x08fc\n      mul\n      swap1\n        /* \"JaiHo/system-contracts/Staking.sol\":7555:7564  remaining */\n      dup5\n      swap1\n        /* \"JaiHo/system-contracts/Staking.sol\":7530:7565  payable(staker).transfer(remaining) */\n      0x00\n      dup2\n      dup2\n      dup2\n        /* \"JaiHo/system-contracts/Staking.sol\":7555:7564  remaining */\n      dup6\n        /* \"JaiHo/system-contracts/Staking.sol\":7530:7554  payable(staker).transfer */\n      dup9\n        /* \"JaiHo/system-contracts/Staking.sol\":7530:7565  payable(staker).transfer(remaining) */\n      dup9\n      call\n      swap4\n      pop\n      pop\n      pop\n      pop\n      iszero\n      dup1\n      iszero\n      tag_220\n      jumpi\n      returndatasize\n      0x00\n      dup1\n      returndatacopy\n      revert(0x00, returndatasize)\n    tag_220:\n      pop\n        /* \"JaiHo/system-contracts/Staking.sol\":7194:7687  if(block.timestamp <= (stakeTime[staker] + stakingLockPeriod) && penaltyPercentage > 0) {... */\n      jump(tag_221)\n    tag_212:\n        /* \"JaiHo/system-contracts/Staking.sol\":7637:7676  payable(staker).transfer(unstakeAmount) */\n      mload(0x40)\n      sub(shl(0xa0, 0x01), 0x01)\n        /* \"JaiHo/system-contracts/Staking.sol\":7637:7661  payable(staker).transfer */\n      dup6\n      and\n      swap1\n        /* \"JaiHo/system-contracts/Staking.sol\":7637:7676  payable(staker).transfer(unstakeAmount) */\n      dup5\n      iszero\n      0x08fc\n      mul\n      swap1\n        /* \"JaiHo/system-contracts/Staking.sol\":7662:7675  unstakeAmount */\n      dup6\n      swap1\n        /* \"JaiHo/system-contracts/Staking.sol\":7637:7676  payable(staker).transfer(unstakeAmount) */\n      0x00\n      dup2\n      dup2\n      dup2\n        /* \"JaiHo/system-contracts/Staking.sol\":7662:7675  unstakeAmount */\n      dup6\n        /* \"JaiHo/system-contracts/Staking.sol\":7637:7661  payable(staker).transfer */\n      dup9\n        /* \"JaiHo/system-contracts/Staking.sol\":7637:7676  payable(staker).transfer(unstakeAmount) */\n      dup9\n      call\n      swap4\n      pop\n      pop\n      pop\n      pop\n      iszero\n      dup1\n      iszero\n      tag_223\n      jumpi\n      returndatasize\n      0x00\n      dup1\n      returndatacopy\n      revert(0x00, returndatasize)\n    tag_223:\n      pop\n        /* \"JaiHo/system-contracts/Staking.sol\":7194:7687  if(block.timestamp <= (stakeTime[staker] + stakingLockPeriod) && penaltyPercentage > 0) {... */\n    tag_221:\n      sub(shl(0xa0, 0x01), 0x01)\n        /* \"JaiHo/system-contracts/Staking.sol\":7697:7725  rewardWithdrawalTime[staker] */\n      dup5\n      and\n        /* \"JaiHo/system-contracts/Staking.sol\":7728:7729  0 */\n      0x00\n        /* \"JaiHo/system-contracts/Staking.sol\":7697:7725  rewardWithdrawalTime[staker] */\n      dup2\n      dup2\n      mstore\n        /* \"JaiHo/system-contracts/Staking.sol\":7697:7717  rewardWithdrawalTime */\n      0x0a\n        /* \"JaiHo/system-contracts/Staking.sol\":7697:7725  rewardWithdrawalTime[staker] */\n      0x20\n      swap1\n      dup2\n      mstore\n      0x40\n      dup1\n      dup4\n      keccak256\n        /* \"JaiHo/system-contracts/Staking.sol\":7697:7729  rewardWithdrawalTime[staker] = 0 */\n      dup4\n      swap1\n      sstore\n        /* \"JaiHo/system-contracts/Staking.sol\":7740:7749  stakeTime */\n      0x0b\n        /* \"JaiHo/system-contracts/Staking.sol\":7740:7757  stakeTime[staker] */\n      dup3\n      mstore\n      dup1\n      dup4\n      keccak256\n        /* \"JaiHo/system-contracts/Staking.sol\":7740:7761  stakeTime[staker] = 0 */\n      swap3\n      swap1\n      swap3\n      sstore\n        /* \"JaiHo/system-contracts/Staking.sol\":7778:7837  LogUnstake(staker, unstakeAmount, penalty, block.timestamp) */\n      dup2\n      mload\n        /* \"#utility.yul\":5299:5324   */\n      dup7\n      dup2\n      mstore\n        /* \"#utility.yul\":5340:5358   */\n      swap1\n      dup2\n      add\n        /* \"#utility.yul\":5333:5367   */\n      dup5\n      swap1\n      mstore\n        /* \"JaiHo/system-contracts/Staking.sol\":7821:7836  block.timestamp */\n      timestamp\n        /* \"#utility.yul\":5383:5401   */\n      dup2\n      dup4\n      add\n        /* \"#utility.yul\":5376:5410   */\n      mstore\n        /* \"JaiHo/system-contracts/Staking.sol\":7778:7837  LogUnstake(staker, unstakeAmount, penalty, block.timestamp) */\n      swap1\n      mload\n      0x753014cc7945cb3c93016ecb5bc2a66e26d69971a934fcfe2a882794cb344827\n      swap2\n      dup2\n      swap1\n      sub\n        /* \"#utility.yul\":5287:5289   */\n      0x60\n        /* \"JaiHo/system-contracts/Staking.sol\":7778:7837  LogUnstake(staker, unstakeAmount, penalty, block.timestamp) */\n      add\n      swap1\n      log2\n        /* \"JaiHo/system-contracts/Staking.sol\":7854:7858  true */\n      0x01\n        /* \"JaiHo/system-contracts/Staking.sol\":7847:7858  return true */\n      swap5\n      pop\n      pop\n      pop\n      pop\n      pop\n        /* \"JaiHo/system-contracts/Staking.sol\":6694:7865  function unstake() external returns (bool){ ... */\n      swap1\n      jump\t// out\n        /* \"JaiHo/system-contracts/Staking.sol\":5619:6688  function stake()... */\n    tag_64:\n        /* \"JaiHo/system-contracts/Staking.sol\":5815:5833  MinimalStakingCoin */\n      sload(0x03)\n        /* \"JaiHo/system-contracts/Staking.sol\":5684:5688  bool */\n      0x00\n      swap1\n        /* \"JaiHo/system-contracts/Staking.sol\":5737:5747  msg.sender */\n      caller\n      swap1\n        /* \"JaiHo/system-contracts/Staking.sol\":5776:5785  msg.value */\n      callvalue\n      swap1\n        /* \"JaiHo/system-contracts/Staking.sol\":5804:5833  staking >= MinimalStakingCoin */\n      dup2\n      lt\n      iszero\n        /* \"JaiHo/system-contracts/Staking.sol\":5796:5874  require(staking >= MinimalStakingCoin,... */\n      tag_227\n      jumpi\n      mload(0x40)\n      shl(0xe5, 0x461bcd)\n      dup2\n      mstore\n        /* \"#utility.yul\":5623:5625   */\n      0x20\n        /* \"JaiHo/system-contracts/Staking.sol\":5796:5874  require(staking >= MinimalStakingCoin,... */\n      0x04\n      dup3\n      add\n        /* \"#utility.yul\":5605:5626   */\n      mstore\n        /* \"#utility.yul\":5662:5664   */\n      0x18\n        /* \"#utility.yul\":5642:5660   */\n      0x24\n      dup3\n      add\n        /* \"#utility.yul\":5635:5665   */\n      mstore\n        /* \"#utility.yul\":5701:5727   */\n      0x5374616b696e6720636f696e73206e6f7420656e6f7567680000000000000000\n        /* \"#utility.yul\":5681:5699   */\n      0x44\n      dup3\n      add\n        /* \"#utility.yul\":5674:5728   */\n      mstore\n        /* \"#utility.yul\":5745:5763   */\n      0x64\n      add\n        /* \"JaiHo/system-contracts/Staking.sol\":5796:5874  require(staking >= MinimalStakingCoin,... */\n      tag_197\n        /* \"#utility.yul\":5421:5769   */\n      jump\n        /* \"JaiHo/system-contracts/Staking.sol\":5796:5874  require(staking >= MinimalStakingCoin,... */\n    tag_227:\n        /* \"JaiHo/system-contracts/Staking.sol\":5934:5944  MaxStakers */\n      sload(0x04)\n        /* \"JaiHo/system-contracts/Staking.sol\":5907:5923  currentStakerSet */\n      0x05\n        /* \"JaiHo/system-contracts/Staking.sol\":5907:5930  currentStakerSet.length */\n      sload\n        /* \"JaiHo/system-contracts/Staking.sol\":5934:5944  MaxStakers */\n      0xffff\n      swap1\n      swap2\n      and\n      gt\n        /* \"JaiHo/system-contracts/Staking.sol\":5885:5994  require(... */\n      tag_230\n      jumpi\n      mload(0x40)\n      shl(0xe5, 0x461bcd)\n      dup2\n      mstore\n        /* \"#utility.yul\":5976:5978   */\n      0x20\n        /* \"JaiHo/system-contracts/Staking.sol\":5885:5994  require(... */\n      0x04\n      dup3\n      add\n        /* \"#utility.yul\":5958:5979   */\n      mstore\n        /* \"#utility.yul\":6015:6017   */\n      0x18\n        /* \"#utility.yul\":5995:6013   */\n      0x24\n      dup3\n      add\n        /* \"#utility.yul\":5988:6018   */\n      mstore\n        /* \"#utility.yul\":6054:6080   */\n      0x43616e2774207374616b6520736c6f742069732066756c6c0000000000000000\n        /* \"#utility.yul\":6034:6052   */\n      0x44\n      dup3\n      add\n        /* \"#utility.yul\":6027:6081   */\n      mstore\n        /* \"#utility.yul\":6098:6116   */\n      0x64\n      add\n        /* \"JaiHo/system-contracts/Staking.sol\":5885:5994  require(... */\n      tag_197\n        /* \"#utility.yul\":5774:6122   */\n      jump\n        /* \"JaiHo/system-contracts/Staking.sol\":5885:5994  require(... */\n    tag_230:\n      sub(shl(0xa0, 0x01), 0x01)\n        /* \"JaiHo/system-contracts/Staking.sol\":6065:6083  stakerInfo[staker] */\n      dup3\n      and\n      0x00\n      swap1\n      dup2\n      mstore\n        /* \"JaiHo/system-contracts/Staking.sol\":6065:6075  stakerInfo */\n      0x02\n        /* \"JaiHo/system-contracts/Staking.sol\":6065:6083  stakerInfo[staker] */\n      0x20\n      mstore\n      0x40\n      dup2\n      keccak256\n      sload\n        /* \"JaiHo/system-contracts/Staking.sol\":6065:6088  stakerInfo[staker] == 0 */\n      swap1\n      sub\n        /* \"JaiHo/system-contracts/Staking.sol\":6061:6398  if (stakerInfo[staker] == 0) {... */\n      tag_233\n      jumpi\n        /* \"JaiHo/system-contracts/Staking.sol\":6107:6121  lastRewardTime */\n      sload(0x0d)\n        /* \"JaiHo/system-contracts/Staking.sol\":6125:6126  0 */\n      0x00\n        /* \"JaiHo/system-contracts/Staking.sol\":6107:6126  lastRewardTime == 0 */\n      sub\n        /* \"JaiHo/system-contracts/Staking.sol\":6104:6205  if(lastRewardTime == 0)... */\n      tag_234\n      jumpi\n        /* \"JaiHo/system-contracts/Staking.sol\":6175:6190  block.timestamp */\n      timestamp\n        /* \"JaiHo/system-contracts/Staking.sol\":6158:6172  lastRewardTime */\n      0x0d\n        /* \"JaiHo/system-contracts/Staking.sol\":6158:6190  lastRewardTime = block.timestamp */\n      sstore\n        /* \"JaiHo/system-contracts/Staking.sol\":6104:6205  if(lastRewardTime == 0)... */\n    tag_234:\n        /* \"JaiHo/system-contracts/Staking.sol\":6249:6263  lastRewardTime */\n      sload(0x0d)\n      sub(shl(0xa0, 0x01), 0x01)\n        /* \"JaiHo/system-contracts/Staking.sol\":6218:6246  rewardWithdrawalTime[staker] */\n      dup4\n      and\n      0x00\n      swap1\n      dup2\n      mstore\n        /* \"JaiHo/system-contracts/Staking.sol\":6218:6238  rewardWithdrawalTime */\n      0x0a\n        /* \"JaiHo/system-contracts/Staking.sol\":6218:6246  rewardWithdrawalTime[staker] */\n      0x20\n      swap1\n      dup2\n      mstore\n      0x40\n      dup1\n      dup4\n      keccak256\n        /* \"JaiHo/system-contracts/Staking.sol\":6218:6263  rewardWithdrawalTime[staker] = lastRewardTime */\n      dup5\n      swap1\n      sstore\n        /* \"JaiHo/system-contracts/Staking.sol\":6277:6286  stakeTime */\n      0x0b\n        /* \"JaiHo/system-contracts/Staking.sol\":6277:6294  stakeTime[staker] */\n      swap1\n      swap2\n      mstore\n      swap1\n      keccak256\n        /* \"JaiHo/system-contracts/Staking.sol\":6277:6311  stakeTime[staker] = lastRewardTime */\n      sstore\n        /* \"JaiHo/system-contracts/Staking.sol\":6061:6398  if (stakerInfo[staker] == 0) {... */\n      jump(tag_235)\n    tag_233:\n        /* \"JaiHo/system-contracts/Staking.sol\":6358:6387  withdrawStakingReward(staker) */\n      tag_236\n        /* \"JaiHo/system-contracts/Staking.sol\":6380:6386  staker */\n      dup3\n        /* \"JaiHo/system-contracts/Staking.sol\":6358:6379  withdrawStakingReward */\n      tag_92\n        /* \"JaiHo/system-contracts/Staking.sol\":6358:6387  withdrawStakingReward(staker) */\n      jump\t// in\n    tag_236:\n      pop\n        /* \"JaiHo/system-contracts/Staking.sol\":6061:6398  if (stakerInfo[staker] == 0) {... */\n    tag_235:\n      sub(shl(0xa0, 0x01), 0x01)\n        /* \"JaiHo/system-contracts/Staking.sol\":6429:6447  stakerInfo[staker] */\n      dup3\n      and\n      0x00\n      swap1\n      dup2\n      mstore\n        /* \"JaiHo/system-contracts/Staking.sol\":6429:6439  stakerInfo */\n      0x02\n        /* \"JaiHo/system-contracts/Staking.sol\":6429:6447  stakerInfo[staker] */\n      0x20\n      mstore\n      0x40\n      swap1\n      keccak256\n      sload\n        /* \"JaiHo/system-contracts/Staking.sol\":6429:6459  stakerInfo[staker] + (staking) */\n      tag_237\n      swap1\n        /* \"JaiHo/system-contracts/Staking.sol\":6451:6458  staking */\n      dup3\n      swap1\n        /* \"JaiHo/system-contracts/Staking.sol\":6429:6459  stakerInfo[staker] + (staking) */\n      tag_210\n      jump\t// in\n    tag_237:\n      sub(shl(0xa0, 0x01), 0x01)\n        /* \"JaiHo/system-contracts/Staking.sol\":6408:6426  stakerInfo[staker] */\n      dup4\n      and\n      0x00\n      swap1\n      dup2\n      mstore\n        /* \"JaiHo/system-contracts/Staking.sol\":6408:6418  stakerInfo */\n      0x02\n        /* \"JaiHo/system-contracts/Staking.sol\":6408:6426  stakerInfo[staker] */\n      0x20\n      mstore\n      0x40\n      swap1\n      keccak256\n        /* \"JaiHo/system-contracts/Staking.sol\":6408:6459  stakerInfo[staker] = stakerInfo[staker] + (staking) */\n      sstore\n        /* \"JaiHo/system-contracts/Staking.sol\":6475:6497  isActiveStaker(staker) */\n      tag_238\n        /* \"JaiHo/system-contracts/Staking.sol\":6419:6425  staker */\n      dup3\n        /* \"JaiHo/system-contracts/Staking.sol\":6475:6489  isActiveStaker */\n      tag_84\n        /* \"JaiHo/system-contracts/Staking.sol\":6475:6497  isActiveStaker(staker) */\n      jump\t// in\n    tag_238:\n        /* \"JaiHo/system-contracts/Staking.sol\":6470:6557  if (!isActiveStaker(staker)) {... */\n      tag_239\n      jumpi\n        /* \"JaiHo/system-contracts/Staking.sol\":6517:6533  currentStakerSet */\n      0x05\n        /* \"JaiHo/system-contracts/Staking.sol\":6517:6546  currentStakerSet.push(staker) */\n      dup1\n      sload\n      0x01\n      dup2\n      add\n      dup3\n      sstore\n      0x00\n      swap2\n      swap1\n      swap2\n      mstore\n      0x036b6384b5eca791c62761152d0c79bb0604c104a5fb6f4eb0703f3154bb3db0\n      add\n      dup1\n      sload\n      not(sub(shl(0xa0, 0x01), 0x01))\n      and\n      sub(shl(0xa0, 0x01), 0x01)\n      dup5\n      and\n      or\n      swap1\n      sstore\n        /* \"JaiHo/system-contracts/Staking.sol\":6470:6557  if (!isActiveStaker(staker)) {... */\n    tag_239:\n        /* \"JaiHo/system-contracts/Staking.sol\":6594:6601  staking */\n      dup1\n        /* \"JaiHo/system-contracts/Staking.sol\":6580:6590  totalStake */\n      sload(0x06)\n        /* \"JaiHo/system-contracts/Staking.sol\":6580:6602  totalStake + (staking) */\n      tag_241\n      swap2\n      swap1\n      tag_210\n      jump\t// in\n    tag_241:\n        /* \"JaiHo/system-contracts/Staking.sol\":6567:6577  totalStake */\n      0x06\n        /* \"JaiHo/system-contracts/Staking.sol\":6567:6602  totalStake = totalStake + (staking) */\n      sstore\n        /* \"JaiHo/system-contracts/Staking.sol\":6618:6660  LogStake(staker, staking, block.timestamp) */\n      0x40\n      dup1\n      mload\n        /* \"#utility.yul\":3290:3315   */\n      dup3\n      dup2\n      mstore\n        /* \"JaiHo/system-contracts/Staking.sol\":6644:6659  block.timestamp */\n      timestamp\n        /* \"#utility.yul\":3346:3348   */\n      0x20\n        /* \"#utility.yul\":3331:3349   */\n      dup3\n      add\n        /* \"#utility.yul\":3324:3358   */\n      mstore\n      sub(shl(0xa0, 0x01), 0x01)\n        /* \"JaiHo/system-contracts/Staking.sol\":6618:6660  LogStake(staker, staking, block.timestamp) */\n      dup5\n      and\n      swap2\n      0xa0d1fa51224fb08c7c0b48d481448ad6a31c945d1a68cac8758cac3a92d5001c\n      swap2\n        /* \"#utility.yul\":3263:3281   */\n      add\n        /* \"JaiHo/system-contracts/Staking.sol\":6618:6660  LogStake(staker, staking, block.timestamp) */\n      mload(0x40)\n      dup1\n      swap2\n      sub\n      swap1\n      log2\n        /* \"JaiHo/system-contracts/Staking.sol\":6677:6681  true */\n      0x01\n        /* \"JaiHo/system-contracts/Staking.sol\":6670:6681  return true */\n      swap3\n      pop\n      pop\n      pop\n        /* \"JaiHo/system-contracts/Staking.sol\":5619:6688  function stake()... */\n      swap1\n      jump\t// out\n        /* \"JaiHo/system-contracts/Staking.sol\":10861:11091  function checkforpenalty(address staker) external view returns(bool isPenalty)... */\n    tag_69:\n        /* \"JaiHo/system-contracts/Staking.sol\":10998:11015  stakingLockPeriod */\n      sload(0x08)\n      sub(shl(0xa0, 0x01), 0x01)\n        /* \"JaiHo/system-contracts/Staking.sol\":10978:10995  stakeTime[staker] */\n      dup3\n      and\n        /* \"JaiHo/system-contracts/Staking.sol\":10924:10938  bool isPenalty */\n      0x00\n        /* \"JaiHo/system-contracts/Staking.sol\":10978:10995  stakeTime[staker] */\n      swap1\n      dup2\n      mstore\n        /* \"JaiHo/system-contracts/Staking.sol\":10978:10987  stakeTime */\n      0x0b\n        /* \"JaiHo/system-contracts/Staking.sol\":10978:10995  stakeTime[staker] */\n      0x20\n      mstore\n      0x40\n      dup2\n      keccak256\n      sload\n        /* \"JaiHo/system-contracts/Staking.sol\":10924:10938  bool isPenalty */\n      swap1\n      swap2\n        /* \"JaiHo/system-contracts/Staking.sol\":10978:11015  stakeTime[staker] + stakingLockPeriod */\n      tag_244\n      swap2\n      sub(shl(0x40, 0x01), 0x01)\n        /* \"JaiHo/system-contracts/Staking.sol\":10998:11015  stakingLockPeriod */\n      swap1\n      swap2\n      and\n      swap1\n        /* \"JaiHo/system-contracts/Staking.sol\":10978:11015  stakeTime[staker] + stakingLockPeriod */\n      tag_210\n      jump\t// in\n    tag_244:\n        /* \"JaiHo/system-contracts/Staking.sol\":10958:10973  block.timestamp */\n      timestamp\n        /* \"JaiHo/system-contracts/Staking.sol\":10958:11016  block.timestamp <= (stakeTime[staker] + stakingLockPeriod) */\n      gt\n      iszero\n        /* \"JaiHo/system-contracts/Staking.sol\":10958:11041  block.timestamp <= (stakeTime[staker] + stakingLockPeriod) && penaltyPercentage > 0 */\n      dup1\n      iszero\n      tag_245\n      jumpi\n      pop\n        /* \"JaiHo/system-contracts/Staking.sol\":11040:11041  0 */\n      0x00\n        /* \"JaiHo/system-contracts/Staking.sol\":11020:11037  penaltyPercentage */\n      sload(0x09)\n        /* \"JaiHo/system-contracts/Staking.sol\":11020:11041  penaltyPercentage > 0 */\n      gt\n        /* \"JaiHo/system-contracts/Staking.sol\":10958:11041  block.timestamp <= (stakeTime[staker] + stakingLockPeriod) && penaltyPercentage > 0 */\n    tag_245:\n        /* \"JaiHo/system-contracts/Staking.sol\":10955:11085  if(block.timestamp <= (stakeTime[staker] + stakingLockPeriod) && penaltyPercentage > 0) {... */\n      iszero\n      tag_246\n      jumpi\n      pop\n        /* \"JaiHo/system-contracts/Staking.sol\":11069:11073  true */\n      0x01\n        /* \"JaiHo/system-contracts/Staking.sol\":10955:11085  if(block.timestamp <= (stakeTime[staker] + stakingLockPeriod) && penaltyPercentage > 0) {... */\n    tag_246:\n        /* \"JaiHo/system-contracts/Staking.sol\":10861:11091  function checkforpenalty(address staker) external view returns(bool isPenalty)... */\n      swap2\n      swap1\n      pop\n      jump\t// out\n        /* \"JaiHo/system-contracts/Staking.sol\":14304:14525  function updateValidatorDataContract(address _validatorData) external onlyOwner... */\n    tag_80:\n        /* \"JaiHo/system-contracts/Staking.sol\":1748:1761  _checkOwner() */\n      tag_248\n        /* \"JaiHo/system-contracts/Staking.sol\":1748:1759  _checkOwner */\n      tag_194\n        /* \"JaiHo/system-contracts/Staking.sol\":1748:1761  _checkOwner() */\n      jump\t// in\n    tag_248:\n      sub(shl(0xa0, 0x01), 0x01)\n        /* \"JaiHo/system-contracts/Staking.sol\":14406:14434  _validatorData != address(0) */\n      dup2\n      and\n        /* \"JaiHo/system-contracts/Staking.sol\":14398:14455  require(_validatorData != address(0), \"invalid contract\") */\n      tag_250\n      jumpi\n      mload(0x40)\n      shl(0xe5, 0x461bcd)\n      dup2\n      mstore\n        /* \"#utility.yul\":6329:6331   */\n      0x20\n        /* \"JaiHo/system-contracts/Staking.sol\":14398:14455  require(_validatorData != address(0), \"invalid contract\") */\n      0x04\n      dup3\n      add\n        /* \"#utility.yul\":6311:6332   */\n      mstore\n        /* \"#utility.yul\":6368:6370   */\n      0x10\n        /* \"#utility.yul\":6348:6366   */\n      0x24\n      dup3\n      add\n        /* \"#utility.yul\":6341:6371   */\n      mstore\n      shl(0x82, 0x1a5b9d985b1a590818dbdb9d1c9858dd)\n        /* \"#utility.yul\":6387:6405   */\n      0x44\n      dup3\n      add\n        /* \"#utility.yul\":6380:6426   */\n      mstore\n        /* \"#utility.yul\":6443:6461   */\n      0x64\n      add\n        /* \"JaiHo/system-contracts/Staking.sol\":14398:14455  require(_validatorData != address(0), \"invalid contract\") */\n      tag_197\n        /* \"#utility.yul\":6127:6467   */\n      jump\n        /* \"JaiHo/system-contracts/Staking.sol\":14398:14455  require(_validatorData != address(0), \"invalid contract\") */\n    tag_250:\n        /* \"JaiHo/system-contracts/Staking.sol\":14466:14481  valDataContract */\n      0x01\n        /* \"JaiHo/system-contracts/Staking.sol\":14466:14518  valDataContract = InterfaceValidator(_validatorData) */\n      dup1\n      sload\n      not(sub(shl(0xa0, 0x01), 0x01))\n      and\n      sub(shl(0xa0, 0x01), 0x01)\n      swap3\n      swap1\n      swap3\n      and\n      swap2\n      swap1\n      swap2\n      or\n      swap1\n      sstore\n        /* \"JaiHo/system-contracts/Staking.sol\":14304:14525  function updateValidatorDataContract(address _validatorData) external onlyOwner... */\n      jump\t// out\n        /* \"JaiHo/system-contracts/Staking.sol\":12027:12284  function isActiveStaker(address who) public view returns (bool) {... */\n    tag_84:\n        /* \"JaiHo/system-contracts/Staking.sol\":12085:12089  bool */\n      0x00\n      dup1\n        /* \"JaiHo/system-contracts/Staking.sol\":12101:12255  for (uint256 i = 0; i < currentStakerSet.length; i++) {... */\n    tag_254:\n        /* \"JaiHo/system-contracts/Staking.sol\":12125:12141  currentStakerSet */\n      0x05\n        /* \"JaiHo/system-contracts/Staking.sol\":12125:12148  currentStakerSet.length */\n      sload\n        /* \"JaiHo/system-contracts/Staking.sol\":12121:12148  i < currentStakerSet.length */\n      dup2\n      lt\n        /* \"JaiHo/system-contracts/Staking.sol\":12101:12255  for (uint256 i = 0; i < currentStakerSet.length; i++) {... */\n      iszero\n      tag_255\n      jumpi\n        /* \"JaiHo/system-contracts/Staking.sol\":12196:12199  who */\n      dup3\n      sub(shl(0xa0, 0x01), 0x01)\n        /* \"JaiHo/system-contracts/Staking.sol\":12173:12199  currentStakerSet[i] == who */\n      and\n        /* \"JaiHo/system-contracts/Staking.sol\":12173:12189  currentStakerSet */\n      0x05\n        /* \"JaiHo/system-contracts/Staking.sol\":12190:12191  i */\n      dup3\n        /* \"JaiHo/system-contracts/Staking.sol\":12173:12192  currentStakerSet[i] */\n      dup2\n      sload\n      dup2\n      lt\n      tag_258\n      jumpi\n      tag_258\n      tag_259\n      jump\t// in\n    tag_258:\n      0x00\n      swap2\n      dup3\n      mstore\n      0x20\n      swap1\n      swap2\n      keccak256\n      add\n      sload\n      sub(shl(0xa0, 0x01), 0x01)\n      and\n        /* \"JaiHo/system-contracts/Staking.sol\":12173:12199  currentStakerSet[i] == who */\n      sub\n        /* \"JaiHo/system-contracts/Staking.sol\":12169:12245  if (currentStakerSet[i] == who) {... */\n      tag_261\n      jumpi\n      pop\n        /* \"JaiHo/system-contracts/Staking.sol\":12226:12230  true */\n      0x01\n      swap3\n        /* \"JaiHo/system-contracts/Staking.sol\":12027:12284  function isActiveStaker(address who) public view returns (bool) {... */\n      swap2\n      pop\n      pop\n      jump\t// out\n        /* \"JaiHo/system-contracts/Staking.sol\":12169:12245  if (currentStakerSet[i] == who) {... */\n    tag_261:\n        /* \"JaiHo/system-contracts/Staking.sol\":12150:12153  i++ */\n      dup1\n      tag_262\n      dup2\n      tag_263\n      jump\t// in\n    tag_262:\n      swap2\n      pop\n      pop\n        /* \"JaiHo/system-contracts/Staking.sol\":12101:12255  for (uint256 i = 0; i < currentStakerSet.length; i++) {... */\n      jump(tag_254)\n    tag_255:\n      pop\n        /* \"JaiHo/system-contracts/Staking.sol\":12272:12277  false */\n      0x00\n      swap3\n        /* \"JaiHo/system-contracts/Staking.sol\":12027:12284  function isActiveStaker(address who) public view returns (bool) {... */\n      swap2\n      pop\n      pop\n      jump\t// out\n        /* \"JaiHo/system-contracts/Staking.sol\":2485:2586  function renounceOwnership() public virtual onlyOwner {... */\n    tag_88:\n        /* \"JaiHo/system-contracts/Staking.sol\":1748:1761  _checkOwner() */\n      tag_265\n        /* \"JaiHo/system-contracts/Staking.sol\":1748:1759  _checkOwner */\n      tag_194\n        /* \"JaiHo/system-contracts/Staking.sol\":1748:1761  _checkOwner() */\n      jump\t// in\n    tag_265:\n        /* \"JaiHo/system-contracts/Staking.sol\":2549:2579  _transferOwnership(address(0)) */\n      tag_267\n        /* \"JaiHo/system-contracts/Staking.sol\":2576:2577  0 */\n      0x00\n        /* \"JaiHo/system-contracts/Staking.sol\":2549:2567  _transferOwnership */\n      tag_268\n        /* \"JaiHo/system-contracts/Staking.sol\":2549:2579  _transferOwnership(address(0)) */\n      jump\t// in\n    tag_267:\n        /* \"JaiHo/system-contracts/Staking.sol\":2485:2586  function renounceOwnership() public virtual onlyOwner {... */\n      jump\t// out\n        /* \"JaiHo/system-contracts/Staking.sol\":7871:9045  function withdrawStakingReward(address staker) public returns(bool)... */\n    tag_92:\n      sub(shl(0xa0, 0x01), 0x01)\n        /* \"JaiHo/system-contracts/Staking.sol\":8019:8047  rewardWithdrawalTime[staker] */\n      dup2\n      and\n        /* \"JaiHo/system-contracts/Staking.sol\":7933:7937  bool */\n      0x00\n        /* \"JaiHo/system-contracts/Staking.sol\":8019:8047  rewardWithdrawalTime[staker] */\n      swap1\n      dup2\n      mstore\n        /* \"JaiHo/system-contracts/Staking.sol\":8019:8039  rewardWithdrawalTime */\n      0x0a\n        /* \"JaiHo/system-contracts/Staking.sol\":8019:8047  rewardWithdrawalTime[staker] */\n      0x20\n      mstore\n      0x40\n      dup2\n      keccak256\n      sload\n        /* \"JaiHo/system-contracts/Staking.sol\":7933:7937  bool */\n      dup2\n      swap1\n      dup2\n      swap1\n        /* \"JaiHo/system-contracts/Staking.sol\":8019:8051  rewardWithdrawalTime[staker] > 0 */\n      iszero\n        /* \"JaiHo/system-contracts/Staking.sol\":8016:8165  if(rewardWithdrawalTime[staker] > 0)... */\n      tag_270\n      jumpi\n      sub(shl(0xa0, 0x01), 0x01)\n        /* \"JaiHo/system-contracts/Staking.sol\":8136:8164  rewardWithdrawalTime[staker] */\n      dup5\n      and\n        /* \"JaiHo/system-contracts/Staking.sol\":8115:8165  reflectionPercentSum[rewardWithdrawalTime[staker]] */\n      0x00\n        /* \"JaiHo/system-contracts/Staking.sol\":8136:8164  rewardWithdrawalTime[staker] */\n      swap1\n      dup2\n      mstore\n        /* \"JaiHo/system-contracts/Staking.sol\":8136:8156  rewardWithdrawalTime */\n      0x0a\n        /* \"JaiHo/system-contracts/Staking.sol\":8136:8164  rewardWithdrawalTime[staker] */\n      0x20\n      swap1\n      dup2\n      mstore\n      0x40\n      dup1\n      dup4\n      keccak256\n      sload\n        /* \"JaiHo/system-contracts/Staking.sol\":8115:8165  reflectionPercentSum[rewardWithdrawalTime[staker]] */\n      dup4\n      mstore\n        /* \"JaiHo/system-contracts/Staking.sol\":8115:8135  reflectionPercentSum */\n      0x0e\n        /* \"JaiHo/system-contracts/Staking.sol\":8115:8165  reflectionPercentSum[rewardWithdrawalTime[staker]] */\n      swap1\n      swap2\n      mstore\n      dup1\n      dup3\n      keccak256\n      sload\n        /* \"JaiHo/system-contracts/Staking.sol\":8097:8111  lastRewardTime */\n      sload(0x0d)\n        /* \"JaiHo/system-contracts/Staking.sol\":8076:8112  reflectionPercentSum[lastRewardTime] */\n      dup4\n      mstore\n      swap2\n      keccak256\n      sload\n        /* \"JaiHo/system-contracts/Staking.sol\":8076:8165  reflectionPercentSum[lastRewardTime] - reflectionPercentSum[rewardWithdrawalTime[staker]] */\n      tag_271\n      swap2\n        /* \"JaiHo/system-contracts/Staking.sol\":8115:8165  reflectionPercentSum[rewardWithdrawalTime[staker]] */\n      swap1\n        /* \"JaiHo/system-contracts/Staking.sol\":8076:8165  reflectionPercentSum[lastRewardTime] - reflectionPercentSum[rewardWithdrawalTime[staker]] */\n      tag_205\n      jump\t// in\n    tag_271:\n        /* \"JaiHo/system-contracts/Staking.sol\":8061:8165  validPercent = reflectionPercentSum[lastRewardTime] - reflectionPercentSum[rewardWithdrawalTime[staker]] */\n      swap2\n      pop\n        /* \"JaiHo/system-contracts/Staking.sol\":8016:8165  if(rewardWithdrawalTime[staker] > 0)... */\n    tag_270:\n      sub(shl(0xa0, 0x01), 0x01)\n        /* \"JaiHo/system-contracts/Staking.sol\":8259:8279  valStakeTime[staker] */\n      dup5\n      and\n        /* \"JaiHo/system-contracts/Staking.sol\":8238:8280  reflectionPercentSum[valStakeTime[staker]] */\n      0x00\n        /* \"JaiHo/system-contracts/Staking.sol\":8259:8279  valStakeTime[staker] */\n      swap1\n      dup2\n      mstore\n        /* \"JaiHo/system-contracts/Staking.sol\":8259:8271  valStakeTime */\n      0x0c\n        /* \"JaiHo/system-contracts/Staking.sol\":8259:8279  valStakeTime[staker] */\n      0x20\n      swap1\n      dup2\n      mstore\n      0x40\n      dup1\n      dup4\n      keccak256\n      sload\n        /* \"JaiHo/system-contracts/Staking.sol\":8238:8280  reflectionPercentSum[valStakeTime[staker]] */\n      dup4\n      mstore\n        /* \"JaiHo/system-contracts/Staking.sol\":8238:8258  reflectionPercentSum */\n      0x0e\n        /* \"JaiHo/system-contracts/Staking.sol\":8238:8280  reflectionPercentSum[valStakeTime[staker]] */\n      swap1\n      swap2\n      mstore\n      dup1\n      dup3\n      keccak256\n      sload\n        /* \"JaiHo/system-contracts/Staking.sol\":8220:8234  lastRewardTime */\n      sload(0x0d)\n        /* \"JaiHo/system-contracts/Staking.sol\":8199:8235  reflectionPercentSum[lastRewardTime] */\n      dup4\n      mstore\n      swap2\n      keccak256\n      sload\n        /* \"JaiHo/system-contracts/Staking.sol\":8199:8280  reflectionPercentSum[lastRewardTime] - reflectionPercentSum[valStakeTime[staker]] */\n      tag_272\n      swap2\n        /* \"JaiHo/system-contracts/Staking.sol\":8238:8280  reflectionPercentSum[valStakeTime[staker]] */\n      swap1\n        /* \"JaiHo/system-contracts/Staking.sol\":8199:8280  reflectionPercentSum[lastRewardTime] - reflectionPercentSum[valStakeTime[staker]] */\n      tag_205\n      jump\t// in\n    tag_272:\n        /* \"JaiHo/system-contracts/Staking.sol\":8335:8350  valDataContract */\n      sload(0x01)\n        /* \"JaiHo/system-contracts/Staking.sol\":8335:8388  valDataContract.validatorSpecificInfo2(staker,staker) */\n      mload(0x40)\n      shl(0xe0, 0x64877981)\n      dup2\n      mstore\n      sub(shl(0xa0, 0x01), 0x01)\n        /* \"#utility.yul\":6974:6989   */\n      dup8\n      dup2\n      and\n        /* \"JaiHo/system-contracts/Staking.sol\":8335:8388  valDataContract.validatorSpecificInfo2(staker,staker) */\n      0x04\n      dup4\n      add\n        /* \"#utility.yul\":6956:6990   */\n      dup2\n      swap1\n      mstore\n        /* \"#utility.yul\":7006:7024   */\n      0x24\n      dup4\n      add\n        /* \"#utility.yul\":6999:7042   */\n      mstore\n        /* \"JaiHo/system-contracts/Staking.sol\":8175:8280  validValidatorPercent = reflectionPercentSum[lastRewardTime] - reflectionPercentSum[valStakeTime[staker]] */\n      swap3\n      swap4\n      pop\n        /* \"JaiHo/system-contracts/Staking.sol\":8292:8321  uint256 validatorsStakedCoins */\n      0x00\n      swap3\n        /* \"JaiHo/system-contracts/Staking.sol\":8335:8350  valDataContract */\n      swap1\n      swap2\n      and\n      swap1\n        /* \"JaiHo/system-contracts/Staking.sol\":8335:8373  valDataContract.validatorSpecificInfo2 */\n      0x64877981\n      swap1\n        /* \"#utility.yul\":6891:6909   */\n      0x44\n      add\n        /* \"JaiHo/system-contracts/Staking.sol\":8335:8388  valDataContract.validatorSpecificInfo2(staker,staker) */\n      0xc0\n      mload(0x40)\n      dup1\n      dup4\n      sub\n      dup2\n      dup7\n      gas\n      staticcall\n      iszero\n      dup1\n      iszero\n      tag_276\n      jumpi\n      returndatasize\n      0x00\n      dup1\n      returndatacopy\n      revert(0x00, returndatasize)\n    tag_276:\n      pop\n      pop\n      pop\n      pop\n      mload(0x40)\n      returndatasize\n      not(0x1f)\n      0x1f\n      dup3\n      add\n      and\n      dup3\n      add\n      dup1\n      0x40\n      mstore\n      pop\n      dup2\n      add\n      swap1\n      tag_277\n      swap2\n      swap1\n      tag_278\n      jump\t// in\n    tag_277:\n        /* \"JaiHo/system-contracts/Staking.sol\":8291:8388  (uint256 validatorsStakedCoins, , , , ,)  = valDataContract.validatorSpecificInfo2(staker,staker) */\n      pop\n      pop\n      pop\n      pop\n      pop\n      swap1\n      pop\n        /* \"JaiHo/system-contracts/Staking.sol\":8443:8444  0 */\n      0x00\n        /* \"JaiHo/system-contracts/Staking.sol\":8418:8439  validValidatorPercent */\n      dup3\n        /* \"JaiHo/system-contracts/Staking.sol\":8403:8415  validPercent */\n      dup5\n        /* \"JaiHo/system-contracts/Staking.sol\":8403:8439  validPercent + validValidatorPercent */\n      tag_279\n      swap2\n      swap1\n      tag_210\n      jump\t// in\n    tag_279:\n        /* \"JaiHo/system-contracts/Staking.sol\":8402:8444  (validPercent + validValidatorPercent) > 0 */\n      gt\n        /* \"JaiHo/system-contracts/Staking.sol\":8399:9018  if((validPercent + validValidatorPercent) > 0)... */\n      iszero\n      tag_280\n      jumpi\n      sub(shl(0xa0, 0x01), 0x01)\n        /* \"JaiHo/system-contracts/Staking.sol\":8471:8499  rewardWithdrawalTime[staker] */\n      dup6\n      and\n        /* \"JaiHo/system-contracts/Staking.sol\":8502:8503  0 */\n      0x00\n        /* \"JaiHo/system-contracts/Staking.sol\":8471:8499  rewardWithdrawalTime[staker] */\n      swap1\n      dup2\n      mstore\n        /* \"JaiHo/system-contracts/Staking.sol\":8471:8491  rewardWithdrawalTime */\n      0x0a\n        /* \"JaiHo/system-contracts/Staking.sol\":8471:8499  rewardWithdrawalTime[staker] */\n      0x20\n      mstore\n      0x40\n      swap1\n      keccak256\n      sload\n        /* \"JaiHo/system-contracts/Staking.sol\":8471:8503  rewardWithdrawalTime[staker] > 0 */\n      iszero\n        /* \"JaiHo/system-contracts/Staking.sol\":8468:8562  if(rewardWithdrawalTime[staker] > 0)... */\n      tag_281\n      jumpi\n        /* \"JaiHo/system-contracts/Staking.sol\":8548:8562  lastRewardTime */\n      sload(0x0d)\n      sub(shl(0xa0, 0x01), 0x01)\n        /* \"JaiHo/system-contracts/Staking.sol\":8517:8545  rewardWithdrawalTime[staker] */\n      dup7\n      and\n      0x00\n      swap1\n      dup2\n      mstore\n        /* \"JaiHo/system-contracts/Staking.sol\":8517:8537  rewardWithdrawalTime */\n      0x0a\n        /* \"JaiHo/system-contracts/Staking.sol\":8517:8545  rewardWithdrawalTime[staker] */\n      0x20\n      mstore\n      0x40\n      swap1\n      keccak256\n        /* \"JaiHo/system-contracts/Staking.sol\":8517:8562  rewardWithdrawalTime[staker] = lastRewardTime */\n      sstore\n        /* \"JaiHo/system-contracts/Staking.sol\":8468:8562  if(rewardWithdrawalTime[staker] > 0)... */\n    tag_281:\n        /* \"JaiHo/system-contracts/Staking.sol\":8579:8594  valDataContract */\n      sload(0x01)\n        /* \"JaiHo/system-contracts/Staking.sol\":8579:8624  valDataContract.getStakingTime(staker,staker) */\n      mload(0x40)\n      shl(0xe0, 0xd0744e3d)\n      dup2\n      mstore\n      sub(shl(0xa0, 0x01), 0x01)\n        /* \"#utility.yul\":6974:6989   */\n      dup8\n      dup2\n      and\n        /* \"JaiHo/system-contracts/Staking.sol\":8579:8624  valDataContract.getStakingTime(staker,staker) */\n      0x04\n      dup4\n      add\n        /* \"#utility.yul\":6956:6990   */\n      dup2\n      swap1\n      mstore\n        /* \"#utility.yul\":7006:7024   */\n      0x24\n      dup4\n      add\n        /* \"#utility.yul\":6999:7042   */\n      mstore\n        /* \"JaiHo/system-contracts/Staking.sol\":8627:8628  0 */\n      0x00\n      swap3\n        /* \"JaiHo/system-contracts/Staking.sol\":8579:8594  valDataContract */\n      and\n      swap1\n        /* \"JaiHo/system-contracts/Staking.sol\":8579:8609  valDataContract.getStakingTime */\n      0xd0744e3d\n      swap1\n        /* \"#utility.yul\":6891:6909   */\n      0x44\n      add\n        /* \"JaiHo/system-contracts/Staking.sol\":8579:8624  valDataContract.getStakingTime(staker,staker) */\n      0x20\n      mload(0x40)\n      dup1\n      dup4\n      sub\n      dup2\n      dup7\n      gas\n      staticcall\n      iszero\n      dup1\n      iszero\n      tag_284\n      jumpi\n      returndatasize\n      0x00\n      dup1\n      returndatacopy\n      revert(0x00, returndatasize)\n    tag_284:\n      pop\n      pop\n      pop\n      pop\n      mload(0x40)\n      returndatasize\n      not(0x1f)\n      0x1f\n      dup3\n      add\n      and\n      dup3\n      add\n      dup1\n      0x40\n      mstore\n      pop\n      dup2\n      add\n      swap1\n      tag_285\n      swap2\n      swap1\n      tag_286\n      jump\t// in\n    tag_285:\n        /* \"JaiHo/system-contracts/Staking.sol\":8579:8628  valDataContract.getStakingTime(staker,staker) > 0 */\n      gt\n        /* \"JaiHo/system-contracts/Staking.sol\":8576:8679  if(valDataContract.getStakingTime(staker,staker) > 0)... */\n      iszero\n      tag_287\n      jumpi\n        /* \"JaiHo/system-contracts/Staking.sol\":8665:8679  lastRewardTime */\n      sload(0x0d)\n      sub(shl(0xa0, 0x01), 0x01)\n        /* \"JaiHo/system-contracts/Staking.sol\":8642:8662  valStakeTime[staker] */\n      dup7\n      and\n      0x00\n      swap1\n      dup2\n      mstore\n        /* \"JaiHo/system-contracts/Staking.sol\":8642:8654  valStakeTime */\n      0x0c\n        /* \"JaiHo/system-contracts/Staking.sol\":8642:8662  valStakeTime[staker] */\n      0x20\n      mstore\n      0x40\n      swap1\n      keccak256\n        /* \"JaiHo/system-contracts/Staking.sol\":8642:8679  valStakeTime[staker] = lastRewardTime */\n      sstore\n        /* \"JaiHo/system-contracts/Staking.sol\":8576:8679  if(valDataContract.getStakingTime(staker,staker) > 0)... */\n    tag_287:\n      sub(shl(0xa0, 0x01), 0x01)\n        /* \"JaiHo/system-contracts/Staking.sol\":8707:8725  stakerInfo[staker] */\n      dup6\n      and\n        /* \"JaiHo/system-contracts/Staking.sol\":8693:8704  uint reward */\n      0x00\n        /* \"JaiHo/system-contracts/Staking.sol\":8707:8725  stakerInfo[staker] */\n      swap1\n      dup2\n      mstore\n        /* \"JaiHo/system-contracts/Staking.sol\":8707:8717  stakerInfo */\n      0x02\n        /* \"JaiHo/system-contracts/Staking.sol\":8707:8725  stakerInfo[staker] */\n      0x20\n      mstore\n      0x40\n      dup2\n      keccak256\n      sload\n        /* \"JaiHo/system-contracts/Staking.sol\":8743:8762  1000000000000000000 */\n      0x0de0b6b3a7640000\n      swap1\n        /* \"JaiHo/system-contracts/Staking.sol\":8707:8740  stakerInfo[staker] * validPercent */\n      tag_288\n      swap1\n        /* \"JaiHo/system-contracts/Staking.sol\":8728:8740  validPercent */\n      dup7\n      swap1\n        /* \"JaiHo/system-contracts/Staking.sol\":8707:8740  stakerInfo[staker] * validPercent */\n      tag_214\n      jump\t// in\n    tag_288:\n        /* \"JaiHo/system-contracts/Staking.sol\":8707:8762  stakerInfo[staker] * validPercent / 1000000000000000000 */\n      tag_289\n      swap2\n      swap1\n      tag_216\n      jump\t// in\n    tag_289:\n        /* \"JaiHo/system-contracts/Staking.sol\":8693:8762  uint reward = stakerInfo[staker] * validPercent / 1000000000000000000 */\n      swap1\n      pop\n        /* \"JaiHo/system-contracts/Staking.sol\":8776:8790  uint valReward */\n      0x00\n        /* \"JaiHo/system-contracts/Staking.sol\":8841:8860  1000000000000000000 */\n      0x0de0b6b3a7640000\n        /* \"JaiHo/system-contracts/Staking.sol\":8793:8838  validatorsStakedCoins * validValidatorPercent */\n      tag_290\n        /* \"JaiHo/system-contracts/Staking.sol\":8817:8838  validValidatorPercent */\n      dup6\n        /* \"JaiHo/system-contracts/Staking.sol\":8793:8814  validatorsStakedCoins */\n      dup6\n        /* \"JaiHo/system-contracts/Staking.sol\":8793:8838  validatorsStakedCoins * validValidatorPercent */\n      tag_214\n      jump\t// in\n    tag_290:\n        /* \"JaiHo/system-contracts/Staking.sol\":8793:8860  validatorsStakedCoins * validValidatorPercent / 1000000000000000000 */\n      tag_291\n      swap2\n      swap1\n      tag_216\n      jump\t// in\n    tag_291:\n        /* \"JaiHo/system-contracts/Staking.sol\":8776:8860  uint valReward = validatorsStakedCoins * validValidatorPercent / 1000000000000000000 */\n      swap1\n      pop\n      sub(shl(0xa0, 0x01), 0x01)\n        /* \"JaiHo/system-contracts/Staking.sol\":8874:8898  payable(staker).transfer */\n      dup8\n      and\n        /* \"JaiHo/system-contracts/Staking.sol\":8874:8918  payable(staker).transfer(reward + valReward) */\n      0x08fc\n        /* \"JaiHo/system-contracts/Staking.sol\":8899:8917  reward + valReward */\n      tag_292\n        /* \"JaiHo/system-contracts/Staking.sol\":8776:8860  uint valReward = validatorsStakedCoins * validValidatorPercent / 1000000000000000000 */\n      dup4\n        /* \"JaiHo/system-contracts/Staking.sol\":8899:8905  reward */\n      dup6\n        /* \"JaiHo/system-contracts/Staking.sol\":8899:8917  reward + valReward */\n      tag_210\n      jump\t// in\n    tag_292:\n        /* \"JaiHo/system-contracts/Staking.sol\":8874:8918  payable(staker).transfer(reward + valReward) */\n      mload(0x40)\n      dup2\n      iszero\n      swap1\n      swap3\n      mul\n      swap2\n      0x00\n      dup2\n      dup2\n      dup2\n      dup6\n      dup9\n      dup9\n      call\n      swap4\n      pop\n      pop\n      pop\n      pop\n      iszero\n      dup1\n      iszero\n      tag_294\n      jumpi\n      returndatasize\n      0x00\n      dup1\n      returndatacopy\n      revert(0x00, returndatasize)\n    tag_294:\n      pop\n      sub(shl(0xa0, 0x01), 0x01)\n        /* \"JaiHo/system-contracts/Staking.sol\":8937:9007  withdrawStakingRewardEv(staker, (reward + valReward), block.timestamp) */\n      dup8\n      and\n      0xf03271da9252f83cabf8baf9c18589849bdadb0ad1f6268432d871380624b9e6\n        /* \"JaiHo/system-contracts/Staking.sol\":8970:8988  reward + valReward */\n      tag_295\n        /* \"JaiHo/system-contracts/Staking.sol\":8979:8988  valReward */\n      dup4\n        /* \"JaiHo/system-contracts/Staking.sol\":8970:8976  reward */\n      dup6\n        /* \"JaiHo/system-contracts/Staking.sol\":8970:8988  reward + valReward */\n      tag_210\n      jump\t// in\n    tag_295:\n        /* \"JaiHo/system-contracts/Staking.sol\":8937:9007  withdrawStakingRewardEv(staker, (reward + valReward), block.timestamp) */\n      0x40\n      dup1\n      mload\n        /* \"#utility.yul\":3290:3315   */\n      swap2\n      dup3\n      mstore\n        /* \"JaiHo/system-contracts/Staking.sol\":8991:9006  block.timestamp */\n      timestamp\n        /* \"#utility.yul\":3346:3348   */\n      0x20\n        /* \"#utility.yul\":3331:3349   */\n      dup4\n      add\n        /* \"#utility.yul\":3324:3358   */\n      mstore\n        /* \"#utility.yul\":3263:3281   */\n      add\n        /* \"JaiHo/system-contracts/Staking.sol\":8937:9007  withdrawStakingRewardEv(staker, (reward + valReward), block.timestamp) */\n      mload(0x40)\n      dup1\n      swap2\n      sub\n      swap1\n      log2\n        /* \"JaiHo/system-contracts/Staking.sol\":8454:9018  {... */\n      pop\n      pop\n        /* \"JaiHo/system-contracts/Staking.sol\":8399:9018  if((validPercent + validValidatorPercent) > 0)... */\n    tag_280:\n      pop\n        /* \"JaiHo/system-contracts/Staking.sol\":9034:9038  true */\n      0x01\n      swap5\n        /* \"JaiHo/system-contracts/Staking.sol\":7871:9045  function withdrawStakingReward(address staker) public returns(bool)... */\n      swap4\n      pop\n      pop\n      pop\n      pop\n      jump\t// out\n        /* \"JaiHo/system-contracts/Staking.sol\":9132:10242  function distributeReward()... */\n    tag_109:\n        /* \"JaiHo/system-contracts/Staking.sol\":9207:9221  uint256 reward */\n      0x00\n        /* \"JaiHo/system-contracts/Staking.sol\":9236:9248  totalPenalty */\n      sload(0x07)\n        /* \"JaiHo/system-contracts/Staking.sol\":9224:9233  msg.value */\n      callvalue\n        /* \"JaiHo/system-contracts/Staking.sol\":9224:9248  msg.value + totalPenalty */\n      tag_299\n      swap2\n      swap1\n      tag_210\n      jump\t// in\n    tag_299:\n        /* \"JaiHo/system-contracts/Staking.sol\":9207:9248  uint256 reward = msg.value + totalPenalty */\n      swap1\n      pop\n        /* \"JaiHo/system-contracts/Staking.sol\":9260:9279  uint256 totalstakes */\n      0x00\n        /* \"JaiHo/system-contracts/Staking.sol\":9284:9330  getTotalStakeOfActiveStakersExcept(address(0)) */\n      tag_300\n        /* \"JaiHo/system-contracts/Staking.sol\":9327:9328  0 */\n      0x00\n        /* \"JaiHo/system-contracts/Staking.sol\":9284:9318  getTotalStakeOfActiveStakersExcept */\n      tag_301\n        /* \"JaiHo/system-contracts/Staking.sol\":9284:9330  getTotalStakeOfActiveStakersExcept(address(0)) */\n      jump\t// in\n    tag_300:\n        /* \"JaiHo/system-contracts/Staking.sol\":9259:9330  (uint256 totalstakes,) = getTotalStakeOfActiveStakersExcept(address(0)) */\n      pop\n      swap1\n      pop\n        /* \"JaiHo/system-contracts/Staking.sol\":9345:9382  address[] memory highestValidatorsSet */\n      0x00\n        /* \"JaiHo/system-contracts/Staking.sol\":9393:9408  valDataContract */\n      0x01\n      0x00\n      swap1\n      sload\n      swap1\n      0x0100\n      exp\n      swap1\n      div\n      sub(shl(0xa0, 0x01), 0x01)\n      and\n      sub(shl(0xa0, 0x01), 0x01)\n        /* \"JaiHo/system-contracts/Staking.sol\":9393:9428  valDataContract.getAllValidatorInfo */\n      and\n      0x3f8dc65a\n        /* \"JaiHo/system-contracts/Staking.sol\":9393:9430  valDataContract.getAllValidatorInfo() */\n      mload(0x40)\n      dup2\n      0xffffffff\n      and\n      0xe0\n      shl\n      dup2\n      mstore\n      0x04\n      add\n      0x00\n      mload(0x40)\n      dup1\n      dup4\n      sub\n      dup2\n      dup7\n      gas\n      staticcall\n      iszero\n      dup1\n      iszero\n      tag_303\n      jumpi\n      returndatasize\n      0x00\n      dup1\n      returndatacopy\n      revert(0x00, returndatasize)\n    tag_303:\n      pop\n      pop\n      pop\n      pop\n      mload(0x40)\n      returndatasize\n      0x00\n      dup3\n      returndatacopy\n      0x1f\n      returndatasize\n      swap1\n      dup2\n      add\n      not(0x1f)\n      and\n      dup3\n      add\n      0x40\n      mstore\n      tag_304\n      swap2\n      swap1\n      dup2\n      add\n      swap1\n      tag_305\n      jump\t// in\n    tag_304:\n      pop\n      pop\n        /* \"JaiHo/system-contracts/Staking.sol\":9466:9493  highestValidatorsSet.length */\n      dup3\n      mload\n        /* \"JaiHo/system-contracts/Staking.sol\":9341:9430  (, ,address[] memory highestValidatorsSet, , , ,) = valDataContract.getAllValidatorInfo() */\n      swap3\n      swap6\n      pop\n        /* \"JaiHo/system-contracts/Staking.sol\":9466:9493  highestValidatorsSet.length */\n      swap2\n      swap4\n      pop\n        /* \"JaiHo/system-contracts/Staking.sol\":9440:9463  uint256 totalValidators */\n      0x00\n      swap3\n      pop\n      dup3\n      swap2\n      pop\n      pop\n        /* \"JaiHo/system-contracts/Staking.sol\":9548:9802  for(uint8 i=0; i < totalValidators; i++){... */\n    tag_306:\n        /* \"JaiHo/system-contracts/Staking.sol\":9567:9582  totalValidators */\n      dup3\n        /* \"JaiHo/system-contracts/Staking.sol\":9563:9564  i */\n      dup2\n        /* \"JaiHo/system-contracts/Staking.sol\":9563:9582  i < totalValidators */\n      0xff\n      and\n      lt\n        /* \"JaiHo/system-contracts/Staking.sol\":9548:9802  for(uint8 i=0; i < totalValidators; i++){... */\n      iszero\n      tag_307\n      jumpi\n        /* \"JaiHo/system-contracts/Staking.sol\":9643:9658  valDataContract */\n      sload(0x01)\n        /* \"JaiHo/system-contracts/Staking.sol\":9682:9705  highestValidatorsSet[i] */\n      dup5\n      mload\n        /* \"JaiHo/system-contracts/Staking.sol\":9600:9629  uint256 validatorsStakedCoins */\n      0x00\n      swap2\n      sub(shl(0xa0, 0x01), 0x01)\n        /* \"JaiHo/system-contracts/Staking.sol\":9643:9658  valDataContract */\n      and\n      swap1\n        /* \"JaiHo/system-contracts/Staking.sol\":9643:9681  valDataContract.validatorSpecificInfo2 */\n      0x64877981\n      swap1\n        /* \"JaiHo/system-contracts/Staking.sol\":9682:9702  highestValidatorsSet */\n      dup8\n      swap1\n        /* \"JaiHo/system-contracts/Staking.sol\":9682:9705  highestValidatorsSet[i] */\n      0xff\n      dup7\n      and\n      swap1\n      dup2\n      lt\n      tag_310\n      jumpi\n      tag_310\n      tag_259\n      jump\t// in\n    tag_310:\n      0x20\n      mul\n      0x20\n      add\n      add\n      mload\n        /* \"JaiHo/system-contracts/Staking.sol\":9706:9726  highestValidatorsSet */\n      dup8\n        /* \"JaiHo/system-contracts/Staking.sol\":9727:9728  i */\n      dup6\n        /* \"JaiHo/system-contracts/Staking.sol\":9706:9729  highestValidatorsSet[i] */\n      0xff\n      and\n      dup2\n      mload\n      dup2\n      lt\n      tag_312\n      jumpi\n      tag_312\n      tag_259\n      jump\t// in\n    tag_312:\n      0x20\n      mul\n      0x20\n      add\n      add\n      mload\n        /* \"JaiHo/system-contracts/Staking.sol\":9643:9730  valDataContract.validatorSpecificInfo2(highestValidatorsSet[i],highestValidatorsSet[i]) */\n      mload(0x40)\n      dup4\n      0xffffffff\n      and\n      0xe0\n      shl\n      dup2\n      mstore\n      0x04\n      add\n      tag_313\n      swap3\n      swap2\n      swap1\n      sub(shl(0xa0, 0x01), 0x01)\n        /* \"#utility.yul\":6974:6989   */\n      swap3\n      dup4\n      and\n        /* \"#utility.yul\":6956:6990   */\n      dup2\n      mstore\n        /* \"#utility.yul\":7026:7041   */\n      swap2\n      and\n        /* \"#utility.yul\":7021:7023   */\n      0x20\n        /* \"#utility.yul\":7006:7024   */\n      dup3\n      add\n        /* \"#utility.yul\":6999:7042   */\n      mstore\n        /* \"#utility.yul\":6906:6908   */\n      0x40\n        /* \"#utility.yul\":6891:6909   */\n      add\n      swap1\n        /* \"#utility.yul\":6744:7048   */\n      jump\n        /* \"JaiHo/system-contracts/Staking.sol\":9643:9730  valDataContract.validatorSpecificInfo2(highestValidatorsSet[i],highestValidatorsSet[i]) */\n    tag_313:\n      0xc0\n      mload(0x40)\n      dup1\n      dup4\n      sub\n      dup2\n      dup7\n      gas\n      staticcall\n      iszero\n      dup1\n      iszero\n      tag_315\n      jumpi\n      returndatasize\n      0x00\n      dup1\n      returndatacopy\n      revert(0x00, returndatasize)\n    tag_315:\n      pop\n      pop\n      pop\n      pop\n      mload(0x40)\n      returndatasize\n      not(0x1f)\n      0x1f\n      dup3\n      add\n      and\n      dup3\n      add\n      dup1\n      0x40\n      mstore\n      pop\n      dup2\n      add\n      swap1\n      tag_316\n      swap2\n      swap1\n      tag_278\n      jump\t// in\n    tag_316:\n        /* \"JaiHo/system-contracts/Staking.sol\":9599:9730  (uint256 validatorsStakedCoins, , , , ,)  = valDataContract.validatorSpecificInfo2(highestValidatorsSet[i],highestValidatorsSet[i]) */\n      pop\n      pop\n      pop\n      pop\n      pop\n      swap1\n      pop\n        /* \"JaiHo/system-contracts/Staking.sol\":9770:9791  validatorsStakedCoins */\n      dup1\n        /* \"JaiHo/system-contracts/Staking.sol\":9740:9791  totalValidatorsStakedCoins += validatorsStakedCoins */\n      dup4\n      tag_317\n      swap2\n      swap1\n      tag_210\n      jump\t// in\n    tag_317:\n      swap3\n      pop\n        /* \"JaiHo/system-contracts/Staking.sol\":9588:9802  {... */\n      pop\n        /* \"JaiHo/system-contracts/Staking.sol\":9584:9587  i++ */\n      dup1\n      dup1\n      tag_318\n      swap1\n      tag_319\n      jump\t// in\n    tag_318:\n      swap2\n      pop\n      pop\n        /* \"JaiHo/system-contracts/Staking.sol\":9548:9802  for(uint8 i=0; i < totalValidators; i++){... */\n      jump(tag_306)\n    tag_307:\n      pop\n        /* \"JaiHo/system-contracts/Staking.sol\":9863:9864  0 */\n      0x00\n        /* \"JaiHo/system-contracts/Staking.sol\":9820:9860  totalstakes + totalValidatorsStakedCoins */\n      tag_320\n        /* \"JaiHo/system-contracts/Staking.sol\":9834:9860  totalValidatorsStakedCoins */\n      dup3\n        /* \"JaiHo/system-contracts/Staking.sol\":9820:9831  totalstakes */\n      dup7\n        /* \"JaiHo/system-contracts/Staking.sol\":9820:9860  totalstakes + totalValidatorsStakedCoins */\n      tag_210\n      jump\t// in\n    tag_320:\n        /* \"JaiHo/system-contracts/Staking.sol\":9820:9864  totalstakes + totalValidatorsStakedCoins > 0 */\n      gt\n        /* \"JaiHo/system-contracts/Staking.sol\":9812:9879  require(totalstakes + totalValidatorsStakedCoins > 0, \"No stakers\") */\n      tag_321\n      jumpi\n      mload(0x40)\n      shl(0xe5, 0x461bcd)\n      dup2\n      mstore\n        /* \"#utility.yul\":14201:14203   */\n      0x20\n        /* \"JaiHo/system-contracts/Staking.sol\":9812:9879  require(totalstakes + totalValidatorsStakedCoins > 0, \"No stakers\") */\n      0x04\n      dup3\n      add\n        /* \"#utility.yul\":14183:14204   */\n      mstore\n        /* \"#utility.yul\":14240:14242   */\n      0x0a\n        /* \"#utility.yul\":14220:14238   */\n      0x24\n      dup3\n      add\n        /* \"#utility.yul\":14213:14243   */\n      mstore\n      shl(0xb0, 0x4e6f207374616b657273)\n        /* \"#utility.yul\":14259:14277   */\n      0x44\n      dup3\n      add\n        /* \"#utility.yul\":14252:14292   */\n      mstore\n        /* \"#utility.yul\":14309:14327   */\n      0x64\n      add\n        /* \"JaiHo/system-contracts/Staking.sol\":9812:9879  require(totalstakes + totalValidatorsStakedCoins > 0, \"No stakers\") */\n      tag_197\n        /* \"#utility.yul\":13999:14333   */\n      jump\n        /* \"JaiHo/system-contracts/Staking.sol\":9812:9879  require(totalstakes + totalValidatorsStakedCoins > 0, \"No stakers\") */\n    tag_321:\n        /* \"JaiHo/system-contracts/Staking.sol\":9933:9947  lastRewardTime */\n      0x0d\n      dup1\n      sload\n        /* \"JaiHo/system-contracts/Staking.sol\":9890:9909  uint lastRewardHold */\n      0x00\n        /* \"JaiHo/system-contracts/Staking.sol\":9912:9948  reflectionPercentSum[lastRewardTime] */\n      swap1\n      dup2\n      mstore\n        /* \"JaiHo/system-contracts/Staking.sol\":9912:9932  reflectionPercentSum */\n      0x0e\n        /* \"JaiHo/system-contracts/Staking.sol\":9912:9948  reflectionPercentSum[lastRewardTime] */\n      0x20\n      mstore\n      0x40\n      swap1\n      keccak256\n      sload\n        /* \"JaiHo/system-contracts/Staking.sol\":9975:9990  block.timestamp */\n      timestamp\n        /* \"JaiHo/system-contracts/Staking.sol\":9958:9990  lastRewardTime = block.timestamp */\n      swap1\n      swap2\n      sstore\n        /* \"JaiHo/system-contracts/Staking.sol\":10098:10138  totalstakes + totalValidatorsStakedCoins */\n      tag_324\n        /* \"JaiHo/system-contracts/Staking.sol\":10112:10138  totalValidatorsStakedCoins */\n      dup3\n        /* \"JaiHo/system-contracts/Staking.sol\":10098:10109  totalstakes */\n      dup7\n        /* \"JaiHo/system-contracts/Staking.sol\":10098:10138  totalstakes + totalValidatorsStakedCoins */\n      tag_210\n      jump\t// in\n    tag_324:\n        /* \"JaiHo/system-contracts/Staking.sol\":10066:10094  reward * 1000000000000000000 */\n      tag_325\n        /* \"JaiHo/system-contracts/Staking.sol\":10066:10072  reward */\n      dup8\n        /* \"JaiHo/system-contracts/Staking.sol\":10075:10094  1000000000000000000 */\n      0x0de0b6b3a7640000\n        /* \"JaiHo/system-contracts/Staking.sol\":10066:10094  reward * 1000000000000000000 */\n      tag_214\n      jump\t// in\n    tag_325:\n        /* \"JaiHo/system-contracts/Staking.sol\":10066:10139  reward * 1000000000000000000 / (totalstakes + totalValidatorsStakedCoins) */\n      tag_326\n      swap2\n      swap1\n      tag_216\n      jump\t// in\n    tag_326:\n        /* \"JaiHo/system-contracts/Staking.sol\":10048:10140  lastRewardHold + (reward * 1000000000000000000 / (totalstakes + totalValidatorsStakedCoins)) */\n      tag_327\n      swap1\n        /* \"JaiHo/system-contracts/Staking.sol\":10048:10062  lastRewardHold */\n      dup3\n        /* \"JaiHo/system-contracts/Staking.sol\":10048:10140  lastRewardHold + (reward * 1000000000000000000 / (totalstakes + totalValidatorsStakedCoins)) */\n      tag_210\n      jump\t// in\n    tag_327:\n        /* \"JaiHo/system-contracts/Staking.sol\":10030:10044  lastRewardTime */\n      sload(0x0d)\n        /* \"JaiHo/system-contracts/Staking.sol\":10009:10045  reflectionPercentSum[lastRewardTime] */\n      0x00\n      swap1\n      dup2\n      mstore\n        /* \"JaiHo/system-contracts/Staking.sol\":10009:10029  reflectionPercentSum */\n      0x0e\n        /* \"JaiHo/system-contracts/Staking.sol\":10009:10045  reflectionPercentSum[lastRewardTime] */\n      0x20\n      mstore\n      0x40\n      dup1\n      dup3\n      keccak256\n        /* \"JaiHo/system-contracts/Staking.sol\":10009:10140  reflectionPercentSum[lastRewardTime] = lastRewardHold + (reward * 1000000000000000000 / (totalstakes + totalValidatorsStakedCoins)) */\n      swap3\n      swap1\n      swap3\n      sstore\n        /* \"JaiHo/system-contracts/Staking.sol\":10150:10162  totalPenalty */\n      0x07\n        /* \"JaiHo/system-contracts/Staking.sol\":10150:10166  totalPenalty = 0 */\n      sstore\n        /* \"JaiHo/system-contracts/Staking.sol\":10191:10235  LogDistributeReward(reward, block.timestamp) */\n      mload\n      0xddd247369eddde588b8afa794145311a9ac4ff297c32d895359c5befc1a4e1f3\n      swap1\n      tag_328\n      swap1\n        /* \"JaiHo/system-contracts/Staking.sol\":10211:10217  reward */\n      dup9\n      swap1\n        /* \"JaiHo/system-contracts/Staking.sol\":10219:10234  block.timestamp */\n      timestamp\n      swap1\n        /* \"#utility.yul\":3290:3315   */\n      swap2\n      dup3\n      mstore\n        /* \"#utility.yul\":3346:3348   */\n      0x20\n        /* \"#utility.yul\":3331:3349   */\n      dup3\n      add\n        /* \"#utility.yul\":3324:3358   */\n      mstore\n        /* \"#utility.yul\":3278:3280   */\n      0x40\n        /* \"#utility.yul\":3263:3281   */\n      add\n      swap1\n        /* \"#utility.yul\":3116:3364   */\n      jump\n        /* \"JaiHo/system-contracts/Staking.sol\":10191:10235  LogDistributeReward(reward, block.timestamp) */\n    tag_328:\n      mload(0x40)\n      dup1\n      swap2\n      sub\n      swap1\n      log1\n        /* \"JaiHo/system-contracts/Staking.sol\":9197:10242  {... */\n      pop\n      pop\n      pop\n      pop\n      pop\n      pop\n        /* \"JaiHo/system-contracts/Staking.sol\":9132:10242  function distributeReward()... */\n      jump\t// out\n        /* \"JaiHo/system-contracts/Staking.sol\":11289:11396  function getActiveStakers() public view returns (address[] memory) {... */\n    tag_116:\n        /* \"JaiHo/system-contracts/Staking.sol\":11338:11354  address[] memory */\n      0x60\n        /* \"JaiHo/system-contracts/Staking.sol\":11373:11389  currentStakerSet */\n      0x05\n        /* \"JaiHo/system-contracts/Staking.sol\":11366:11389  return currentStakerSet */\n      dup1\n      sload\n      dup1\n      0x20\n      mul\n      0x20\n      add\n      mload(0x40)\n      swap1\n      dup2\n      add\n      0x40\n      mstore\n      dup1\n      swap3\n      swap2\n      swap1\n      dup2\n      dup2\n      mstore\n      0x20\n      add\n      dup3\n      dup1\n      sload\n      dup1\n      iszero\n      tag_330\n      jumpi\n      0x20\n      mul\n      dup3\n      add\n      swap2\n      swap1\n      0x00\n      mstore\n      keccak256(0x00, 0x20)\n      swap1\n    tag_331:\n      dup2\n      sload\n      sub(shl(0xa0, 0x01), 0x01)\n      and\n      dup2\n      mstore\n      0x01\n      swap1\n      swap2\n      add\n      swap1\n      0x20\n      add\n      dup1\n      dup4\n      gt\n      tag_331\n      jumpi\n    tag_330:\n      pop\n      pop\n      pop\n      pop\n      pop\n      swap1\n      pop\n        /* \"JaiHo/system-contracts/Staking.sol\":11289:11396  function getActiveStakers() public view returns (address[] memory) {... */\n      swap1\n      jump\t// out\n        /* \"JaiHo/system-contracts/Staking.sol\":14103:14297  function mutateValStakeTimeMapping(address validator, uint value) external onlyValDataContract{... */\n    tag_123:\n        /* \"JaiHo/system-contracts/Staking.sol\":14602:14617  valDataContract */\n      and(sub(shl(0xa0, 0x01), 0x01), sload(0x01))\n        /* \"JaiHo/system-contracts/Staking.sol\":14580:14590  msg.sender */\n      caller\n        /* \"JaiHo/system-contracts/Staking.sol\":14580:14618  msg.sender == address(valDataContract) */\n      eq\n        /* \"JaiHo/system-contracts/Staking.sol\":14572:14647  require(msg.sender == address(valDataContract), \"onlyValDataContract only\") */\n      tag_333\n      jumpi\n      mload(0x40)\n      shl(0xe5, 0x461bcd)\n      dup2\n      mstore\n        /* \"#utility.yul\":14540:14542   */\n      0x20\n        /* \"JaiHo/system-contracts/Staking.sol\":14572:14647  require(msg.sender == address(valDataContract), \"onlyValDataContract only\") */\n      0x04\n      dup3\n      add\n        /* \"#utility.yul\":14522:14543   */\n      mstore\n        /* \"#utility.yul\":14579:14581   */\n      0x18\n        /* \"#utility.yul\":14559:14577   */\n      0x24\n      dup3\n      add\n        /* \"#utility.yul\":14552:14582   */\n      mstore\n        /* \"#utility.yul\":14618:14644   */\n      0x6f6e6c7956616c44617461436f6e7472616374206f6e6c790000000000000000\n        /* \"#utility.yul\":14598:14616   */\n      0x44\n      dup3\n      add\n        /* \"#utility.yul\":14591:14645   */\n      mstore\n        /* \"#utility.yul\":14662:14680   */\n      0x64\n      add\n        /* \"JaiHo/system-contracts/Staking.sol\":14572:14647  require(msg.sender == address(valDataContract), \"onlyValDataContract only\") */\n      tag_197\n        /* \"#utility.yul\":14338:14686   */\n      jump\n        /* \"JaiHo/system-contracts/Staking.sol\":14572:14647  require(msg.sender == address(valDataContract), \"onlyValDataContract only\") */\n    tag_333:\n        /* \"JaiHo/system-contracts/Staking.sol\":14207:14217  value == 0 */\n      dup1\n      iszero\n        /* \"JaiHo/system-contracts/Staking.sol\":14207:14290  value == 0 ? valStakeTime[validator] = lastRewardTime : valStakeTime[validator] = 0 */\n      tag_337\n      jumpi\n      pop\n      sub(shl(0xa0, 0x01), 0x01)\n        /* \"JaiHo/system-contracts/Staking.sol\":14263:14286  valStakeTime[validator] */\n      and\n        /* \"JaiHo/system-contracts/Staking.sol\":14289:14290  0 */\n      0x00\n        /* \"JaiHo/system-contracts/Staking.sol\":14263:14286  valStakeTime[validator] */\n      swap1\n      dup2\n      mstore\n        /* \"JaiHo/system-contracts/Staking.sol\":14263:14275  valStakeTime */\n      0x0c\n        /* \"JaiHo/system-contracts/Staking.sol\":14263:14286  valStakeTime[validator] */\n      0x20\n      mstore\n      0x40\n      dup2\n      keccak256\n        /* \"JaiHo/system-contracts/Staking.sol\":14263:14290  valStakeTime[validator] = 0 */\n      sstore\n        /* \"JaiHo/system-contracts/Staking.sol\":14103:14297  function mutateValStakeTimeMapping(address validator, uint value) external onlyValDataContract{... */\n      jump\t// out\n        /* \"JaiHo/system-contracts/Staking.sol\":14207:14290  value == 0 ? valStakeTime[validator] = lastRewardTime : valStakeTime[validator] = 0 */\n    tag_337:\n      pop\n        /* \"JaiHo/system-contracts/Staking.sol\":14246:14260  lastRewardTime */\n      sload(0x0d)\n      sub(shl(0xa0, 0x01), 0x01)\n        /* \"JaiHo/system-contracts/Staking.sol\":14220:14243  valStakeTime[validator] */\n      swap2\n      swap1\n      swap2\n      and\n      0x00\n      swap1\n      dup2\n      mstore\n        /* \"JaiHo/system-contracts/Staking.sol\":14220:14232  valStakeTime */\n      0x0c\n        /* \"JaiHo/system-contracts/Staking.sol\":14220:14243  valStakeTime[validator] */\n      0x20\n      mstore\n      0x40\n      swap1\n      keccak256\n        /* \"JaiHo/system-contracts/Staking.sol\":14220:14260  valStakeTime[validator] = lastRewardTime */\n      sstore\n        /* \"JaiHo/system-contracts/Staking.sol\":14103:14297  function mutateValStakeTimeMapping(address validator, uint value) external onlyValDataContract{... */\n      jump\t// out\n        /* \"JaiHo/system-contracts/Staking.sol\":13980:14097  function rescueCoins() external onlyOwner{        ... */\n    tag_131:\n        /* \"JaiHo/system-contracts/Staking.sol\":1748:1761  _checkOwner() */\n      tag_341\n        /* \"JaiHo/system-contracts/Staking.sol\":1748:1759  _checkOwner */\n      tag_194\n        /* \"JaiHo/system-contracts/Staking.sol\":1748:1761  _checkOwner() */\n      jump\t// in\n    tag_341:\n        /* \"JaiHo/system-contracts/Staking.sol\":14039:14090  payable(msg.sender).transfer(address(this).balance) */\n      mload(0x40)\n        /* \"JaiHo/system-contracts/Staking.sol\":14047:14057  msg.sender */\n      caller\n      swap1\n        /* \"JaiHo/system-contracts/Staking.sol\":14068:14089  address(this).balance */\n      selfbalance\n        /* \"JaiHo/system-contracts/Staking.sol\":14039:14090  payable(msg.sender).transfer(address(this).balance) */\n      dup1\n      iszero\n      0x08fc\n      mul\n      swap2\n      0x00\n      dup2\n      dup2\n      dup2\n        /* \"JaiHo/system-contracts/Staking.sol\":14068:14089  address(this).balance */\n      dup6\n        /* \"JaiHo/system-contracts/Staking.sol\":14047:14057  msg.sender */\n      dup9\n        /* \"JaiHo/system-contracts/Staking.sol\":14039:14090  payable(msg.sender).transfer(address(this).balance) */\n      dup9\n      call\n      swap4\n      pop\n      pop\n      pop\n      pop\n      iszero\n      dup1\n      iszero\n      tag_344\n      jumpi\n      returndatasize\n      0x00\n      dup1\n      returndatacopy\n      revert(0x00, returndatasize)\n    tag_344:\n      pop\n        /* \"JaiHo/system-contracts/Staking.sol\":13980:14097  function rescueCoins() external onlyOwner{        ... */\n      jump\t// out\n        /* \"JaiHo/system-contracts/Staking.sol\":13225:13343  function updateMaxStakers(... */\n    tag_145:\n        /* \"JaiHo/system-contracts/Staking.sol\":1748:1761  _checkOwner() */\n      tag_346\n        /* \"JaiHo/system-contracts/Staking.sol\":1748:1759  _checkOwner */\n      tag_194\n        /* \"JaiHo/system-contracts/Staking.sol\":1748:1761  _checkOwner() */\n      jump\t// in\n    tag_346:\n        /* \"JaiHo/system-contracts/Staking.sol\":13312:13322  MaxStakers */\n      0x04\n        /* \"JaiHo/system-contracts/Staking.sol\":13312:13336  MaxStakers = _MaxStakers */\n      dup1\n      sload\n      not(0xffff)\n      and\n      0xffff\n      swap3\n      swap1\n      swap3\n      and\n      swap2\n      swap1\n      swap2\n      or\n      swap1\n      sstore\n        /* \"JaiHo/system-contracts/Staking.sol\":13225:13343  function updateMaxStakers(... */\n      jump\t// out\n        /* \"JaiHo/system-contracts/Staking.sol\":11402:11589  function getTotalStakeOfActiveStakers()... */\n    tag_162:\n        /* \"JaiHo/system-contracts/Staking.sol\":11487:11500  uint256 total */\n      0x00\n        /* \"JaiHo/system-contracts/Staking.sol\":11502:11513  uint256 len */\n      dup1\n        /* \"JaiHo/system-contracts/Staking.sol\":11536:11582  getTotalStakeOfActiveStakersExcept(address(0)) */\n      tag_349\n        /* \"JaiHo/system-contracts/Staking.sol\":11579:11580  0 */\n      0x00\n        /* \"JaiHo/system-contracts/Staking.sol\":11536:11570  getTotalStakeOfActiveStakersExcept */\n      tag_301\n        /* \"JaiHo/system-contracts/Staking.sol\":11536:11582  getTotalStakeOfActiveStakersExcept(address(0)) */\n      jump\t// in\n    tag_349:\n        /* \"JaiHo/system-contracts/Staking.sol\":11529:11582  return getTotalStakeOfActiveStakersExcept(address(0)) */\n      swap2\n      pop\n      swap2\n      pop\n        /* \"JaiHo/system-contracts/Staking.sol\":11402:11589  function getTotalStakeOfActiveStakers()... */\n      swap1\n      swap2\n      jump\t// out\n        /* \"JaiHo/system-contracts/Staking.sol\":13575:13719  function updateStakingLockPeriod(uint64 _stakingLockPeriod) external onlyOwner... */\n    tag_168:\n        /* \"JaiHo/system-contracts/Staking.sol\":1748:1761  _checkOwner() */\n      tag_351\n        /* \"JaiHo/system-contracts/Staking.sol\":1748:1759  _checkOwner */\n      tag_194\n        /* \"JaiHo/system-contracts/Staking.sol\":1748:1761  _checkOwner() */\n      jump\t// in\n    tag_351:\n        /* \"JaiHo/system-contracts/Staking.sol\":13686:13712  _stakingLockPeriod * 86400 */\n      tag_353\n        /* \"JaiHo/system-contracts/Staking.sol\":13686:13704  _stakingLockPeriod */\n      dup2\n        /* \"JaiHo/system-contracts/Staking.sol\":13707:13712  86400 */\n      0x015180\n        /* \"JaiHo/system-contracts/Staking.sol\":13686:13712  _stakingLockPeriod * 86400 */\n      tag_354\n      jump\t// in\n    tag_353:\n        /* \"JaiHo/system-contracts/Staking.sol\":13666:13683  stakingLockPeriod */\n      0x08\n        /* \"JaiHo/system-contracts/Staking.sol\":13666:13712  stakingLockPeriod = _stakingLockPeriod * 86400 */\n      dup1\n      sload\n      not(0xffffffffffffffff)\n      and\n      sub(shl(0x40, 0x01), 0x01)\n      swap3\n      swap1\n      swap3\n      and\n      swap2\n      swap1\n      swap2\n      or\n      swap1\n      sstore\n      pop\n        /* \"JaiHo/system-contracts/Staking.sol\":13575:13719  function updateStakingLockPeriod(uint64 _stakingLockPeriod) external onlyOwner... */\n      jump\t// out\n        /* \"JaiHo/system-contracts/Staking.sol\":2735:2967  function transferOwnership(address newOwner) public virtual onlyOwner {... */\n    tag_172:\n        /* \"JaiHo/system-contracts/Staking.sol\":1748:1761  _checkOwner() */\n      tag_356\n        /* \"JaiHo/system-contracts/Staking.sol\":1748:1759  _checkOwner */\n      tag_194\n        /* \"JaiHo/system-contracts/Staking.sol\":1748:1761  _checkOwner() */\n      jump\t// in\n    tag_356:\n      sub(shl(0xa0, 0x01), 0x01)\n        /* \"JaiHo/system-contracts/Staking.sol\":2836:2858  newOwner != address(0) */\n      dup2\n      and\n        /* \"JaiHo/system-contracts/Staking.sol\":2815:2922  require(... */\n      tag_358\n      jumpi\n      mload(0x40)\n      shl(0xe5, 0x461bcd)\n      dup2\n      mstore\n        /* \"#utility.yul\":15155:15157   */\n      0x20\n        /* \"JaiHo/system-contracts/Staking.sol\":2815:2922  require(... */\n      0x04\n      dup3\n      add\n        /* \"#utility.yul\":15137:15158   */\n      mstore\n        /* \"#utility.yul\":15194:15196   */\n      0x26\n        /* \"#utility.yul\":15174:15192   */\n      0x24\n      dup3\n      add\n        /* \"#utility.yul\":15167:15197   */\n      mstore\n        /* \"#utility.yul\":15233:15267   */\n      0x4f776e61626c653a206e6577206f776e657220697320746865207a65726f2061\n        /* \"#utility.yul\":15213:15231   */\n      0x44\n      dup3\n      add\n        /* \"#utility.yul\":15206:15268   */\n      mstore\n      shl(0xd0, 0x646472657373)\n        /* \"#utility.yul\":15284:15302   */\n      0x64\n      dup3\n      add\n        /* \"#utility.yul\":15277:15313   */\n      mstore\n        /* \"#utility.yul\":15330:15349   */\n      0x84\n      add\n        /* \"JaiHo/system-contracts/Staking.sol\":2815:2922  require(... */\n      tag_197\n        /* \"#utility.yul\":14953:15355   */\n      jump\n        /* \"JaiHo/system-contracts/Staking.sol\":2815:2922  require(... */\n    tag_358:\n        /* \"JaiHo/system-contracts/Staking.sol\":2932:2960  _transferOwnership(newOwner) */\n      tag_344\n        /* \"JaiHo/system-contracts/Staking.sol\":2951:2959  newOwner */\n      dup2\n        /* \"JaiHo/system-contracts/Staking.sol\":2932:2950  _transferOwnership */\n      tag_268\n        /* \"JaiHo/system-contracts/Staking.sol\":2932:2960  _transferOwnership(newOwner) */\n      jump\t// in\n        /* \"JaiHo/system-contracts/Staking.sol\":12290:13219  function viewStakeReward(address _staker) public view returns(uint256 valReward, uint256 stakerReward){... */\n    tag_176:\n      sub(shl(0xa0, 0x01), 0x01)\n        /* \"JaiHo/system-contracts/Staking.sol\":12480:12509  rewardWithdrawalTime[_staker] */\n      dup2\n      and\n        /* \"JaiHo/system-contracts/Staking.sol\":12352:12369  uint256 valReward */\n      0x00\n        /* \"JaiHo/system-contracts/Staking.sol\":12480:12509  rewardWithdrawalTime[_staker] */\n      swap1\n      dup2\n      mstore\n        /* \"JaiHo/system-contracts/Staking.sol\":12480:12500  rewardWithdrawalTime */\n      0x0a\n        /* \"JaiHo/system-contracts/Staking.sol\":12480:12509  rewardWithdrawalTime[_staker] */\n      0x20\n      mstore\n      0x40\n      dup2\n      keccak256\n      sload\n        /* \"JaiHo/system-contracts/Staking.sol\":12352:12369  uint256 valReward */\n      dup2\n      swap1\n      dup2\n      swap1\n      dup2\n      swap1\n        /* \"JaiHo/system-contracts/Staking.sol\":12480:12513  rewardWithdrawalTime[_staker] > 0 */\n      iszero\n        /* \"JaiHo/system-contracts/Staking.sol\":12477:12632  if(rewardWithdrawalTime[_staker] > 0)... */\n      tag_363\n      jumpi\n      sub(shl(0xa0, 0x01), 0x01)\n        /* \"JaiHo/system-contracts/Staking.sol\":12602:12631  rewardWithdrawalTime[_staker] */\n      dup6\n      and\n        /* \"JaiHo/system-contracts/Staking.sol\":12581:12632  reflectionPercentSum[rewardWithdrawalTime[_staker]] */\n      0x00\n        /* \"JaiHo/system-contracts/Staking.sol\":12602:12631  rewardWithdrawalTime[_staker] */\n      swap1\n      dup2\n      mstore\n        /* \"JaiHo/system-contracts/Staking.sol\":12602:12622  rewardWithdrawalTime */\n      0x0a\n        /* \"JaiHo/system-contracts/Staking.sol\":12602:12631  rewardWithdrawalTime[_staker] */\n      0x20\n      swap1\n      dup2\n      mstore\n      0x40\n      dup1\n      dup4\n      keccak256\n      sload\n        /* \"JaiHo/system-contracts/Staking.sol\":12581:12632  reflectionPercentSum[rewardWithdrawalTime[_staker]] */\n      dup4\n      mstore\n        /* \"JaiHo/system-contracts/Staking.sol\":12581:12601  reflectionPercentSum */\n      0x0e\n        /* \"JaiHo/system-contracts/Staking.sol\":12581:12632  reflectionPercentSum[rewardWithdrawalTime[_staker]] */\n      swap1\n      swap2\n      mstore\n      dup1\n      dup3\n      keccak256\n      sload\n        /* \"JaiHo/system-contracts/Staking.sol\":12563:12577  lastRewardTime */\n      sload(0x0d)\n        /* \"JaiHo/system-contracts/Staking.sol\":12542:12578  reflectionPercentSum[lastRewardTime] */\n      dup4\n      mstore\n      swap2\n      keccak256\n      sload\n        /* \"JaiHo/system-contracts/Staking.sol\":12542:12632  reflectionPercentSum[lastRewardTime] - reflectionPercentSum[rewardWithdrawalTime[_staker]] */\n      tag_364\n      swap2\n        /* \"JaiHo/system-contracts/Staking.sol\":12581:12632  reflectionPercentSum[rewardWithdrawalTime[_staker]] */\n      swap1\n        /* \"JaiHo/system-contracts/Staking.sol\":12542:12632  reflectionPercentSum[lastRewardTime] - reflectionPercentSum[rewardWithdrawalTime[_staker]] */\n      tag_205\n      jump\t// in\n    tag_364:\n        /* \"JaiHo/system-contracts/Staking.sol\":12527:12632  validPercent = reflectionPercentSum[lastRewardTime] - reflectionPercentSum[rewardWithdrawalTime[_staker]] */\n      swap2\n      pop\n        /* \"JaiHo/system-contracts/Staking.sol\":12477:12632  if(rewardWithdrawalTime[_staker] > 0)... */\n    tag_363:\n      sub(shl(0xa0, 0x01), 0x01)\n        /* \"JaiHo/system-contracts/Staking.sol\":12730:12751  valStakeTime[_staker] */\n      dup6\n      and\n        /* \"JaiHo/system-contracts/Staking.sol\":12709:12752  reflectionPercentSum[valStakeTime[_staker]] */\n      0x00\n        /* \"JaiHo/system-contracts/Staking.sol\":12730:12751  valStakeTime[_staker] */\n      swap1\n      dup2\n      mstore\n        /* \"JaiHo/system-contracts/Staking.sol\":12730:12742  valStakeTime */\n      0x0c\n        /* \"JaiHo/system-contracts/Staking.sol\":12730:12751  valStakeTime[_staker] */\n      0x20\n      swap1\n      dup2\n      mstore\n      0x40\n      dup1\n      dup4\n      keccak256\n      sload\n        /* \"JaiHo/system-contracts/Staking.sol\":12709:12752  reflectionPercentSum[valStakeTime[_staker]] */\n      dup4\n      mstore\n        /* \"JaiHo/system-contracts/Staking.sol\":12709:12729  reflectionPercentSum */\n      0x0e\n        /* \"JaiHo/system-contracts/Staking.sol\":12709:12752  reflectionPercentSum[valStakeTime[_staker]] */\n      swap1\n      swap2\n      mstore\n      dup1\n      dup3\n      keccak256\n      sload\n        /* \"JaiHo/system-contracts/Staking.sol\":12691:12705  lastRewardTime */\n      sload(0x0d)\n        /* \"JaiHo/system-contracts/Staking.sol\":12670:12706  reflectionPercentSum[lastRewardTime] */\n      dup4\n      mstore\n      swap2\n      keccak256\n      sload\n        /* \"JaiHo/system-contracts/Staking.sol\":12670:12752  reflectionPercentSum[lastRewardTime] - reflectionPercentSum[valStakeTime[_staker]] */\n      tag_365\n      swap2\n        /* \"JaiHo/system-contracts/Staking.sol\":12709:12752  reflectionPercentSum[valStakeTime[_staker]] */\n      swap1\n        /* \"JaiHo/system-contracts/Staking.sol\":12670:12752  reflectionPercentSum[lastRewardTime] - reflectionPercentSum[valStakeTime[_staker]] */\n      tag_205\n      jump\t// in\n    tag_365:\n        /* \"JaiHo/system-contracts/Staking.sol\":12811:12826  valDataContract */\n      sload(0x01)\n        /* \"JaiHo/system-contracts/Staking.sol\":12811:12866  valDataContract.validatorSpecificInfo2(_staker,_staker) */\n      mload(0x40)\n      shl(0xe0, 0x64877981)\n      dup2\n      mstore\n      sub(shl(0xa0, 0x01), 0x01)\n        /* \"#utility.yul\":6974:6989   */\n      dup9\n      dup2\n      and\n        /* \"JaiHo/system-contracts/Staking.sol\":12811:12866  valDataContract.validatorSpecificInfo2(_staker,_staker) */\n      0x04\n      dup4\n      add\n        /* \"#utility.yul\":6956:6990   */\n      dup2\n      swap1\n      mstore\n        /* \"#utility.yul\":7006:7024   */\n      0x24\n      dup4\n      add\n        /* \"#utility.yul\":6999:7042   */\n      mstore\n        /* \"JaiHo/system-contracts/Staking.sol\":12646:12752  validValidatorPercent = reflectionPercentSum[lastRewardTime] - reflectionPercentSum[valStakeTime[_staker]] */\n      swap3\n      swap4\n      pop\n        /* \"JaiHo/system-contracts/Staking.sol\":12768:12797  uint256 validatorsStakedCoins */\n      0x00\n      swap3\n        /* \"JaiHo/system-contracts/Staking.sol\":12811:12826  valDataContract */\n      swap1\n      swap2\n      and\n      swap1\n        /* \"JaiHo/system-contracts/Staking.sol\":12811:12849  valDataContract.validatorSpecificInfo2 */\n      0x64877981\n      swap1\n        /* \"#utility.yul\":6891:6909   */\n      0x44\n      add\n        /* \"JaiHo/system-contracts/Staking.sol\":12811:12866  valDataContract.validatorSpecificInfo2(_staker,_staker) */\n      0xc0\n      mload(0x40)\n      dup1\n      dup4\n      sub\n      dup2\n      dup7\n      gas\n      staticcall\n      iszero\n      dup1\n      iszero\n      tag_368\n      jumpi\n      returndatasize\n      0x00\n      dup1\n      returndatacopy\n      revert(0x00, returndatasize)\n    tag_368:\n      pop\n      pop\n      pop\n      pop\n      mload(0x40)\n      returndatasize\n      not(0x1f)\n      0x1f\n      dup3\n      add\n      and\n      dup3\n      add\n      dup1\n      0x40\n      mstore\n      pop\n      dup2\n      add\n      swap1\n      tag_369\n      swap2\n      swap1\n      tag_278\n      jump\t// in\n    tag_369:\n        /* \"JaiHo/system-contracts/Staking.sol\":12767:12866  (uint256 validatorsStakedCoins, , , , ,)  = valDataContract.validatorSpecificInfo2(_staker,_staker) */\n      pop\n      pop\n      pop\n      pop\n      pop\n      swap1\n      pop\n        /* \"JaiHo/system-contracts/Staking.sol\":12923:12924  0 */\n      0x00\n        /* \"JaiHo/system-contracts/Staking.sol\":12899:12920  validValidatorPercent */\n      dup3\n        /* \"JaiHo/system-contracts/Staking.sol\":12884:12896  validPercent */\n      dup5\n        /* \"JaiHo/system-contracts/Staking.sol\":12884:12920  validPercent + validValidatorPercent */\n      tag_370\n      swap2\n      swap1\n      tag_210\n      jump\t// in\n    tag_370:\n        /* \"JaiHo/system-contracts/Staking.sol\":12884:12924  validPercent + validValidatorPercent > 0 */\n      gt\n        /* \"JaiHo/system-contracts/Staking.sol\":12881:13190  if(validPercent + validValidatorPercent > 0)... */\n      iszero\n      tag_371\n      jumpi\n        /* \"JaiHo/system-contracts/Staking.sol\":13016:13035  1000000000000000000 */\n      0x0de0b6b3a7640000\n        /* \"JaiHo/system-contracts/Staking.sol\":12968:13013  validatorsStakedCoins * validValidatorPercent */\n      tag_372\n        /* \"JaiHo/system-contracts/Staking.sol\":12992:13013  validValidatorPercent */\n      dup4\n        /* \"JaiHo/system-contracts/Staking.sol\":12968:12989  validatorsStakedCoins */\n      dup4\n        /* \"JaiHo/system-contracts/Staking.sol\":12968:13013  validatorsStakedCoins * validValidatorPercent */\n      tag_214\n      jump\t// in\n    tag_372:\n        /* \"JaiHo/system-contracts/Staking.sol\":12968:13035  validatorsStakedCoins * validValidatorPercent / 1000000000000000000 */\n      tag_373\n      swap2\n      swap1\n      tag_216\n      jump\t// in\n    tag_373:\n      sub(shl(0xa0, 0x01), 0x01)\n        /* \"JaiHo/system-contracts/Staking.sol\":13068:13087  stakerInfo[_staker] */\n      dup8\n      and\n      0x00\n      swap1\n      dup2\n      mstore\n        /* \"JaiHo/system-contracts/Staking.sol\":13068:13078  stakerInfo */\n      0x02\n        /* \"JaiHo/system-contracts/Staking.sol\":13068:13087  stakerInfo[_staker] */\n      0x20\n      mstore\n      0x40\n      swap1\n      keccak256\n      sload\n        /* \"JaiHo/system-contracts/Staking.sol\":12956:13035  valReward = validatorsStakedCoins * validValidatorPercent / 1000000000000000000 */\n      swap1\n      swap6\n      pop\n        /* \"JaiHo/system-contracts/Staking.sol\":13105:13124  1000000000000000000 */\n      0x0de0b6b3a7640000\n      swap1\n        /* \"JaiHo/system-contracts/Staking.sol\":13068:13102  stakerInfo[_staker] * validPercent */\n      tag_374\n      swap1\n        /* \"JaiHo/system-contracts/Staking.sol\":13090:13102  validPercent */\n      dup6\n      swap1\n        /* \"JaiHo/system-contracts/Staking.sol\":13068:13102  stakerInfo[_staker] * validPercent */\n      tag_214\n      jump\t// in\n    tag_374:\n        /* \"JaiHo/system-contracts/Staking.sol\":13068:13124  stakerInfo[_staker] * validPercent / 1000000000000000000 */\n      tag_375\n      swap2\n      swap1\n      tag_216\n      jump\t// in\n    tag_375:\n        /* \"JaiHo/system-contracts/Staking.sol\":13053:13124  stakerReward = stakerInfo[_staker] * validPercent / 1000000000000000000 */\n      swap4\n      pop\n        /* \"JaiHo/system-contracts/Staking.sol\":13142:13174  return (valReward, stakerReward) */\n      pop\n      pop\n      pop\n        /* \"JaiHo/system-contracts/Staking.sol\":12290:13219  function viewStakeReward(address _staker) public view returns(uint256 valReward, uint256 stakerReward){... */\n      swap2\n      pop\n      swap2\n      jump\t// out\n        /* \"JaiHo/system-contracts/Staking.sol\":12881:13190  if(validPercent + validValidatorPercent > 0)... */\n    tag_371:\n      pop\n        /* \"JaiHo/system-contracts/Staking.sol\":13207:13208  0 */\n      0x00\n      swap6\n      dup7\n      swap6\n      pop\n        /* \"JaiHo/system-contracts/Staking.sol\":12290:13219  function viewStakeReward(address _staker) public view returns(uint256 valReward, uint256 stakerReward){... */\n      swap4\n      pop\n      pop\n      pop\n      pop\n      jump\t// out\n        /* \"JaiHo/system-contracts/Staking.sol\":13348:13570  function updateMinimalStakingCoin(uint256 _MinimalStakingCoin... */\n    tag_181:\n        /* \"JaiHo/system-contracts/Staking.sol\":1748:1761  _checkOwner() */\n      tag_377\n        /* \"JaiHo/system-contracts/Staking.sol\":1748:1759  _checkOwner */\n      tag_194\n        /* \"JaiHo/system-contracts/Staking.sol\":1748:1761  _checkOwner() */\n      jump\t// in\n    tag_377:\n        /* \"JaiHo/system-contracts/Staking.sol\":13481:13482  0 */\n      0x00\n        /* \"JaiHo/system-contracts/Staking.sol\":13459:13478  _MinimalStakingCoin */\n      dup2\n        /* \"JaiHo/system-contracts/Staking.sol\":13459:13482  _MinimalStakingCoin > 0 */\n      gt\n        /* \"JaiHo/system-contracts/Staking.sol\":13451:13515  require(_MinimalStakingCoin > 0, 'Incorrect MinimalStakingCoin') */\n      tag_379\n      jumpi\n      mload(0x40)\n      shl(0xe5, 0x461bcd)\n      dup2\n      mstore\n        /* \"#utility.yul\":15562:15564   */\n      0x20\n        /* \"JaiHo/system-contracts/Staking.sol\":13451:13515  require(_MinimalStakingCoin > 0, 'Incorrect MinimalStakingCoin') */\n      0x04\n      dup3\n      add\n        /* \"#utility.yul\":15544:15565   */\n      mstore\n        /* \"#utility.yul\":15601:15603   */\n      0x1c\n        /* \"#utility.yul\":15581:15599   */\n      0x24\n      dup3\n      add\n        /* \"#utility.yul\":15574:15604   */\n      mstore\n        /* \"#utility.yul\":15640:15670   */\n      0x496e636f7272656374204d696e696d616c5374616b696e67436f696e00000000\n        /* \"#utility.yul\":15620:15638   */\n      0x44\n      dup3\n      add\n        /* \"#utility.yul\":15613:15671   */\n      mstore\n        /* \"#utility.yul\":15688:15706   */\n      0x64\n      add\n        /* \"JaiHo/system-contracts/Staking.sol\":13451:13515  require(_MinimalStakingCoin > 0, 'Incorrect MinimalStakingCoin') */\n      tag_197\n        /* \"#utility.yul\":15360:15712   */\n      jump\n        /* \"JaiHo/system-contracts/Staking.sol\":13451:13515  require(_MinimalStakingCoin > 0, 'Incorrect MinimalStakingCoin') */\n    tag_379:\n        /* \"JaiHo/system-contracts/Staking.sol\":13523:13541  MinimalStakingCoin */\n      0x03\n        /* \"JaiHo/system-contracts/Staking.sol\":13523:13563  MinimalStakingCoin = _MinimalStakingCoin */\n      sstore\n        /* \"JaiHo/system-contracts/Staking.sol\":13348:13570  function updateMinimalStakingCoin(uint256 _MinimalStakingCoin... */\n      jump\t// out\n        /* \"JaiHo/system-contracts/Staking.sol\":4583:4616  address[] public currentStakerSet */\n    tag_185:\n      0x05\n      dup2\n      dup2\n      sload\n      dup2\n      lt\n      tag_382\n      jumpi\n      0x00\n      dup1\n      revert\n    tag_382:\n      0x00\n      swap2\n      dup3\n      mstore\n      0x20\n      swap1\n      swap2\n      keccak256\n      add\n      sload\n      sub(shl(0xa0, 0x01), 0x01)\n      and\n      swap1\n      pop\n      dup2\n      jump\t// out\n        /* \"JaiHo/system-contracts/Staking.sol\":2013:2143  function _checkOwner() internal view virtual {... */\n    tag_194:\n        /* \"JaiHo/system-contracts/Staking.sol\":1901:1908  address */\n      0x00\n        /* \"JaiHo/system-contracts/Staking.sol\":1927:1933  _owner */\n      sload\n      sub(shl(0xa0, 0x01), 0x01)\n      and\n        /* \"JaiHo/system-contracts/Staking.sol\":665:675  msg.sender */\n      caller\n        /* \"JaiHo/system-contracts/Staking.sol\":2076:2099  owner() == _msgSender() */\n      eq\n        /* \"JaiHo/system-contracts/Staking.sol\":2068:2136  require(owner() == _msgSender(), \"Ownable: caller is not the owner\") */\n      tag_267\n      jumpi\n      mload(0x40)\n      shl(0xe5, 0x461bcd)\n      dup2\n      mstore\n        /* \"#utility.yul\":15919:15921   */\n      0x20\n        /* \"JaiHo/system-contracts/Staking.sol\":2068:2136  require(owner() == _msgSender(), \"Ownable: caller is not the owner\") */\n      0x04\n      dup3\n      add\n        /* \"#utility.yul\":15901:15922   */\n      dup2\n      swap1\n      mstore\n        /* \"#utility.yul\":15938:15956   */\n      0x24\n      dup3\n      add\n        /* \"#utility.yul\":15931:15961   */\n      mstore\n        /* \"#utility.yul\":15997:16031   */\n      0x4f776e61626c653a2063616c6c6572206973206e6f7420746865206f776e6572\n        /* \"#utility.yul\":15977:15995   */\n      0x44\n      dup3\n      add\n        /* \"#utility.yul\":15970:16032   */\n      mstore\n        /* \"#utility.yul\":16049:16067   */\n      0x64\n      add\n        /* \"JaiHo/system-contracts/Staking.sol\":2068:2136  require(owner() == _msgSender(), \"Ownable: caller is not the owner\") */\n      tag_197\n        /* \"#utility.yul\":15717:16073   */\n      jump\n        /* \"JaiHo/system-contracts/Staking.sol\":10248:10855  function removeStakerFromCurrrentSet(address staker) private {... */\n    tag_208:\n        /* \"JaiHo/system-contracts/Staking.sol\":10337:10346  uint256 i */\n      0x00\n        /* \"JaiHo/system-contracts/Staking.sol\":10319:10849  for (... */\n    tag_392:\n        /* \"JaiHo/system-contracts/Staking.sol\":10368:10384  currentStakerSet */\n      0x05\n        /* \"JaiHo/system-contracts/Staking.sol\":10368:10391  currentStakerSet.length */\n      sload\n        /* \"JaiHo/system-contracts/Staking.sol\":10364:10391  i < currentStakerSet.length */\n      dup2\n      lt\n        /* \"JaiHo/system-contracts/Staking.sol\":10319:10849  for (... */\n      iszero\n      tag_393\n      jumpi\n        /* \"JaiHo/system-contracts/Staking.sol\":10447:10463  currentStakerSet */\n      0x05\n        /* \"JaiHo/system-contracts/Staking.sol\":10464:10465  i */\n      dup2\n        /* \"JaiHo/system-contracts/Staking.sol\":10447:10466  currentStakerSet[i] */\n      dup2\n      sload\n      dup2\n      lt\n      tag_396\n      jumpi\n      tag_396\n      tag_259\n      jump\t// in\n    tag_396:\n      0x00\n      swap2\n      dup3\n      mstore\n      0x20\n      swap1\n      swap2\n      keccak256\n      add\n      sload\n      sub(shl(0xa0, 0x01), 0x01)\n      swap1\n      dup2\n      and\n        /* \"JaiHo/system-contracts/Staking.sol\":10437:10466  staker == currentStakerSet[i] */\n      swap1\n      dup4\n      and\n      sub\n        /* \"JaiHo/system-contracts/Staking.sol\":10433:10839  if (staker == currentStakerSet[i]) {... */\n      tag_398\n      jumpi\n        /* \"JaiHo/system-contracts/Staking.sol\":10524:10540  currentStakerSet */\n      0x05\n        /* \"JaiHo/system-contracts/Staking.sol\":10524:10547  currentStakerSet.length */\n      sload\n        /* \"JaiHo/system-contracts/Staking.sol\":10524:10551  currentStakerSet.length - 1 */\n      tag_399\n      swap1\n        /* \"JaiHo/system-contracts/Staking.sol\":10550:10551  1 */\n      0x01\n      swap1\n        /* \"JaiHo/system-contracts/Staking.sol\":10524:10551  currentStakerSet.length - 1 */\n      tag_205\n      jump\t// in\n    tag_399:\n        /* \"JaiHo/system-contracts/Staking.sol\":10519:10520  i */\n      dup2\n        /* \"JaiHo/system-contracts/Staking.sol\":10519:10551  i != currentStakerSet.length - 1 */\n      eq\n        /* \"JaiHo/system-contracts/Staking.sol\":10515:10686  if (i != currentStakerSet.length - 1) {... */\n      tag_400\n      jumpi\n        /* \"JaiHo/system-contracts/Staking.sol\":10597:10613  currentStakerSet */\n      0x05\n        /* \"JaiHo/system-contracts/Staking.sol\":10614:10662  currentStakerSet... */\n      dup1\n      sload\n        /* \"JaiHo/system-contracts/Staking.sol\":10614:10666  currentStakerSet... */\n      tag_401\n      swap1\n        /* \"JaiHo/system-contracts/Staking.sol\":10665:10666  1 */\n      0x01\n      swap1\n        /* \"JaiHo/system-contracts/Staking.sol\":10614:10666  currentStakerSet... */\n      tag_205\n      jump\t// in\n    tag_401:\n        /* \"JaiHo/system-contracts/Staking.sol\":10597:10667  currentStakerSet[currentStakerSet... */\n      dup2\n      sload\n      dup2\n      lt\n      tag_403\n      jumpi\n      tag_403\n      tag_259\n      jump\t// in\n    tag_403:\n      0x00\n      swap2\n      dup3\n      mstore\n      0x20\n      swap1\n      swap2\n      keccak256\n      add\n      sload\n        /* \"JaiHo/system-contracts/Staking.sol\":10575:10591  currentStakerSet */\n      0x05\n        /* \"JaiHo/system-contracts/Staking.sol\":10575:10594  currentStakerSet[i] */\n      dup1\n      sload\n      sub(shl(0xa0, 0x01), 0x01)\n        /* \"JaiHo/system-contracts/Staking.sol\":10597:10667  currentStakerSet[currentStakerSet... */\n      swap1\n      swap3\n      and\n      swap2\n        /* \"JaiHo/system-contracts/Staking.sol\":10592:10593  i */\n      dup4\n      swap1\n        /* \"JaiHo/system-contracts/Staking.sol\":10575:10594  currentStakerSet[i] */\n      dup2\n      lt\n      tag_406\n      jumpi\n      tag_406\n      tag_259\n      jump\t// in\n    tag_406:\n      swap1\n      0x00\n      mstore\n      keccak256(0x00, 0x20)\n      add\n      0x00\n        /* \"JaiHo/system-contracts/Staking.sol\":10575:10667  currentStakerSet[i] = currentStakerSet[currentStakerSet... */\n      0x0100\n      exp\n      dup2\n      sload\n      dup2\n      sub(shl(0xa0, 0x01), 0x01)\n      mul\n      not\n      and\n      swap1\n      dup4\n      sub(shl(0xa0, 0x01), 0x01)\n      and\n      mul\n      or\n      swap1\n      sstore\n      pop\n        /* \"JaiHo/system-contracts/Staking.sol\":10515:10686  if (i != currentStakerSet.length - 1) {... */\n    tag_400:\n        /* \"JaiHo/system-contracts/Staking.sol\":10704:10720  currentStakerSet */\n      0x05\n        /* \"JaiHo/system-contracts/Staking.sol\":10704:10726  currentStakerSet.pop() */\n      dup1\n      sload\n      dup1\n      tag_409\n      jumpi\n      tag_409\n      tag_410\n      jump\t// in\n    tag_409:\n      0x00\n      dup3\n      dup2\n      mstore\n      0x20\n      swap1\n      keccak256\n      dup2\n      add\n      not(0x00)\n      swap1\n      dup2\n      add\n      dup1\n      sload\n      not(sub(shl(0xa0, 0x01), 0x01))\n      and\n      swap1\n      sstore\n      add\n      swap1\n      sstore\n        /* \"JaiHo/system-contracts/Staking.sol\":10749:10800  LogRemoveFromCurrentStaker(staker, block.timestamp) */\n      mload(0x40)\n      sub(shl(0xa0, 0x01), 0x01)\n      dup4\n      and\n      swap1\n      0x77f1de51ae9c845b4fff5f1512c8736ea703337fe77421649a51f6188d3470b2\n      swap1\n      tag_412\n      swap1\n        /* \"JaiHo/system-contracts/Staking.sol\":10784:10799  block.timestamp */\n      timestamp\n        /* \"#utility.yul\":449:474   */\n      dup2\n      mstore\n        /* \"#utility.yul\":437:439   */\n      0x20\n        /* \"#utility.yul\":422:440   */\n      add\n      swap1\n        /* \"#utility.yul\":303:480   */\n      jump\n        /* \"JaiHo/system-contracts/Staking.sol\":10749:10800  LogRemoveFromCurrentStaker(staker, block.timestamp) */\n    tag_412:\n      mload(0x40)\n      dup1\n      swap2\n      sub\n      swap1\n      log2\n        /* \"JaiHo/system-contracts/Staking.sol\":10319:10849  for (... */\n      pop\n        /* \"JaiHo/system-contracts/Staking.sol\":10248:10855  function removeStakerFromCurrrentSet(address staker) private {... */\n      pop\n      jump\t// out\n        /* \"JaiHo/system-contracts/Staking.sol\":10433:10839  if (staker == currentStakerSet[i]) {... */\n    tag_398:\n        /* \"JaiHo/system-contracts/Staking.sol\":10405:10408  i++ */\n      dup1\n      tag_413\n      dup2\n      tag_263\n      jump\t// in\n    tag_413:\n      swap2\n      pop\n      pop\n        /* \"JaiHo/system-contracts/Staking.sol\":10319:10849  for (... */\n      jump(tag_392)\n    tag_393:\n      pop\n        /* \"JaiHo/system-contracts/Staking.sol\":10248:10855  function removeStakerFromCurrrentSet(address staker) private {... */\n      pop\n      jump\t// out\n        /* \"JaiHo/system-contracts/Staking.sol\":3121:3308  function _transferOwnership(address newOwner) internal virtual {... */\n    tag_268:\n        /* \"JaiHo/system-contracts/Staking.sol\":3194:3210  address oldOwner */\n      0x00\n        /* \"JaiHo/system-contracts/Staking.sol\":3213:3219  _owner */\n      dup1\n      sload\n      sub(shl(0xa0, 0x01), 0x01)\n        /* \"JaiHo/system-contracts/Staking.sol\":3229:3246  _owner = newOwner */\n      dup4\n      dup2\n      and\n      not(sub(shl(0xa0, 0x01), 0x01))\n      dup4\n      and\n      dup2\n      or\n      dup5\n      sstore\n        /* \"JaiHo/system-contracts/Staking.sol\":3261:3301  OwnershipTransferred(oldOwner, newOwner) */\n      mload(0x40)\n        /* \"JaiHo/system-contracts/Staking.sol\":3213:3219  _owner */\n      swap2\n      swap1\n      swap3\n      and\n      swap3\n      dup4\n      swap2\n        /* \"JaiHo/system-contracts/Staking.sol\":3261:3301  OwnershipTransferred(oldOwner, newOwner) */\n      0x8be0079c531659141344cd1fd0a4f28419497f9722a3daafe3b4186f6b6457e0\n      swap2\n        /* \"JaiHo/system-contracts/Staking.sol\":3194:3210  address oldOwner */\n      swap1\n        /* \"JaiHo/system-contracts/Staking.sol\":3261:3301  OwnershipTransferred(oldOwner, newOwner) */\n      log3\n        /* \"JaiHo/system-contracts/Staking.sol\":3184:3308  {... */\n      pop\n        /* \"JaiHo/system-contracts/Staking.sol\":3121:3308  function _transferOwnership(address newOwner) internal virtual {... */\n      pop\n      jump\t// out\n        /* \"JaiHo/system-contracts/Staking.sol\":11595:12021  function getTotalStakeOfActiveStakersExcept(address sta)... */\n    tag_301:\n        /* \"JaiHo/system-contracts/Staking.sol\":11698:11711  uint256 total */\n      0x00\n        /* \"JaiHo/system-contracts/Staking.sol\":11713:11724  uint256 len */\n      dup1\n        /* \"JaiHo/system-contracts/Staking.sol\":11745:11754  uint256 i */\n      0x00\n        /* \"JaiHo/system-contracts/Staking.sol\":11740:11985  for (uint256 i = 0; i < currentStakerSet.length; i++) {... */\n    tag_416:\n        /* \"JaiHo/system-contracts/Staking.sol\":11764:11780  currentStakerSet */\n      0x05\n        /* \"JaiHo/system-contracts/Staking.sol\":11764:11787  currentStakerSet.length */\n      sload\n        /* \"JaiHo/system-contracts/Staking.sol\":11760:11787  i < currentStakerSet.length */\n      dup2\n      lt\n        /* \"JaiHo/system-contracts/Staking.sol\":11740:11985  for (uint256 i = 0; i < currentStakerSet.length; i++) {... */\n      iszero\n      tag_417\n      jumpi\n        /* \"JaiHo/system-contracts/Staking.sol\":11836:11852  currentStakerSet */\n      0x05\n        /* \"JaiHo/system-contracts/Staking.sol\":11853:11854  i */\n      dup2\n        /* \"JaiHo/system-contracts/Staking.sol\":11836:11855  currentStakerSet[i] */\n      dup2\n      sload\n      dup2\n      lt\n      tag_420\n      jumpi\n      tag_420\n      tag_259\n      jump\t// in\n    tag_420:\n      0x00\n      swap2\n      dup3\n      mstore\n      0x20\n      swap1\n      swap2\n      keccak256\n      add\n      sload\n      sub(shl(0xa0, 0x01), 0x01)\n        /* \"JaiHo/system-contracts/Staking.sol\":11829:11855  sta != currentStakerSet[i] */\n      dup6\n      dup2\n      and\n        /* \"JaiHo/system-contracts/Staking.sol\":11836:11855  currentStakerSet[i] */\n      swap2\n      and\n        /* \"JaiHo/system-contracts/Staking.sol\":11829:11855  sta != currentStakerSet[i] */\n      eq\n        /* \"JaiHo/system-contracts/Staking.sol\":11808:11975  if (... */\n      tag_422\n      jumpi\n        /* \"JaiHo/system-contracts/Staking.sol\":11905:11915  stakerInfo */\n      0x02\n        /* \"JaiHo/system-contracts/Staking.sol\":11905:11936  stakerInfo[currentStakerSet[i]] */\n      0x00\n        /* \"JaiHo/system-contracts/Staking.sol\":11916:11932  currentStakerSet */\n      0x05\n        /* \"JaiHo/system-contracts/Staking.sol\":11933:11934  i */\n      dup4\n        /* \"JaiHo/system-contracts/Staking.sol\":11916:11935  currentStakerSet[i] */\n      dup2\n      sload\n      dup2\n      lt\n      tag_424\n      jumpi\n      tag_424\n      tag_259\n      jump\t// in\n    tag_424:\n      0x00\n      swap2\n      dup3\n      mstore\n      0x20\n      dup1\n      dup4\n      keccak256\n      swap1\n      swap2\n      add\n      sload\n      sub(shl(0xa0, 0x01), 0x01)\n      and\n        /* \"JaiHo/system-contracts/Staking.sol\":11905:11936  stakerInfo[currentStakerSet[i]] */\n      dup4\n      mstore\n      dup3\n      add\n      swap3\n      swap1\n      swap3\n      mstore\n      0x40\n      add\n      swap1\n      keccak256\n      sload\n        /* \"JaiHo/system-contracts/Staking.sol\":11896:11937  total + (stakerInfo[currentStakerSet[i]]) */\n      tag_426\n      swap1\n        /* \"JaiHo/system-contracts/Staking.sol\":11896:11901  total */\n      dup5\n        /* \"JaiHo/system-contracts/Staking.sol\":11896:11937  total + (stakerInfo[currentStakerSet[i]]) */\n      tag_210\n      jump\t// in\n    tag_426:\n        /* \"JaiHo/system-contracts/Staking.sol\":11888:11937  total = total + (stakerInfo[currentStakerSet[i]]) */\n      swap3\n      pop\n        /* \"JaiHo/system-contracts/Staking.sol\":11955:11960  len++ */\n      dup2\n      tag_427\n      dup2\n      tag_263\n      jump\t// in\n    tag_427:\n      swap3\n      pop\n      pop\n        /* \"JaiHo/system-contracts/Staking.sol\":11808:11975  if (... */\n    tag_422:\n        /* \"JaiHo/system-contracts/Staking.sol\":11789:11792  i++ */\n      dup1\n      tag_428\n      dup2\n      tag_263\n      jump\t// in\n    tag_428:\n      swap2\n      pop\n      pop\n        /* \"JaiHo/system-contracts/Staking.sol\":11740:11985  for (uint256 i = 0; i < currentStakerSet.length; i++) {... */\n      jump(tag_416)\n    tag_417:\n      pop\n        /* \"JaiHo/system-contracts/Staking.sol\":11595:12021  function getTotalStakeOfActiveStakersExcept(address sta)... */\n      swap2\n      pop\n      swap2\n      jump\t// out\n        /* \"#utility.yul\":14:298   */\n    tag_45:\n        /* \"#utility.yul\":72:78   */\n      0x00\n        /* \"#utility.yul\":125:127   */\n      0x20\n        /* \"#utility.yul\":113:122   */\n      dup3\n        /* \"#utility.yul\":104:111   */\n      dup5\n        /* \"#utility.yul\":100:123   */\n      sub\n        /* \"#utility.yul\":96:128   */\n      slt\n        /* \"#utility.yul\":93:145   */\n      iszero\n      tag_442\n      jumpi\n        /* \"#utility.yul\":141:142   */\n      0x00\n        /* \"#utility.yul\":138:139   */\n      dup1\n        /* \"#utility.yul\":131:143   */\n      revert\n        /* \"#utility.yul\":93:145   */\n    tag_442:\n        /* \"#utility.yul\":180:189   */\n      dup2\n        /* \"#utility.yul\":167:190   */\n      calldataload\n      sub(shl(0x40, 0x01), 0x01)\n        /* \"#utility.yul\":223:228   */\n      dup2\n        /* \"#utility.yul\":219:249   */\n      and\n        /* \"#utility.yul\":212:217   */\n      dup2\n        /* \"#utility.yul\":209:250   */\n      eq\n        /* \"#utility.yul\":199:268   */\n      tag_443\n      jumpi\n        /* \"#utility.yul\":264:265   */\n      0x00\n        /* \"#utility.yul\":261:262   */\n      dup1\n        /* \"#utility.yul\":254:266   */\n      revert\n        /* \"#utility.yul\":199:268   */\n    tag_443:\n        /* \"#utility.yul\":287:292   */\n      swap4\n        /* \"#utility.yul\":14:298   */\n      swap3\n      pop\n      pop\n      pop\n      jump\t// out\n        /* \"#utility.yul\":485:616   */\n    tag_430:\n      sub(shl(0xa0, 0x01), 0x01)\n        /* \"#utility.yul\":560:591   */\n      dup2\n      and\n        /* \"#utility.yul\":550:592   */\n      dup2\n      eq\n        /* \"#utility.yul\":540:610   */\n      tag_344\n      jumpi\n        /* \"#utility.yul\":606:607   */\n      0x00\n        /* \"#utility.yul\":603:604   */\n      dup1\n        /* \"#utility.yul\":596:608   */\n      revert\n        /* \"#utility.yul\":621:868   */\n    tag_55:\n        /* \"#utility.yul\":680:686   */\n      0x00\n        /* \"#utility.yul\":733:735   */\n      0x20\n        /* \"#utility.yul\":721:730   */\n      dup3\n        /* \"#utility.yul\":712:719   */\n      dup5\n        /* \"#utility.yul\":708:731   */\n      sub\n        /* \"#utility.yul\":704:736   */\n      slt\n        /* \"#utility.yul\":701:753   */\n      iszero\n      tag_448\n      jumpi\n        /* \"#utility.yul\":749:750   */\n      0x00\n        /* \"#utility.yul\":746:747   */\n      dup1\n        /* \"#utility.yul\":739:751   */\n      revert\n        /* \"#utility.yul\":701:753   */\n    tag_448:\n        /* \"#utility.yul\":788:797   */\n      dup2\n        /* \"#utility.yul\":775:798   */\n      calldataload\n        /* \"#utility.yul\":807:838   */\n      tag_443\n        /* \"#utility.yul\":832:837   */\n      dup2\n        /* \"#utility.yul\":807:838   */\n      tag_430\n      jump\t// in\n        /* \"#utility.yul\":1065:1245   */\n    tag_74:\n        /* \"#utility.yul\":1124:1130   */\n      0x00\n        /* \"#utility.yul\":1177:1179   */\n      0x20\n        /* \"#utility.yul\":1165:1174   */\n      dup3\n        /* \"#utility.yul\":1156:1163   */\n      dup5\n        /* \"#utility.yul\":1152:1175   */\n      sub\n        /* \"#utility.yul\":1148:1180   */\n      slt\n        /* \"#utility.yul\":1145:1197   */\n      iszero\n      tag_452\n      jumpi\n        /* \"#utility.yul\":1193:1194   */\n      0x00\n        /* \"#utility.yul\":1190:1191   */\n      dup1\n        /* \"#utility.yul\":1183:1195   */\n      revert\n        /* \"#utility.yul\":1145:1197   */\n    tag_452:\n      pop\n        /* \"#utility.yul\":1216:1239   */\n      calldataload\n      swap2\n        /* \"#utility.yul\":1065:1245   */\n      swap1\n      pop\n      jump\t// out\n        /* \"#utility.yul\":1458:2116   */\n    tag_118:\n        /* \"#utility.yul\":1629:1631   */\n      0x20\n        /* \"#utility.yul\":1681:1702   */\n      dup1\n      dup3\n      mstore\n        /* \"#utility.yul\":1751:1764   */\n      dup3\n      mload\n        /* \"#utility.yul\":1654:1672   */\n      dup3\n      dup3\n      add\n        /* \"#utility.yul\":1773:1795   */\n      dup2\n      swap1\n      mstore\n        /* \"#utility.yul\":1600:1604   */\n      0x00\n      swap2\n        /* \"#utility.yul\":1629:1631   */\n      swap1\n        /* \"#utility.yul\":1852:1867   */\n      dup5\n      dup3\n      add\n      swap1\n        /* \"#utility.yul\":1826:1828   */\n      0x40\n        /* \"#utility.yul\":1811:1829   */\n      dup6\n      add\n      swap1\n        /* \"#utility.yul\":1600:1604   */\n      dup5\n        /* \"#utility.yul\":1895:2090   */\n    tag_455:\n        /* \"#utility.yul\":1909:1915   */\n      dup2\n        /* \"#utility.yul\":1906:1907   */\n      dup2\n        /* \"#utility.yul\":1903:1916   */\n      lt\n        /* \"#utility.yul\":1895:2090   */\n      iszero\n      tag_457\n      jumpi\n        /* \"#utility.yul\":1974:1987   */\n      dup4\n      mload\n      sub(shl(0xa0, 0x01), 0x01)\n        /* \"#utility.yul\":1970:2009   */\n      and\n        /* \"#utility.yul\":1958:2010   */\n      dup4\n      mstore\n        /* \"#utility.yul\":2065:2080   */\n      swap3\n      dup5\n      add\n      swap3\n        /* \"#utility.yul\":2030:2042   */\n      swap2\n      dup5\n      add\n      swap2\n        /* \"#utility.yul\":2006:2007   */\n      0x01\n        /* \"#utility.yul\":1924:1933   */\n      add\n        /* \"#utility.yul\":1895:2090   */\n      jump(tag_455)\n    tag_457:\n      pop\n        /* \"#utility.yul\":2107:2110   */\n      swap1\n      swap7\n        /* \"#utility.yul\":1458:2116   */\n      swap6\n      pop\n      pop\n      pop\n      pop\n      pop\n      pop\n      jump\t// out\n        /* \"#utility.yul\":2121:2436   */\n    tag_122:\n        /* \"#utility.yul\":2189:2195   */\n      0x00\n        /* \"#utility.yul\":2197:2203   */\n      dup1\n        /* \"#utility.yul\":2250:2252   */\n      0x40\n        /* \"#utility.yul\":2238:2247   */\n      dup4\n        /* \"#utility.yul\":2229:2236   */\n      dup6\n        /* \"#utility.yul\":2225:2248   */\n      sub\n        /* \"#utility.yul\":2221:2253   */\n      slt\n        /* \"#utility.yul\":2218:2270   */\n      iszero\n      tag_459\n      jumpi\n        /* \"#utility.yul\":2266:2267   */\n      0x00\n        /* \"#utility.yul\":2263:2264   */\n      dup1\n        /* \"#utility.yul\":2256:2268   */\n      revert\n        /* \"#utility.yul\":2218:2270   */\n    tag_459:\n        /* \"#utility.yul\":2305:2314   */\n      dup3\n        /* \"#utility.yul\":2292:2315   */\n      calldataload\n        /* \"#utility.yul\":2324:2355   */\n      tag_460\n        /* \"#utility.yul\":2349:2354   */\n      dup2\n        /* \"#utility.yul\":2324:2355   */\n      tag_430\n      jump\t// in\n    tag_460:\n        /* \"#utility.yul\":2374:2379   */\n      swap5\n        /* \"#utility.yul\":2426:2428   */\n      0x20\n        /* \"#utility.yul\":2411:2429   */\n      swap4\n      swap1\n      swap4\n      add\n        /* \"#utility.yul\":2398:2430   */\n      calldataload\n      swap4\n      pop\n      pop\n      pop\n        /* \"#utility.yul\":2121:2436   */\n      jump\t// out\n        /* \"#utility.yul\":2634:2906   */\n    tag_144:\n        /* \"#utility.yul\":2692:2698   */\n      0x00\n        /* \"#utility.yul\":2745:2747   */\n      0x20\n        /* \"#utility.yul\":2733:2742   */\n      dup3\n        /* \"#utility.yul\":2724:2731   */\n      dup5\n        /* \"#utility.yul\":2720:2743   */\n      sub\n        /* \"#utility.yul\":2716:2748   */\n      slt\n        /* \"#utility.yul\":2713:2765   */\n      iszero\n      tag_463\n      jumpi\n        /* \"#utility.yul\":2761:2762   */\n      0x00\n        /* \"#utility.yul\":2758:2759   */\n      dup1\n        /* \"#utility.yul\":2751:2763   */\n      revert\n        /* \"#utility.yul\":2713:2765   */\n    tag_463:\n        /* \"#utility.yul\":2800:2809   */\n      dup2\n        /* \"#utility.yul\":2787:2810   */\n      calldataload\n        /* \"#utility.yul\":2850:2856   */\n      0xffff\n        /* \"#utility.yul\":2843:2848   */\n      dup2\n        /* \"#utility.yul\":2839:2857   */\n      and\n        /* \"#utility.yul\":2832:2837   */\n      dup2\n        /* \"#utility.yul\":2829:2858   */\n      eq\n        /* \"#utility.yul\":2819:2876   */\n      tag_443\n      jumpi\n        /* \"#utility.yul\":2872:2873   */\n      0x00\n        /* \"#utility.yul\":2869:2870   */\n      dup1\n        /* \"#utility.yul\":2862:2874   */\n      revert\n        /* \"#utility.yul\":4307:4434   */\n    tag_431:\n        /* \"#utility.yul\":4368:4378   */\n      0x4e487b71\n        /* \"#utility.yul\":4363:4366   */\n      0xe0\n        /* \"#utility.yul\":4359:4379   */\n      shl\n        /* \"#utility.yul\":4356:4357   */\n      0x00\n        /* \"#utility.yul\":4349:4380   */\n      mstore\n        /* \"#utility.yul\":4399:4403   */\n      0x11\n        /* \"#utility.yul\":4396:4397   */\n      0x04\n        /* \"#utility.yul\":4389:4404   */\n      mstore\n        /* \"#utility.yul\":4423:4427   */\n      0x24\n        /* \"#utility.yul\":4420:4421   */\n      0x00\n        /* \"#utility.yul\":4413:4428   */\n      revert\n        /* \"#utility.yul\":4439:4567   */\n    tag_205:\n        /* \"#utility.yul\":4506:4515   */\n      dup2\n      dup2\n      sub\n        /* \"#utility.yul\":4527:4538   */\n      dup2\n      dup2\n      gt\n        /* \"#utility.yul\":4524:4561   */\n      iszero\n      tag_473\n      jumpi\n        /* \"#utility.yul\":4541:4559   */\n      tag_473\n      tag_431\n      jump\t// in\n    tag_473:\n        /* \"#utility.yul\":4439:4567   */\n      swap3\n      swap2\n      pop\n      pop\n      jump\t// out\n        /* \"#utility.yul\":4572:4697   */\n    tag_210:\n        /* \"#utility.yul\":4637:4646   */\n      dup1\n      dup3\n      add\n        /* \"#utility.yul\":4658:4668   */\n      dup1\n      dup3\n      gt\n        /* \"#utility.yul\":4655:4691   */\n      iszero\n      tag_473\n      jumpi\n        /* \"#utility.yul\":4671:4689   */\n      tag_473\n      tag_431\n      jump\t// in\n        /* \"#utility.yul\":4702:4870   */\n    tag_214:\n        /* \"#utility.yul\":4775:4784   */\n      dup1\n      dup3\n      mul\n        /* \"#utility.yul\":4806:4815   */\n      dup2\n      iszero\n        /* \"#utility.yul\":4823:4838   */\n      dup3\n      dup3\n      div\n        /* \"#utility.yul\":4817:4839   */\n      dup5\n      eq\n        /* \"#utility.yul\":4803:4840   */\n      or\n        /* \"#utility.yul\":4793:4864   */\n      tag_473\n      jumpi\n        /* \"#utility.yul\":4844:4862   */\n      tag_473\n      tag_431\n      jump\t// in\n        /* \"#utility.yul\":4875:5092   */\n    tag_216:\n        /* \"#utility.yul\":4915:4916   */\n      0x00\n        /* \"#utility.yul\":4941:4942   */\n      dup3\n        /* \"#utility.yul\":4931:5063   */\n      tag_481\n      jumpi\n        /* \"#utility.yul\":4985:4995   */\n      0x4e487b71\n        /* \"#utility.yul\":4980:4983   */\n      0xe0\n        /* \"#utility.yul\":4976:4996   */\n      shl\n        /* \"#utility.yul\":4973:4974   */\n      0x00\n        /* \"#utility.yul\":4966:4997   */\n      mstore\n        /* \"#utility.yul\":5020:5024   */\n      0x12\n        /* \"#utility.yul\":5017:5018   */\n      0x04\n        /* \"#utility.yul\":5010:5025   */\n      mstore\n        /* \"#utility.yul\":5048:5052   */\n      0x24\n        /* \"#utility.yul\":5045:5046   */\n      0x00\n        /* \"#utility.yul\":5038:5053   */\n      revert\n        /* \"#utility.yul\":4931:5063   */\n    tag_481:\n      pop\n        /* \"#utility.yul\":5077:5086   */\n      div\n      swap1\n        /* \"#utility.yul\":4875:5092   */\n      jump\t// out\n        /* \"#utility.yul\":6472:6599   */\n    tag_259:\n        /* \"#utility.yul\":6533:6543   */\n      0x4e487b71\n        /* \"#utility.yul\":6528:6531   */\n      0xe0\n        /* \"#utility.yul\":6524:6544   */\n      shl\n        /* \"#utility.yul\":6521:6522   */\n      0x00\n        /* \"#utility.yul\":6514:6545   */\n      mstore\n        /* \"#utility.yul\":6564:6568   */\n      0x32\n        /* \"#utility.yul\":6561:6562   */\n      0x04\n        /* \"#utility.yul\":6554:6569   */\n      mstore\n        /* \"#utility.yul\":6588:6592   */\n      0x24\n        /* \"#utility.yul\":6585:6586   */\n      0x00\n        /* \"#utility.yul\":6578:6593   */\n      revert\n        /* \"#utility.yul\":6604:6739   */\n    tag_263:\n        /* \"#utility.yul\":6643:6646   */\n      0x00\n        /* \"#utility.yul\":6664:6681   */\n      0x01\n      dup3\n      add\n        /* \"#utility.yul\":6661:6704   */\n      tag_489\n      jumpi\n        /* \"#utility.yul\":6684:6702   */\n      tag_489\n      tag_431\n      jump\t// in\n    tag_489:\n      pop\n        /* \"#utility.yul\":6731:6732   */\n      0x01\n        /* \"#utility.yul\":6720:6733   */\n      add\n      swap1\n        /* \"#utility.yul\":6604:6739   */\n      jump\t// out\n        /* \"#utility.yul\":7053:7204   */\n    tag_432:\n        /* \"#utility.yul\":7136:7149   */\n      dup1\n      mload\n        /* \"#utility.yul\":7178:7179   */\n      0x05\n        /* \"#utility.yul\":7168:7180   */\n      dup2\n      lt\n        /* \"#utility.yul\":7158:7198   */\n      tag_246\n      jumpi\n        /* \"#utility.yul\":7194:7195   */\n      0x00\n        /* \"#utility.yul\":7191:7192   */\n      dup1\n        /* \"#utility.yul\":7184:7196   */\n      revert\n        /* \"#utility.yul\":7209:7806   */\n    tag_278:\n        /* \"#utility.yul\":7334:7340   */\n      0x00\n        /* \"#utility.yul\":7342:7348   */\n      dup1\n        /* \"#utility.yul\":7350:7356   */\n      0x00\n        /* \"#utility.yul\":7358:7364   */\n      dup1\n        /* \"#utility.yul\":7366:7372   */\n      0x00\n        /* \"#utility.yul\":7374:7380   */\n      dup1\n        /* \"#utility.yul\":7427:7430   */\n      0xc0\n        /* \"#utility.yul\":7415:7424   */\n      dup8\n        /* \"#utility.yul\":7406:7413   */\n      dup10\n        /* \"#utility.yul\":7402:7425   */\n      sub\n        /* \"#utility.yul\":7398:7431   */\n      slt\n        /* \"#utility.yul\":7395:7448   */\n      iszero\n      tag_494\n      jumpi\n        /* \"#utility.yul\":7444:7445   */\n      0x00\n        /* \"#utility.yul\":7441:7442   */\n      dup1\n        /* \"#utility.yul\":7434:7446   */\n      revert\n        /* \"#utility.yul\":7395:7448   */\n    tag_494:\n        /* \"#utility.yul\":7473:7482   */\n      dup7\n        /* \"#utility.yul\":7467:7483   */\n      mload\n        /* \"#utility.yul\":7457:7483   */\n      swap6\n      pop\n        /* \"#utility.yul\":7502:7555   */\n      tag_495\n        /* \"#utility.yul\":7551:7553   */\n      0x20\n        /* \"#utility.yul\":7540:7549   */\n      dup9\n        /* \"#utility.yul\":7536:7554   */\n      add\n        /* \"#utility.yul\":7502:7555   */\n      tag_432\n      jump\t// in\n    tag_495:\n        /* \"#utility.yul\":7492:7555   */\n      swap5\n      pop\n        /* \"#utility.yul\":7595:7597   */\n      0x40\n        /* \"#utility.yul\":7584:7593   */\n      dup8\n        /* \"#utility.yul\":7580:7598   */\n      add\n        /* \"#utility.yul\":7574:7599   */\n      mload\n        /* \"#utility.yul\":7564:7599   */\n      swap4\n      pop\n        /* \"#utility.yul\":7639:7641   */\n      0x60\n        /* \"#utility.yul\":7628:7637   */\n      dup8\n        /* \"#utility.yul\":7624:7642   */\n      add\n        /* \"#utility.yul\":7618:7643   */\n      mload\n        /* \"#utility.yul\":7608:7643   */\n      swap3\n      pop\n        /* \"#utility.yul\":7683:7686   */\n      0x80\n        /* \"#utility.yul\":7672:7681   */\n      dup8\n        /* \"#utility.yul\":7668:7687   */\n      add\n        /* \"#utility.yul\":7662:7688   */\n      mload\n        /* \"#utility.yul\":7652:7688   */\n      swap2\n      pop\n        /* \"#utility.yul\":7731:7734   */\n      0xa0\n        /* \"#utility.yul\":7720:7729   */\n      dup8\n        /* \"#utility.yul\":7716:7735   */\n      add\n        /* \"#utility.yul\":7710:7736   */\n      mload\n        /* \"#utility.yul\":7745:7776   */\n      tag_496\n        /* \"#utility.yul\":7770:7775   */\n      dup2\n        /* \"#utility.yul\":7745:7776   */\n      tag_430\n      jump\t// in\n    tag_496:\n        /* \"#utility.yul\":7795:7800   */\n      dup1\n        /* \"#utility.yul\":7785:7800   */\n      swap2\n      pop\n      pop\n        /* \"#utility.yul\":7209:7806   */\n      swap3\n      swap6\n      pop\n      swap3\n      swap6\n      pop\n      swap3\n      swap6\n      jump\t// out\n        /* \"#utility.yul\":7811:7995   */\n    tag_286:\n        /* \"#utility.yul\":7881:7887   */\n      0x00\n        /* \"#utility.yul\":7934:7936   */\n      0x20\n        /* \"#utility.yul\":7922:7931   */\n      dup3\n        /* \"#utility.yul\":7913:7920   */\n      dup5\n        /* \"#utility.yul\":7909:7932   */\n      sub\n        /* \"#utility.yul\":7905:7937   */\n      slt\n        /* \"#utility.yul\":7902:7954   */\n      iszero\n      tag_498\n      jumpi\n        /* \"#utility.yul\":7950:7951   */\n      0x00\n        /* \"#utility.yul\":7947:7948   */\n      dup1\n        /* \"#utility.yul\":7940:7952   */\n      revert\n        /* \"#utility.yul\":7902:7954   */\n    tag_498:\n      pop\n        /* \"#utility.yul\":7973:7989   */\n      mload\n      swap2\n        /* \"#utility.yul\":7811:7995   */\n      swap1\n      pop\n      jump\t// out\n        /* \"#utility.yul\":8000:8127   */\n    tag_433:\n        /* \"#utility.yul\":8061:8071   */\n      0x4e487b71\n        /* \"#utility.yul\":8056:8059   */\n      0xe0\n        /* \"#utility.yul\":8052:8072   */\n      shl\n        /* \"#utility.yul\":8049:8050   */\n      0x00\n        /* \"#utility.yul\":8042:8073   */\n      mstore\n        /* \"#utility.yul\":8092:8096   */\n      0x41\n        /* \"#utility.yul\":8089:8090   */\n      0x04\n        /* \"#utility.yul\":8082:8097   */\n      mstore\n        /* \"#utility.yul\":8116:8120   */\n      0x24\n        /* \"#utility.yul\":8113:8114   */\n      0x00\n        /* \"#utility.yul\":8106:8121   */\n      revert\n        /* \"#utility.yul\":8132:8407   */\n    tag_434:\n        /* \"#utility.yul\":8203:8205   */\n      0x40\n        /* \"#utility.yul\":8197:8206   */\n      mload\n        /* \"#utility.yul\":8268:8270   */\n      0x1f\n        /* \"#utility.yul\":8249:8262   */\n      dup3\n      add\n      not(0x1f)\n        /* \"#utility.yul\":8245:8272   */\n      and\n        /* \"#utility.yul\":8233:8273   */\n      dup2\n      add\n      sub(shl(0x40, 0x01), 0x01)\n        /* \"#utility.yul\":8288:8322   */\n      dup2\n      gt\n        /* \"#utility.yul\":8324:8346   */\n      dup3\n      dup3\n      lt\n        /* \"#utility.yul\":8285:8347   */\n      or\n        /* \"#utility.yul\":8282:8370   */\n      iszero\n      tag_502\n      jumpi\n        /* \"#utility.yul\":8350:8368   */\n      tag_502\n      tag_433\n      jump\t// in\n    tag_502:\n        /* \"#utility.yul\":8386:8388   */\n      0x40\n        /* \"#utility.yul\":8379:8401   */\n      mstore\n        /* \"#utility.yul\":8132:8407   */\n      swap2\n      swap1\n      pop\n      jump\t// out\n        /* \"#utility.yul\":8412:8595   */\n    tag_435:\n        /* \"#utility.yul\":8472:8476   */\n      0x00\n      sub(shl(0x40, 0x01), 0x01)\n        /* \"#utility.yul\":8497:8503   */\n      dup3\n        /* \"#utility.yul\":8494:8524   */\n      gt\n        /* \"#utility.yul\":8491:8547   */\n      iszero\n      tag_505\n      jumpi\n        /* \"#utility.yul\":8527:8545   */\n      tag_505\n      tag_433\n      jump\t// in\n    tag_505:\n      pop\n        /* \"#utility.yul\":8572:8573   */\n      0x05\n        /* \"#utility.yul\":8568:8582   */\n      shl\n        /* \"#utility.yul\":8584:8588   */\n      0x20\n        /* \"#utility.yul\":8564:8589   */\n      add\n      swap1\n        /* \"#utility.yul\":8412:8595   */\n      jump\t// out\n        /* \"#utility.yul\":8600:9334   */\n    tag_436:\n        /* \"#utility.yul\":8665:8670   */\n      0x00\n        /* \"#utility.yul\":8718:8721   */\n      dup3\n        /* \"#utility.yul\":8711:8715   */\n      0x1f\n        /* \"#utility.yul\":8703:8709   */\n      dup4\n        /* \"#utility.yul\":8699:8716   */\n      add\n        /* \"#utility.yul\":8695:8722   */\n      slt\n        /* \"#utility.yul\":8685:8740   */\n      tag_507\n      jumpi\n        /* \"#utility.yul\":8736:8737   */\n      0x00\n        /* \"#utility.yul\":8733:8734   */\n      dup1\n        /* \"#utility.yul\":8726:8738   */\n      revert\n        /* \"#utility.yul\":8685:8740   */\n    tag_507:\n        /* \"#utility.yul\":8765:8771   */\n      dup2\n        /* \"#utility.yul\":8759:8772   */\n      mload\n        /* \"#utility.yul\":8791:8795   */\n      0x20\n        /* \"#utility.yul\":8815:8875   */\n      tag_508\n        /* \"#utility.yul\":8831:8874   */\n      tag_509\n        /* \"#utility.yul\":8871:8873   */\n      dup4\n        /* \"#utility.yul\":8831:8874   */\n      tag_435\n      jump\t// in\n    tag_509:\n        /* \"#utility.yul\":8815:8875   */\n      tag_434\n      jump\t// in\n    tag_508:\n        /* \"#utility.yul\":8909:8924   */\n      dup3\n      dup2\n      mstore\n        /* \"#utility.yul\":8995:8996   */\n      0x05\n        /* \"#utility.yul\":8991:9001   */\n      swap3\n      swap1\n      swap3\n      shl\n        /* \"#utility.yul\":8979:9002   */\n      dup5\n      add\n        /* \"#utility.yul\":8975:9007   */\n      dup2\n      add\n      swap2\n        /* \"#utility.yul\":8940:8952   */\n      dup2\n      dup2\n      add\n      swap1\n        /* \"#utility.yul\":9019:9034   */\n      dup7\n      dup5\n      gt\n        /* \"#utility.yul\":9016:9051   */\n      iszero\n      tag_510\n      jumpi\n        /* \"#utility.yul\":9047:9048   */\n      0x00\n        /* \"#utility.yul\":9044:9045   */\n      dup1\n        /* \"#utility.yul\":9037:9049   */\n      revert\n        /* \"#utility.yul\":9016:9051   */\n    tag_510:\n        /* \"#utility.yul\":9083:9085   */\n      dup3\n        /* \"#utility.yul\":9075:9081   */\n      dup7\n        /* \"#utility.yul\":9071:9086   */\n      add\n        /* \"#utility.yul\":9095:9305   */\n    tag_511:\n        /* \"#utility.yul\":9111:9117   */\n      dup5\n        /* \"#utility.yul\":9106:9109   */\n      dup2\n        /* \"#utility.yul\":9103:9118   */\n      lt\n        /* \"#utility.yul\":9095:9305   */\n      iszero\n      tag_513\n      jumpi\n        /* \"#utility.yul\":9184:9187   */\n      dup1\n        /* \"#utility.yul\":9178:9188   */\n      mload\n        /* \"#utility.yul\":9201:9232   */\n      tag_514\n        /* \"#utility.yul\":9226:9231   */\n      dup2\n        /* \"#utility.yul\":9201:9232   */\n      tag_430\n      jump\t// in\n    tag_514:\n        /* \"#utility.yul\":9245:9263   */\n      dup4\n      mstore\n        /* \"#utility.yul\":9283:9295   */\n      swap2\n      dup4\n      add\n      swap2\n        /* \"#utility.yul\":9128:9140   */\n      dup4\n      add\n        /* \"#utility.yul\":9095:9305   */\n      jump(tag_511)\n    tag_513:\n      pop\n        /* \"#utility.yul\":9323:9328   */\n      swap7\n        /* \"#utility.yul\":8600:9334   */\n      swap6\n      pop\n      pop\n      pop\n      pop\n      pop\n      pop\n      jump\t// out\n        /* \"#utility.yul\":9339:10030   */\n    tag_437:\n        /* \"#utility.yul\":9408:9413   */\n      0x00\n        /* \"#utility.yul\":9461:9464   */\n      dup3\n        /* \"#utility.yul\":9454:9458   */\n      0x1f\n        /* \"#utility.yul\":9446:9452   */\n      dup4\n        /* \"#utility.yul\":9442:9459   */\n      add\n        /* \"#utility.yul\":9438:9465   */\n      slt\n        /* \"#utility.yul\":9428:9483   */\n      tag_516\n      jumpi\n        /* \"#utility.yul\":9479:9480   */\n      0x00\n        /* \"#utility.yul\":9476:9477   */\n      dup1\n        /* \"#utility.yul\":9469:9481   */\n      revert\n        /* \"#utility.yul\":9428:9483   */\n    tag_516:\n        /* \"#utility.yul\":9508:9514   */\n      dup2\n        /* \"#utility.yul\":9502:9515   */\n      mload\n        /* \"#utility.yul\":9534:9538   */\n      0x20\n        /* \"#utility.yul\":9558:9618   */\n      tag_517\n        /* \"#utility.yul\":9574:9617   */\n      tag_509\n        /* \"#utility.yul\":9614:9616   */\n      dup4\n        /* \"#utility.yul\":9574:9617   */\n      tag_435\n      jump\t// in\n        /* \"#utility.yul\":9558:9618   */\n    tag_517:\n        /* \"#utility.yul\":9652:9667   */\n      dup3\n      dup2\n      mstore\n        /* \"#utility.yul\":9738:9739   */\n      0x05\n        /* \"#utility.yul\":9734:9744   */\n      swap3\n      swap1\n      swap3\n      shl\n        /* \"#utility.yul\":9722:9745   */\n      dup5\n      add\n        /* \"#utility.yul\":9718:9750   */\n      dup2\n      add\n      swap2\n        /* \"#utility.yul\":9683:9695   */\n      dup2\n      dup2\n      add\n      swap1\n        /* \"#utility.yul\":9762:9777   */\n      dup7\n      dup5\n      gt\n        /* \"#utility.yul\":9759:9794   */\n      iszero\n      tag_519\n      jumpi\n        /* \"#utility.yul\":9790:9791   */\n      0x00\n        /* \"#utility.yul\":9787:9788   */\n      dup1\n        /* \"#utility.yul\":9780:9792   */\n      revert\n        /* \"#utility.yul\":9759:9794   */\n    tag_519:\n        /* \"#utility.yul\":9826:9828   */\n      dup3\n        /* \"#utility.yul\":9818:9824   */\n      dup7\n        /* \"#utility.yul\":9814:9829   */\n      add\n        /* \"#utility.yul\":9838:10001   */\n    tag_520:\n        /* \"#utility.yul\":9854:9860   */\n      dup5\n        /* \"#utility.yul\":9849:9852   */\n      dup2\n        /* \"#utility.yul\":9846:9861   */\n      lt\n        /* \"#utility.yul\":9838:10001   */\n      iszero\n      tag_513\n      jumpi\n        /* \"#utility.yul\":9920:9958   */\n      tag_523\n        /* \"#utility.yul\":9954:9957   */\n      dup2\n        /* \"#utility.yul\":9920:9958   */\n      tag_432\n      jump\t// in\n    tag_523:\n        /* \"#utility.yul\":9908:9959   */\n      dup4\n      mstore\n        /* \"#utility.yul\":9979:9991   */\n      swap2\n      dup4\n      add\n      swap2\n        /* \"#utility.yul\":9871:9883   */\n      dup4\n      add\n        /* \"#utility.yul\":9838:10001   */\n      jump(tag_520)\n        /* \"#utility.yul\":10035:10694   */\n    tag_438:\n        /* \"#utility.yul\":10100:10105   */\n      0x00\n        /* \"#utility.yul\":10153:10156   */\n      dup3\n        /* \"#utility.yul\":10146:10150   */\n      0x1f\n        /* \"#utility.yul\":10138:10144   */\n      dup4\n        /* \"#utility.yul\":10134:10151   */\n      add\n        /* \"#utility.yul\":10130:10157   */\n      slt\n        /* \"#utility.yul\":10120:10175   */\n      tag_525\n      jumpi\n        /* \"#utility.yul\":10171:10172   */\n      0x00\n        /* \"#utility.yul\":10168:10169   */\n      dup1\n        /* \"#utility.yul\":10161:10173   */\n      revert\n        /* \"#utility.yul\":10120:10175   */\n    tag_525:\n        /* \"#utility.yul\":10200:10206   */\n      dup2\n        /* \"#utility.yul\":10194:10207   */\n      mload\n        /* \"#utility.yul\":10226:10230   */\n      0x20\n        /* \"#utility.yul\":10250:10310   */\n      tag_526\n        /* \"#utility.yul\":10266:10309   */\n      tag_509\n        /* \"#utility.yul\":10306:10308   */\n      dup4\n        /* \"#utility.yul\":10266:10309   */\n      tag_435\n      jump\t// in\n        /* \"#utility.yul\":10250:10310   */\n    tag_526:\n        /* \"#utility.yul\":10344:10359   */\n      dup3\n      dup2\n      mstore\n        /* \"#utility.yul\":10430:10431   */\n      0x05\n        /* \"#utility.yul\":10426:10436   */\n      swap3\n      swap1\n      swap3\n      shl\n        /* \"#utility.yul\":10414:10437   */\n      dup5\n      add\n        /* \"#utility.yul\":10410:10442   */\n      dup2\n      add\n      swap2\n        /* \"#utility.yul\":10375:10387   */\n      dup2\n      dup2\n      add\n      swap1\n        /* \"#utility.yul\":10454:10469   */\n      dup7\n      dup5\n      gt\n        /* \"#utility.yul\":10451:10486   */\n      iszero\n      tag_528\n      jumpi\n        /* \"#utility.yul\":10482:10483   */\n      0x00\n        /* \"#utility.yul\":10479:10480   */\n      dup1\n        /* \"#utility.yul\":10472:10484   */\n      revert\n        /* \"#utility.yul\":10451:10486   */\n    tag_528:\n        /* \"#utility.yul\":10518:10520   */\n      dup3\n        /* \"#utility.yul\":10510:10516   */\n      dup7\n        /* \"#utility.yul\":10506:10521   */\n      add\n        /* \"#utility.yul\":10530:10665   */\n    tag_529:\n        /* \"#utility.yul\":10546:10552   */\n      dup5\n        /* \"#utility.yul\":10541:10544   */\n      dup2\n        /* \"#utility.yul\":10538:10553   */\n      lt\n        /* \"#utility.yul\":10530:10665   */\n      iszero\n      tag_513\n      jumpi\n        /* \"#utility.yul\":10612:10622   */\n      dup1\n      mload\n        /* \"#utility.yul\":10600:10623   */\n      dup4\n      mstore\n        /* \"#utility.yul\":10643:10655   */\n      swap2\n      dup4\n      add\n      swap2\n        /* \"#utility.yul\":10563:10575   */\n      dup4\n      add\n        /* \"#utility.yul\":10530:10665   */\n      jump(tag_529)\n        /* \"#utility.yul\":10699:12347   */\n    tag_439:\n        /* \"#utility.yul\":10763:10768   */\n      0x00\n        /* \"#utility.yul\":10793:10797   */\n      0x1f\n        /* \"#utility.yul\":10837:10840   */\n      dup4\n        /* \"#utility.yul\":10832:10834   */\n      dup2\n        /* \"#utility.yul\":10824:10830   */\n      dup5\n        /* \"#utility.yul\":10820:10835   */\n      add\n        /* \"#utility.yul\":10816:10841   */\n      slt\n        /* \"#utility.yul\":10806:10859   */\n      tag_533\n      jumpi\n        /* \"#utility.yul\":10855:10856   */\n      0x00\n        /* \"#utility.yul\":10852:10853   */\n      dup1\n        /* \"#utility.yul\":10845:10857   */\n      revert\n        /* \"#utility.yul\":10806:10859   */\n    tag_533:\n        /* \"#utility.yul\":10884:10890   */\n      dup3\n        /* \"#utility.yul\":10878:10891   */\n      mload\n        /* \"#utility.yul\":10910:10914   */\n      0x20\n        /* \"#utility.yul\":10934:10994   */\n      tag_534\n        /* \"#utility.yul\":10950:10993   */\n      tag_509\n        /* \"#utility.yul\":10990:10992   */\n      dup4\n        /* \"#utility.yul\":10950:10993   */\n      tag_435\n      jump\t// in\n        /* \"#utility.yul\":10934:10994   */\n    tag_534:\n        /* \"#utility.yul\":11028:11043   */\n      dup3\n      dup2\n      mstore\n        /* \"#utility.yul\":11114:11115   */\n      0x05\n        /* \"#utility.yul\":11110:11120   */\n      swap3\n      swap1\n      swap3\n      shl\n        /* \"#utility.yul\":11098:11121   */\n      dup6\n      add\n        /* \"#utility.yul\":11094:11126   */\n      dup2\n      add\n      swap2\n        /* \"#utility.yul\":11059:11071   */\n      dup2\n      dup2\n      add\n      swap1\n        /* \"#utility.yul\":11138:11153   */\n      dup8\n      dup5\n      gt\n        /* \"#utility.yul\":11135:11170   */\n      iszero\n      tag_536\n      jumpi\n        /* \"#utility.yul\":11166:11167   */\n      0x00\n        /* \"#utility.yul\":11163:11164   */\n      dup1\n        /* \"#utility.yul\":11156:11168   */\n      revert\n        /* \"#utility.yul\":11135:11170   */\n    tag_536:\n        /* \"#utility.yul\":11202:11204   */\n      dup3\n        /* \"#utility.yul\":11194:11200   */\n      dup8\n        /* \"#utility.yul\":11190:11205   */\n      add\n        /* \"#utility.yul\":11214:12318   */\n    tag_537:\n        /* \"#utility.yul\":11230:11236   */\n      dup5\n        /* \"#utility.yul\":11225:11228   */\n      dup2\n        /* \"#utility.yul\":11222:11237   */\n      lt\n        /* \"#utility.yul\":11214:12318   */\n      iszero\n      tag_539\n      jumpi\n        /* \"#utility.yul\":11309:11312   */\n      dup1\n        /* \"#utility.yul\":11303:11313   */\n      mload\n      sub(shl(0x40, 0x01), 0x01)\n        /* \"#utility.yul\":11386:11388   */\n      dup1\n        /* \"#utility.yul\":11373:11384   */\n      dup3\n        /* \"#utility.yul\":11370:11389   */\n      gt\n        /* \"#utility.yul\":11367:11476   */\n      iszero\n      tag_540\n      jumpi\n        /* \"#utility.yul\":11430:11431   */\n      0x00\n        /* \"#utility.yul\":11459:11461   */\n      dup1\n        /* \"#utility.yul\":11455:11457   */\n      dup2\n        /* \"#utility.yul\":11448:11462   */\n      revert\n        /* \"#utility.yul\":11367:11476   */\n    tag_540:\n        /* \"#utility.yul\":11511:11522   */\n      dup2\n        /* \"#utility.yul\":11503:11509   */\n      dup11\n        /* \"#utility.yul\":11499:11523   */\n      add\n        /* \"#utility.yul\":11489:11523   */\n      swap2\n      pop\n        /* \"#utility.yul\":11563:11566   */\n      dup11\n        /* \"#utility.yul\":11558:11560   */\n      0x3f\n        /* \"#utility.yul\":11554:11556   */\n      dup4\n        /* \"#utility.yul\":11550:11561   */\n      add\n        /* \"#utility.yul\":11546:11567   */\n      slt\n        /* \"#utility.yul\":11536:11655   */\n      tag_541\n      jumpi\n        /* \"#utility.yul\":11609:11610   */\n      0x00\n        /* \"#utility.yul\":11638:11640   */\n      dup1\n        /* \"#utility.yul\":11634:11636   */\n      dup2\n        /* \"#utility.yul\":11627:11641   */\n      revert\n        /* \"#utility.yul\":11536:11655   */\n    tag_541:\n        /* \"#utility.yul\":11692:11694   */\n      dup6\n        /* \"#utility.yul\":11688:11690   */\n      dup3\n        /* \"#utility.yul\":11684:11695   */\n      add\n        /* \"#utility.yul\":11678:11696   */\n      mload\n        /* \"#utility.yul\":11719:11721   */\n      dup2\n        /* \"#utility.yul\":11715:11717   */\n      dup2\n        /* \"#utility.yul\":11712:11722   */\n      gt\n        /* \"#utility.yul\":11709:11745   */\n      iszero\n      tag_543\n      jumpi\n        /* \"#utility.yul\":11725:11743   */\n      tag_543\n      tag_433\n      jump\t// in\n    tag_543:\n        /* \"#utility.yul\":11773:11824   */\n      tag_544\n        /* \"#utility.yul\":11797:11808   */\n      dup2\n      dup11\n      add\n      not(0x1f)\n        /* \"#utility.yul\":11793:11818   */\n      and\n        /* \"#utility.yul\":11789:11823   */\n      dup9\n      add\n        /* \"#utility.yul\":11773:11824   */\n      tag_434\n      jump\t// in\n    tag_544:\n        /* \"#utility.yul\":11758:11824   */\n      swap2\n      pop\n        /* \"#utility.yul\":11853:11855   */\n      dup1\n        /* \"#utility.yul\":11844:11851   */\n      dup3\n        /* \"#utility.yul\":11837:11856   */\n      mstore\n        /* \"#utility.yul\":11879:11881   */\n      0x40\n        /* \"#utility.yul\":11922:11925   */\n      dup13\n        /* \"#utility.yul\":11917:11919   */\n      dup2\n        /* \"#utility.yul\":11912:11914   */\n      dup4\n        /* \"#utility.yul\":11908:11910   */\n      dup7\n        /* \"#utility.yul\":11904:11915   */\n      add\n        /* \"#utility.yul\":11900:11920   */\n      add\n        /* \"#utility.yul\":11897:11926   */\n      gt\n        /* \"#utility.yul\":11894:12016   */\n      iszero\n      tag_545\n      jumpi\n        /* \"#utility.yul\":11968:11969   */\n      0x00\n        /* \"#utility.yul\":11998:12001   */\n      dup1\n        /* \"#utility.yul\":11993:11996   */\n      dup2\n        /* \"#utility.yul\":11986:12002   */\n      revert\n        /* \"#utility.yul\":11894:12016   */\n    tag_545:\n        /* \"#utility.yul\":12038:12039   */\n      0x00\n        /* \"#utility.yul\":12052:12194   */\n    tag_546:\n        /* \"#utility.yul\":12066:12068   */\n      dup3\n        /* \"#utility.yul\":12063:12064   */\n      dup2\n        /* \"#utility.yul\":12060:12069   */\n      lt\n        /* \"#utility.yul\":12052:12194   */\n      iszero\n      tag_548\n      jumpi\n        /* \"#utility.yul\":12163:12173   */\n      dup5\n      dup2\n      add\n        /* \"#utility.yul\":12159:12178   */\n      dup3\n      add\n        /* \"#utility.yul\":12153:12179   */\n      mload\n        /* \"#utility.yul\":12131:12146   */\n      dup5\n      dup3\n      add\n        /* \"#utility.yul\":12127:12151   */\n      dup11\n      add\n        /* \"#utility.yul\":12120:12180   */\n      mstore\n        /* \"#utility.yul\":12077:12087   */\n      dup9\n      add\n        /* \"#utility.yul\":12052:12194   */\n      jump(tag_546)\n    tag_548:\n      pop\n      pop\n        /* \"#utility.yul\":12241:12242   */\n      0x00\n        /* \"#utility.yul\":12218:12234   */\n      swap1\n      dup3\n      add\n        /* \"#utility.yul\":12214:12239   */\n      dup8\n      add\n        /* \"#utility.yul\":12207:12243   */\n      mstore\n        /* \"#utility.yul\":12256:12276   */\n      dup5\n      mstore\n      pop\n        /* \"#utility.yul\":12296:12308   */\n      swap2\n      dup4\n      add\n      swap2\n        /* \"#utility.yul\":11247:11259   */\n      dup4\n      add\n        /* \"#utility.yul\":11214:12318   */\n      jump(tag_537)\n    tag_539:\n      pop\n        /* \"#utility.yul\":12336:12341   */\n      swap8\n        /* \"#utility.yul\":10699:12347   */\n      swap7\n      pop\n      pop\n      pop\n      pop\n      pop\n      pop\n      pop\n      jump\t// out\n        /* \"#utility.yul\":12352:13814   */\n    tag_305:\n        /* \"#utility.yul\":12631:12637   */\n      0x00\n        /* \"#utility.yul\":12639:12645   */\n      dup1\n        /* \"#utility.yul\":12647:12653   */\n      0x00\n        /* \"#utility.yul\":12655:12661   */\n      dup1\n        /* \"#utility.yul\":12663:12669   */\n      0x00\n        /* \"#utility.yul\":12671:12677   */\n      dup1\n        /* \"#utility.yul\":12679:12685   */\n      0x00\n        /* \"#utility.yul\":12732:12735   */\n      0xe0\n        /* \"#utility.yul\":12720:12729   */\n      dup9\n        /* \"#utility.yul\":12711:12718   */\n      dup11\n        /* \"#utility.yul\":12707:12730   */\n      sub\n        /* \"#utility.yul\":12703:12736   */\n      slt\n        /* \"#utility.yul\":12700:12753   */\n      iszero\n      tag_550\n      jumpi\n        /* \"#utility.yul\":12749:12750   */\n      0x00\n        /* \"#utility.yul\":12746:12747   */\n      dup1\n        /* \"#utility.yul\":12739:12751   */\n      revert\n        /* \"#utility.yul\":12700:12753   */\n    tag_550:\n        /* \"#utility.yul\":12778:12787   */\n      dup8\n        /* \"#utility.yul\":12772:12788   */\n      mload\n        /* \"#utility.yul\":12762:12788   */\n      swap7\n      pop\n        /* \"#utility.yul\":12828:12830   */\n      0x20\n        /* \"#utility.yul\":12817:12826   */\n      dup9\n        /* \"#utility.yul\":12813:12831   */\n      add\n        /* \"#utility.yul\":12807:12832   */\n      mload\n        /* \"#utility.yul\":12797:12832   */\n      swap6\n      pop\n        /* \"#utility.yul\":12876:12878   */\n      0x40\n        /* \"#utility.yul\":12865:12874   */\n      dup9\n        /* \"#utility.yul\":12861:12879   */\n      add\n        /* \"#utility.yul\":12855:12880   */\n      mload\n      sub(shl(0x40, 0x01), 0x01)\n        /* \"#utility.yul\":12940:12942   */\n      dup1\n        /* \"#utility.yul\":12932:12938   */\n      dup3\n        /* \"#utility.yul\":12929:12943   */\n      gt\n        /* \"#utility.yul\":12926:12960   */\n      iszero\n      tag_551\n      jumpi\n        /* \"#utility.yul\":12956:12957   */\n      0x00\n        /* \"#utility.yul\":12953:12954   */\n      dup1\n        /* \"#utility.yul\":12946:12958   */\n      revert\n        /* \"#utility.yul\":12926:12960   */\n    tag_551:\n        /* \"#utility.yul\":12979:13051   */\n      tag_552\n        /* \"#utility.yul\":13043:13050   */\n      dup12\n        /* \"#utility.yul\":13034:13040   */\n      dup4\n        /* \"#utility.yul\":13023:13032   */\n      dup13\n        /* \"#utility.yul\":13019:13041   */\n      add\n        /* \"#utility.yul\":12979:13051   */\n      tag_436\n      jump\t// in\n    tag_552:\n        /* \"#utility.yul\":12969:13051   */\n      swap7\n      pop\n        /* \"#utility.yul\":13097:13099   */\n      0x60\n        /* \"#utility.yul\":13086:13095   */\n      dup11\n        /* \"#utility.yul\":13082:13100   */\n      add\n        /* \"#utility.yul\":13076:13101   */\n      mload\n        /* \"#utility.yul\":13060:13101   */\n      swap2\n      pop\n        /* \"#utility.yul\":13126:13128   */\n      dup1\n        /* \"#utility.yul\":13116:13124   */\n      dup3\n        /* \"#utility.yul\":13113:13129   */\n      gt\n        /* \"#utility.yul\":13110:13146   */\n      iszero\n      tag_553\n      jumpi\n        /* \"#utility.yul\":13142:13143   */\n      0x00\n        /* \"#utility.yul\":13139:13140   */\n      dup1\n        /* \"#utility.yul\":13132:13144   */\n      revert\n        /* \"#utility.yul\":13110:13146   */\n    tag_553:\n        /* \"#utility.yul\":13165:13243   */\n      tag_554\n        /* \"#utility.yul\":13235:13242   */\n      dup12\n        /* \"#utility.yul\":13224:13232   */\n      dup4\n        /* \"#utility.yul\":13213:13222   */\n      dup13\n        /* \"#utility.yul\":13209:13233   */\n      add\n        /* \"#utility.yul\":13165:13243   */\n      tag_437\n      jump\t// in\n    tag_554:\n        /* \"#utility.yul\":13155:13243   */\n      swap6\n      pop\n        /* \"#utility.yul\":13289:13292   */\n      0x80\n        /* \"#utility.yul\":13278:13287   */\n      dup11\n        /* \"#utility.yul\":13274:13293   */\n      add\n        /* \"#utility.yul\":13268:13294   */\n      mload\n        /* \"#utility.yul\":13252:13294   */\n      swap2\n      pop\n        /* \"#utility.yul\":13319:13321   */\n      dup1\n        /* \"#utility.yul\":13309:13317   */\n      dup3\n        /* \"#utility.yul\":13306:13322   */\n      gt\n        /* \"#utility.yul\":13303:13339   */\n      iszero\n      tag_555\n      jumpi\n        /* \"#utility.yul\":13335:13336   */\n      0x00\n        /* \"#utility.yul\":13332:13333   */\n      dup1\n        /* \"#utility.yul\":13325:13337   */\n      revert\n        /* \"#utility.yul\":13303:13339   */\n    tag_555:\n        /* \"#utility.yul\":13358:13432   */\n      tag_556\n        /* \"#utility.yul\":13424:13431   */\n      dup12\n        /* \"#utility.yul\":13413:13421   */\n      dup4\n        /* \"#utility.yul\":13402:13411   */\n      dup13\n        /* \"#utility.yul\":13398:13422   */\n      add\n        /* \"#utility.yul\":13358:13432   */\n      tag_438\n      jump\t// in\n    tag_556:\n        /* \"#utility.yul\":13348:13432   */\n      swap5\n      pop\n        /* \"#utility.yul\":13478:13481   */\n      0xa0\n        /* \"#utility.yul\":13467:13476   */\n      dup11\n        /* \"#utility.yul\":13463:13482   */\n      add\n        /* \"#utility.yul\":13457:13483   */\n      mload\n        /* \"#utility.yul\":13441:13483   */\n      swap2\n      pop\n        /* \"#utility.yul\":13508:13510   */\n      dup1\n        /* \"#utility.yul\":13498:13506   */\n      dup3\n        /* \"#utility.yul\":13495:13511   */\n      gt\n        /* \"#utility.yul\":13492:13528   */\n      iszero\n      tag_557\n      jumpi\n        /* \"#utility.yul\":13524:13525   */\n      0x00\n        /* \"#utility.yul\":13521:13522   */\n      dup1\n        /* \"#utility.yul\":13514:13526   */\n      revert\n        /* \"#utility.yul\":13492:13528   */\n    tag_557:\n        /* \"#utility.yul\":13547:13620   */\n      tag_558\n        /* \"#utility.yul\":13612:13619   */\n      dup12\n        /* \"#utility.yul\":13601:13609   */\n      dup4\n        /* \"#utility.yul\":13590:13599   */\n      dup13\n        /* \"#utility.yul\":13586:13610   */\n      add\n        /* \"#utility.yul\":13547:13620   */\n      tag_439\n      jump\t// in\n    tag_558:\n        /* \"#utility.yul\":13537:13620   */\n      swap4\n      pop\n        /* \"#utility.yul\":13666:13669   */\n      0xc0\n        /* \"#utility.yul\":13655:13664   */\n      dup11\n        /* \"#utility.yul\":13651:13670   */\n      add\n        /* \"#utility.yul\":13645:13671   */\n      mload\n        /* \"#utility.yul\":13629:13671   */\n      swap2\n      pop\n        /* \"#utility.yul\":13696:13698   */\n      dup1\n        /* \"#utility.yul\":13686:13694   */\n      dup3\n        /* \"#utility.yul\":13683:13699   */\n      gt\n        /* \"#utility.yul\":13680:13716   */\n      iszero\n      tag_559\n      jumpi\n        /* \"#utility.yul\":13712:13713   */\n      0x00\n        /* \"#utility.yul\":13709:13710   */\n      dup1\n        /* \"#utility.yul\":13702:13714   */\n      revert\n        /* \"#utility.yul\":13680:13716   */\n    tag_559:\n      pop\n        /* \"#utility.yul\":13735:13808   */\n      tag_560\n        /* \"#utility.yul\":13800:13807   */\n      dup11\n        /* \"#utility.yul\":13789:13797   */\n      dup3\n        /* \"#utility.yul\":13778:13787   */\n      dup12\n        /* \"#utility.yul\":13774:13798   */\n      add\n        /* \"#utility.yul\":13735:13808   */\n      tag_439\n      jump\t// in\n    tag_560:\n        /* \"#utility.yul\":13725:13808   */\n      swap2\n      pop\n      pop\n        /* \"#utility.yul\":12352:13814   */\n      swap3\n      swap6\n      swap9\n      swap2\n      swap5\n      swap8\n      pop\n      swap3\n      swap6\n      pop\n      jump\t// out\n        /* \"#utility.yul\":13819:13994   */\n    tag_319:\n        /* \"#utility.yul\":13856:13859   */\n      0x00\n        /* \"#utility.yul\":13900:13904   */\n      0xff\n        /* \"#utility.yul\":13893:13898   */\n      dup3\n        /* \"#utility.yul\":13889:13905   */\n      and\n        /* \"#utility.yul\":13929:13933   */\n      0xff\n        /* \"#utility.yul\":13920:13927   */\n      dup2\n        /* \"#utility.yul\":13917:13934   */\n      sub\n        /* \"#utility.yul\":13914:13957   */\n      tag_563\n      jumpi\n        /* \"#utility.yul\":13937:13955   */\n      tag_563\n      tag_431\n      jump\t// in\n    tag_563:\n        /* \"#utility.yul\":13986:13987   */\n      0x01\n        /* \"#utility.yul\":13973:13988   */\n      add\n      swap3\n        /* \"#utility.yul\":13819:13994   */\n      swap2\n      pop\n      pop\n      jump\t// out\n        /* \"#utility.yul\":14691:14948   */\n    tag_354:\n      sub(shl(0x40, 0x01), 0x01)\n        /* \"#utility.yul\":14812:14822   */\n      dup2\n      dup2\n      and\n        /* \"#utility.yul\":14824:14834   */\n      dup4\n      dup3\n      and\n        /* \"#utility.yul\":14808:14835   */\n      mul\n        /* \"#utility.yul\":14855:14875   */\n      dup1\n      dup3\n      and\n      swap2\n        /* \"#utility.yul\":14762:14780   */\n      swap1\n        /* \"#utility.yul\":14894:14918   */\n      dup3\n      dup2\n      eq\n        /* \"#utility.yul\":14884:14942   */\n      tag_568\n      jumpi\n        /* \"#utility.yul\":14922:14940   */\n      tag_568\n      tag_431\n      jump\t// in\n    tag_568:\n        /* \"#utility.yul\":14884:14942   */\n      pop\n      pop\n        /* \"#utility.yul\":14691:14948   */\n      swap3\n      swap2\n      pop\n      pop\n      jump\t// out\n        /* \"#utility.yul\":16078:16205   */\n    tag_410:\n        /* \"#utility.yul\":16139:16149   */\n      0x4e487b71\n        /* \"#utility.yul\":16134:16137   */\n      0xe0\n        /* \"#utility.yul\":16130:16150   */\n      shl\n        /* \"#utility.yul\":16127:16128   */\n      0x00\n        /* \"#utility.yul\":16120:16151   */\n      mstore\n        /* \"#utility.yul\":16170:16174   */\n      0x31\n        /* \"#utility.yul\":16167:16168   */\n      0x04\n        /* \"#utility.yul\":16160:16175   */\n      mstore\n        /* \"#utility.yul\":16194:16198   */\n      0x24\n        /* \"#utility.yul\":16191:16192   */\n      0x00\n        /* \"#utility.yul\":16184:16199   */\n      revert\n\n    auxdata: 0xa2646970667358221220836b0bef05db4712911c246e3cb2b498a21165a92e8744392b45fcb09a25bb4864736f6c63430008110033\n}\n",
				"bytecode": {
					"linkReferences": {},
					"object": "6080604052600180546001600160a01b031916730c4f6f3e5458ac81005eef84521373904f18e36e179055670de0b6b3a764000060039081556004805461ffff19169091179055600880546001600160401b0319166276a7001790556103e860095534801561006d57600080fd5b506100773361007c565b6100cc565b600080546001600160a01b038381166001600160a01b0319831681178455604051919092169283917f8be0079c531659141344cd1fd0a4f28419497f9722a3daafe3b4186f6b6457e09190a35050565b611f03806100db6000396000f3fe6080604052600436106101ee5760003560e01c80639fb82db91161010d578063e0639364116100a0578063f2fde38b1161006f578063f2fde38b146105a3578063f3883538146105c3578063f67c4dfd146105e3578063f6b663c314610603578063fe32f55e1461062357600080fd5b8063e06393641461050b578063e6af61c814610543578063e75bcb9614610559578063ee7cb2881461058357600080fd5b8063bddd6de4116100dc578063bddd6de41461047a578063be645692146104a8578063c7907f54146104be578063cc001f16146104de57600080fd5b80639fb82db9146103ed578063a9e30ccf1461040f578063aa4704f31461042f578063b08061081461046557600080fd5b806368015791116101855780638b0e9f3f116101545780638b0e9f3f146103875780638da5cb5b1461039d5780638f73c5ae146103cf5780639231cf74146103d757600080fd5b80636801579114610305578063715018a61461032557806372d30a701461033a57806382cb1c181461035a57600080fd5b80633a4b66f1116101c15780633a4b66f11461029057806341f349b5146102985780635fa34ebd146102b85780636285b5a2146102e557600080fd5b8063062b6139146101f357806315908d51146102155780632170e4721461023e5780632def66201461026b575b600080fd5b3480156101ff57600080fd5b5061021361020e3660046118af565b610643565b005b34801561022157600080fd5b5061022b60095481565b6040519081526020015b60405180910390f35b34801561024a57600080fd5b5061022b6102593660046118f4565b600b6020526000908152604090205481565b34801561027757600080fd5b506102806106b1565b6040519015158152602001610235565b6102806108d9565b3480156102a457600080fd5b506102806102b33660046118f4565b610ae5565b3480156102c457600080fd5b5061022b6102d3366004611911565b600e6020526000908152604090205481565b3480156102f157600080fd5b506102136103003660046118f4565b610b37565b34801561031157600080fd5b506102806103203660046118f4565b610baa565b34801561033157600080fd5b50610213610c13565b34801561034657600080fd5b506102806103553660046118f4565b610c27565b34801561036657600080fd5b5061022b6103753660046118f4565b600c6020526000908152604090205481565b34801561039357600080fd5b5061022b60065481565b3480156103a957600080fd5b506000546001600160a01b03165b6040516001600160a01b039091168152602001610235565b610213610f1c565b3480156103e357600080fd5b5061022b600d5481565b3480156103f957600080fd5b506104026111b6565b604051610235919061192a565b34801561041b57600080fd5b5061021361042a366004611977565b611218565b34801561043b57600080fd5b5061022b61044a3660046118f4565b6001600160a01b031660009081526002602052604090205490565b34801561047157600080fd5b506102136112b4565b34801561048657600080fd5b506004546104959061ffff1681565b60405161ffff9091168152602001610235565b3480156104b457600080fd5b5061022b60035481565b3480156104ca57600080fd5b506102136104d93660046119a3565b6112eb565b3480156104ea57600080fd5b5061022b6104f93660046118f4565b600a6020526000908152604090205481565b34801561051757600080fd5b5060085461052b906001600160401b031681565b6040516001600160401b039091168152602001610235565b34801561054f57600080fd5b5061022b60075481565b34801561056557600080fd5b5061056e61130b565b60408051928352602083019190915201610235565b34801561058f57600080fd5b5061021361059e3660046118af565b611320565b3480156105af57600080fd5b506102136105be3660046118f4565b611359565b3480156105cf57600080fd5b5061056e6105de3660046118f4565b6113cf565b3480156105ef57600080fd5b506102136105fe366004611911565b61156e565b34801561060f57600080fd5b506103b761061e366004611911565b6115cb565b34801561062f57600080fd5b506001546103b7906001600160a01b031681565b61064b6115f5565b612710816001600160401b0316106106a35760405162461bcd60e51b815260206004820152601660248201527550656e616c74792063616e6e6f74206265203130302560501b60448201526064015b60405180910390fd5b6001600160401b0316600955565b32600081815260026020526040812054909190806107115760405162461bcd60e51b815260206004820152601860248201527f596f7520646f6e2774206861766520616e79207374616b650000000000000000604482015260640161069a565b61071a82610c27565b506001600160a01b03821660009081526002602052604090205461073f9082906119dd565b6001600160a01b0383166000908152600260205260409020556006546107669082906119dd565b6006556107728261164f565b6008546001600160a01b0383166000908152600b6020526040812054909182916107a5916001600160401b0316906119f6565b42111580156107b657506000600954115b1561083157612710600954846107cc9190611a09565b6107d69190611a20565b90506107e281846119dd565b9150806007546107f291906119f6565b6007556040516001600160a01b0385169083156108fc029084906000818181858888f1935050505015801561082b573d6000803e3d6000fd5b50610869565b6040516001600160a01b0385169084156108fc029085906000818181858888f19350505050158015610867573d6000803e3d6000fd5b505b6001600160a01b0384166000818152600a60209081526040808320839055600b8252808320929092558151868152908101849052428183015290517f753014cc7945cb3c93016ecb5bc2a66e26d69971a934fcfe2a882794cb3448279181900360600190a2600194505050505090565b600354600090339034908110156109325760405162461bcd60e51b815260206004820152601860248201527f5374616b696e6720636f696e73206e6f7420656e6f7567680000000000000000604482015260640161069a565b60045460055461ffff9091161161098b5760405162461bcd60e51b815260206004820152601860248201527f43616e2774207374616b6520736c6f742069732066756c6c0000000000000000604482015260640161069a565b6001600160a01b03821660009081526002602052604081205490036109e757600d546000036109b95742600d555b600d546001600160a01b0383166000908152600a60209081526040808320849055600b9091529020556109f2565b6109f082610c27565b505b6001600160a01b038216600090815260026020526040902054610a169082906119f6565b6001600160a01b038316600090815260026020526040902055610a3882610baa565b610a8857600580546001810182556000919091527f036b6384b5eca791c62761152d0c79bb0604c104a5fb6f4eb0703f3154bb3db00180546001600160a01b0319166001600160a01b0384161790555b80600654610a9691906119f6565b600655604080518281524260208201526001600160a01b038416917fa0d1fa51224fb08c7c0b48d481448ad6a31c945d1a68cac8758cac3a92d5001c910160405180910390a260019250505090565b6008546001600160a01b0382166000908152600b60205260408120549091610b18916001600160401b03909116906119f6565b4211158015610b2957506000600954115b15610b32575060015b919050565b610b3f6115f5565b6001600160a01b038116610b885760405162461bcd60e51b815260206004820152601060248201526f1a5b9d985b1a590818dbdb9d1c9858dd60821b604482015260640161069a565b600180546001600160a01b0319166001600160a01b0392909216919091179055565b6000805b600554811015610c0a57826001600160a01b031660058281548110610bd557610bd5611a42565b6000918252602090912001546001600160a01b031603610bf85750600192915050565b80610c0281611a58565b915050610bae565b50600092915050565b610c1b6115f5565b610c2560006117b0565b565b6001600160a01b0381166000908152600a60205260408120548190819015610c85576001600160a01b0384166000908152600a60209081526040808320548352600e90915280822054600d548352912054610c8291906119dd565b91505b6001600160a01b0384166000908152600c60209081526040808320548352600e90915280822054600d548352912054610cbe91906119dd565b600154604051636487798160e01b81526001600160a01b038781166004830181905260248301529293506000929091169063648779819060440160c060405180830381865afa158015610d15573d6000803e3d6000fd5b505050506040513d601f19601f82011682018060405250810190610d399190611a80565b5050505050905060008284610d4e91906119f6565b1115610f11576001600160a01b0385166000908152600a602052604090205415610d8f57600d546001600160a01b0386166000908152600a60205260409020555b60015460405163d0744e3d60e01b81526001600160a01b03878116600483018190526024830152600092169063d0744e3d90604401602060405180830381865afa158015610de1573d6000803e3d6000fd5b505050506040513d601f19601f82011682018060405250810190610e059190611adc565b1115610e2857600d546001600160a01b0386166000908152600c60205260409020555b6001600160a01b038516600090815260026020526040812054670de0b6b3a764000090610e56908690611a09565b610e609190611a20565b90506000670de0b6b3a7640000610e778585611a09565b610e819190611a20565b90506001600160a01b0387166108fc610e9a83856119f6565b6040518115909202916000818181858888f19350505050158015610ec2573d6000803e3d6000fd5b506001600160a01b0387167ff03271da9252f83cabf8baf9c18589849bdadb0ad1f6268432d871380624b9e6610ef883856119f6565b604080519182524260208301520160405180910390a250505b506001949350505050565b600060075434610f2c91906119f6565b90506000610f3a6000611800565b5090506000600160009054906101000a90046001600160a01b03166001600160a01b0316633f8dc65a6040518163ffffffff1660e01b8152600401600060405180830381865afa158015610f92573d6000803e3d6000fd5b505050506040513d6000823e601f3d908101601f19168201604052610fba9190810190611d89565b5050825192955091935060009250829150505b828160ff1610156110c65760015484516000916001600160a01b031690636487798190879060ff861690811061100557611005611a42565b6020026020010151878560ff168151811061102257611022611a42565b60200260200101516040518363ffffffff1660e01b815260040161105c9291906001600160a01b0392831681529116602082015260400190565b60c060405180830381865afa158015611079573d6000803e3d6000fd5b505050506040513d601f19601f8201168201806040525081019061109d9190611a80565b5050505050905080836110b091906119f6565b92505080806110be90611e6d565b915050610fcd565b5060006110d382866119f6565b1161110d5760405162461bcd60e51b815260206004820152600a6024820152694e6f207374616b65727360b01b604482015260640161069a565b600d80546000908152600e60205260409020544290915561112e82866119f6565b61114087670de0b6b3a7640000611a09565b61114a9190611a20565b61115490826119f6565b600d546000908152600e602052604080822092909255600755517fddd247369eddde588b8afa794145311a9ac4ff297c32d895359c5befc1a4e1f3906111a69088904290918252602082015260400190565b60405180910390a1505050505050565b6060600580548060200260200160405190810160405280929190818152602001828054801561120e57602002820191906000526020600020905b81546001600160a01b031681526001909101906020018083116111f0575b5050505050905090565b6001546001600160a01b031633146112725760405162461bcd60e51b815260206004820152601860248201527f6f6e6c7956616c44617461436f6e7472616374206f6e6c790000000000000000604482015260640161069a565b801561129357506001600160a01b03166000908152600c6020526040812055565b50600d546001600160a01b03919091166000908152600c6020526040902055565b6112bc6115f5565b60405133904780156108fc02916000818181858888f193505050501580156112e8573d6000803e3d6000fd5b50565b6112f36115f5565b6004805461ffff191661ffff92909216919091179055565b6000806113186000611800565b915091509091565b6113286115f5565b6113358162015180611e8c565b6008805467ffffffffffffffff19166001600160401b039290921691909117905550565b6113616115f5565b6001600160a01b0381166113c65760405162461bcd60e51b815260206004820152602660248201527f4f776e61626c653a206e6577206f776e657220697320746865207a65726f206160448201526564647265737360d01b606482015260840161069a565b6112e8816117b0565b6001600160a01b0381166000908152600a60205260408120548190819081901561142f576001600160a01b0385166000908152600a60209081526040808320548352600e90915280822054600d54835291205461142c91906119dd565b91505b6001600160a01b0385166000908152600c60209081526040808320548352600e90915280822054600d54835291205461146891906119dd565b600154604051636487798160e01b81526001600160a01b038881166004830181905260248301529293506000929091169063648779819060440160c060405180830381865afa1580156114bf573d6000803e3d6000fd5b505050506040513d601f19601f820116820180604052508101906114e39190611a80565b50505050509050600082846114f891906119f6565b111561156057670de0b6b3a76400006115118383611a09565b61151b9190611a20565b6001600160a01b038716600090815260026020526040902054909550670de0b6b3a76400009061154c908590611a09565b6115569190611a20565b9350505050915091565b506000958695509350505050565b6115766115f5565b600081116115c65760405162461bcd60e51b815260206004820152601c60248201527f496e636f7272656374204d696e696d616c5374616b696e67436f696e00000000604482015260640161069a565b600355565b600581815481106115db57600080fd5b6000918252602090912001546001600160a01b0316905081565b6000546001600160a01b03163314610c255760405162461bcd60e51b815260206004820181905260248201527f4f776e61626c653a2063616c6c6572206973206e6f7420746865206f776e6572604482015260640161069a565b60005b6005548110156117ac576005818154811061166f5761166f611a42565b6000918252602090912001546001600160a01b039081169083160361179a5760055461169d906001906119dd565b811461171e57600580546116b3906001906119dd565b815481106116c3576116c3611a42565b600091825260209091200154600580546001600160a01b0390921691839081106116ef576116ef611a42565b9060005260206000200160006101000a8154816001600160a01b0302191690836001600160a01b031602179055505b600580548061172f5761172f611eb7565b600082815260209020810160001990810180546001600160a01b03191690550190556040516001600160a01b038316907f77f1de51ae9c845b4fff5f1512c8736ea703337fe77421649a51f6188d3470b29061178e9042815260200190565b60405180910390a25050565b806117a481611a58565b915050611652565b5050565b600080546001600160a01b038381166001600160a01b0319831681178455604051919092169283917f8be0079c531659141344cd1fd0a4f28419497f9722a3daafe3b4186f6b6457e09190a35050565b60008060005b6005548110156118a9576005818154811061182357611823611a42565b6000918252602090912001546001600160a01b0385811691161461189757600260006005838154811061185857611858611a42565b60009182526020808320909101546001600160a01b0316835282019290925260400190205461188790846119f6565b92508161189381611a58565b9250505b806118a181611a58565b915050611806565b50915091565b6000602082840312156118c157600080fd5b81356001600160401b03811681146118d857600080fd5b9392505050565b6001600160a01b03811681146112e857600080fd5b60006020828403121561190657600080fd5b81356118d8816118df565b60006020828403121561192357600080fd5b5035919050565b6020808252825182820181905260009190848201906040850190845b8181101561196b5783516001600160a01b031683529284019291840191600101611946565b50909695505050505050565b6000806040838503121561198a57600080fd5b8235611995816118df565b946020939093013593505050565b6000602082840312156119b557600080fd5b813561ffff811681146118d857600080fd5b634e487b7160e01b600052601160045260246000fd5b818103818111156119f0576119f06119c7565b92915050565b808201808211156119f0576119f06119c7565b80820281158282048414176119f0576119f06119c7565b600082611a3d57634e487b7160e01b600052601260045260246000fd5b500490565b634e487b7160e01b600052603260045260246000fd5b600060018201611a6a57611a6a6119c7565b5060010190565b805160058110610b3257600080fd5b60008060008060008060c08789031215611a9957600080fd5b86519550611aa960208801611a71565b945060408701519350606087015192506080870151915060a0870151611ace816118df565b809150509295509295509295565b600060208284031215611aee57600080fd5b5051919050565b634e487b7160e01b600052604160045260246000fd5b604051601f8201601f191681016001600160401b0381118282101715611b3357611b33611af5565b604052919050565b60006001600160401b03821115611b5457611b54611af5565b5060051b60200190565b600082601f830112611b6f57600080fd5b81516020611b84611b7f83611b3b565b611b0b565b82815260059290921b84018101918181019086841115611ba357600080fd5b8286015b84811015611bc7578051611bba816118df565b8352918301918301611ba7565b509695505050505050565b600082601f830112611be357600080fd5b81516020611bf3611b7f83611b3b565b82815260059290921b84018101918181019086841115611c1257600080fd5b8286015b84811015611bc757611c2781611a71565b8352918301918301611c16565b600082601f830112611c4557600080fd5b81516020611c55611b7f83611b3b565b82815260059290921b84018101918181019086841115611c7457600080fd5b8286015b84811015611bc75780518352918301918301611c78565b6000601f8381840112611ca157600080fd5b82516020611cb1611b7f83611b3b565b82815260059290921b85018101918181019087841115611cd057600080fd5b8287015b84811015611d7d5780516001600160401b0380821115611cf45760008081fd5b818a0191508a603f830112611d095760008081fd5b8582015181811115611d1d57611d1d611af5565b611d2e818a01601f19168801611b0b565b915080825260408c81838601011115611d475760008081fd5b60005b82811015611d65578481018201518482018a01528801611d4a565b50506000908201870152845250918301918301611cd4565b50979650505050505050565b600080600080600080600060e0888a031215611da457600080fd5b875196506020880151955060408801516001600160401b0380821115611dc957600080fd5b611dd58b838c01611b5e565b965060608a0151915080821115611deb57600080fd5b611df78b838c01611bd2565b955060808a0151915080821115611e0d57600080fd5b611e198b838c01611c34565b945060a08a0151915080821115611e2f57600080fd5b611e3b8b838c01611c8f565b935060c08a0151915080821115611e5157600080fd5b50611e5e8a828b01611c8f565b91505092959891949750929550565b600060ff821660ff8103611e8357611e836119c7565b60010192915050565b6001600160401b03818116838216028082169190828114611eaf57611eaf6119c7565b505092915050565b634e487b7160e01b600052603160045260246000fdfea2646970667358221220836b0bef05db4712911c246e3cb2b498a21165a92e8744392b45fcb09a25bb4864736f6c63430008110033",
					"opcodes": "PUSH1 0x80 PUSH1 0x40 MSTORE PUSH1 0x1 DUP1 SLOAD PUSH1 0x1 PUSH1 0x1 PUSH1 0xA0 SHL SUB NOT AND PUSH20 0xC4F6F3E5458AC81005EEF84521373904F18E36E OR SWAP1 SSTORE PUSH8 0xDE0B6B3A7640000 PUSH1 0x3 SWAP1 DUP2 SSTORE PUSH1 0x4 DUP1 SLOAD PUSH2 0xFFFF NOT AND SWAP1 SWAP2 OR SWAP1 SSTORE PUSH1 0x8 DUP1 SLOAD PUSH1 0x1 PUSH1 0x1 PUSH1 0x40 SHL SUB NOT AND PUSH3 0x76A700 OR SWAP1 SSTORE PUSH2 0x3E8 PUSH1 0x9 SSTORE CALLVALUE DUP1 ISZERO PUSH2 0x6D JUMPI PUSH1 0x0 DUP1 REVERT JUMPDEST POP PUSH2 0x77 CALLER PUSH2 0x7C JUMP JUMPDEST PUSH2 0xCC JUMP JUMPDEST PUSH1 0x0 DUP1 SLOAD PUSH1 0x1 PUSH1 0x1 PUSH1 0xA0 SHL SUB DUP4 DUP2 AND PUSH1 0x1 PUSH1 0x1 PUSH1 0xA0 SHL SUB NOT DUP4 AND DUP2 OR DUP5 SSTORE PUSH1 0x40 MLOAD SWAP2 SWAP1 SWAP3 AND SWAP3 DUP4 SWAP2 PUSH32 0x8BE0079C531659141344CD1FD0A4F28419497F9722A3DAAFE3B4186F6B6457E0 SWAP2 SWAP1 LOG3 POP POP JUMP JUMPDEST PUSH2 0x1F03 DUP1 PUSH2 0xDB PUSH1 0x0 CODECOPY PUSH1 0x0 RETURN INVALID PUSH1 0x80 PUSH1 0x40 MSTORE PUSH1 0x4 CALLDATASIZE LT PUSH2 0x1EE JUMPI PUSH1 0x0 CALLDATALOAD PUSH1 0xE0 SHR DUP1 PUSH4 0x9FB82DB9 GT PUSH2 0x10D JUMPI DUP1 PUSH4 0xE0639364 GT PUSH2 0xA0 JUMPI DUP1 PUSH4 0xF2FDE38B GT PUSH2 0x6F JUMPI DUP1 PUSH4 0xF2FDE38B EQ PUSH2 0x5A3 JUMPI DUP1 PUSH4 0xF3883538 EQ PUSH2 0x5C3 JUMPI DUP1 PUSH4 0xF67C4DFD EQ PUSH2 0x5E3 JUMPI DUP1 PUSH4 0xF6B663C3 EQ PUSH2 0x603 JUMPI DUP1 PUSH4 0xFE32F55E EQ PUSH2 0x623 JUMPI PUSH1 0x0 DUP1 REVERT JUMPDEST DUP1 PUSH4 0xE0639364 EQ PUSH2 0x50B JUMPI DUP1 PUSH4 0xE6AF61C8 EQ PUSH2 0x543 JUMPI DUP1 PUSH4 0xE75BCB96 EQ PUSH2 0x559 JUMPI DUP1 PUSH4 0xEE7CB288 EQ PUSH2 0x583 JUMPI PUSH1 0x0 DUP1 REVERT JUMPDEST DUP1 PUSH4 0xBDDD6DE4 GT PUSH2 0xDC JUMPI DUP1 PUSH4 0xBDDD6DE4 EQ PUSH2 0x47A JUMPI DUP1 PUSH4 0xBE645692 EQ PUSH2 0x4A8 JUMPI DUP1 PUSH4 0xC7907F54 EQ PUSH2 0x4BE JUMPI DUP1 PUSH4 0xCC001F16 EQ PUSH2 0x4DE JUMPI PUSH1 0x0 DUP1 REVERT JUMPDEST DUP1 PUSH4 0x9FB82DB9 EQ PUSH2 0x3ED JUMPI DUP1 PUSH4 0xA9E30CCF EQ PUSH2 0x40F JUMPI DUP1 PUSH4 0xAA4704F3 EQ PUSH2 0x42F JUMPI DUP1 PUSH4 0xB0806108 EQ PUSH2 0x465 JUMPI PUSH1 0x0 DUP1 REVERT JUMPDEST DUP1 PUSH4 0x68015791 GT PUSH2 0x185 JUMPI DUP1 PUSH4 0x8B0E9F3F GT PUSH2 0x154 JUMPI DUP1 PUSH4 0x8B0E9F3F EQ PUSH2 0x387 JUMPI DUP1 PUSH4 0x8DA5CB5B EQ PUSH2 0x39D JUMPI DUP1 PUSH4 0x8F73C5AE EQ PUSH2 0x3CF JUMPI DUP1 PUSH4 0x9231CF74 EQ PUSH2 0x3D7 JUMPI PUSH1 0x0 DUP1 REVERT JUMPDEST DUP1 PUSH4 0x68015791 EQ PUSH2 0x305 JUMPI DUP1 PUSH4 0x715018A6 EQ PUSH2 0x325 JUMPI DUP1 PUSH4 0x72D30A70 EQ PUSH2 0x33A JUMPI DUP1 PUSH4 0x82CB1C18 EQ PUSH2 0x35A JUMPI PUSH1 0x0 DUP1 REVERT JUMPDEST DUP1 PUSH4 0x3A4B66F1 GT PUSH2 0x1C1 JUMPI DUP1 PUSH4 0x3A4B66F1 EQ PUSH2 0x290 JUMPI DUP1 PUSH4 0x41F349B5 EQ PUSH2 0x298 JUMPI DUP1 PUSH4 0x5FA34EBD EQ PUSH2 0x2B8 JUMPI DUP1 PUSH4 0x6285B5A2 EQ PUSH2 0x2E5 JUMPI PUSH1 0x0 DUP1 REVERT JUMPDEST DUP1 PUSH4 0x62B6139 EQ PUSH2 0x1F3 JUMPI DUP1 PUSH4 0x15908D51 EQ PUSH2 0x215 JUMPI DUP1 PUSH4 0x2170E472 EQ PUSH2 0x23E JUMPI DUP1 PUSH4 0x2DEF6620 EQ PUSH2 0x26B JUMPI JUMPDEST PUSH1 0x0 DUP1 REVERT JUMPDEST CALLVALUE DUP1 ISZERO PUSH2 0x1FF JUMPI PUSH1 0x0 DUP1 REVERT JUMPDEST POP PUSH2 0x213 PUSH2 0x20E CALLDATASIZE PUSH1 0x4 PUSH2 0x18AF JUMP JUMPDEST PUSH2 0x643 JUMP JUMPDEST STOP JUMPDEST CALLVALUE DUP1 ISZERO PUSH2 0x221 JUMPI PUSH1 0x0 DUP1 REVERT JUMPDEST POP PUSH2 0x22B PUSH1 0x9 SLOAD DUP2 JUMP JUMPDEST PUSH1 0x40 MLOAD SWAP1 DUP2 MSTORE PUSH1 0x20 ADD JUMPDEST PUSH1 0x40 MLOAD DUP1 SWAP2 SUB SWAP1 RETURN JUMPDEST CALLVALUE DUP1 ISZERO PUSH2 0x24A JUMPI PUSH1 0x0 DUP1 REVERT JUMPDEST POP PUSH2 0x22B PUSH2 0x259 CALLDATASIZE PUSH1 0x4 PUSH2 0x18F4 JUMP JUMPDEST PUSH1 0xB PUSH1 0x20 MSTORE PUSH1 0x0 SWAP1 DUP2 MSTORE PUSH1 0x40 SWAP1 KECCAK256 SLOAD DUP2 JUMP JUMPDEST CALLVALUE DUP1 ISZERO PUSH2 0x277 JUMPI PUSH1 0x0 DUP1 REVERT JUMPDEST POP PUSH2 0x280 PUSH2 0x6B1 JUMP JUMPDEST PUSH1 0x40 MLOAD SWAP1 ISZERO ISZERO DUP2 MSTORE PUSH1 0x20 ADD PUSH2 0x235 JUMP JUMPDEST PUSH2 0x280 PUSH2 0x8D9 JUMP JUMPDEST CALLVALUE DUP1 ISZERO PUSH2 0x2A4 JUMPI PUSH1 0x0 DUP1 REVERT JUMPDEST POP PUSH2 0x280 PUSH2 0x2B3 CALLDATASIZE PUSH1 0x4 PUSH2 0x18F4 JUMP JUMPDEST PUSH2 0xAE5 JUMP JUMPDEST CALLVALUE DUP1 ISZERO PUSH2 0x2C4 JUMPI PUSH1 0x0 DUP1 REVERT JUMPDEST POP PUSH2 0x22B PUSH2 0x2D3 CALLDATASIZE PUSH1 0x4 PUSH2 0x1911 JUMP JUMPDEST PUSH1 0xE PUSH1 0x20 MSTORE PUSH1 0x0 SWAP1 DUP2 MSTORE PUSH1 0x40 SWAP1 KECCAK256 SLOAD DUP2 JUMP JUMPDEST CALLVALUE DUP1 ISZERO PUSH2 0x2F1 JUMPI PUSH1 0x0 DUP1 REVERT JUMPDEST POP PUSH2 0x213 PUSH2 0x300 CALLDATASIZE PUSH1 0x4 PUSH2 0x18F4 JUMP JUMPDEST PUSH2 0xB37 JUMP JUMPDEST CALLVALUE DUP1 ISZERO PUSH2 0x311 JUMPI PUSH1 0x0 DUP1 REVERT JUMPDEST POP PUSH2 0x280 PUSH2 0x320 CALLDATASIZE PUSH1 0x4 PUSH2 0x18F4 JUMP JUMPDEST PUSH2 0xBAA JUMP JUMPDEST CALLVALUE DUP1 ISZERO PUSH2 0x331 JUMPI PUSH1 0x0 DUP1 REVERT JUMPDEST POP PUSH2 0x213 PUSH2 0xC13 JUMP JUMPDEST CALLVALUE DUP1 ISZERO PUSH2 0x346 JUMPI PUSH1 0x0 DUP1 REVERT JUMPDEST POP PUSH2 0x280 PUSH2 0x355 CALLDATASIZE PUSH1 0x4 PUSH2 0x18F4 JUMP JUMPDEST PUSH2 0xC27 JUMP JUMPDEST CALLVALUE DUP1 ISZERO PUSH2 0x366 JUMPI PUSH1 0x0 DUP1 REVERT JUMPDEST POP PUSH2 0x22B PUSH2 0x375 CALLDATASIZE PUSH1 0x4 PUSH2 0x18F4 JUMP JUMPDEST PUSH1 0xC PUSH1 0x20 MSTORE PUSH1 0x0 SWAP1 DUP2 MSTORE PUSH1 0x40 SWAP1 KECCAK256 SLOAD DUP2 JUMP JUMPDEST CALLVALUE DUP1 ISZERO PUSH2 0x393 JUMPI PUSH1 0x0 DUP1 REVERT JUMPDEST POP PUSH2 0x22B PUSH1 0x6 SLOAD DUP2 JUMP JUMPDEST CALLVALUE DUP1 ISZERO PUSH2 0x3A9 JUMPI PUSH1 0x0 DUP1 REVERT JUMPDEST POP PUSH1 0x0 SLOAD PUSH1 0x1 PUSH1 0x1 PUSH1 0xA0 SHL SUB AND JUMPDEST PUSH1 0x40 MLOAD PUSH1 0x1 PUSH1 0x1 PUSH1 0xA0 SHL SUB SWAP1 SWAP2 AND DUP2 MSTORE PUSH1 0x20 ADD PUSH2 0x235 JUMP JUMPDEST PUSH2 0x213 PUSH2 0xF1C JUMP JUMPDEST CALLVALUE DUP1 ISZERO PUSH2 0x3E3 JUMPI PUSH1 0x0 DUP1 REVERT JUMPDEST POP PUSH2 0x22B PUSH1 0xD SLOAD DUP2 JUMP JUMPDEST CALLVALUE DUP1 ISZERO PUSH2 0x3F9 JUMPI PUSH1 0x0 DUP1 REVERT JUMPDEST POP PUSH2 0x402 PUSH2 0x11B6 JUMP JUMPDEST PUSH1 0x40 MLOAD PUSH2 0x235 SWAP2 SWAP1 PUSH2 0x192A JUMP JUMPDEST CALLVALUE DUP1 ISZERO PUSH2 0x41B JUMPI PUSH1 0x0 DUP1 REVERT JUMPDEST POP PUSH2 0x213 PUSH2 0x42A CALLDATASIZE PUSH1 0x4 PUSH2 0x1977 JUMP JUMPDEST PUSH2 0x1218 JUMP JUMPDEST CALLVALUE DUP1 ISZERO PUSH2 0x43B JUMPI PUSH1 0x0 DUP1 REVERT JUMPDEST POP PUSH2 0x22B PUSH2 0x44A CALLDATASIZE PUSH1 0x4 PUSH2 0x18F4 JUMP JUMPDEST PUSH1 0x1 PUSH1 0x1 PUSH1 0xA0 SHL SUB AND PUSH1 0x0 SWAP1 DUP2 MSTORE PUSH1 0x2 PUSH1 0x20 MSTORE PUSH1 0x40 SWAP1 KECCAK256 SLOAD SWAP1 JUMP JUMPDEST CALLVALUE DUP1 ISZERO PUSH2 0x471 JUMPI PUSH1 0x0 DUP1 REVERT JUMPDEST POP PUSH2 0x213 PUSH2 0x12B4 JUMP JUMPDEST CALLVALUE DUP1 ISZERO PUSH2 0x486 JUMPI PUSH1 0x0 DUP1 REVERT JUMPDEST POP PUSH1 0x4 SLOAD PUSH2 0x495 SWAP1 PUSH2 0xFFFF AND DUP2 JUMP JUMPDEST PUSH1 0x40 MLOAD PUSH2 0xFFFF SWAP1 SWAP2 AND DUP2 MSTORE PUSH1 0x20 ADD PUSH2 0x235 JUMP JUMPDEST CALLVALUE DUP1 ISZERO PUSH2 0x4B4 JUMPI PUSH1 0x0 DUP1 REVERT JUMPDEST POP PUSH2 0x22B PUSH1 0x3 SLOAD DUP2 JUMP JUMPDEST CALLVALUE DUP1 ISZERO PUSH2 0x4CA JUMPI PUSH1 0x0 DUP1 REVERT JUMPDEST POP PUSH2 0x213 PUSH2 0x4D9 CALLDATASIZE PUSH1 0x4 PUSH2 0x19A3 JUMP JUMPDEST PUSH2 0x12EB JUMP JUMPDEST CALLVALUE DUP1 ISZERO PUSH2 0x4EA JUMPI PUSH1 0x0 DUP1 REVERT JUMPDEST POP PUSH2 0x22B PUSH2 0x4F9 CALLDATASIZE PUSH1 0x4 PUSH2 0x18F4 JUMP JUMPDEST PUSH1 0xA PUSH1 0x20 MSTORE PUSH1 0x0 SWAP1 DUP2 MSTORE PUSH1 0x40 SWAP1 KECCAK256 SLOAD DUP2 JUMP JUMPDEST CALLVALUE DUP1 ISZERO PUSH2 0x517 JUMPI PUSH1 0x0 DUP1 REVERT JUMPDEST POP PUSH1 0x8 SLOAD PUSH2 0x52B SWAP1 PUSH1 0x1 PUSH1 0x1 PUSH1 0x40 SHL SUB AND DUP2 JUMP JUMPDEST PUSH1 0x40 MLOAD PUSH1 0x1 PUSH1 0x1 PUSH1 0x40 SHL SUB SWAP1 SWAP2 AND DUP2 MSTORE PUSH1 0x20 ADD PUSH2 0x235 JUMP JUMPDEST CALLVALUE DUP1 ISZERO PUSH2 0x54F JUMPI PUSH1 0x0 DUP1 REVERT JUMPDEST POP PUSH2 0x22B PUSH1 0x7 SLOAD DUP2 JUMP JUMPDEST CALLVALUE DUP1 ISZERO PUSH2 0x565 JUMPI PUSH1 0x0 DUP1 REVERT JUMPDEST POP PUSH2 0x56E PUSH2 0x130B JUMP JUMPDEST PUSH1 0x40 DUP1 MLOAD SWAP3 DUP4 MSTORE PUSH1 0x20 DUP4 ADD SWAP2 SWAP1 SWAP2 MSTORE ADD PUSH2 0x235 JUMP JUMPDEST CALLVALUE DUP1 ISZERO PUSH2 0x58F JUMPI PUSH1 0x0 DUP1 REVERT JUMPDEST POP PUSH2 0x213 PUSH2 0x59E CALLDATASIZE PUSH1 0x4 PUSH2 0x18AF JUMP JUMPDEST PUSH2 0x1320 JUMP JUMPDEST CALLVALUE DUP1 ISZERO PUSH2 0x5AF JUMPI PUSH1 0x0 DUP1 REVERT JUMPDEST POP PUSH2 0x213 PUSH2 0x5BE CALLDATASIZE PUSH1 0x4 PUSH2 0x18F4 JUMP JUMPDEST PUSH2 0x1359 JUMP JUMPDEST CALLVALUE DUP1 ISZERO PUSH2 0x5CF JUMPI PUSH1 0x0 DUP1 REVERT JUMPDEST POP PUSH2 0x56E PUSH2 0x5DE CALLDATASIZE PUSH1 0x4 PUSH2 0x18F4 JUMP JUMPDEST PUSH2 0x13CF JUMP JUMPDEST CALLVALUE DUP1 ISZERO PUSH2 0x5EF JUMPI PUSH1 0x0 DUP1 REVERT JUMPDEST POP PUSH2 0x213 PUSH2 0x5FE CALLDATASIZE PUSH1 0x4 PUSH2 0x1911 JUMP JUMPDEST PUSH2 0x156E JUMP JUMPDEST CALLVALUE DUP1 ISZERO PUSH2 0x60F JUMPI PUSH1 0x0 DUP1 REVERT JUMPDEST POP PUSH2 0x3B7 PUSH2 0x61E CALLDATASIZE PUSH1 0x4 PUSH2 0x1911 JUMP JUMPDEST PUSH2 0x15CB JUMP JUMPDEST CALLVALUE DUP1 ISZERO PUSH2 0x62F JUMPI PUSH1 0x0 DUP1 REVERT JUMPDEST POP PUSH1 0x1 SLOAD PUSH2 0x3B7 SWAP1 PUSH1 0x1 PUSH1 0x1 PUSH1 0xA0 SHL SUB AND DUP2 JUMP JUMPDEST PUSH2 0x64B PUSH2 0x15F5 JUMP JUMPDEST PUSH2 0x2710 DUP2 PUSH1 0x1 PUSH1 0x1 PUSH1 0x40 SHL SUB AND LT PUSH2 0x6A3 JUMPI PUSH1 0x40 MLOAD PUSH3 0x461BCD PUSH1 0xE5 SHL DUP2 MSTORE PUSH1 0x20 PUSH1 0x4 DUP3 ADD MSTORE PUSH1 0x16 PUSH1 0x24 DUP3 ADD MSTORE PUSH22 0x50656E616C74792063616E6E6F742062652031303025 PUSH1 0x50 SHL PUSH1 0x44 DUP3 ADD MSTORE PUSH1 0x64 ADD JUMPDEST PUSH1 0x40 MLOAD DUP1 SWAP2 SUB SWAP1 REVERT JUMPDEST PUSH1 0x1 PUSH1 0x1 PUSH1 0x40 SHL SUB AND PUSH1 0x9 SSTORE JUMP JUMPDEST ORIGIN PUSH1 0x0 DUP2 DUP2 MSTORE PUSH1 0x2 PUSH1 0x20 MSTORE PUSH1 0x40 DUP2 KECCAK256 SLOAD SWAP1 SWAP2 SWAP1 DUP1 PUSH2 0x711 JUMPI PUSH1 0x40 MLOAD PUSH3 0x461BCD PUSH1 0xE5 SHL DUP2 MSTORE PUSH1 0x20 PUSH1 0x4 DUP3 ADD MSTORE PUSH1 0x18 PUSH1 0x24 DUP3 ADD MSTORE PUSH32 0x596F7520646F6E2774206861766520616E79207374616B650000000000000000 PUSH1 0x44 DUP3 ADD MSTORE PUSH1 0x64 ADD PUSH2 0x69A JUMP JUMPDEST PUSH2 0x71A DUP3 PUSH2 0xC27 JUMP JUMPDEST POP PUSH1 0x1 PUSH1 0x1 PUSH1 0xA0 SHL SUB DUP3 AND PUSH1 0x0 SWAP1 DUP2 MSTORE PUSH1 0x2 PUSH1 0x20 MSTORE PUSH1 0x40 SWAP1 KECCAK256 SLOAD PUSH2 0x73F SWAP1 DUP3 SWAP1 PUSH2 0x19DD JUMP JUMPDEST PUSH1 0x1 PUSH1 0x1 PUSH1 0xA0 SHL SUB DUP4 AND PUSH1 0x0 SWAP1 DUP2 MSTORE PUSH1 0x2 PUSH1 0x20 MSTORE PUSH1 0x40 SWAP1 KECCAK256 SSTORE PUSH1 0x6 SLOAD PUSH2 0x766 SWAP1 DUP3 SWAP1 PUSH2 0x19DD JUMP JUMPDEST PUSH1 0x6 SSTORE PUSH2 0x772 DUP3 PUSH2 0x164F JUMP JUMPDEST PUSH1 0x8 SLOAD PUSH1 0x1 PUSH1 0x1 PUSH1 0xA0 SHL SUB DUP4 AND PUSH1 0x0 SWAP1 DUP2 MSTORE PUSH1 0xB PUSH1 0x20 MSTORE PUSH1 0x40 DUP2 KECCAK256 SLOAD SWAP1 SWAP2 DUP3 SWAP2 PUSH2 0x7A5 SWAP2 PUSH1 0x1 PUSH1 0x1 PUSH1 0x40 SHL SUB AND SWAP1 PUSH2 0x19F6 JUMP JUMPDEST TIMESTAMP GT ISZERO DUP1 ISZERO PUSH2 0x7B6 JUMPI POP PUSH1 0x0 PUSH1 0x9 SLOAD GT JUMPDEST ISZERO PUSH2 0x831 JUMPI PUSH2 0x2710 PUSH1 0x9 SLOAD DUP5 PUSH2 0x7CC SWAP2 SWAP1 PUSH2 0x1A09 JUMP JUMPDEST PUSH2 0x7D6 SWAP2 SWAP1 PUSH2 0x1A20 JUMP JUMPDEST SWAP1 POP PUSH2 0x7E2 DUP2 DUP5 PUSH2 0x19DD JUMP JUMPDEST SWAP2 POP DUP1 PUSH1 0x7 SLOAD PUSH2 0x7F2 SWAP2 SWAP1 PUSH2 0x19F6 JUMP JUMPDEST PUSH1 0x7 SSTORE PUSH1 0x40 MLOAD PUSH1 0x1 PUSH1 0x1 PUSH1 0xA0 SHL SUB DUP6 AND SWAP1 DUP4 ISZERO PUSH2 0x8FC MUL SWAP1 DUP5 SWAP1 PUSH1 0x0 DUP2 DUP2 DUP2 DUP6 DUP9 DUP9 CALL SWAP4 POP POP POP POP ISZERO DUP1 ISZERO PUSH2 0x82B JUMPI RETURNDATASIZE PUSH1 0x0 DUP1 RETURNDATACOPY RETURNDATASIZE PUSH1 0x0 REVERT JUMPDEST POP PUSH2 0x869 JUMP JUMPDEST PUSH1 0x40 MLOAD PUSH1 0x1 PUSH1 0x1 PUSH1 0xA0 SHL SUB DUP6 AND SWAP1 DUP5 ISZERO PUSH2 0x8FC MUL SWAP1 DUP6 SWAP1 PUSH1 0x0 DUP2 DUP2 DUP2 DUP6 DUP9 DUP9 CALL SWAP4 POP POP POP POP ISZERO DUP1 ISZERO PUSH2 0x867 JUMPI RETURNDATASIZE PUSH1 0x0 DUP1 RETURNDATACOPY RETURNDATASIZE PUSH1 0x0 REVERT JUMPDEST POP JUMPDEST PUSH1 0x1 PUSH1 0x1 PUSH1 0xA0 SHL SUB DUP5 AND PUSH1 0x0 DUP2 DUP2 MSTORE PUSH1 0xA PUSH1 0x20 SWAP1 DUP2 MSTORE PUSH1 0x40 DUP1 DUP4 KECCAK256 DUP4 SWAP1 SSTORE PUSH1 0xB DUP3 MSTORE DUP1 DUP4 KECCAK256 SWAP3 SWAP1 SWAP3 SSTORE DUP2 MLOAD DUP7 DUP2 MSTORE SWAP1 DUP2 ADD DUP5 SWAP1 MSTORE TIMESTAMP DUP2 DUP4 ADD MSTORE SWAP1 MLOAD PUSH32 0x753014CC7945CB3C93016ECB5BC2A66E26D69971A934FCFE2A882794CB344827 SWAP2 DUP2 SWAP1 SUB PUSH1 0x60 ADD SWAP1 LOG2 PUSH1 0x1 SWAP5 POP POP POP POP POP SWAP1 JUMP JUMPDEST PUSH1 0x3 SLOAD PUSH1 0x0 SWAP1 CALLER SWAP1 CALLVALUE SWAP1 DUP2 LT ISZERO PUSH2 0x932 JUMPI PUSH1 0x40 MLOAD PUSH3 0x461BCD PUSH1 0xE5 SHL DUP2 MSTORE PUSH1 0x20 PUSH1 0x4 DUP3 ADD MSTORE PUSH1 0x18 PUSH1 0x24 DUP3 ADD MSTORE PUSH32 0x5374616B696E6720636F696E73206E6F7420656E6F7567680000000000000000 PUSH1 0x44 DUP3 ADD MSTORE PUSH1 0x64 ADD PUSH2 0x69A JUMP JUMPDEST PUSH1 0x4 SLOAD PUSH1 0x5 SLOAD PUSH2 0xFFFF SWAP1 SWAP2 AND GT PUSH2 0x98B JUMPI PUSH1 0x40 MLOAD PUSH3 0x461BCD PUSH1 0xE5 SHL DUP2 MSTORE PUSH1 0x20 PUSH1 0x4 DUP3 ADD MSTORE PUSH1 0x18 PUSH1 0x24 DUP3 ADD MSTORE PUSH32 0x43616E2774207374616B6520736C6F742069732066756C6C0000000000000000 PUSH1 0x44 DUP3 ADD MSTORE PUSH1 0x64 ADD PUSH2 0x69A JUMP JUMPDEST PUSH1 0x1 PUSH1 0x1 PUSH1 0xA0 SHL SUB DUP3 AND PUSH1 0x0 SWAP1 DUP2 MSTORE PUSH1 0x2 PUSH1 0x20 MSTORE PUSH1 0x40 DUP2 KECCAK256 SLOAD SWAP1 SUB PUSH2 0x9E7 JUMPI PUSH1 0xD SLOAD PUSH1 0x0 SUB PUSH2 0x9B9 JUMPI TIMESTAMP PUSH1 0xD SSTORE JUMPDEST PUSH1 0xD SLOAD PUSH1 0x1 PUSH1 0x1 PUSH1 0xA0 SHL SUB DUP4 AND PUSH1 0x0 SWAP1 DUP2 MSTORE PUSH1 0xA PUSH1 0x20 SWAP1 DUP2 MSTORE PUSH1 0x40 DUP1 DUP4 KECCAK256 DUP5 SWAP1 SSTORE PUSH1 0xB SWAP1 SWAP2 MSTORE SWAP1 KECCAK256 SSTORE PUSH2 0x9F2 JUMP JUMPDEST PUSH2 0x9F0 DUP3 PUSH2 0xC27 JUMP JUMPDEST POP JUMPDEST PUSH1 0x1 PUSH1 0x1 PUSH1 0xA0 SHL SUB DUP3 AND PUSH1 0x0 SWAP1 DUP2 MSTORE PUSH1 0x2 PUSH1 0x20 MSTORE PUSH1 0x40 SWAP1 KECCAK256 SLOAD PUSH2 0xA16 SWAP1 DUP3 SWAP1 PUSH2 0x19F6 JUMP JUMPDEST PUSH1 0x1 PUSH1 0x1 PUSH1 0xA0 SHL SUB DUP4 AND PUSH1 0x0 SWAP1 DUP2 MSTORE PUSH1 0x2 PUSH1 0x20 MSTORE PUSH1 0x40 SWAP1 KECCAK256 SSTORE PUSH2 0xA38 DUP3 PUSH2 0xBAA JUMP JUMPDEST PUSH2 0xA88 JUMPI PUSH1 0x5 DUP1 SLOAD PUSH1 0x1 DUP2 ADD DUP3 SSTORE PUSH1 0x0 SWAP2 SWAP1 SWAP2 MSTORE PUSH32 0x36B6384B5ECA791C62761152D0C79BB0604C104A5FB6F4EB0703F3154BB3DB0 ADD DUP1 SLOAD PUSH1 0x1 PUSH1 0x1 PUSH1 0xA0 SHL SUB NOT AND PUSH1 0x1 PUSH1 0x1 PUSH1 0xA0 SHL SUB DUP5 AND OR SWAP1 SSTORE JUMPDEST DUP1 PUSH1 0x6 SLOAD PUSH2 0xA96 SWAP2 SWAP1 PUSH2 0x19F6 JUMP JUMPDEST PUSH1 0x6 SSTORE PUSH1 0x40 DUP1 MLOAD DUP3 DUP2 MSTORE TIMESTAMP PUSH1 0x20 DUP3 ADD MSTORE PUSH1 0x1 PUSH1 0x1 PUSH1 0xA0 SHL SUB DUP5 AND SWAP2 PUSH32 0xA0D1FA51224FB08C7C0B48D481448AD6A31C945D1A68CAC8758CAC3A92D5001C SWAP2 ADD PUSH1 0x40 MLOAD DUP1 SWAP2 SUB SWAP1 LOG2 PUSH1 0x1 SWAP3 POP POP POP SWAP1 JUMP JUMPDEST PUSH1 0x8 SLOAD PUSH1 0x1 PUSH1 0x1 PUSH1 0xA0 SHL SUB DUP3 AND PUSH1 0x0 SWAP1 DUP2 MSTORE PUSH1 0xB PUSH1 0x20 MSTORE PUSH1 0x40 DUP2 KECCAK256 SLOAD SWAP1 SWAP2 PUSH2 0xB18 SWAP2 PUSH1 0x1 PUSH1 0x1 PUSH1 0x40 SHL SUB SWAP1 SWAP2 AND SWAP1 PUSH2 0x19F6 JUMP JUMPDEST TIMESTAMP GT ISZERO DUP1 ISZERO PUSH2 0xB29 JUMPI POP PUSH1 0x0 PUSH1 0x9 SLOAD GT JUMPDEST ISZERO PUSH2 0xB32 JUMPI POP PUSH1 0x1 JUMPDEST SWAP2 SWAP1 POP JUMP JUMPDEST PUSH2 0xB3F PUSH2 0x15F5 JUMP JUMPDEST PUSH1 0x1 PUSH1 0x1 PUSH1 0xA0 SHL SUB DUP2 AND PUSH2 0xB88 JUMPI PUSH1 0x40 MLOAD PUSH3 0x461BCD PUSH1 0xE5 SHL DUP2 MSTORE PUSH1 0x20 PUSH1 0x4 DUP3 ADD MSTORE PUSH1 0x10 PUSH1 0x24 DUP3 ADD MSTORE PUSH16 0x1A5B9D985B1A590818DBDB9D1C9858DD PUSH1 0x82 SHL PUSH1 0x44 DUP3 ADD MSTORE PUSH1 0x64 ADD PUSH2 0x69A JUMP JUMPDEST PUSH1 0x1 DUP1 SLOAD PUSH1 0x1 PUSH1 0x1 PUSH1 0xA0 SHL SUB NOT AND PUSH1 0x1 PUSH1 0x1 PUSH1 0xA0 SHL SUB SWAP3 SWAP1 SWAP3 AND SWAP2 SWAP1 SWAP2 OR SWAP1 SSTORE JUMP JUMPDEST PUSH1 0x0 DUP1 JUMPDEST PUSH1 0x5 SLOAD DUP2 LT ISZERO PUSH2 0xC0A JUMPI DUP3 PUSH1 0x1 PUSH1 0x1 PUSH1 0xA0 SHL SUB AND PUSH1 0x5 DUP3 DUP2 SLOAD DUP2 LT PUSH2 0xBD5 JUMPI PUSH2 0xBD5 PUSH2 0x1A42 JUMP JUMPDEST PUSH1 0x0 SWAP2 DUP3 MSTORE PUSH1 0x20 SWAP1 SWAP2 KECCAK256 ADD SLOAD PUSH1 0x1 PUSH1 0x1 PUSH1 0xA0 SHL SUB AND SUB PUSH2 0xBF8 JUMPI POP PUSH1 0x1 SWAP3 SWAP2 POP POP JUMP JUMPDEST DUP1 PUSH2 0xC02 DUP2 PUSH2 0x1A58 JUMP JUMPDEST SWAP2 POP POP PUSH2 0xBAE JUMP JUMPDEST POP PUSH1 0x0 SWAP3 SWAP2 POP POP JUMP JUMPDEST PUSH2 0xC1B PUSH2 0x15F5 JUMP JUMPDEST PUSH2 0xC25 PUSH1 0x0 PUSH2 0x17B0 JUMP JUMPDEST JUMP JUMPDEST PUSH1 0x1 PUSH1 0x1 PUSH1 0xA0 SHL SUB DUP2 AND PUSH1 0x0 SWAP1 DUP2 MSTORE PUSH1 0xA PUSH1 0x20 MSTORE PUSH1 0x40 DUP2 KECCAK256 SLOAD DUP2 SWAP1 DUP2 SWAP1 ISZERO PUSH2 0xC85 JUMPI PUSH1 0x1 PUSH1 0x1 PUSH1 0xA0 SHL SUB DUP5 AND PUSH1 0x0 SWAP1 DUP2 MSTORE PUSH1 0xA PUSH1 0x20 SWAP1 DUP2 MSTORE PUSH1 0x40 DUP1 DUP4 KECCAK256 SLOAD DUP4 MSTORE PUSH1 0xE SWAP1 SWAP2 MSTORE DUP1 DUP3 KECCAK256 SLOAD PUSH1 0xD SLOAD DUP4 MSTORE SWAP2 KECCAK256 SLOAD PUSH2 0xC82 SWAP2 SWAP1 PUSH2 0x19DD JUMP JUMPDEST SWAP2 POP JUMPDEST PUSH1 0x1 PUSH1 0x1 PUSH1 0xA0 SHL SUB DUP5 AND PUSH1 0x0 SWAP1 DUP2 MSTORE PUSH1 0xC PUSH1 0x20 SWAP1 DUP2 MSTORE PUSH1 0x40 DUP1 DUP4 KECCAK256 SLOAD DUP4 MSTORE PUSH1 0xE SWAP1 SWAP2 MSTORE DUP1 DUP3 KECCAK256 SLOAD PUSH1 0xD SLOAD DUP4 MSTORE SWAP2 KECCAK256 SLOAD PUSH2 0xCBE SWAP2 SWAP1 PUSH2 0x19DD JUMP JUMPDEST PUSH1 0x1 SLOAD PUSH1 0x40 MLOAD PUSH4 0x64877981 PUSH1 0xE0 SHL DUP2 MSTORE PUSH1 0x1 PUSH1 0x1 PUSH1 0xA0 SHL SUB DUP8 DUP2 AND PUSH1 0x4 DUP4 ADD DUP2 SWAP1 MSTORE PUSH1 0x24 DUP4 ADD MSTORE SWAP3 SWAP4 POP PUSH1 0x0 SWAP3 SWAP1 SWAP2 AND SWAP1 PUSH4 0x64877981 SWAP1 PUSH1 0x44 ADD PUSH1 0xC0 PUSH1 0x40 MLOAD DUP1 DUP4 SUB DUP2 DUP7 GAS STATICCALL ISZERO DUP1 ISZERO PUSH2 0xD15 JUMPI RETURNDATASIZE PUSH1 0x0 DUP1 RETURNDATACOPY RETURNDATASIZE PUSH1 0x0 REVERT JUMPDEST POP POP POP POP PUSH1 0x40 MLOAD RETURNDATASIZE PUSH1 0x1F NOT PUSH1 0x1F DUP3 ADD AND DUP3 ADD DUP1 PUSH1 0x40 MSTORE POP DUP2 ADD SWAP1 PUSH2 0xD39 SWAP2 SWAP1 PUSH2 0x1A80 JUMP JUMPDEST POP POP POP POP POP SWAP1 POP PUSH1 0x0 DUP3 DUP5 PUSH2 0xD4E SWAP2 SWAP1 PUSH2 0x19F6 JUMP JUMPDEST GT ISZERO PUSH2 0xF11 JUMPI PUSH1 0x1 PUSH1 0x1 PUSH1 0xA0 SHL SUB DUP6 AND PUSH1 0x0 SWAP1 DUP2 MSTORE PUSH1 0xA PUSH1 0x20 MSTORE PUSH1 0x40 SWAP1 KECCAK256 SLOAD ISZERO PUSH2 0xD8F JUMPI PUSH1 0xD SLOAD PUSH1 0x1 PUSH1 0x1 PUSH1 0xA0 SHL SUB DUP7 AND PUSH1 0x0 SWAP1 DUP2 MSTORE PUSH1 0xA PUSH1 0x20 MSTORE PUSH1 0x40 SWAP1 KECCAK256 SSTORE JUMPDEST PUSH1 0x1 SLOAD PUSH1 0x40 MLOAD PUSH4 0xD0744E3D PUSH1 0xE0 SHL DUP2 MSTORE PUSH1 0x1 PUSH1 0x1 PUSH1 0xA0 SHL SUB DUP8 DUP2 AND PUSH1 0x4 DUP4 ADD DUP2 SWAP1 MSTORE PUSH1 0x24 DUP4 ADD MSTORE PUSH1 0x0 SWAP3 AND SWAP1 PUSH4 0xD0744E3D SWAP1 PUSH1 0x44 ADD PUSH1 0x20 PUSH1 0x40 MLOAD DUP1 DUP4 SUB DUP2 DUP7 GAS STATICCALL ISZERO DUP1 ISZERO PUSH2 0xDE1 JUMPI RETURNDATASIZE PUSH1 0x0 DUP1 RETURNDATACOPY RETURNDATASIZE PUSH1 0x0 REVERT JUMPDEST POP POP POP POP PUSH1 0x40 MLOAD RETURNDATASIZE PUSH1 0x1F NOT PUSH1 0x1F DUP3 ADD AND DUP3 ADD DUP1 PUSH1 0x40 MSTORE POP DUP2 ADD SWAP1 PUSH2 0xE05 SWAP2 SWAP1 PUSH2 0x1ADC JUMP JUMPDEST GT ISZERO PUSH2 0xE28 JUMPI PUSH1 0xD SLOAD PUSH1 0x1 PUSH1 0x1 PUSH1 0xA0 SHL SUB DUP7 AND PUSH1 0x0 SWAP1 DUP2 MSTORE PUSH1 0xC PUSH1 0x20 MSTORE PUSH1 0x40 SWAP1 KECCAK256 SSTORE JUMPDEST PUSH1 0x1 PUSH1 0x1 PUSH1 0xA0 SHL SUB DUP6 AND PUSH1 0x0 SWAP1 DUP2 MSTORE PUSH1 0x2 PUSH1 0x20 MSTORE PUSH1 0x40 DUP2 KECCAK256 SLOAD PUSH8 0xDE0B6B3A7640000 SWAP1 PUSH2 0xE56 SWAP1 DUP7 SWAP1 PUSH2 0x1A09 JUMP JUMPDEST PUSH2 0xE60 SWAP2 SWAP1 PUSH2 0x1A20 JUMP JUMPDEST SWAP1 POP PUSH1 0x0 PUSH8 0xDE0B6B3A7640000 PUSH2 0xE77 DUP6 DUP6 PUSH2 0x1A09 JUMP JUMPDEST PUSH2 0xE81 SWAP2 SWAP1 PUSH2 0x1A20 JUMP JUMPDEST SWAP1 POP PUSH1 0x1 PUSH1 0x1 PUSH1 0xA0 SHL SUB DUP8 AND PUSH2 0x8FC PUSH2 0xE9A DUP4 DUP6 PUSH2 0x19F6 JUMP JUMPDEST PUSH1 0x40 MLOAD DUP2 ISZERO SWAP1 SWAP3 MUL SWAP2 PUSH1 0x0 DUP2 DUP2 DUP2 DUP6 DUP9 DUP9 CALL SWAP4 POP POP POP POP ISZERO DUP1 ISZERO PUSH2 0xEC2 JUMPI RETURNDATASIZE PUSH1 0x0 DUP1 RETURNDATACOPY RETURNDATASIZE PUSH1 0x0 REVERT JUMPDEST POP PUSH1 0x1 PUSH1 0x1 PUSH1 0xA0 SHL SUB DUP8 AND PUSH32 0xF03271DA9252F83CABF8BAF9C18589849BDADB0AD1F6268432D871380624B9E6 PUSH2 0xEF8 DUP4 DUP6 PUSH2 0x19F6 JUMP JUMPDEST PUSH1 0x40 DUP1 MLOAD SWAP2 DUP3 MSTORE TIMESTAMP PUSH1 0x20 DUP4 ADD MSTORE ADD PUSH1 0x40 MLOAD DUP1 SWAP2 SUB SWAP1 LOG2 POP POP JUMPDEST POP PUSH1 0x1 SWAP5 SWAP4 POP POP POP POP JUMP JUMPDEST PUSH1 0x0 PUSH1 0x7 SLOAD CALLVALUE PUSH2 0xF2C SWAP2 SWAP1 PUSH2 0x19F6 JUMP JUMPDEST SWAP1 POP PUSH1 0x0 PUSH2 0xF3A PUSH1 0x0 PUSH2 0x1800 JUMP JUMPDEST POP SWAP1 POP PUSH1 0x0 PUSH1 0x1 PUSH1 0x0 SWAP1 SLOAD SWAP1 PUSH2 0x100 EXP SWAP1 DIV PUSH1 0x1 PUSH1 0x1 PUSH1 0xA0 SHL SUB AND PUSH1 0x1 PUSH1 0x1 PUSH1 0xA0 SHL SUB AND PUSH4 0x3F8DC65A PUSH1 0x40 MLOAD DUP2 PUSH4 0xFFFFFFFF AND PUSH1 0xE0 SHL DUP2 MSTORE PUSH1 0x4 ADD PUSH1 0x0 PUSH1 0x40 MLOAD DUP1 DUP4 SUB DUP2 DUP7 GAS STATICCALL ISZERO DUP1 ISZERO PUSH2 0xF92 JUMPI RETURNDATASIZE PUSH1 0x0 DUP1 RETURNDATACOPY RETURNDATASIZE PUSH1 0x0 REVERT JUMPDEST POP POP POP POP PUSH1 0x40 MLOAD RETURNDATASIZE PUSH1 0x0 DUP3 RETURNDATACOPY PUSH1 0x1F RETURNDATASIZE SWAP1 DUP2 ADD PUSH1 0x1F NOT AND DUP3 ADD PUSH1 0x40 MSTORE PUSH2 0xFBA SWAP2 SWAP1 DUP2 ADD SWAP1 PUSH2 0x1D89 JUMP JUMPDEST POP POP DUP3 MLOAD SWAP3 SWAP6 POP SWAP2 SWAP4 POP PUSH1 0x0 SWAP3 POP DUP3 SWAP2 POP POP JUMPDEST DUP3 DUP2 PUSH1 0xFF AND LT ISZERO PUSH2 0x10C6 JUMPI PUSH1 0x1 SLOAD DUP5 MLOAD PUSH1 0x0 SWAP2 PUSH1 0x1 PUSH1 0x1 PUSH1 0xA0 SHL SUB AND SWAP1 PUSH4 0x64877981 SWAP1 DUP8 SWAP1 PUSH1 0xFF DUP7 AND SWAP1 DUP2 LT PUSH2 0x1005 JUMPI PUSH2 0x1005 PUSH2 0x1A42 JUMP JUMPDEST PUSH1 0x20 MUL PUSH1 0x20 ADD ADD MLOAD DUP8 DUP6 PUSH1 0xFF AND DUP2 MLOAD DUP2 LT PUSH2 0x1022 JUMPI PUSH2 0x1022 PUSH2 0x1A42 JUMP JUMPDEST PUSH1 0x20 MUL PUSH1 0x20 ADD ADD MLOAD PUSH1 0x40 MLOAD DUP4 PUSH4 0xFFFFFFFF AND PUSH1 0xE0 SHL DUP2 MSTORE PUSH1 0x4 ADD PUSH2 0x105C SWAP3 SWAP2 SWAP1 PUSH1 0x1 PUSH1 0x1 PUSH1 0xA0 SHL SUB SWAP3 DUP4 AND DUP2 MSTORE SWAP2 AND PUSH1 0x20 DUP3 ADD MSTORE PUSH1 0x40 ADD SWAP1 JUMP JUMPDEST PUSH1 0xC0 PUSH1 0x40 MLOAD DUP1 DUP4 SUB DUP2 DUP7 GAS STATICCALL ISZERO DUP1 ISZERO PUSH2 0x1079 JUMPI RETURNDATASIZE PUSH1 0x0 DUP1 RETURNDATACOPY RETURNDATASIZE PUSH1 0x0 REVERT JUMPDEST POP POP POP POP PUSH1 0x40 MLOAD RETURNDATASIZE PUSH1 0x1F NOT PUSH1 0x1F DUP3 ADD AND DUP3 ADD DUP1 PUSH1 0x40 MSTORE POP DUP2 ADD SWAP1 PUSH2 0x109D SWAP2 SWAP1 PUSH2 0x1A80 JUMP JUMPDEST POP POP POP POP POP SWAP1 POP DUP1 DUP4 PUSH2 0x10B0 SWAP2 SWAP1 PUSH2 0x19F6 JUMP JUMPDEST SWAP3 POP POP DUP1 DUP1 PUSH2 0x10BE SWAP1 PUSH2 0x1E6D JUMP JUMPDEST SWAP2 POP POP PUSH2 0xFCD JUMP JUMPDEST POP PUSH1 0x0 PUSH2 0x10D3 DUP3 DUP7 PUSH2 0x19F6 JUMP JUMPDEST GT PUSH2 0x110D JUMPI PUSH1 0x40 MLOAD PUSH3 0x461BCD PUSH1 0xE5 SHL DUP2 MSTORE PUSH1 0x20 PUSH1 0x4 DUP3 ADD MSTORE PUSH1 0xA PUSH1 0x24 DUP3 ADD MSTORE PUSH10 0x4E6F207374616B657273 PUSH1 0xB0 SHL PUSH1 0x44 DUP3 ADD MSTORE PUSH1 0x64 ADD PUSH2 0x69A JUMP JUMPDEST PUSH1 0xD DUP1 SLOAD PUSH1 0x0 SWAP1 DUP2 MSTORE PUSH1 0xE PUSH1 0x20 MSTORE PUSH1 0x40 SWAP1 KECCAK256 SLOAD TIMESTAMP SWAP1 SWAP2 SSTORE PUSH2 0x112E DUP3 DUP7 PUSH2 0x19F6 JUMP JUMPDEST PUSH2 0x1140 DUP8 PUSH8 0xDE0B6B3A7640000 PUSH2 0x1A09 JUMP JUMPDEST PUSH2 0x114A SWAP2 SWAP1 PUSH2 0x1A20 JUMP JUMPDEST PUSH2 0x1154 SWAP1 DUP3 PUSH2 0x19F6 JUMP JUMPDEST PUSH1 0xD SLOAD PUSH1 0x0 SWAP1 DUP2 MSTORE PUSH1 0xE PUSH1 0x20 MSTORE PUSH1 0x40 DUP1 DUP3 KECCAK256 SWAP3 SWAP1 SWAP3 SSTORE PUSH1 0x7 SSTORE MLOAD PUSH32 0xDDD247369EDDDE588B8AFA794145311A9AC4FF297C32D895359C5BEFC1A4E1F3 SWAP1 PUSH2 0x11A6 SWAP1 DUP9 SWAP1 TIMESTAMP SWAP1 SWAP2 DUP3 MSTORE PUSH1 0x20 DUP3 ADD MSTORE PUSH1 0x40 ADD SWAP1 JUMP JUMPDEST PUSH1 0x40 MLOAD DUP1 SWAP2 SUB SWAP1 LOG1 POP POP POP POP POP POP JUMP JUMPDEST PUSH1 0x60 PUSH1 0x5 DUP1 SLOAD DUP1 PUSH1 0x20 MUL PUSH1 0x20 ADD PUSH1 0x40 MLOAD SWAP1 DUP2 ADD PUSH1 0x40 MSTORE DUP1 SWAP3 SWAP2 SWAP1 DUP2 DUP2 MSTORE PUSH1 0x20 ADD DUP3 DUP1 SLOAD DUP1 ISZERO PUSH2 0x120E JUMPI PUSH1 0x20 MUL DUP3 ADD SWAP2 SWAP1 PUSH1 0x0 MSTORE PUSH1 0x20 PUSH1 0x0 KECCAK256 SWAP1 JUMPDEST DUP2 SLOAD PUSH1 0x1 PUSH1 0x1 PUSH1 0xA0 SHL SUB AND DUP2 MSTORE PUSH1 0x1 SWAP1 SWAP2 ADD SWAP1 PUSH1 0x20 ADD DUP1 DUP4 GT PUSH2 0x11F0 JUMPI JUMPDEST POP POP POP POP POP SWAP1 POP SWAP1 JUMP JUMPDEST PUSH1 0x1 SLOAD PUSH1 0x1 PUSH1 0x1 PUSH1 0xA0 SHL SUB AND CALLER EQ PUSH2 0x1272 JUMPI PUSH1 0x40 MLOAD PUSH3 0x461BCD PUSH1 0xE5 SHL DUP2 MSTORE PUSH1 0x20 PUSH1 0x4 DUP3 ADD MSTORE PUSH1 0x18 PUSH1 0x24 DUP3 ADD MSTORE PUSH32 0x6F6E6C7956616C44617461436F6E7472616374206F6E6C790000000000000000 PUSH1 0x44 DUP3 ADD MSTORE PUSH1 0x64 ADD PUSH2 0x69A JUMP JUMPDEST DUP1 ISZERO PUSH2 0x1293 JUMPI POP PUSH1 0x1 PUSH1 0x1 PUSH1 0xA0 SHL SUB AND PUSH1 0x0 SWAP1 DUP2 MSTORE PUSH1 0xC PUSH1 0x20 MSTORE PUSH1 0x40 DUP2 KECCAK256 SSTORE JUMP JUMPDEST POP PUSH1 0xD SLOAD PUSH1 0x1 PUSH1 0x1 PUSH1 0xA0 SHL SUB SWAP2 SWAP1 SWAP2 AND PUSH1 0x0 SWAP1 DUP2 MSTORE PUSH1 0xC PUSH1 0x20 MSTORE PUSH1 0x40 SWAP1 KECCAK256 SSTORE JUMP JUMPDEST PUSH2 0x12BC PUSH2 0x15F5 JUMP JUMPDEST PUSH1 0x40 MLOAD CALLER SWAP1 SELFBALANCE DUP1 ISZERO PUSH2 0x8FC MUL SWAP2 PUSH1 0x0 DUP2 DUP2 DUP2 DUP6 DUP9 DUP9 CALL SWAP4 POP POP POP POP ISZERO DUP1 ISZERO PUSH2 0x12E8 JUMPI RETURNDATASIZE PUSH1 0x0 DUP1 RETURNDATACOPY RETURNDATASIZE PUSH1 0x0 REVERT JUMPDEST POP JUMP JUMPDEST PUSH2 0x12F3 PUSH2 0x15F5 JUMP JUMPDEST PUSH1 0x4 DUP1 SLOAD PUSH2 0xFFFF NOT AND PUSH2 0xFFFF SWAP3 SWAP1 SWAP3 AND SWAP2 SWAP1 SWAP2 OR SWAP1 SSTORE JUMP JUMPDEST PUSH1 0x0 DUP1 PUSH2 0x1318 PUSH1 0x0 PUSH2 0x1800 JUMP JUMPDEST SWAP2 POP SWAP2 POP SWAP1 SWAP2 JUMP JUMPDEST PUSH2 0x1328 PUSH2 0x15F5 JUMP JUMPDEST PUSH2 0x1335 DUP2 PUSH3 0x15180 PUSH2 0x1E8C JUMP JUMPDEST PUSH1 0x8 DUP1 SLOAD PUSH8 0xFFFFFFFFFFFFFFFF NOT AND PUSH1 0x1 PUSH1 0x1 PUSH1 0x40 SHL SUB SWAP3 SWAP1 SWAP3 AND SWAP2 SWAP1 SWAP2 OR SWAP1 SSTORE POP JUMP JUMPDEST PUSH2 0x1361 PUSH2 0x15F5 JUMP JUMPDEST PUSH1 0x1 PUSH1 0x1 PUSH1 0xA0 SHL SUB DUP2 AND PUSH2 0x13C6 JUMPI PUSH1 0x40 MLOAD PUSH3 0x461BCD PUSH1 0xE5 SHL DUP2 MSTORE PUSH1 0x20 PUSH1 0x4 DUP3 ADD MSTORE PUSH1 0x26 PUSH1 0x24 DUP3 ADD MSTORE PUSH32 0x4F776E61626C653A206E6577206F776E657220697320746865207A65726F2061 PUSH1 0x44 DUP3 ADD MSTORE PUSH6 0x646472657373 PUSH1 0xD0 SHL PUSH1 0x64 DUP3 ADD MSTORE PUSH1 0x84 ADD PUSH2 0x69A JUMP JUMPDEST PUSH2 0x12E8 DUP2 PUSH2 0x17B0 JUMP JUMPDEST PUSH1 0x1 PUSH1 0x1 PUSH1 0xA0 SHL SUB DUP2 AND PUSH1 0x0 SWAP1 DUP2 MSTORE PUSH1 0xA PUSH1 0x20 MSTORE PUSH1 0x40 DUP2 KECCAK256 SLOAD DUP2 SWAP1 DUP2 SWAP1 DUP2 SWAP1 ISZERO PUSH2 0x142F JUMPI PUSH1 0x1 PUSH1 0x1 PUSH1 0xA0 SHL SUB DUP6 AND PUSH1 0x0 SWAP1 DUP2 MSTORE PUSH1 0xA PUSH1 0x20 SWAP1 DUP2 MSTORE PUSH1 0x40 DUP1 DUP4 KECCAK256 SLOAD DUP4 MSTORE PUSH1 0xE SWAP1 SWAP2 MSTORE DUP1 DUP3 KECCAK256 SLOAD PUSH1 0xD SLOAD DUP4 MSTORE SWAP2 KECCAK256 SLOAD PUSH2 0x142C SWAP2 SWAP1 PUSH2 0x19DD JUMP JUMPDEST SWAP2 POP JUMPDEST PUSH1 0x1 PUSH1 0x1 PUSH1 0xA0 SHL SUB DUP6 AND PUSH1 0x0 SWAP1 DUP2 MSTORE PUSH1 0xC PUSH1 0x20 SWAP1 DUP2 MSTORE PUSH1 0x40 DUP1 DUP4 KECCAK256 SLOAD DUP4 MSTORE PUSH1 0xE SWAP1 SWAP2 MSTORE DUP1 DUP3 KECCAK256 SLOAD PUSH1 0xD SLOAD DUP4 MSTORE SWAP2 KECCAK256 SLOAD PUSH2 0x1468 SWAP2 SWAP1 PUSH2 0x19DD JUMP JUMPDEST PUSH1 0x1 SLOAD PUSH1 0x40 MLOAD PUSH4 0x64877981 PUSH1 0xE0 SHL DUP2 MSTORE PUSH1 0x1 PUSH1 0x1 PUSH1 0xA0 SHL SUB DUP9 DUP2 AND PUSH1 0x4 DUP4 ADD DUP2 SWAP1 MSTORE PUSH1 0x24 DUP4 ADD MSTORE SWAP3 SWAP4 POP PUSH1 0x0 SWAP3 SWAP1 SWAP2 AND SWAP1 PUSH4 0x64877981 SWAP1 PUSH1 0x44 ADD PUSH1 0xC0 PUSH1 0x40 MLOAD DUP1 DUP4 SUB DUP2 DUP7 GAS STATICCALL ISZERO DUP1 ISZERO PUSH2 0x14BF JUMPI RETURNDATASIZE PUSH1 0x0 DUP1 RETURNDATACOPY RETURNDATASIZE PUSH1 0x0 REVERT JUMPDEST POP POP POP POP PUSH1 0x40 MLOAD RETURNDATASIZE PUSH1 0x1F NOT PUSH1 0x1F DUP3 ADD AND DUP3 ADD DUP1 PUSH1 0x40 MSTORE POP DUP2 ADD SWAP1 PUSH2 0x14E3 SWAP2 SWAP1 PUSH2 0x1A80 JUMP JUMPDEST POP POP POP POP POP SWAP1 POP PUSH1 0x0 DUP3 DUP5 PUSH2 0x14F8 SWAP2 SWAP1 PUSH2 0x19F6 JUMP JUMPDEST GT ISZERO PUSH2 0x1560 JUMPI PUSH8 0xDE0B6B3A7640000 PUSH2 0x1511 DUP4 DUP4 PUSH2 0x1A09 JUMP JUMPDEST PUSH2 0x151B SWAP2 SWAP1 PUSH2 0x1A20 JUMP JUMPDEST PUSH1 0x1 PUSH1 0x1 PUSH1 0xA0 SHL SUB DUP8 AND PUSH1 0x0 SWAP1 DUP2 MSTORE PUSH1 0x2 PUSH1 0x20 MSTORE PUSH1 0x40 SWAP1 KECCAK256 SLOAD SWAP1 SWAP6 POP PUSH8 0xDE0B6B3A7640000 SWAP1 PUSH2 0x154C SWAP1 DUP6 SWAP1 PUSH2 0x1A09 JUMP JUMPDEST PUSH2 0x1556 SWAP2 SWAP1 PUSH2 0x1A20 JUMP JUMPDEST SWAP4 POP POP POP POP SWAP2 POP SWAP2 JUMP JUMPDEST POP PUSH1 0x0 SWAP6 DUP7 SWAP6 POP SWAP4 POP POP POP POP JUMP JUMPDEST PUSH2 0x1576 PUSH2 0x15F5 JUMP JUMPDEST PUSH1 0x0 DUP2 GT PUSH2 0x15C6 JUMPI PUSH1 0x40 MLOAD PUSH3 0x461BCD PUSH1 0xE5 SHL DUP2 MSTORE PUSH1 0x20 PUSH1 0x4 DUP3 ADD MSTORE PUSH1 0x1C PUSH1 0x24 DUP3 ADD MSTORE PUSH32 0x496E636F7272656374204D696E696D616C5374616B696E67436F696E00000000 PUSH1 0x44 DUP3 ADD MSTORE PUSH1 0x64 ADD PUSH2 0x69A JUMP JUMPDEST PUSH1 0x3 SSTORE JUMP JUMPDEST PUSH1 0x5 DUP2 DUP2 SLOAD DUP2 LT PUSH2 0x15DB JUMPI PUSH1 0x0 DUP1 REVERT JUMPDEST PUSH1 0x0 SWAP2 DUP3 MSTORE PUSH1 0x20 SWAP1 SWAP2 KECCAK256 ADD SLOAD PUSH1 0x1 PUSH1 0x1 PUSH1 0xA0 SHL SUB AND SWAP1 POP DUP2 JUMP JUMPDEST PUSH1 0x0 SLOAD PUSH1 0x1 PUSH1 0x1 PUSH1 0xA0 SHL SUB AND CALLER EQ PUSH2 0xC25 JUMPI PUSH1 0x40 MLOAD PUSH3 0x461BCD PUSH1 0xE5 SHL DUP2 MSTORE PUSH1 0x20 PUSH1 0x4 DUP3 ADD DUP2 SWAP1 MSTORE PUSH1 0x24 DUP3 ADD MSTORE PUSH32 0x4F776E61626C653A2063616C6C6572206973206E6F7420746865206F776E6572 PUSH1 0x44 DUP3 ADD MSTORE PUSH1 0x64 ADD PUSH2 0x69A JUMP JUMPDEST PUSH1 0x0 JUMPDEST PUSH1 0x5 SLOAD DUP2 LT ISZERO PUSH2 0x17AC JUMPI PUSH1 0x5 DUP2 DUP2 SLOAD DUP2 LT PUSH2 0x166F JUMPI PUSH2 0x166F PUSH2 0x1A42 JUMP JUMPDEST PUSH1 0x0 SWAP2 DUP3 MSTORE PUSH1 0x20 SWAP1 SWAP2 KECCAK256 ADD SLOAD PUSH1 0x1 PUSH1 0x1 PUSH1 0xA0 SHL SUB SWAP1 DUP2 AND SWAP1 DUP4 AND SUB PUSH2 0x179A JUMPI PUSH1 0x5 SLOAD PUSH2 0x169D SWAP1 PUSH1 0x1 SWAP1 PUSH2 0x19DD JUMP JUMPDEST DUP2 EQ PUSH2 0x171E JUMPI PUSH1 0x5 DUP1 SLOAD PUSH2 0x16B3 SWAP1 PUSH1 0x1 SWAP1 PUSH2 0x19DD JUMP JUMPDEST DUP2 SLOAD DUP2 LT PUSH2 0x16C3 JUMPI PUSH2 0x16C3 PUSH2 0x1A42 JUMP JUMPDEST PUSH1 0x0 SWAP2 DUP3 MSTORE PUSH1 0x20 SWAP1 SWAP2 KECCAK256 ADD SLOAD PUSH1 0x5 DUP1 SLOAD PUSH1 0x1 PUSH1 0x1 PUSH1 0xA0 SHL SUB SWAP1 SWAP3 AND SWAP2 DUP4 SWAP1 DUP2 LT PUSH2 0x16EF JUMPI PUSH2 0x16EF PUSH2 0x1A42 JUMP JUMPDEST SWAP1 PUSH1 0x0 MSTORE PUSH1 0x20 PUSH1 0x0 KECCAK256 ADD PUSH1 0x0 PUSH2 0x100 EXP DUP2 SLOAD DUP2 PUSH1 0x1 PUSH1 0x1 PUSH1 0xA0 SHL SUB MUL NOT AND SWAP1 DUP4 PUSH1 0x1 PUSH1 0x1 PUSH1 0xA0 SHL SUB AND MUL OR SWAP1 SSTORE POP JUMPDEST PUSH1 0x5 DUP1 SLOAD DUP1 PUSH2 0x172F JUMPI PUSH2 0x172F PUSH2 0x1EB7 JUMP JUMPDEST PUSH1 0x0 DUP3 DUP2 MSTORE PUSH1 0x20 SWAP1 KECCAK256 DUP2 ADD PUSH1 0x0 NOT SWAP1 DUP2 ADD DUP1 SLOAD PUSH1 0x1 PUSH1 0x1 PUSH1 0xA0 SHL SUB NOT AND SWAP1 SSTORE ADD SWAP1 SSTORE PUSH1 0x40 MLOAD PUSH1 0x1 PUSH1 0x1 PUSH1 0xA0 SHL SUB DUP4 AND SWAP1 PUSH32 0x77F1DE51AE9C845B4FFF5F1512C8736EA703337FE77421649A51F6188D3470B2 SWAP1 PUSH2 0x178E SWAP1 TIMESTAMP DUP2 MSTORE PUSH1 0x20 ADD SWAP1 JUMP JUMPDEST PUSH1 0x40 MLOAD DUP1 SWAP2 SUB SWAP1 LOG2 POP POP JUMP JUMPDEST DUP1 PUSH2 0x17A4 DUP2 PUSH2 0x1A58 JUMP JUMPDEST SWAP2 POP POP PUSH2 0x1652 JUMP JUMPDEST POP POP JUMP JUMPDEST PUSH1 0x0 DUP1 SLOAD PUSH1 0x1 PUSH1 0x1 PUSH1 0xA0 SHL SUB DUP4 DUP2 AND PUSH1 0x1 PUSH1 0x1 PUSH1 0xA0 SHL SUB NOT DUP4 AND DUP2 OR DUP5 SSTORE PUSH1 0x40 MLOAD SWAP2 SWAP1 SWAP3 AND SWAP3 DUP4 SWAP2 PUSH32 0x8BE0079C531659141344CD1FD0A4F28419497F9722A3DAAFE3B4186F6B6457E0 SWAP2 SWAP1 LOG3 POP POP JUMP JUMPDEST PUSH1 0x0 DUP1 PUSH1 0x0 JUMPDEST PUSH1 0x5 SLOAD DUP2 LT ISZERO PUSH2 0x18A9 JUMPI PUSH1 0x5 DUP2 DUP2 SLOAD DUP2 LT PUSH2 0x1823 JUMPI PUSH2 0x1823 PUSH2 0x1A42 JUMP JUMPDEST PUSH1 0x0 SWAP2 DUP3 MSTORE PUSH1 0x20 SWAP1 SWAP2 KECCAK256 ADD SLOAD PUSH1 0x1 PUSH1 0x1 PUSH1 0xA0 SHL SUB DUP6 DUP2 AND SWAP2 AND EQ PUSH2 0x1897 JUMPI PUSH1 0x2 PUSH1 0x0 PUSH1 0x5 DUP4 DUP2 SLOAD DUP2 LT PUSH2 0x1858 JUMPI PUSH2 0x1858 PUSH2 0x1A42 JUMP JUMPDEST PUSH1 0x0 SWAP2 DUP3 MSTORE PUSH1 0x20 DUP1 DUP4 KECCAK256 SWAP1 SWAP2 ADD SLOAD PUSH1 0x1 PUSH1 0x1 PUSH1 0xA0 SHL SUB AND DUP4 MSTORE DUP3 ADD SWAP3 SWAP1 SWAP3 MSTORE PUSH1 0x40 ADD SWAP1 KECCAK256 SLOAD PUSH2 0x1887 SWAP1 DUP5 PUSH2 0x19F6 JUMP JUMPDEST SWAP3 POP DUP2 PUSH2 0x1893 DUP2 PUSH2 0x1A58 JUMP JUMPDEST SWAP3 POP POP JUMPDEST DUP1 PUSH2 0x18A1 DUP2 PUSH2 0x1A58 JUMP JUMPDEST SWAP2 POP POP PUSH2 0x1806 JUMP JUMPDEST POP SWAP2 POP SWAP2 JUMP JUMPDEST PUSH1 0x0 PUSH1 0x20 DUP3 DUP5 SUB SLT ISZERO PUSH2 0x18C1 JUMPI PUSH1 0x0 DUP1 REVERT JUMPDEST DUP2 CALLDATALOAD PUSH1 0x1 PUSH1 0x1 PUSH1 0x40 SHL SUB DUP2 AND DUP2 EQ PUSH2 0x18D8 JUMPI PUSH1 0x0 DUP1 REVERT JUMPDEST SWAP4 SWAP3 POP POP POP JUMP JUMPDEST PUSH1 0x1 PUSH1 0x1 PUSH1 0xA0 SHL SUB DUP2 AND DUP2 EQ PUSH2 0x12E8 JUMPI PUSH1 0x0 DUP1 REVERT JUMPDEST PUSH1 0x0 PUSH1 0x20 DUP3 DUP5 SUB SLT ISZERO PUSH2 0x1906 JUMPI PUSH1 0x0 DUP1 REVERT JUMPDEST DUP2 CALLDATALOAD PUSH2 0x18D8 DUP2 PUSH2 0x18DF JUMP JUMPDEST PUSH1 0x0 PUSH1 0x20 DUP3 DUP5 SUB SLT ISZERO PUSH2 0x1923 JUMPI PUSH1 0x0 DUP1 REVERT JUMPDEST POP CALLDATALOAD SWAP2 SWAP1 POP JUMP JUMPDEST PUSH1 0x20 DUP1 DUP3 MSTORE DUP3 MLOAD DUP3 DUP3 ADD DUP2 SWAP1 MSTORE PUSH1 0x0 SWAP2 SWAP1 DUP5 DUP3 ADD SWAP1 PUSH1 0x40 DUP6 ADD SWAP1 DUP5 JUMPDEST DUP2 DUP2 LT ISZERO PUSH2 0x196B JUMPI DUP4 MLOAD PUSH1 0x1 PUSH1 0x1 PUSH1 0xA0 SHL SUB AND DUP4 MSTORE SWAP3 DUP5 ADD SWAP3 SWAP2 DUP5 ADD SWAP2 PUSH1 0x1 ADD PUSH2 0x1946 JUMP JUMPDEST POP SWAP1 SWAP7 SWAP6 POP POP POP POP POP POP JUMP JUMPDEST PUSH1 0x0 DUP1 PUSH1 0x40 DUP4 DUP6 SUB SLT ISZERO PUSH2 0x198A JUMPI PUSH1 0x0 DUP1 REVERT JUMPDEST DUP3 CALLDATALOAD PUSH2 0x1995 DUP2 PUSH2 0x18DF JUMP JUMPDEST SWAP5 PUSH1 0x20 SWAP4 SWAP1 SWAP4 ADD CALLDATALOAD SWAP4 POP POP POP JUMP JUMPDEST PUSH1 0x0 PUSH1 0x20 DUP3 DUP5 SUB SLT ISZERO PUSH2 0x19B5 JUMPI PUSH1 0x0 DUP1 REVERT JUMPDEST DUP2 CALLDATALOAD PUSH2 0xFFFF DUP2 AND DUP2 EQ PUSH2 0x18D8 JUMPI PUSH1 0x0 DUP1 REVERT JUMPDEST PUSH4 0x4E487B71 PUSH1 0xE0 SHL PUSH1 0x0 MSTORE PUSH1 0x11 PUSH1 0x4 MSTORE PUSH1 0x24 PUSH1 0x0 REVERT JUMPDEST DUP2 DUP2 SUB DUP2 DUP2 GT ISZERO PUSH2 0x19F0 JUMPI PUSH2 0x19F0 PUSH2 0x19C7 JUMP JUMPDEST SWAP3 SWAP2 POP POP JUMP JUMPDEST DUP1 DUP3 ADD DUP1 DUP3 GT ISZERO PUSH2 0x19F0 JUMPI PUSH2 0x19F0 PUSH2 0x19C7 JUMP JUMPDEST DUP1 DUP3 MUL DUP2 ISZERO DUP3 DUP3 DIV DUP5 EQ OR PUSH2 0x19F0 JUMPI PUSH2 0x19F0 PUSH2 0x19C7 JUMP JUMPDEST PUSH1 0x0 DUP3 PUSH2 0x1A3D JUMPI PUSH4 0x4E487B71 PUSH1 0xE0 SHL PUSH1 0x0 MSTORE PUSH1 0x12 PUSH1 0x4 MSTORE PUSH1 0x24 PUSH1 0x0 REVERT JUMPDEST POP DIV SWAP1 JUMP JUMPDEST PUSH4 0x4E487B71 PUSH1 0xE0 SHL PUSH1 0x0 MSTORE PUSH1 0x32 PUSH1 0x4 MSTORE PUSH1 0x24 PUSH1 0x0 REVERT JUMPDEST PUSH1 0x0 PUSH1 0x1 DUP3 ADD PUSH2 0x1A6A JUMPI PUSH2 0x1A6A PUSH2 0x19C7 JUMP JUMPDEST POP PUSH1 0x1 ADD SWAP1 JUMP JUMPDEST DUP1 MLOAD PUSH1 0x5 DUP2 LT PUSH2 0xB32 JUMPI PUSH1 0x0 DUP1 REVERT JUMPDEST PUSH1 0x0 DUP1 PUSH1 0x0 DUP1 PUSH1 0x0 DUP1 PUSH1 0xC0 DUP8 DUP10 SUB SLT ISZERO PUSH2 0x1A99 JUMPI PUSH1 0x0 DUP1 REVERT JUMPDEST DUP7 MLOAD SWAP6 POP PUSH2 0x1AA9 PUSH1 0x20 DUP9 ADD PUSH2 0x1A71 JUMP JUMPDEST SWAP5 POP PUSH1 0x40 DUP8 ADD MLOAD SWAP4 POP PUSH1 0x60 DUP8 ADD MLOAD SWAP3 POP PUSH1 0x80 DUP8 ADD MLOAD SWAP2 POP PUSH1 0xA0 DUP8 ADD MLOAD PUSH2 0x1ACE DUP2 PUSH2 0x18DF JUMP JUMPDEST DUP1 SWAP2 POP POP SWAP3 SWAP6 POP SWAP3 SWAP6 POP SWAP3 SWAP6 JUMP JUMPDEST PUSH1 0x0 PUSH1 0x20 DUP3 DUP5 SUB SLT ISZERO PUSH2 0x1AEE JUMPI PUSH1 0x0 DUP1 REVERT JUMPDEST POP MLOAD SWAP2 SWAP1 POP JUMP JUMPDEST PUSH4 0x4E487B71 PUSH1 0xE0 SHL PUSH1 0x0 MSTORE PUSH1 0x41 PUSH1 0x4 MSTORE PUSH1 0x24 PUSH1 0x0 REVERT JUMPDEST PUSH1 0x40 MLOAD PUSH1 0x1F DUP3 ADD PUSH1 0x1F NOT AND DUP2 ADD PUSH1 0x1 PUSH1 0x1 PUSH1 0x40 SHL SUB DUP2 GT DUP3 DUP3 LT OR ISZERO PUSH2 0x1B33 JUMPI PUSH2 0x1B33 PUSH2 0x1AF5 JUMP JUMPDEST PUSH1 0x40 MSTORE SWAP2 SWAP1 POP JUMP JUMPDEST PUSH1 0x0 PUSH1 0x1 PUSH1 0x1 PUSH1 0x40 SHL SUB DUP3 GT ISZERO PUSH2 0x1B54 JUMPI PUSH2 0x1B54 PUSH2 0x1AF5 JUMP JUMPDEST POP PUSH1 0x5 SHL PUSH1 0x20 ADD SWAP1 JUMP JUMPDEST PUSH1 0x0 DUP3 PUSH1 0x1F DUP4 ADD SLT PUSH2 0x1B6F JUMPI PUSH1 0x0 DUP1 REVERT JUMPDEST DUP2 MLOAD PUSH1 0x20 PUSH2 0x1B84 PUSH2 0x1B7F DUP4 PUSH2 0x1B3B JUMP JUMPDEST PUSH2 0x1B0B JUMP JUMPDEST DUP3 DUP2 MSTORE PUSH1 0x5 SWAP3 SWAP1 SWAP3 SHL DUP5 ADD DUP2 ADD SWAP2 DUP2 DUP2 ADD SWAP1 DUP7 DUP5 GT ISZERO PUSH2 0x1BA3 JUMPI PUSH1 0x0 DUP1 REVERT JUMPDEST DUP3 DUP7 ADD JUMPDEST DUP5 DUP2 LT ISZERO PUSH2 0x1BC7 JUMPI DUP1 MLOAD PUSH2 0x1BBA DUP2 PUSH2 0x18DF JUMP JUMPDEST DUP4 MSTORE SWAP2 DUP4 ADD SWAP2 DUP4 ADD PUSH2 0x1BA7 JUMP JUMPDEST POP SWAP7 SWAP6 POP POP POP POP POP POP JUMP JUMPDEST PUSH1 0x0 DUP3 PUSH1 0x1F DUP4 ADD SLT PUSH2 0x1BE3 JUMPI PUSH1 0x0 DUP1 REVERT JUMPDEST DUP2 MLOAD PUSH1 0x20 PUSH2 0x1BF3 PUSH2 0x1B7F DUP4 PUSH2 0x1B3B JUMP JUMPDEST DUP3 DUP2 MSTORE PUSH1 0x5 SWAP3 SWAP1 SWAP3 SHL DUP5 ADD DUP2 ADD SWAP2 DUP2 DUP2 ADD SWAP1 DUP7 DUP5 GT ISZERO PUSH2 0x1C12 JUMPI PUSH1 0x0 DUP1 REVERT JUMPDEST DUP3 DUP7 ADD JUMPDEST DUP5 DUP2 LT ISZERO PUSH2 0x1BC7 JUMPI PUSH2 0x1C27 DUP2 PUSH2 0x1A71 JUMP JUMPDEST DUP4 MSTORE SWAP2 DUP4 ADD SWAP2 DUP4 ADD PUSH2 0x1C16 JUMP JUMPDEST PUSH1 0x0 DUP3 PUSH1 0x1F DUP4 ADD SLT PUSH2 0x1C45 JUMPI PUSH1 0x0 DUP1 REVERT JUMPDEST DUP2 MLOAD PUSH1 0x20 PUSH2 0x1C55 PUSH2 0x1B7F DUP4 PUSH2 0x1B3B JUMP JUMPDEST DUP3 DUP2 MSTORE PUSH1 0x5 SWAP3 SWAP1 SWAP3 SHL DUP5 ADD DUP2 ADD SWAP2 DUP2 DUP2 ADD SWAP1 DUP7 DUP5 GT ISZERO PUSH2 0x1C74 JUMPI PUSH1 0x0 DUP1 REVERT JUMPDEST DUP3 DUP7 ADD JUMPDEST DUP5 DUP2 LT ISZERO PUSH2 0x1BC7 JUMPI DUP1 MLOAD DUP4 MSTORE SWAP2 DUP4 ADD SWAP2 DUP4 ADD PUSH2 0x1C78 JUMP JUMPDEST PUSH1 0x0 PUSH1 0x1F DUP4 DUP2 DUP5 ADD SLT PUSH2 0x1CA1 JUMPI PUSH1 0x0 DUP1 REVERT JUMPDEST DUP3 MLOAD PUSH1 0x20 PUSH2 0x1CB1 PUSH2 0x1B7F DUP4 PUSH2 0x1B3B JUMP JUMPDEST DUP3 DUP2 MSTORE PUSH1 0x5 SWAP3 SWAP1 SWAP3 SHL DUP6 ADD DUP2 ADD SWAP2 DUP2 DUP2 ADD SWAP1 DUP8 DUP5 GT ISZERO PUSH2 0x1CD0 JUMPI PUSH1 0x0 DUP1 REVERT JUMPDEST DUP3 DUP8 ADD JUMPDEST DUP5 DUP2 LT ISZERO PUSH2 0x1D7D JUMPI DUP1 MLOAD PUSH1 0x1 PUSH1 0x1 PUSH1 0x40 SHL SUB DUP1 DUP3 GT ISZERO PUSH2 0x1CF4 JUMPI PUSH1 0x0 DUP1 DUP2 REVERT JUMPDEST DUP2 DUP11 ADD SWAP2 POP DUP11 PUSH1 0x3F DUP4 ADD SLT PUSH2 0x1D09 JUMPI PUSH1 0x0 DUP1 DUP2 REVERT JUMPDEST DUP6 DUP3 ADD MLOAD DUP2 DUP2 GT ISZERO PUSH2 0x1D1D JUMPI PUSH2 0x1D1D PUSH2 0x1AF5 JUMP JUMPDEST PUSH2 0x1D2E DUP2 DUP11 ADD PUSH1 0x1F NOT AND DUP9 ADD PUSH2 0x1B0B JUMP JUMPDEST SWAP2 POP DUP1 DUP3 MSTORE PUSH1 0x40 DUP13 DUP2 DUP4 DUP7 ADD ADD GT ISZERO PUSH2 0x1D47 JUMPI PUSH1 0x0 DUP1 DUP2 REVERT JUMPDEST PUSH1 0x0 JUMPDEST DUP3 DUP2 LT ISZERO PUSH2 0x1D65 JUMPI DUP5 DUP2 ADD DUP3 ADD MLOAD DUP5 DUP3 ADD DUP11 ADD MSTORE DUP9 ADD PUSH2 0x1D4A JUMP JUMPDEST POP POP PUSH1 0x0 SWAP1 DUP3 ADD DUP8 ADD MSTORE DUP5 MSTORE POP SWAP2 DUP4 ADD SWAP2 DUP4 ADD PUSH2 0x1CD4 JUMP JUMPDEST POP SWAP8 SWAP7 POP POP POP POP POP POP POP JUMP JUMPDEST PUSH1 0x0 DUP1 PUSH1 0x0 DUP1 PUSH1 0x0 DUP1 PUSH1 0x0 PUSH1 0xE0 DUP9 DUP11 SUB SLT ISZERO PUSH2 0x1DA4 JUMPI PUSH1 0x0 DUP1 REVERT JUMPDEST DUP8 MLOAD SWAP7 POP PUSH1 0x20 DUP9 ADD MLOAD SWAP6 POP PUSH1 0x40 DUP9 ADD MLOAD PUSH1 0x1 PUSH1 0x1 PUSH1 0x40 SHL SUB DUP1 DUP3 GT ISZERO PUSH2 0x1DC9 JUMPI PUSH1 0x0 DUP1 REVERT JUMPDEST PUSH2 0x1DD5 DUP12 DUP4 DUP13 ADD PUSH2 0x1B5E JUMP JUMPDEST SWAP7 POP PUSH1 0x60 DUP11 ADD MLOAD SWAP2 POP DUP1 DUP3 GT ISZERO PUSH2 0x1DEB JUMPI PUSH1 0x0 DUP1 REVERT JUMPDEST PUSH2 0x1DF7 DUP12 DUP4 DUP13 ADD PUSH2 0x1BD2 JUMP JUMPDEST SWAP6 POP PUSH1 0x80 DUP11 ADD MLOAD SWAP2 POP DUP1 DUP3 GT ISZERO PUSH2 0x1E0D JUMPI PUSH1 0x0 DUP1 REVERT JUMPDEST PUSH2 0x1E19 DUP12 DUP4 DUP13 ADD PUSH2 0x1C34 JUMP JUMPDEST SWAP5 POP PUSH1 0xA0 DUP11 ADD MLOAD SWAP2 POP DUP1 DUP3 GT ISZERO PUSH2 0x1E2F JUMPI PUSH1 0x0 DUP1 REVERT JUMPDEST PUSH2 0x1E3B DUP12 DUP4 DUP13 ADD PUSH2 0x1C8F JUMP JUMPDEST SWAP4 POP PUSH1 0xC0 DUP11 ADD MLOAD SWAP2 POP DUP1 DUP3 GT ISZERO PUSH2 0x1E51 JUMPI PUSH1 0x0 DUP1 REVERT JUMPDEST POP PUSH2 0x1E5E DUP11 DUP3 DUP12 ADD PUSH2 0x1C8F JUMP JUMPDEST SWAP2 POP POP SWAP3 SWAP6 SWAP9 SWAP2 SWAP5 SWAP8 POP SWAP3 SWAP6 POP JUMP JUMPDEST PUSH1 0x0 PUSH1 0xFF DUP3 AND PUSH1 0xFF DUP2 SUB PUSH2 0x1E83 JUMPI PUSH2 0x1E83 PUSH2 0x19C7 JUMP JUMPDEST PUSH1 0x1 ADD SWAP3 SWAP2 POP POP JUMP JUMPDEST PUSH1 0x1 PUSH1 0x1 PUSH1 0x40 SHL SUB DUP2 DUP2 AND DUP4 DUP3 AND MUL DUP1 DUP3 AND SWAP2 SWAP1 DUP3 DUP2 EQ PUSH2 0x1EAF JUMPI PUSH2 0x1EAF PUSH2 0x19C7 JUMP JUMPDEST POP POP SWAP3 SWAP2 POP POP JUMP JUMPDEST PUSH4 0x4E487B71 PUSH1 0xE0 SHL PUSH1 0x0 MSTORE PUSH1 0x31 PUSH1 0x4 MSTORE PUSH1 0x24 PUSH1 0x0 REVERT INVALID LOG2 PUSH5 0x6970667358 0x22 SLT KECCAK256 DUP4 PUSH12 0xBEF05DB4712911C246E3CB2 0xB4 SWAP9 LOG2 GT PUSH6 0xA92E8744392B GASLIMIT 0xFC 0xB0 SWAP11 0x25 0xBB BASEFEE PUSH5 0x736F6C6343 STOP ADDMOD GT STOP CALLER "
				},
				"gasEstimates": {
					"creation": {
						"codeDepositCost": "1587800",
						"executionCost": "144424",
						"totalCost": "1732224"
					},
					"external": {
						"MaxStakers()": "2358",
						"MinimalStakingCoin()": "2351",
						"checkforpenalty(address)": "6994",
						"currentStakerSet(uint256)": "4724",
						"distributeReward()": "infinite",
						"getActiveStakers()": "infinite",
						"getStakingInfo(address)": "2610",
						"getTotalStakeOfActiveStakers()": "infinite",
						"isActiveStaker(address)": "infinite",
						"lastRewardTime()": "2395",
						"mutateValStakeTimeMapping(address,uint256)": "26846",
						"owner()": "2387",
						"penaltyPercentage()": "2353",
						"reflectionPercentSum(uint256)": "2517",
						"renounceOwnership()": "infinite",
						"rescueCoins()": "infinite",
						"rewardWithdrawalTime(address)": "2613",
						"stake()": "infinite",
						"stakeTime(address)": "2593",
						"stakingLockPeriod()": "2382",
						"totalPenalty()": "2351",
						"totalStake()": "2329",
						"transferOwnership(address)": "infinite",
						"unstake()": "infinite",
						"updateMaxStakers(uint16)": "26753",
						"updateMinimalStakingCoin(uint256)": "24599",
						"updatePenaltyPercentage(uint64)": "24640",
						"updateStakingLockPeriod(uint64)": "26921",
						"updateValidatorDataContract(address)": "26876",
						"valDataContract()": "2469",
						"valStakeTime(address)": "2614",
						"viewStakeReward(address)": "infinite",
						"withdrawStakingReward(address)": "infinite"
					},
					"internal": {
						"getTotalStakeOfActiveStakersExcept(address)": "infinite",
						"removeStakerFromCurrrentSet(address)": "infinite"
					}
				},
				"methodIdentifiers": {
					"MaxStakers()": "bddd6de4",
					"MinimalStakingCoin()": "be645692",
					"checkforpenalty(address)": "41f349b5",
					"currentStakerSet(uint256)": "f6b663c3",
					"distributeReward()": "8f73c5ae",
					"getActiveStakers()": "9fb82db9",
					"getStakingInfo(address)": "aa4704f3",
					"getTotalStakeOfActiveStakers()": "e75bcb96",
					"isActiveStaker(address)": "68015791",
					"lastRewardTime()": "9231cf74",
					"mutateValStakeTimeMapping(address,uint256)": "a9e30ccf",
					"owner()": "8da5cb5b",
					"penaltyPercentage()": "15908d51",
					"reflectionPercentSum(uint256)": "5fa34ebd",
					"renounceOwnership()": "715018a6",
					"rescueCoins()": "b0806108",
					"rewardWithdrawalTime(address)": "cc001f16",
					"stake()": "3a4b66f1",
					"stakeTime(address)": "2170e472",
					"stakingLockPeriod()": "e0639364",
					"totalPenalty()": "e6af61c8",
					"totalStake()": "8b0e9f3f",
					"transferOwnership(address)": "f2fde38b",
					"unstake()": "2def6620",
					"updateMaxStakers(uint16)": "c7907f54",
					"updateMinimalStakingCoin(uint256)": "f67c4dfd",
					"updatePenaltyPercentage(uint64)": "062b6139",
					"updateStakingLockPeriod(uint64)": "ee7cb288",
					"updateValidatorDataContract(address)": "6285b5a2",
					"valDataContract()": "fe32f55e",
					"valStakeTime(address)": "82cb1c18",
					"viewStakeReward(address)": "f3883538",
					"withdrawStakingReward(address)": "72d30a70"
				}
			},
			"storageLayout": {
				"storage": [
					{
						"astId": 26,
						"contract": "JaiHo/system-contracts/Staking.sol:Staking",
						"label": "_owner",
						"offset": 0,
						"slot": "0",
						"type": "t_address"
					},
					{
						"astId": 198,
						"contract": "JaiHo/system-contracts/Staking.sol:Staking",
						"label": "valDataContract",
						"offset": 0,
						"slot": "1",
						"type": "t_contract(InterfaceValidator)190"
					},
					{
						"astId": 202,
						"contract": "JaiHo/system-contracts/Staking.sol:Staking",
						"label": "stakerInfo",
						"offset": 0,
						"slot": "2",
						"type": "t_mapping(t_address,t_uint256)"
					},
					{
						"astId": 205,
						"contract": "JaiHo/system-contracts/Staking.sol:Staking",
						"label": "MinimalStakingCoin",
						"offset": 0,
						"slot": "3",
						"type": "t_uint256"
					},
					{
						"astId": 208,
						"contract": "JaiHo/system-contracts/Staking.sol:Staking",
						"label": "MaxStakers",
						"offset": 0,
						"slot": "4",
						"type": "t_uint16"
					},
					{
						"astId": 211,
						"contract": "JaiHo/system-contracts/Staking.sol:Staking",
						"label": "currentStakerSet",
						"offset": 0,
						"slot": "5",
						"type": "t_array(t_address)dyn_storage"
					},
					{
						"astId": 213,
						"contract": "JaiHo/system-contracts/Staking.sol:Staking",
						"label": "totalStake",
						"offset": 0,
						"slot": "6",
						"type": "t_uint256"
					},
					{
						"astId": 215,
						"contract": "JaiHo/system-contracts/Staking.sol:Staking",
						"label": "totalPenalty",
						"offset": 0,
						"slot": "7",
						"type": "t_uint256"
					},
					{
						"astId": 218,
						"contract": "JaiHo/system-contracts/Staking.sol:Staking",
						"label": "stakingLockPeriod",
						"offset": 0,
						"slot": "8",
						"type": "t_uint64"
					},
					{
						"astId": 221,
						"contract": "JaiHo/system-contracts/Staking.sol:Staking",
						"label": "penaltyPercentage",
						"offset": 0,
						"slot": "9",
						"type": "t_uint256"
					},
					{
						"astId": 225,
						"contract": "JaiHo/system-contracts/Staking.sol:Staking",
						"label": "rewardWithdrawalTime",
						"offset": 0,
						"slot": "10",
						"type": "t_mapping(t_address,t_uint256)"
					},
					{
						"astId": 229,
						"contract": "JaiHo/system-contracts/Staking.sol:Staking",
						"label": "stakeTime",
						"offset": 0,
						"slot": "11",
						"type": "t_mapping(t_address,t_uint256)"
					},
					{
						"astId": 233,
						"contract": "JaiHo/system-contracts/Staking.sol:Staking",
						"label": "valStakeTime",
						"offset": 0,
						"slot": "12",
						"type": "t_mapping(t_address,t_uint256)"
					},
					{
						"astId": 235,
						"contract": "JaiHo/system-contracts/Staking.sol:Staking",
						"label": "lastRewardTime",
						"offset": 0,
						"slot": "13",
						"type": "t_uint256"
					},
					{
						"astId": 239,
						"contract": "JaiHo/system-contracts/Staking.sol:Staking",
						"label": "reflectionPercentSum",
						"offset": 0,
						"slot": "14",
						"type": "t_mapping(t_uint256,t_uint256)"
					}
				],
				"types": {
					"t_address": {
						"encoding": "inplace",
						"label": "address",
						"numberOfBytes": "20"
					},
					"t_array(t_address)dyn_storage": {
						"base": "t_address",
						"encoding": "dynamic_array",
						"label": "address[]",
						"numberOfBytes": "32"
					},
					"t_contract(InterfaceValidator)190": {
						"encoding": "inplace",
						"label": "contract InterfaceValidator",
						"numberOfBytes": "20"
					},
					"t_mapping(t_address,t_uint256)": {
						"encoding": "mapping",
						"key": "t_address",
						"label": "mapping(address => uint256)",
						"numberOfBytes": "32",
						"value": "t_uint256"
					},
					"t_mapping(t_uint256,t_uint256)": {
						"encoding": "mapping",
						"key": "t_uint256",
						"label": "mapping(uint256 => uint256)",
						"numberOfBytes": "32",
						"value": "t_uint256"
					},
					"t_uint16": {
						"encoding": "inplace",
						"label": "uint16",
						"numberOfBytes": "2"
					},
					"t_uint256": {
						"encoding": "inplace",
						"label": "uint256",
						"numberOfBytes": "32"
					},
					"t_uint64": {
						"encoding": "inplace",
						"label": "uint64",
						"numberOfBytes": "8"
					}
				}
			},
			"userdoc": {
				"kind": "user",
				"methods": {
					"rescueCoins()": {
						"notice": "admin functions"
					}
				},
				"version": 1
			}
		}
	}
}