{
	"data": {
		"bytecode": {
			"linkReferences": {},
			"object": "60806040526000805462ffff001916611e00178155690a968163f0a57b4000006001556969e10de76676d080000060025560038190556004819055620186a06005556006556acecb8f27f4200f3a0000006007556276a7006016553480156200006757600080fd5b50620000733362000079565b620000cb565b600980546001600160a01b038381166001600160a01b0319831681179093556040519116919082907f8be0079c531659141344cd1fd0a4f28419497f9722a3daafe3b4186f6b6457e090600090a35050565b6151cf80620000db6000396000f3fe6080604052600436106102e35760003560e01c806382bd3d9211610190578063b6c88519116100dc578063c967f90f11610095578063db78dd281161006f578063db78dd2814610921578063f2888dbb14610950578063f2fde38b14610970578063fca737c01461099057600080fd5b8063c967f90f146108a2578063cd779d21146108d5578063d571770c146108eb57600080fd5b8063b6c88519146107ef578063bb1c03101461080f578063bd10ba7614610822578063be64569214610842578063c253c38414610858578063c60033dd1461088257600080fd5b806398e3b62611610149578063a224cee711610123578063a224cee714610776578063a406fcb714610796578063a43569b3146107a9578063afeea115146107da57600080fd5b806398e3b6261461071e5780639d7714ce1461073e5780639de702581461075457600080fd5b806382bd3d921461064a5780638a11d7c91461066a5780638b0e9f3f1461069c5780638da5cb5b146106b257806392f2c437146106d0578063966ff6501461070857600080fd5b80633b5d441e1161024f5780635dd09590116102085780636969a25c116101e25780636969a25c14610587578063715018a6146105a757806372d30a70146105bc5780637f4f95fa146105dc57600080fd5b80635dd09590146105315780636233be5d146105515780636846992a1461056757600080fd5b80633b5d441e1461047857806340550a1c146104a557806340a141ff146104c557806342127ee7146104e557806345e9f8e5146104fb5780634b3d500b1461051157600080fd5b80631b5e358c116102a15780631b5e358c146103cb578063222d3b05146103f9578063264762041461041957806337dbc8cc1461042c5780633a061bd3146104425780633ae898ca1461045857600080fd5b8062362a77146102e857806301aec7041461031d5780630976c65d146103635780630c66ebf7146103795780631303f7cf1461039b578063158ef93e146103b1575b600080fd5b3480156102f457600080fd5b5061030861030336600461473b565b6109a6565b60405190151581526020015b60405180910390f35b34801561032957600080fd5b5061035561033836600461475f565b601160209081526000928352604080842090915290825290205481565b604051908152602001610314565b34801561036f57600080fd5b5061035560025481565b34801561038557600080fd5b50610399610394366004614798565b610bc8565b005b3480156103a757600080fd5b50610355600f5481565b3480156103bd57600080fd5b506000546103089060ff1681565b3480156103d757600080fd5b506103e161f00181565b6040516001600160a01b039091168152602001610314565b34801561040557600080fd5b5061030861041436600461473b565b610be2565b61030861042736600461473b565b610e11565b34801561043857600080fd5b5061035560055481565b34801561044e57600080fd5b506103e161f00081565b34801561046457600080fd5b5061035561047336600461475f565b61125a565b34801561048457600080fd5b5061035561049336600461473b565b60126020526000908152604090205481565b3480156104b157600080fd5b506103086104c036600461473b565b61136a565b3480156104d157600080fd5b506103996104e036600461473b565b6113ca565b3480156104f157600080fd5b5061035560045481565b34801561050757600080fd5b5061035560165481565b34801561051d57600080fd5b506103e161052c3660046147da565b611494565b34801561053d57600080fd5b5061039961054c36600461473b565b6114be565b34801561055d57600080fd5b506103e161f00281565b34801561057357600080fd5b506103996105823660046148d0565b611512565b34801561059357600080fd5b506103e16105a23660046147da565b6116e3565b3480156105b357600080fd5b506103996116f3565b3480156105c857600080fd5b506103086105d736600461473b565b611707565b3480156105e857600080fd5b5061062f6105f736600461475f565b6001600160a01b039182166000908152600b602090815260408083209390941682529190915220805460018201546002909201549092565b60408051938452602084019290925290820152606001610314565b34801561065657600080fd5b5061030861066536600461473b565b6118b7565b34801561067657600080fd5b5061068a61068536600461473b565b611af5565b6040516103149695949392919061496e565b3480156106a857600080fd5b50610355600e5481565b3480156106be57600080fd5b506009546001600160a01b03166103e1565b3480156106dc57600080fd5b506103556106eb3660046149d2565b601360209081526000928352604080842090915290825290205481565b34801561071457600080fd5b5061035560085481565b34801561072a57600080fd5b5061030861073936600461473b565b611f07565b34801561074a57600080fd5b5061035560075481565b34801561076057600080fd5b50610769611f67565b60405161031491906149fe565b34801561078257600080fd5b50610399610791366004614a11565b611fc9565b6103086107a4366004614ad8565b612428565b3480156107b557600080fd5b506107c96107c436600461473b565b612997565b604051610314959493929190614c24565b3480156107e657600080fd5b50610769612da4565b3480156107fb57600080fd5b5061030861080a366004614cf4565b612e04565b61039961081d366004614dc5565b612f90565b34801561082e57600080fd5b5061030861083d36600461473b565b61347d565b34801561084e57600080fd5b5061035560015481565b34801561086457600080fd5b5061086d613503565b60408051928352602083019190915201610314565b34801561088e57600080fd5b5061039961089d366004614e8d565b613518565b3480156108ae57600080fd5b506000546108c290610100900461ffff1681565b60405161ffff9091168152602001610314565b3480156108e157600080fd5b5061035560035481565b3480156108f757600080fd5b506103e161090636600461473b565b6010602052600090815260409020546001600160a01b031681565b34801561092d57600080fd5b506109386201518081565b6040516001600160401b039091168152602001610314565b34801561095c57600080fd5b5061030861096b36600461473b565b613534565b34801561097c57600080fd5b5061039961098b36600461473b565b613a35565b34801561099c57600080fd5b5061035560065481565b600032816001600160a01b0384166000908152600a6020526040902054600160a01b900460ff1660048111156109de576109de614914565b03610a265760405162461bcd60e51b815260206004820152601360248201527215985b1a59185d1bdc881b9bdd08195e1a5cdd606a1b60448201526064015b60405180910390fd5b6001600160a01b038381166000908152600a6020526040902054811690821614610aa95760405162461bcd60e51b815260206004820152602e60248201527f596f7520617265206e6f742074686520666565207265636569766572206f662060448201526d3a3434b9903b30b634b230ba37b960911b6064820152608401610a1d565b6001600160a01b0383166000908152600a602052604090206007015480610b125760405162461bcd60e51b815260206004820152601a60248201527f596f7520646f6e2774206861766520616e792070726f666974730000000000006044820152606401610a1d565b6001600160a01b0384166000908152600a60205260408120600701558015610b6c576040516001600160a01b0383169082156108fc029083906000818181858888f19350505050158015610b6a573d6000803e3d6000fd5b505b610b7584611707565b50604080518281524260208201526001600160a01b0380851692908716917f51a69b4502f660774c9339825c7b5adbf0b8622289134647e29728ec5d9b3bb9910160405180910390a35060019392505050565b610bd0613aab565b610bdc84848484613b05565b50505050565b326000818152600b602090815260408083206001600160a01b03861684528252808320600a9092528220549192918390600160a01b900460ff166004811115610c2d57610c2d614914565b03610c705760405162461bcd60e51b81526020600482015260136024820152721d985b1a59185d1bdc881b9bdd08195e1a5cdd606a1b6044820152606401610a1d565b8060010154600003610cc45760405162461bcd60e51b815260206004820152601960248201527f596f75206861766520746f20756e7374616b65206669727374000000000000006044820152606401610a1d565b60018101544390610cd9906201518090614ede565b1115610d315760405162461bcd60e51b815260206004820152602160248201527f596f7572207374616b696e6720686176656e277420756e6c6f636b65642079656044820152601d60fa1b6064820152608401610a1d565b8054610d7a5760405162461bcd60e51b8152602060048201526018602482015277596f7520646f6e2774206861766520616e79207374616b6560401b6044820152606401610a1d565b80546000808355600183018190556040516001600160a01b0385169183156108fc02918491818181858888f19350505050158015610dbc573d6000803e3d6000fd5b50604080518281524260208201526001600160a01b0380881692908616917fa70cd94070cd852339a76b32cf2d95a3c8f2a322269163d276071c1c1495561991015b60405180910390a3506001949350505050565b6000805460ff16610e345760405162461bcd60e51b8152600401610a1d90614ef1565b323460016001600160a01b0385166000908152600a6020526040902054600160a01b900460ff166004811115610e6c57610e6c614914565b1480610eab575060026001600160a01b0385166000908152600a6020526040902054600160a01b900460ff166004811115610ea957610ea9614914565b145b610f0d5760405162461bcd60e51b815260206004820152602d60248201527f43616e2774207374616b6520746f20612076616c696461746f7220696e20616260448201526c6e6f726d616c2073746174757360981b6064820152608401610a1d565b6001600160a01b038083166000908152600b602090815260408083209388168352929052206001015415610f8e5760405162461bcd60e51b815260206004820152602260248201527f43616e2774207374616b65207768656e20796f752061726520756e7374616b696044820152616e6760f01b6064820152608401610a1d565b6001600160a01b038085166000818152600a602052604090209184160361101057600154828260010154610fc29190614ede565b101561100b5760405162461bcd60e51b81526020600482015260186024820152770a6e8c2d6d2dcce40c6ded2dce640dcdee840cadcdeeaced60431b6044820152606401610a1d565b61105d565b60015482101561105d5760405162461bcd60e51b81526020600482015260186024820152770a6e8c2d6d2dcce40c6ded2dce640dcdee840cadcdeeaced60431b6044820152606401610a1d565b6001600160a01b038084166000908152600b602090815260408083209389168352929052908120549003611144576009810180546001600160a01b038086166000818152600b60209081526040808320948c1680845294825280832060020186905560018601875595825280822090940180546001600160a01b031916909217909155908152601290915290812054900361110e576001600160a01b03851660009081526012602052604090204290555b6001600160a01b03808616600081815260126020908152604080832054948816835260118252808320938352929052205561114f565b61114d85611707565b505b81816001015461115f9190614ede565b600182015560028154600160a01b900460ff16600481111561118357611183614914565b1461119a57805460ff60a01b1916600160a11b1781555b6111a8858260010154613bb1565b6001600160a01b038084166000908152600b60209081526040808320938916835292905220546111d9908390614ede565b6001600160a01b038085166000908152600b60209081526040808320938a1683529290522055600e5461120d908390614ede565b600e55604080518381524260208201526001600160a01b0380881692908616917fb9ba725934532316cffe10975da6eb25ad49c2d1c294d982c46c9f8d684ee0759101610dfe565b919050565b6001600160a01b03808316600090815260116020908152604080832093851683529290529081205415611360576001600160a01b03808316600081815260136020908152604080832094881683526011825280832084845282528083205483528482528083205493835260128252808320548352939052918220546112df9190614f17565b9050801561135e576001600160a01b038085166000908152600b60209081526040808320938716835292815290829020825160608101845281548082526001830154938201939093526002909101549281019290925268056bc75e2d631000009061134b908490614f2a565b6113559190614f57565b92505050611364565b505b5060005b92915050565b6000805b600c5481101561136057826001600160a01b0316600c828154811061139557611395614f6b565b6000918252602090912001546001600160a01b0316036113b85750600192915050565b806113c281614f81565b91505061136e565b3361f001146114125760405162461bcd60e51b815260206004820152601460248201527350756e69736820636f6e7472616374206f6e6c7960601b6044820152606401610a1d565b6001600160a01b0381166000908152600a602052604090206007015461143782613e85565b600d54600110156114905761144b82613f9d565b604080518281524260208201526001600160a01b038416917fa26de7ab324eac08c596549f421e5c8741213d237d2e9a2c9c0ebde0a7a849fe91015b60405180910390a25b5050565b600d81815481106114a457600080fd5b6000918252602090912001546001600160a01b0316905081565b3361f001146115065760405162461bcd60e51b815260206004820152601460248201527350756e69736820636f6e7472616374206f6e6c7960601b6044820152606401610a1d565b61150f81613e85565b50565b33411461154e5760405162461bcd60e51b815260206004820152600a6024820152694d696e6572206f6e6c7960b01b6044820152606401610a1d565b4360009081526015602090815260408083206001845290915290205460ff16156115ba5760405162461bcd60e51b815260206004820152601a60248201527f56616c696461746f727320616c726561647920757064617465640000000000006044820152606401610a1d565b60005460ff166115dc5760405162461bcd60e51b8152600401610a1d90614ef1565b806115e78143614f9a565b156116275760405162461bcd60e51b815260206004820152601060248201526f426c6f636b2065706f6368206f6e6c7960801b6044820152606401610a1d565b43600090815260156020908152604080832060018085529252909120805460ff1916909117905582516116935760405162461bcd60e51b815260206004820152601460248201527356616c696461746f722073657420656d7074792160601b6044820152606401610a1d565b82516116a690600c9060208601906146ac565b507feacea8f3c22f06c0b18306bdb04d0a967255129e8ce0094debb0a0ff89d006b5836040516116d691906149fe565b60405180910390a1505050565b600c81815481106114a457600080fd5b6116fb613aab565b611705600061400d565b565b3260009081526011602090815260408083206001600160a01b03851684529091528120546117685760405162461bcd60e51b815260206004820152600e60248201526d1b9bdd1a1a5b99c81cdd185ad95960921b6044820152606401610a1d565b326000818152600b602090815260408083206001600160a01b038716808552908352818420601384528285209585526011845282852082865284528285205485528584528285205491855260128452828520548552949092528220546117ce9190614f17565b905080156118ad576001600160a01b0384166000818152601260209081526040808320543284526011835281842094845293909152812091909155825468056bc75e2d6310000090611821908490614f2a565b61182b9190614f57565b604051909150329082156108fc029083906000818181858888f1935050505015801561185b573d6000803e3d6000fd5b50604080513281526001600160a01b03871660208201529081018290524260608201527f7daf1212d032f2f66db6dbb919bbd591be3d954b5b6ee491709cbb5fbe4f51709060800160405180910390a1505b5060019392505050565b60003361f002146119035760405162461bcd60e51b815260206004820152601660248201527550726f706f73616c20636f6e7472616374206f6e6c7960501b6044820152606401610a1d565b60005460ff166119255760405162461bcd60e51b8152600401610a1d90614ef1565b60036001600160a01b0383166000908152600a6020526040902054600160a01b900460ff16600481111561195b5761195b614914565b1415801561199d575060046001600160a01b0383166000908152600a6020526040902054600160a01b900460ff16600481111561199a5761199a614914565b14155b156119aa57506001919050565b60046001600160a01b0383166000908152600a6020526040902054600160a01b900460ff1660048111156119e0576119e0614914565b03611a90576014546040516363e1d45160e01b81526001600160a01b038481166004830152909116906363e1d451906024016020604051808303816000875af1158015611a31573d6000803e3d6000fd5b505050506040513d601f19601f82011682018060405250810190611a559190614fae565b611a905760405162461bcd60e51b815260206004820152600c60248201526b18db19585b8819985a5b195960a21b6044820152606401610a1d565b6001600160a01b0382166000818152600a6020908152604091829020805460ff60a01b1916600160a11b17905590514281527fd8b2c426ec1be69ca7583d26b1e893946e3227430d3ebc3bd64d9e1c469cb400910160405180910390a2506001919050565b6001600160a01b038181166000908152600a60209081526040808320815160e0810190925280549485168252929384938493849384936060938593909190830190600160a01b900460ff166004811115611b5157611b51614914565b6004811115611b6257611b62614914565b815260200160018201548152602001600282016040518060a0016040529081600082018054611b9090614fd0565b80601f0160208091040260200160405190810160405280929190818152602001828054611bbc90614fd0565b8015611c095780601f10611bde57610100808354040283529160200191611c09565b820191906000526020600020905b815481529060010190602001808311611bec57829003601f168201915b50505050508152602001600182018054611c2290614fd0565b80601f0160208091040260200160405190810160405280929190818152602001828054611c4e90614fd0565b8015611c9b5780601f10611c7057610100808354040283529160200191611c9b565b820191906000526020600020905b815481529060010190602001808311611c7e57829003601f168201915b50505050508152602001600282018054611cb490614fd0565b80601f0160208091040260200160405190810160405280929190818152602001828054611ce090614fd0565b8015611d2d5780601f10611d0257610100808354040283529160200191611d2d565b820191906000526020600020905b815481529060010190602001808311611d1057829003601f168201915b50505050508152602001600382018054611d4690614fd0565b80601f0160208091040260200160405190810160405280929190818152602001828054611d7290614fd0565b8015611dbf5780601f10611d9457610100808354040283529160200191611dbf565b820191906000526020600020905b815481529060010190602001808311611da257829003601f168201915b50505050508152602001600482018054611dd890614fd0565b80601f0160208091040260200160405190810160405280929190818152602001828054611e0490614fd0565b8015611e515780601f10611e2657610100808354040283529160200191611e51565b820191906000526020600020905b815481529060010190602001808311611e3457829003601f168201915b5050505050815250508152602001600782015481526020016008820154815260200160098201805480602002602001604051908101604052809291908181526020018280548015611ecb57602002820191906000526020600020905b81546001600160a01b03168152600190910190602001808311611ead575b505050919092525050815160208301516040840151608085015160a086015160c090960151939e929d50909b5099509297509550909350505050565b6000805b600d5481101561136057826001600160a01b0316600d8281548110611f3257611f32614f6b565b6000918252602090912001546001600160a01b031603611f555750600192915050565b80611f5f81614f81565b915050611f0b565b6060600c805480602002602001604051908101604052809291908181526020018280548015611fbf57602002820191906000526020600020905b81546001600160a01b03168152600190910190602001808311611fa1575b5050505050905090565b60005460ff16156120125760405162461bcd60e51b8152602060048201526013602482015272105b1c9958591e481a5b9a5d1a585b1a5e9959606a1b6044820152606401610a1d565b601480546001600160a01b03191661f0011790556120437334abfb62ca74acb9db3799c3f354fddc69d3b47961400d565b60005b818110156123de57600083838381811061206257612062614f6b565b9050602002016020810190612077919061473b565b6001600160a01b0316036120cd5760405162461bcd60e51b815260206004820152601960248201527f496e76616c69642076616c696461746f722061646472657373000000000000006044820152606401610a1d565b42601260008585858181106120e4576120e4614f6b565b90506020020160208101906120f9919061473b565b6001600160a01b0316815260208101919091526040016000205561213d83838381811061212857612128614f6b565b90506020020160208101906104c0919061473b565b61219d57600c83838381811061215557612155614f6b565b905060200201602081019061216a919061473b565b81546001810183556000928352602090922090910180546001600160a01b0319166001600160a01b039092169190911790555b6121c78383838181106121b2576121b2614f6b565b9050602002016020810190610739919061473b565b61222757600d8383838181106121df576121df614f6b565b90506020020160208101906121f4919061473b565b81546001810183556000928352602090922090910180546001600160a01b0319166001600160a01b039092169190911790555b6000600a8185858581811061223e5761223e614f6b565b9050602002016020810190612253919061473b565b6001600160a01b03908116825260208201929092526040016000205416036122f95782828281811061228757612287614f6b565b905060200201602081019061229c919061473b565b600a60008585858181106122b2576122b2614f6b565b90506020020160208101906122c7919061473b565b6001600160a01b039081168252602082019290925260400160002080546001600160a01b031916929091169190911790555b6000600a600085858581811061231157612311614f6b565b9050602002016020810190612326919061473b565b6001600160a01b03168152602081019190915260400160002054600160a01b900460ff16600481111561235b5761235b614914565b036123cc576002600a600085858581811061237857612378614f6b565b905060200201602081019061238d919061473b565b6001600160a01b031681526020810191909152604001600020805460ff60a01b1916600160a01b8360048111156123c6576123c6614914565b02179055505b806123d681614f81565b915050612046565b506123f56000620186a0630ee6b28060008061405f565b612417601e690a968163f0a57b4000006969e10de76676d0800000605a613b05565b50506000805460ff19166001179055565b6000805460ff1661244b5760405162461bcd60e51b8152600401610a1d90614ef1565b6001600160a01b038c166124975760405162461bcd60e51b8152602060048201526013602482015272496e76616c696420666565206164647265737360681b6044820152606401610a1d565b6125a68b8b8080601f01602080910402602001604051908101604052809392919081815260200183838082843760009201919091525050604080516020601f8f018190048102820181019092528d815292508d91508c908190840183828082843760009201919091525050604080516020601f8e018190048102820181019092528c815292508c91508b908190840183828082843760009201919091525050604080516020601f8d018190048102820181019092528b815292508b91508a908190840183828082843760009201919091525050604080516020601f8c018190048102820181019092528a815292508a9150899081908401838280828437600092019190915250612e0492505050565b6125e85760405162461bcd60e51b815260206004820152601360248201527224b73b30b634b2103232b9b1b934b83a34b7b760691b6044820152606401610a1d565b326000818152600a60205260408120548190600160a01b900460ff16600481111561261557612615614914565b0361264b57506001600160a01b0381166000908152600a60205260409020805460ff60a01b1916600160a01b179055600161265c565b341561265c57600092505050612988565b6001600160a01b038281166000908152600a60205260409020548116908f16146126ce578d600a6000846001600160a01b03166001600160a01b0316815260200190815260200160002060000160006101000a8154816001600160a01b0302191690836001600160a01b031602179055505b6040518060a001604052808e8e8080601f016020809104026020016040519081016040528093929190818152602001838380828437600092019190915250505090825250604080516020601f8f018190048102820181019092528d815291810191908e908e9081908401838280828437600092019190915250505090825250604080516020601f8d018190048102820181019092528b815291810191908c908c9081908401838280828437600092019190915250505090825250604080516020601f8b0181900481028201810190925289815291810191908a908a9081908401838280828437600092019190915250505090825250604080516020601f89018190048102820181019092528781529181019190889088908190840183828082843760009201829052509390945250506001600160a01b0385168152600a6020526040902082516002909101915081906128279082615059565b506020820151600182019061283c9082615059565b50604082015160028201906128519082615059565b50606082015160038201906128669082615059565b506080820151600482019061287b9082615059565b509050508015612933576002543410156128d75760405162461bcd60e51b815260206004820152601860248201527f496e76616c69642076616c696461746f7220616d6f756e7400000000000000006044820152606401610a1d565b6128e082610e11565b508d6001600160a01b0316826001600160a01b03167f887eec9d757b7247dd8e51198f9d1b8f27979bceb34bdcc1bffd4ec5ec736c224260405161292691815260200190565b60405180910390a3612981565b8d6001600160a01b0316826001600160a01b03167fb8421f65501371f54d58de1937ff1e1ccdb76423ef6f84acea1814a0f6362ca04260405161297891815260200190565b60405180910390a35b6001925050505b9b9a5050505050505050505050565b6001600160a01b038181166000908152600a60209081526040808320815160e081019092528054948516825260609485948594859485949293909291830190600160a01b900460ff1660048111156129f1576129f1614914565b6004811115612a0257612a02614914565b815260200160018201548152602001600282016040518060a0016040529081600082018054612a3090614fd0565b80601f0160208091040260200160405190810160405280929190818152602001828054612a5c90614fd0565b8015612aa95780601f10612a7e57610100808354040283529160200191612aa9565b820191906000526020600020905b815481529060010190602001808311612a8c57829003601f168201915b50505050508152602001600182018054612ac290614fd0565b80601f0160208091040260200160405190810160405280929190818152602001828054612aee90614fd0565b8015612b3b5780601f10612b1057610100808354040283529160200191612b3b565b820191906000526020600020905b815481529060010190602001808311612b1e57829003601f168201915b50505050508152602001600282018054612b5490614fd0565b80601f0160208091040260200160405190810160405280929190818152602001828054612b8090614fd0565b8015612bcd5780601f10612ba257610100808354040283529160200191612bcd565b820191906000526020600020905b815481529060010190602001808311612bb057829003601f168201915b50505050508152602001600382018054612be690614fd0565b80601f0160208091040260200160405190810160405280929190818152602001828054612c1290614fd0565b8015612c5f5780601f10612c3457610100808354040283529160200191612c5f565b820191906000526020600020905b815481529060010190602001808311612c4257829003601f168201915b50505050508152602001600482018054612c7890614fd0565b80601f0160208091040260200160405190810160405280929190818152602001828054612ca490614fd0565b8015612cf15780601f10612cc657610100808354040283529160200191612cf1565b820191906000526020600020905b815481529060010190602001808311612cd457829003601f168201915b5050505050815250508152602001600782015481526020016008820154815260200160098201805480602002602001604051908101604052809291908181526020018280548015612d6b57602002820191906000526020600020905b81546001600160a01b03168152600190910190602001808311612d4d575b5050509190925250505060609081015180516020820151604083015193830151608090930151919b909a50929850909650945092505050565b6060600d805480602002602001604051908101604052809291908181526020018280548015611fbf576020028201919060005260206000209081546001600160a01b03168152600190910190602001808311611fa1575050505050905090565b6000604686511115612e515760405162461bcd60e51b8152602060048201526016602482015275092dcecc2d8d2c840dadedcd2d6cae440d8cadccee8d60531b6044820152606401610a1d565b610bb885511115612ea45760405162461bcd60e51b815260206004820152601760248201527f496e76616c6964206964656e74697479206c656e6774680000000000000000006044820152606401610a1d565b608c84511115612eef5760405162461bcd60e51b8152602060048201526016602482015275092dcecc2d8d2c840eecac4e6d2e8ca40d8cadccee8d60531b6044820152606401610a1d565b608c83511115612f385760405162461bcd60e51b8152602060048201526014602482015273092dcecc2d8d2c840cadac2d2d840d8cadccee8d60631b6044820152606401610a1d565b61011882511115612f845760405162461bcd60e51b8152602060048201526016602482015275092dcecc2d8d2c840c8cae8c2d2d8e640d8cadccee8d60531b6044820152606401610a1d565b50600195945050505050565b334114612fcc5760405162461bcd60e51b815260206004820152600a6024820152694d696e6572206f6e6c7960b01b6044820152606401610a1d565b43600090815260156020908152604080832083805290915290205460ff16156130375760405162461bcd60e51b815260206004820152601960248201527f426c6f636b20697320616c7265616479207265776172646564000000000000006044820152606401610a1d565b60005460ff166130595760405162461bcd60e51b8152600401610a1d90614ef1565b4360009081526015602090815260408083208380529091528120805460ff1916600117905560045432913491829190620186a0906130979084614f2a565b6130a19190614f57565b90506130ad8183614f17565b91506000620186a0600554856130c39190614f2a565b6130cd9190614f57565b9050600754816008546130e09190614ede565b1161313d576130ef8184614f17565b925080600860008282546131039190614ede565b9091555050801561313d5760405160009082156108fc0290839083818181858288f1935050505015801561313b573d6000803e3d6000fd5b505b8651156132ec576000620186a0600654866131589190614f2a565b6131629190614f57565b905061316e8185614f17565b9350600088518261317f9190614f57565b905080156132e95760005b89518110156132e75760006001600160a01b03168a82815181106131b0576131b0614f6b565b60200260200101516001600160a01b031614158015613216575060006001600160a01b0316601060008c84815181106131eb576131eb614f6b565b6020908102919091018101516001600160a01b03908116835290820192909252604001600020541614155b80156132445750600089828151811061323157613231614f6b565b60200260200101516001600160401b0316115b156132d557601060008b838151811061325f5761325f614f6b565b60200260200101516001600160a01b03166001600160a01b0316815260200190815260200160002060009054906101000a90046001600160a01b03166001600160a01b03166108fc839081150290604051600060405180830381858888f193505050501580156132d3573d6000803e3d6000fd5b505b806132df81614f81565b91505061318a565b505b50505b6001600160a01b0385166000818152601360209081526040808320601283528184208054855290835281842054948452429055600a909152902060010154156133a2576001600160a01b0386166000908152600a602052604090206001015461335e8568056bc75e2d63100000614f2a565b6133689190614f57565b6133729082614ede565b6001600160a01b0387166000908152601360209081526040808320601283528184205484529091529020556133dc565b6001600160a01b03861660009081526013602090815260408083206012835281842054845290915290208190556133d98484614ede565b92505b60006001600160a01b0387166000908152600a6020526040902054600160a01b900460ff16600481111561341257613412614914565b03613421575050505050505050565b61342c836000614101565b856001600160a01b03167f1d6ce8f9f300ecd90371399ce90da8388bba45019701a1fd6d6ee08ea580077684428b8b60405161346b9493929190615118565b60405180910390a25050505050505050565b6001600160a01b03818116600090815260106020526040812054909116156134d65760405162461bcd60e51b815260206004820152600c60248201526b1a5b9d985b1a590818d85b1b60a21b6044820152606401610a1d565b506001600160a01b0316600090815260106020526040902080546001600160a01b03191632179055600190565b6000806135106000614435565b915091509091565b613520613aab565b61352d858585858561405f565b5050505050565b6000805460ff166135575760405162461bcd60e51b8152600401610a1d90614ef1565b3260006001600160a01b0384166000908152600a6020526040902054600160a01b900460ff16600481111561358e5761358e614914565b036135d15760405162461bcd60e51b815260206004820152601360248201527215985b1a59185d1bdc881b9bdd08195e1a5cdd606a1b6044820152606401610a1d565b6016546001600160a01b03808316600090815260116020908152604080832093881683529290522054429161360591614ede565b111561365e5760405162461bcd60e51b815260206004820152602260248201527f596f752063616e6e6f7420756e7374616b65206265666f7265207468652074696044820152616d6560f01b6064820152608401610a1d565b6001600160a01b038082166000908152600b602090815260408083209387168352928152828220600a90915291902081546001830154156136ed5760405162461bcd60e51b815260206004820152602360248201527f596f752061726520616c726561647920696e20756e7374616b696e672073746160448201526274757360e81b6064820152608401610a1d565b600081116137385760405162461bcd60e51b8152602060048201526018602482015277596f7520646f6e2774206861766520616e79207374616b6560401b6044820152606401610a1d565b600d54600114801561374e575061374e86611f07565b801561376a57506001548183600101546137689190614f17565b105b156137eb5760405162461bcd60e51b815260206004820152604560248201527f596f752063616e277420756e7374616b652c2076616c696461746f72206c697360448201527f742077696c6c20626520656d7074792061667465722074686973206f7065726160648201526474696f6e2160d81b608482015260a401610a1d565b60098201546137fc90600190614f17565b8360020154146138e85760098201805461381890600190614f17565b8154811061382857613828614f6b565b9060005260206000200160009054906101000a90046001600160a01b03168260090184600201548154811061385f5761385f614f6b565b9060005260206000200160006101000a8154816001600160a01b0302191690836001600160a01b031602179055508260020154600b6000846009018660020154815481106138af576138af614f6b565b60009182526020808320909101546001600160a01b0390811684528382019490945260409283018220938b168252929092529020600201555b816009018054806138fb576138fb615183565b600082815260209020810160001990810180546001600160a01b0319169055019055600182015461392d908290614f17565b600180840191909155439084015560006002840155600e54613950908290614f17565b600e55600180549083015410801561399c575060046001600160a01b0387166000908152600a6020526040902054600160a01b900460ff16600481111561399957613999614914565b14155b156139bb57815460ff60a01b1916600360a01b1782556139bb8661454d565b6139c486611707565b506001600160a01b038481166000818152601160209081526040808320948b1680845294825280832092909255815185815242918101919091527f449002ae18e748d69a55f38514400d64f966492e593e32d6e9b8b24db98a0bc1910160405180910390a350600195945050505050565b613a3d613aab565b6001600160a01b038116613aa25760405162461bcd60e51b815260206004820152602660248201527f4f776e61626c653a206e6577206f776e657220697320746865207a65726f206160448201526564647265737360d01b6064820152608401610a1d565b61150f8161400d565b6009546001600160a01b031633146117055760405162461bcd60e51b815260206004820181905260248201527f4f776e61626c653a2063616c6c6572206973206e6f7420746865206f776e65726044820152606401610a1d565b60008461ffff16118015613b195750600083115b613b7b5760405162461bcd60e51b815260206004820152602d60248201527f496e636f7272656374204d617856616c696461746f7273206f72204d696e696d60448201526c30b629ba30b5b4b733a1b7b4b760991b6064820152608401610a1d565b6000805462ffff00191661010061ffff87160217905560018390556002829055613ba88162015180614f2a565b60165550505050565b60005b600d54811015613c0c57826001600160a01b0316600d8281548110613bdb57613bdb614f6b565b6000918252602090912001546001600160a01b031603613bfa57505050565b80613c0481614f81565b915050613bb4565b50600054600d5461010090910461ffff161115613ca157600d80546001810182556000919091527fd7b6990105719101dabeb77144f2a3385c8033acd3af97e9423a695e81ad1eb50180546001600160a01b0319166001600160a01b0384169081179091556040514281527f1e3310ad6891b30e03874ec3d1422a6386c5da63d9faf595f5d99eeaf443b99a90602001611487565b6000600a6000600d600081548110613cbb57613cbb614f6b565b60009182526020808320909101546001600160a01b03168352820192909252604001812060019081015492505b600d54811015613d8f5782600a6000600d8481548110613d0a57613d0a614f6b565b60009182526020808320909101546001600160a01b031683528201929092526040019020600101541015613d7d57600a6000600d8381548110613d4f57613d4f614f6b565b60009182526020808320909101546001600160a01b0316835282019290925260400190206001015492509050805b80613d8781614f81565b915050613ce8565b50818311613d9d5750505050565b836001600160a01b03167f1e3310ad6891b30e03874ec3d1422a6386c5da63d9faf595f5d99eeaf443b99a42604051613dd891815260200190565b60405180910390a2600d8181548110613df357613df3614f6b565b600091825260209182902001546040514281526001600160a01b03909116917f7521e44559c870c316e84e60bc4785d9c034a8ab1d6acdce8134ac03f946c6ed910160405180910390a283600d8281548110613e5157613e51614f6b565b9060005260206000200160006101000a8154816001600160a01b0302191690836001600160a01b0316021790555050505050565b60006001600160a01b0382166000908152600a6020526040902054600160a01b900460ff166004811115613ebb57613ebb614914565b1480613eca5750600c54600110155b15613ed25750565b6001600160a01b0381166000908152600a60205260409020600701548015613f5d57613efe8183614101565b80600f54613f0c9190614ede565b600f556001600160a01b0382166000908152600a6020526040902060080154613f36908290614ede565b6001600160a01b0383166000908152600a6020526040812060088101929092556007909101555b604080518281524260208201526001600160a01b038416917fe294e9d73f8eee23e21b2e1567960625a6b5d339cb127b55d0d09473a99512359101611487565b60006001600160a01b0382166000908152600a6020526040902054600160a01b900460ff166004811115613fd357613fd3614914565b03613fdb5750565b6001600160a01b0381166000908152600a60205260409020805460ff60a01b1916600160a21b17905561150f8161454d565b600980546001600160a01b038381166001600160a01b0319831681179093556040519116919082907f8be0079c531659141344cd1fd0a4f28419497f9722a3daafe3b4186f6b6457e090600090a35050565b620186a0818361406f8789614ede565b6140799190614ede565b6140839190614ede565b11156140d15760405162461bcd60e51b815260206004820152601a60248201527f546f74616c2068617320657863656564656420627920313030250000000000006044820152606401610a1d565b60048590556005849055600382905560068190556140f783670de0b6b3a7640000614f2a565b6007555050505050565b8160000361410d575050565b60008061411983614435565b9092509050600081900361412d5750505050565b600080836000036142b55760006141448488614f57565b90506141508482614f2a565b61415a9088614f17565b925060005b600c5481101561424a576000600c828154811061417e5761417e614f6b565b6000918252602090912001546001600160a01b0316905060046001600160a01b0382166000908152600a6020526040902054600160a01b900460ff1660048111156141cb576141cb614914565b141580156141eb5750876001600160a01b0316816001600160a01b031614155b15614237576001600160a01b0381166000908152600a6020526040902060070154614217908490614ede565b6001600160a01b0382166000908152600a60205260409020600701559250825b508061424281614f81565b91505061415f565b5060008311801561426357506001600160a01b03821615155b156142ac576001600160a01b0382166000908152600a602052604090206007015461428f908490614ede565b6001600160a01b0383166000908152600a60205260409020600701555b50505050505050565b6000805b600c548110156143e7576000600c82815481106142d8576142d8614f6b565b6000918252602090912001546001600160a01b0316905060046001600160a01b0382166000908152600a6020526040902054600160a01b900460ff16600481111561432557614325614914565b141580156143455750876001600160a01b0316816001600160a01b031614155b156143d4576001600160a01b0381166000908152600a60205260408120600101548890614372908c614f2a565b61437c9190614f57565b90506143888185614ede565b6001600160a01b0383166000908152600a6020526040902060070154929550935084916143b6908290614ede565b6001600160a01b0383166000908152600a6020526040902060070155505b50806143df81614f81565b9150506142b9565b506143f28188614f17565b925060008311801561426357506001600160a01b038216156142ac576001600160a01b0382166000908152600a602052604090206007015461428f908490614ede565b60008060005b600c54811015614547576004600a6000600c848154811061445e5761445e614f6b565b60009182526020808320909101546001600160a01b0316835282019290925260400190205460ff600160a01b90910416600481111561449f5761449f614914565b141580156144d75750600c81815481106144bb576144bb614f6b565b6000918252602090912001546001600160a01b03858116911614155b1561453557600a6000600c83815481106144f3576144f3614f6b565b60009182526020808320909101546001600160a01b031683528201929092526040019020600101546145259084614ede565b92508161453181614f81565b9250505b8061453f81614f81565b91505061443b565b50915091565b60005b600d54811080156145635750600d546001105b1561149057600d818154811061457b5761457b614f6b565b6000918252602090912001546001600160a01b039081169083160361469a57600d546145a990600190614f17565b811461462a57600d80546145bf90600190614f17565b815481106145cf576145cf614f6b565b600091825260209091200154600d80546001600160a01b0390921691839081106145fb576145fb614f6b565b9060005260206000200160006101000a8154816001600160a01b0302191690836001600160a01b031602179055505b600d80548061463b5761463b615183565b600082815260209020810160001990810180546001600160a01b03191690550190556040516001600160a01b038316907f7521e44559c870c316e84e60bc4785d9c034a8ab1d6acdce8134ac03f946c6ed906114879042815260200190565b806146a481614f81565b915050614550565b828054828255906000526020600020908101928215614701579160200282015b8281111561470157825182546001600160a01b0319166001600160a01b039091161782556020909201916001909101906146cc565b5061470d929150614711565b5090565b5b8082111561470d5760008155600101614712565b6001600160a01b038116811461150f57600080fd5b60006020828403121561474d57600080fd5b813561475881614726565b9392505050565b6000806040838503121561477257600080fd5b823561477d81614726565b9150602083013561478d81614726565b809150509250929050565b600080600080608085870312156147ae57600080fd5b843561ffff811681146147c057600080fd5b966020860135965060408601359560600135945092505050565b6000602082840312156147ec57600080fd5b5035919050565b634e487b7160e01b600052604160045260246000fd5b604051601f8201601f191681016001600160401b0381118282101715614831576148316147f3565b604052919050565b60006001600160401b03821115614852576148526147f3565b5060051b60200190565b600082601f83011261486d57600080fd5b8135602061488261487d83614839565b614809565b82815260059290921b840181019181810190868411156148a157600080fd5b8286015b848110156148c55780356148b881614726565b83529183019183016148a5565b509695505050505050565b600080604083850312156148e357600080fd5b82356001600160401b038111156148f957600080fd5b6149058582860161485c565b95602094909401359450505050565b634e487b7160e01b600052602160045260246000fd5b600081518084526020808501945080840160005b838110156149635781516001600160a01b03168752958201959082019060010161493e565b509495945050505050565b6001600160a01b038716815260006005871061499a57634e487b7160e01b600052602160045260246000fd5b86602083015285604083015284606083015283608083015260c060a08301526149c660c083018461492a565b98975050505050505050565b600080604083850312156149e557600080fd5b82356149f081614726565b946020939093013593505050565b602081526000614758602083018461492a565b60008060208385031215614a2457600080fd5b82356001600160401b0380821115614a3b57600080fd5b818501915085601f830112614a4f57600080fd5b813581811115614a5e57600080fd5b8660208260051b8501011115614a7357600080fd5b60209290920196919550909350505050565b803561125581614726565b60008083601f840112614aa257600080fd5b5081356001600160401b03811115614ab957600080fd5b602083019150836020828501011115614ad157600080fd5b9250929050565b600080600080600080600080600080600060c08c8e031215614af957600080fd5b614b028c614a85565b9a506001600160401b038060208e01351115614b1d57600080fd5b614b2d8e60208f01358f01614a90565b909b50995060408d0135811015614b4357600080fd5b614b538e60408f01358f01614a90565b909950975060608d0135811015614b6957600080fd5b614b798e60608f01358f01614a90565b909750955060808d0135811015614b8f57600080fd5b614b9f8e60808f01358f01614a90565b909550935060a08d0135811015614bb557600080fd5b50614bc68d60a08e01358e01614a90565b81935080925050509295989b509295989b9093969950565b6000815180845260005b81811015614c0457602081850181015186830182015201614be8565b506000602082860101526020601f19601f83011685010191505092915050565b60a081526000614c3760a0830188614bde565b8281036020840152614c498188614bde565b90508281036040840152614c5d8187614bde565b90508281036060840152614c718186614bde565b905082810360808401526149c68185614bde565b600082601f830112614c9657600080fd5b81356001600160401b03811115614caf57614caf6147f3565b614cc2601f8201601f1916602001614809565b818152846020838601011115614cd757600080fd5b816020850160208301376000918101602001919091529392505050565b600080600080600060a08688031215614d0c57600080fd5b85356001600160401b0380821115614d2357600080fd5b614d2f89838a01614c85565b96506020880135915080821115614d4557600080fd5b614d5189838a01614c85565b95506040880135915080821115614d6757600080fd5b614d7389838a01614c85565b94506060880135915080821115614d8957600080fd5b614d9589838a01614c85565b93506080880135915080821115614dab57600080fd5b50614db888828901614c85565b9150509295509295909350565b60008060408385031215614dd857600080fd5b82356001600160401b0380821115614def57600080fd5b614dfb8683870161485c565b9350602091508185013581811115614e1257600080fd5b8501601f81018713614e2357600080fd5b8035614e3161487d82614839565b81815260059190911b82018401908481019089831115614e5057600080fd5b928501925b82841015614e7d5783358581168114614e6e5760008081fd5b82529285019290850190614e55565b8096505050505050509250929050565b600080600080600060a08688031215614ea557600080fd5b505083359560208501359550604085013594606081013594506080013592509050565b634e487b7160e01b600052601160045260246000fd5b8082018082111561136457611364614ec8565b6020808252600c908201526b139bdd081a5b9a5d081e595d60a21b604082015260600190565b8181038181111561136457611364614ec8565b808202811582820484141761136457611364614ec8565b634e487b7160e01b600052601260045260246000fd5b600082614f6657614f66614f41565b500490565b634e487b7160e01b600052603260045260246000fd5b600060018201614f9357614f93614ec8565b5060010190565b600082614fa957614fa9614f41565b500690565b600060208284031215614fc057600080fd5b8151801515811461475857600080fd5b600181811c90821680614fe457607f821691505b60208210810361500457634e487b7160e01b600052602260045260246000fd5b50919050565b601f82111561505457600081815260208120601f850160051c810160208610156150315750805b601f850160051c820191505b818110156150505782815560010161503d565b5050505b505050565b81516001600160401b03811115615072576150726147f3565b615086816150808454614fd0565b8461500a565b602080601f8311600181146150bb57600084156150a35750858301515b600019600386901b1c1916600185901b178555615050565b600085815260208120601f198616915b828110156150ea578886015182559484019460019091019084016150cb565b50858210156151085787850151600019600388901b60f8161c191681555b5050505050600190811b01905550565b84815260006020858184015260806040840152615138608084018661492a565b838103606085015284518082528286019183019060005b818110156151745783516001600160401b03168352928401929184019160010161514f565b50909998505050505050505050565b634e487b7160e01b600052603160045260246000fdfea26469706673582212206ca315736786dbb81d03c471df170c91e95c9dd2a25bb1d9f0b7c0e6ddb2251364736f6c63430008110033",
			"opcodes": "PUSH1 0x80 PUSH1 0x40 MSTORE PUSH1 0x0 DUP1 SLOAD PUSH3 0xFFFF00 NOT AND PUSH2 0x1E00 OR DUP2 SSTORE PUSH10 0xA968163F0A57B400000 PUSH1 0x1 SSTORE PUSH10 0x69E10DE76676D0800000 PUSH1 0x2 SSTORE PUSH1 0x3 DUP2 SWAP1 SSTORE PUSH1 0x4 DUP2 SWAP1 SSTORE PUSH3 0x186A0 PUSH1 0x5 SSTORE PUSH1 0x6 SSTORE PUSH11 0xCECB8F27F4200F3A000000 PUSH1 0x7 SSTORE PUSH3 0x76A700 PUSH1 0x16 SSTORE CALLVALUE DUP1 ISZERO PUSH3 0x67 JUMPI PUSH1 0x0 DUP1 REVERT JUMPDEST POP PUSH3 0x73 CALLER PUSH3 0x79 JUMP JUMPDEST PUSH3 0xCB JUMP JUMPDEST PUSH1 0x9 DUP1 SLOAD PUSH1 0x1 PUSH1 0x1 PUSH1 0xA0 SHL SUB DUP4 DUP2 AND PUSH1 0x1 PUSH1 0x1 PUSH1 0xA0 SHL SUB NOT DUP4 AND DUP2 OR SWAP1 SWAP4 SSTORE PUSH1 0x40 MLOAD SWAP2 AND SWAP2 SWAP1 DUP3 SWAP1 PUSH32 0x8BE0079C531659141344CD1FD0A4F28419497F9722A3DAAFE3B4186F6B6457E0 SWAP1 PUSH1 0x0 SWAP1 LOG3 POP POP JUMP JUMPDEST PUSH2 0x51CF DUP1 PUSH3 0xDB PUSH1 0x0 CODECOPY PUSH1 0x0 RETURN INVALID PUSH1 0x80 PUSH1 0x40 MSTORE PUSH1 0x4 CALLDATASIZE LT PUSH2 0x2E3 JUMPI PUSH1 0x0 CALLDATALOAD PUSH1 0xE0 SHR DUP1 PUSH4 0x82BD3D92 GT PUSH2 0x190 JUMPI DUP1 PUSH4 0xB6C88519 GT PUSH2 0xDC JUMPI DUP1 PUSH4 0xC967F90F GT PUSH2 0x95 JUMPI DUP1 PUSH4 0xDB78DD28 GT PUSH2 0x6F JUMPI DUP1 PUSH4 0xDB78DD28 EQ PUSH2 0x921 JUMPI DUP1 PUSH4 0xF2888DBB EQ PUSH2 0x950 JUMPI DUP1 PUSH4 0xF2FDE38B EQ PUSH2 0x970 JUMPI DUP1 PUSH4 0xFCA737C0 EQ PUSH2 0x990 JUMPI PUSH1 0x0 DUP1 REVERT JUMPDEST DUP1 PUSH4 0xC967F90F EQ PUSH2 0x8A2 JUMPI DUP1 PUSH4 0xCD779D21 EQ PUSH2 0x8D5 JUMPI DUP1 PUSH4 0xD571770C EQ PUSH2 0x8EB JUMPI PUSH1 0x0 DUP1 REVERT JUMPDEST DUP1 PUSH4 0xB6C88519 EQ PUSH2 0x7EF JUMPI DUP1 PUSH4 0xBB1C0310 EQ PUSH2 0x80F JUMPI DUP1 PUSH4 0xBD10BA76 EQ PUSH2 0x822 JUMPI DUP1 PUSH4 0xBE645692 EQ PUSH2 0x842 JUMPI DUP1 PUSH4 0xC253C384 EQ PUSH2 0x858 JUMPI DUP1 PUSH4 0xC60033DD EQ PUSH2 0x882 JUMPI PUSH1 0x0 DUP1 REVERT JUMPDEST DUP1 PUSH4 0x98E3B626 GT PUSH2 0x149 JUMPI DUP1 PUSH4 0xA224CEE7 GT PUSH2 0x123 JUMPI DUP1 PUSH4 0xA224CEE7 EQ PUSH2 0x776 JUMPI DUP1 PUSH4 0xA406FCB7 EQ PUSH2 0x796 JUMPI DUP1 PUSH4 0xA43569B3 EQ PUSH2 0x7A9 JUMPI DUP1 PUSH4 0xAFEEA115 EQ PUSH2 0x7DA JUMPI PUSH1 0x0 DUP1 REVERT JUMPDEST DUP1 PUSH4 0x98E3B626 EQ PUSH2 0x71E JUMPI DUP1 PUSH4 0x9D7714CE EQ PUSH2 0x73E JUMPI DUP1 PUSH4 0x9DE70258 EQ PUSH2 0x754 JUMPI PUSH1 0x0 DUP1 REVERT JUMPDEST DUP1 PUSH4 0x82BD3D92 EQ PUSH2 0x64A JUMPI DUP1 PUSH4 0x8A11D7C9 EQ PUSH2 0x66A JUMPI DUP1 PUSH4 0x8B0E9F3F EQ PUSH2 0x69C JUMPI DUP1 PUSH4 0x8DA5CB5B EQ PUSH2 0x6B2 JUMPI DUP1 PUSH4 0x92F2C437 EQ PUSH2 0x6D0 JUMPI DUP1 PUSH4 0x966FF650 EQ PUSH2 0x708 JUMPI PUSH1 0x0 DUP1 REVERT JUMPDEST DUP1 PUSH4 0x3B5D441E GT PUSH2 0x24F JUMPI DUP1 PUSH4 0x5DD09590 GT PUSH2 0x208 JUMPI DUP1 PUSH4 0x6969A25C GT PUSH2 0x1E2 JUMPI DUP1 PUSH4 0x6969A25C EQ PUSH2 0x587 JUMPI DUP1 PUSH4 0x715018A6 EQ PUSH2 0x5A7 JUMPI DUP1 PUSH4 0x72D30A70 EQ PUSH2 0x5BC JUMPI DUP1 PUSH4 0x7F4F95FA EQ PUSH2 0x5DC JUMPI PUSH1 0x0 DUP1 REVERT JUMPDEST DUP1 PUSH4 0x5DD09590 EQ PUSH2 0x531 JUMPI DUP1 PUSH4 0x6233BE5D EQ PUSH2 0x551 JUMPI DUP1 PUSH4 0x6846992A EQ PUSH2 0x567 JUMPI PUSH1 0x0 DUP1 REVERT JUMPDEST DUP1 PUSH4 0x3B5D441E EQ PUSH2 0x478 JUMPI DUP1 PUSH4 0x40550A1C EQ PUSH2 0x4A5 JUMPI DUP1 PUSH4 0x40A141FF EQ PUSH2 0x4C5 JUMPI DUP1 PUSH4 0x42127EE7 EQ PUSH2 0x4E5 JUMPI DUP1 PUSH4 0x45E9F8E5 EQ PUSH2 0x4FB JUMPI DUP1 PUSH4 0x4B3D500B EQ PUSH2 0x511 JUMPI PUSH1 0x0 DUP1 REVERT JUMPDEST DUP1 PUSH4 0x1B5E358C GT PUSH2 0x2A1 JUMPI DUP1 PUSH4 0x1B5E358C EQ PUSH2 0x3CB JUMPI DUP1 PUSH4 0x222D3B05 EQ PUSH2 0x3F9 JUMPI DUP1 PUSH4 0x26476204 EQ PUSH2 0x419 JUMPI DUP1 PUSH4 0x37DBC8CC EQ PUSH2 0x42C JUMPI DUP1 PUSH4 0x3A061BD3 EQ PUSH2 0x442 JUMPI DUP1 PUSH4 0x3AE898CA EQ PUSH2 0x458 JUMPI PUSH1 0x0 DUP1 REVERT JUMPDEST DUP1 PUSH3 0x362A77 EQ PUSH2 0x2E8 JUMPI DUP1 PUSH4 0x1AEC704 EQ PUSH2 0x31D JUMPI DUP1 PUSH4 0x976C65D EQ PUSH2 0x363 JUMPI DUP1 PUSH4 0xC66EBF7 EQ PUSH2 0x379 JUMPI DUP1 PUSH4 0x1303F7CF EQ PUSH2 0x39B JUMPI DUP1 PUSH4 0x158EF93E EQ PUSH2 0x3B1 JUMPI JUMPDEST PUSH1 0x0 DUP1 REVERT JUMPDEST CALLVALUE DUP1 ISZERO PUSH2 0x2F4 JUMPI PUSH1 0x0 DUP1 REVERT JUMPDEST POP PUSH2 0x308 PUSH2 0x303 CALLDATASIZE PUSH1 0x4 PUSH2 0x473B JUMP JUMPDEST PUSH2 0x9A6 JUMP JUMPDEST PUSH1 0x40 MLOAD SWAP1 ISZERO ISZERO DUP2 MSTORE PUSH1 0x20 ADD JUMPDEST PUSH1 0x40 MLOAD DUP1 SWAP2 SUB SWAP1 RETURN JUMPDEST CALLVALUE DUP1 ISZERO PUSH2 0x329 JUMPI PUSH1 0x0 DUP1 REVERT JUMPDEST POP PUSH2 0x355 PUSH2 0x338 CALLDATASIZE PUSH1 0x4 PUSH2 0x475F JUMP JUMPDEST PUSH1 0x11 PUSH1 0x20 SWAP1 DUP2 MSTORE PUSH1 0x0 SWAP3 DUP4 MSTORE PUSH1 0x40 DUP1 DUP5 KECCAK256 SWAP1 SWAP2 MSTORE SWAP1 DUP3 MSTORE SWAP1 KECCAK256 SLOAD DUP2 JUMP JUMPDEST PUSH1 0x40 MLOAD SWAP1 DUP2 MSTORE PUSH1 0x20 ADD PUSH2 0x314 JUMP JUMPDEST CALLVALUE DUP1 ISZERO PUSH2 0x36F JUMPI PUSH1 0x0 DUP1 REVERT JUMPDEST POP PUSH2 0x355 PUSH1 0x2 SLOAD DUP2 JUMP JUMPDEST CALLVALUE DUP1 ISZERO PUSH2 0x385 JUMPI PUSH1 0x0 DUP1 REVERT JUMPDEST POP PUSH2 0x399 PUSH2 0x394 CALLDATASIZE PUSH1 0x4 PUSH2 0x4798 JUMP JUMPDEST PUSH2 0xBC8 JUMP JUMPDEST STOP JUMPDEST CALLVALUE DUP1 ISZERO PUSH2 0x3A7 JUMPI PUSH1 0x0 DUP1 REVERT JUMPDEST POP PUSH2 0x355 PUSH1 0xF SLOAD DUP2 JUMP JUMPDEST CALLVALUE DUP1 ISZERO PUSH2 0x3BD JUMPI PUSH1 0x0 DUP1 REVERT JUMPDEST POP PUSH1 0x0 SLOAD PUSH2 0x308 SWAP1 PUSH1 0xFF AND DUP2 JUMP JUMPDEST CALLVALUE DUP1 ISZERO PUSH2 0x3D7 JUMPI PUSH1 0x0 DUP1 REVERT JUMPDEST POP PUSH2 0x3E1 PUSH2 0xF001 DUP2 JUMP JUMPDEST PUSH1 0x40 MLOAD PUSH1 0x1 PUSH1 0x1 PUSH1 0xA0 SHL SUB SWAP1 SWAP2 AND DUP2 MSTORE PUSH1 0x20 ADD PUSH2 0x314 JUMP JUMPDEST CALLVALUE DUP1 ISZERO PUSH2 0x405 JUMPI PUSH1 0x0 DUP1 REVERT JUMPDEST POP PUSH2 0x308 PUSH2 0x414 CALLDATASIZE PUSH1 0x4 PUSH2 0x473B JUMP JUMPDEST PUSH2 0xBE2 JUMP JUMPDEST PUSH2 0x308 PUSH2 0x427 CALLDATASIZE PUSH1 0x4 PUSH2 0x473B JUMP JUMPDEST PUSH2 0xE11 JUMP JUMPDEST CALLVALUE DUP1 ISZERO PUSH2 0x438 JUMPI PUSH1 0x0 DUP1 REVERT JUMPDEST POP PUSH2 0x355 PUSH1 0x5 SLOAD DUP2 JUMP JUMPDEST CALLVALUE DUP1 ISZERO PUSH2 0x44E JUMPI PUSH1 0x0 DUP1 REVERT JUMPDEST POP PUSH2 0x3E1 PUSH2 0xF000 DUP2 JUMP JUMPDEST CALLVALUE DUP1 ISZERO PUSH2 0x464 JUMPI PUSH1 0x0 DUP1 REVERT JUMPDEST POP PUSH2 0x355 PUSH2 0x473 CALLDATASIZE PUSH1 0x4 PUSH2 0x475F JUMP JUMPDEST PUSH2 0x125A JUMP JUMPDEST CALLVALUE DUP1 ISZERO PUSH2 0x484 JUMPI PUSH1 0x0 DUP1 REVERT JUMPDEST POP PUSH2 0x355 PUSH2 0x493 CALLDATASIZE PUSH1 0x4 PUSH2 0x473B JUMP JUMPDEST PUSH1 0x12 PUSH1 0x20 MSTORE PUSH1 0x0 SWAP1 DUP2 MSTORE PUSH1 0x40 SWAP1 KECCAK256 SLOAD DUP2 JUMP JUMPDEST CALLVALUE DUP1 ISZERO PUSH2 0x4B1 JUMPI PUSH1 0x0 DUP1 REVERT JUMPDEST POP PUSH2 0x308 PUSH2 0x4C0 CALLDATASIZE PUSH1 0x4 PUSH2 0x473B JUMP JUMPDEST PUSH2 0x136A JUMP JUMPDEST CALLVALUE DUP1 ISZERO PUSH2 0x4D1 JUMPI PUSH1 0x0 DUP1 REVERT JUMPDEST POP PUSH2 0x399 PUSH2 0x4E0 CALLDATASIZE PUSH1 0x4 PUSH2 0x473B JUMP JUMPDEST PUSH2 0x13CA JUMP JUMPDEST CALLVALUE DUP1 ISZERO PUSH2 0x4F1 JUMPI PUSH1 0x0 DUP1 REVERT JUMPDEST POP PUSH2 0x355 PUSH1 0x4 SLOAD DUP2 JUMP JUMPDEST CALLVALUE DUP1 ISZERO PUSH2 0x507 JUMPI PUSH1 0x0 DUP1 REVERT JUMPDEST POP PUSH2 0x355 PUSH1 0x16 SLOAD DUP2 JUMP JUMPDEST CALLVALUE DUP1 ISZERO PUSH2 0x51D JUMPI PUSH1 0x0 DUP1 REVERT JUMPDEST POP PUSH2 0x3E1 PUSH2 0x52C CALLDATASIZE PUSH1 0x4 PUSH2 0x47DA JUMP JUMPDEST PUSH2 0x1494 JUMP JUMPDEST CALLVALUE DUP1 ISZERO PUSH2 0x53D JUMPI PUSH1 0x0 DUP1 REVERT JUMPDEST POP PUSH2 0x399 PUSH2 0x54C CALLDATASIZE PUSH1 0x4 PUSH2 0x473B JUMP JUMPDEST PUSH2 0x14BE JUMP JUMPDEST CALLVALUE DUP1 ISZERO PUSH2 0x55D JUMPI PUSH1 0x0 DUP1 REVERT JUMPDEST POP PUSH2 0x3E1 PUSH2 0xF002 DUP2 JUMP JUMPDEST CALLVALUE DUP1 ISZERO PUSH2 0x573 JUMPI PUSH1 0x0 DUP1 REVERT JUMPDEST POP PUSH2 0x399 PUSH2 0x582 CALLDATASIZE PUSH1 0x4 PUSH2 0x48D0 JUMP JUMPDEST PUSH2 0x1512 JUMP JUMPDEST CALLVALUE DUP1 ISZERO PUSH2 0x593 JUMPI PUSH1 0x0 DUP1 REVERT JUMPDEST POP PUSH2 0x3E1 PUSH2 0x5A2 CALLDATASIZE PUSH1 0x4 PUSH2 0x47DA JUMP JUMPDEST PUSH2 0x16E3 JUMP JUMPDEST CALLVALUE DUP1 ISZERO PUSH2 0x5B3 JUMPI PUSH1 0x0 DUP1 REVERT JUMPDEST POP PUSH2 0x399 PUSH2 0x16F3 JUMP JUMPDEST CALLVALUE DUP1 ISZERO PUSH2 0x5C8 JUMPI PUSH1 0x0 DUP1 REVERT JUMPDEST POP PUSH2 0x308 PUSH2 0x5D7 CALLDATASIZE PUSH1 0x4 PUSH2 0x473B JUMP JUMPDEST PUSH2 0x1707 JUMP JUMPDEST CALLVALUE DUP1 ISZERO PUSH2 0x5E8 JUMPI PUSH1 0x0 DUP1 REVERT JUMPDEST POP PUSH2 0x62F PUSH2 0x5F7 CALLDATASIZE PUSH1 0x4 PUSH2 0x475F JUMP JUMPDEST PUSH1 0x1 PUSH1 0x1 PUSH1 0xA0 SHL SUB SWAP2 DUP3 AND PUSH1 0x0 SWAP1 DUP2 MSTORE PUSH1 0xB PUSH1 0x20 SWAP1 DUP2 MSTORE PUSH1 0x40 DUP1 DUP4 KECCAK256 SWAP4 SWAP1 SWAP5 AND DUP3 MSTORE SWAP2 SWAP1 SWAP2 MSTORE KECCAK256 DUP1 SLOAD PUSH1 0x1 DUP3 ADD SLOAD PUSH1 0x2 SWAP1 SWAP3 ADD SLOAD SWAP1 SWAP3 JUMP JUMPDEST PUSH1 0x40 DUP1 MLOAD SWAP4 DUP5 MSTORE PUSH1 0x20 DUP5 ADD SWAP3 SWAP1 SWAP3 MSTORE SWAP1 DUP3 ADD MSTORE PUSH1 0x60 ADD PUSH2 0x314 JUMP JUMPDEST CALLVALUE DUP1 ISZERO PUSH2 0x656 JUMPI PUSH1 0x0 DUP1 REVERT JUMPDEST POP PUSH2 0x308 PUSH2 0x665 CALLDATASIZE PUSH1 0x4 PUSH2 0x473B JUMP JUMPDEST PUSH2 0x18B7 JUMP JUMPDEST CALLVALUE DUP1 ISZERO PUSH2 0x676 JUMPI PUSH1 0x0 DUP1 REVERT JUMPDEST POP PUSH2 0x68A PUSH2 0x685 CALLDATASIZE PUSH1 0x4 PUSH2 0x473B JUMP JUMPDEST PUSH2 0x1AF5 JUMP JUMPDEST PUSH1 0x40 MLOAD PUSH2 0x314 SWAP7 SWAP6 SWAP5 SWAP4 SWAP3 SWAP2 SWAP1 PUSH2 0x496E JUMP JUMPDEST CALLVALUE DUP1 ISZERO PUSH2 0x6A8 JUMPI PUSH1 0x0 DUP1 REVERT JUMPDEST POP PUSH2 0x355 PUSH1 0xE SLOAD DUP2 JUMP JUMPDEST CALLVALUE DUP1 ISZERO PUSH2 0x6BE JUMPI PUSH1 0x0 DUP1 REVERT JUMPDEST POP PUSH1 0x9 SLOAD PUSH1 0x1 PUSH1 0x1 PUSH1 0xA0 SHL SUB AND PUSH2 0x3E1 JUMP JUMPDEST CALLVALUE DUP1 ISZERO PUSH2 0x6DC JUMPI PUSH1 0x0 DUP1 REVERT JUMPDEST POP PUSH2 0x355 PUSH2 0x6EB CALLDATASIZE PUSH1 0x4 PUSH2 0x49D2 JUMP JUMPDEST PUSH1 0x13 PUSH1 0x20 SWAP1 DUP2 MSTORE PUSH1 0x0 SWAP3 DUP4 MSTORE PUSH1 0x40 DUP1 DUP5 KECCAK256 SWAP1 SWAP2 MSTORE SWAP1 DUP3 MSTORE SWAP1 KECCAK256 SLOAD DUP2 JUMP JUMPDEST CALLVALUE DUP1 ISZERO PUSH2 0x714 JUMPI PUSH1 0x0 DUP1 REVERT JUMPDEST POP PUSH2 0x355 PUSH1 0x8 SLOAD DUP2 JUMP JUMPDEST CALLVALUE DUP1 ISZERO PUSH2 0x72A JUMPI PUSH1 0x0 DUP1 REVERT JUMPDEST POP PUSH2 0x308 PUSH2 0x739 CALLDATASIZE PUSH1 0x4 PUSH2 0x473B JUMP JUMPDEST PUSH2 0x1F07 JUMP JUMPDEST CALLVALUE DUP1 ISZERO PUSH2 0x74A JUMPI PUSH1 0x0 DUP1 REVERT JUMPDEST POP PUSH2 0x355 PUSH1 0x7 SLOAD DUP2 JUMP JUMPDEST CALLVALUE DUP1 ISZERO PUSH2 0x760 JUMPI PUSH1 0x0 DUP1 REVERT JUMPDEST POP PUSH2 0x769 PUSH2 0x1F67 JUMP JUMPDEST PUSH1 0x40 MLOAD PUSH2 0x314 SWAP2 SWAP1 PUSH2 0x49FE JUMP JUMPDEST CALLVALUE DUP1 ISZERO PUSH2 0x782 JUMPI PUSH1 0x0 DUP1 REVERT JUMPDEST POP PUSH2 0x399 PUSH2 0x791 CALLDATASIZE PUSH1 0x4 PUSH2 0x4A11 JUMP JUMPDEST PUSH2 0x1FC9 JUMP JUMPDEST PUSH2 0x308 PUSH2 0x7A4 CALLDATASIZE PUSH1 0x4 PUSH2 0x4AD8 JUMP JUMPDEST PUSH2 0x2428 JUMP JUMPDEST CALLVALUE DUP1 ISZERO PUSH2 0x7B5 JUMPI PUSH1 0x0 DUP1 REVERT JUMPDEST POP PUSH2 0x7C9 PUSH2 0x7C4 CALLDATASIZE PUSH1 0x4 PUSH2 0x473B JUMP JUMPDEST PUSH2 0x2997 JUMP JUMPDEST PUSH1 0x40 MLOAD PUSH2 0x314 SWAP6 SWAP5 SWAP4 SWAP3 SWAP2 SWAP1 PUSH2 0x4C24 JUMP JUMPDEST CALLVALUE DUP1 ISZERO PUSH2 0x7E6 JUMPI PUSH1 0x0 DUP1 REVERT JUMPDEST POP PUSH2 0x769 PUSH2 0x2DA4 JUMP JUMPDEST CALLVALUE DUP1 ISZERO PUSH2 0x7FB JUMPI PUSH1 0x0 DUP1 REVERT JUMPDEST POP PUSH2 0x308 PUSH2 0x80A CALLDATASIZE PUSH1 0x4 PUSH2 0x4CF4 JUMP JUMPDEST PUSH2 0x2E04 JUMP JUMPDEST PUSH2 0x399 PUSH2 0x81D CALLDATASIZE PUSH1 0x4 PUSH2 0x4DC5 JUMP JUMPDEST PUSH2 0x2F90 JUMP JUMPDEST CALLVALUE DUP1 ISZERO PUSH2 0x82E JUMPI PUSH1 0x0 DUP1 REVERT JUMPDEST POP PUSH2 0x308 PUSH2 0x83D CALLDATASIZE PUSH1 0x4 PUSH2 0x473B JUMP JUMPDEST PUSH2 0x347D JUMP JUMPDEST CALLVALUE DUP1 ISZERO PUSH2 0x84E JUMPI PUSH1 0x0 DUP1 REVERT JUMPDEST POP PUSH2 0x355 PUSH1 0x1 SLOAD DUP2 JUMP JUMPDEST CALLVALUE DUP1 ISZERO PUSH2 0x864 JUMPI PUSH1 0x0 DUP1 REVERT JUMPDEST POP PUSH2 0x86D PUSH2 0x3503 JUMP JUMPDEST PUSH1 0x40 DUP1 MLOAD SWAP3 DUP4 MSTORE PUSH1 0x20 DUP4 ADD SWAP2 SWAP1 SWAP2 MSTORE ADD PUSH2 0x314 JUMP JUMPDEST CALLVALUE DUP1 ISZERO PUSH2 0x88E JUMPI PUSH1 0x0 DUP1 REVERT JUMPDEST POP PUSH2 0x399 PUSH2 0x89D CALLDATASIZE PUSH1 0x4 PUSH2 0x4E8D JUMP JUMPDEST PUSH2 0x3518 JUMP JUMPDEST CALLVALUE DUP1 ISZERO PUSH2 0x8AE JUMPI PUSH1 0x0 DUP1 REVERT JUMPDEST POP PUSH1 0x0 SLOAD PUSH2 0x8C2 SWAP1 PUSH2 0x100 SWAP1 DIV PUSH2 0xFFFF AND DUP2 JUMP JUMPDEST PUSH1 0x40 MLOAD PUSH2 0xFFFF SWAP1 SWAP2 AND DUP2 MSTORE PUSH1 0x20 ADD PUSH2 0x314 JUMP JUMPDEST CALLVALUE DUP1 ISZERO PUSH2 0x8E1 JUMPI PUSH1 0x0 DUP1 REVERT JUMPDEST POP PUSH2 0x355 PUSH1 0x3 SLOAD DUP2 JUMP JUMPDEST CALLVALUE DUP1 ISZERO PUSH2 0x8F7 JUMPI PUSH1 0x0 DUP1 REVERT JUMPDEST POP PUSH2 0x3E1 PUSH2 0x906 CALLDATASIZE PUSH1 0x4 PUSH2 0x473B JUMP JUMPDEST PUSH1 0x10 PUSH1 0x20 MSTORE PUSH1 0x0 SWAP1 DUP2 MSTORE PUSH1 0x40 SWAP1 KECCAK256 SLOAD PUSH1 0x1 PUSH1 0x1 PUSH1 0xA0 SHL SUB AND DUP2 JUMP JUMPDEST CALLVALUE DUP1 ISZERO PUSH2 0x92D JUMPI PUSH1 0x0 DUP1 REVERT JUMPDEST POP PUSH2 0x938 PUSH3 0x15180 DUP2 JUMP JUMPDEST PUSH1 0x40 MLOAD PUSH1 0x1 PUSH1 0x1 PUSH1 0x40 SHL SUB SWAP1 SWAP2 AND DUP2 MSTORE PUSH1 0x20 ADD PUSH2 0x314 JUMP JUMPDEST CALLVALUE DUP1 ISZERO PUSH2 0x95C JUMPI PUSH1 0x0 DUP1 REVERT JUMPDEST POP PUSH2 0x308 PUSH2 0x96B CALLDATASIZE PUSH1 0x4 PUSH2 0x473B JUMP JUMPDEST PUSH2 0x3534 JUMP JUMPDEST CALLVALUE DUP1 ISZERO PUSH2 0x97C JUMPI PUSH1 0x0 DUP1 REVERT JUMPDEST POP PUSH2 0x399 PUSH2 0x98B CALLDATASIZE PUSH1 0x4 PUSH2 0x473B JUMP JUMPDEST PUSH2 0x3A35 JUMP JUMPDEST CALLVALUE DUP1 ISZERO PUSH2 0x99C JUMPI PUSH1 0x0 DUP1 REVERT JUMPDEST POP PUSH2 0x355 PUSH1 0x6 SLOAD DUP2 JUMP JUMPDEST PUSH1 0x0 ORIGIN DUP2 PUSH1 0x1 PUSH1 0x1 PUSH1 0xA0 SHL SUB DUP5 AND PUSH1 0x0 SWAP1 DUP2 MSTORE PUSH1 0xA PUSH1 0x20 MSTORE PUSH1 0x40 SWAP1 KECCAK256 SLOAD PUSH1 0x1 PUSH1 0xA0 SHL SWAP1 DIV PUSH1 0xFF AND PUSH1 0x4 DUP2 GT ISZERO PUSH2 0x9DE JUMPI PUSH2 0x9DE PUSH2 0x4914 JUMP JUMPDEST SUB PUSH2 0xA26 JUMPI PUSH1 0x40 MLOAD PUSH3 0x461BCD PUSH1 0xE5 SHL DUP2 MSTORE PUSH1 0x20 PUSH1 0x4 DUP3 ADD MSTORE PUSH1 0x13 PUSH1 0x24 DUP3 ADD MSTORE PUSH19 0x15985B1A59185D1BDC881B9BDD08195E1A5CDD PUSH1 0x6A SHL PUSH1 0x44 DUP3 ADD MSTORE PUSH1 0x64 ADD JUMPDEST PUSH1 0x40 MLOAD DUP1 SWAP2 SUB SWAP1 REVERT JUMPDEST PUSH1 0x1 PUSH1 0x1 PUSH1 0xA0 SHL SUB DUP4 DUP2 AND PUSH1 0x0 SWAP1 DUP2 MSTORE PUSH1 0xA PUSH1 0x20 MSTORE PUSH1 0x40 SWAP1 KECCAK256 SLOAD DUP2 AND SWAP1 DUP3 AND EQ PUSH2 0xAA9 JUMPI PUSH1 0x40 MLOAD PUSH3 0x461BCD PUSH1 0xE5 SHL DUP2 MSTORE PUSH1 0x20 PUSH1 0x4 DUP3 ADD MSTORE PUSH1 0x2E PUSH1 0x24 DUP3 ADD MSTORE PUSH32 0x596F7520617265206E6F742074686520666565207265636569766572206F6620 PUSH1 0x44 DUP3 ADD MSTORE PUSH14 0x3A3434B9903B30B634B230BA37B9 PUSH1 0x91 SHL PUSH1 0x64 DUP3 ADD MSTORE PUSH1 0x84 ADD PUSH2 0xA1D JUMP JUMPDEST PUSH1 0x1 PUSH1 0x1 PUSH1 0xA0 SHL SUB DUP4 AND PUSH1 0x0 SWAP1 DUP2 MSTORE PUSH1 0xA PUSH1 0x20 MSTORE PUSH1 0x40 SWAP1 KECCAK256 PUSH1 0x7 ADD SLOAD DUP1 PUSH2 0xB12 JUMPI PUSH1 0x40 MLOAD PUSH3 0x461BCD PUSH1 0xE5 SHL DUP2 MSTORE PUSH1 0x20 PUSH1 0x4 DUP3 ADD MSTORE PUSH1 0x1A PUSH1 0x24 DUP3 ADD MSTORE PUSH32 0x596F7520646F6E2774206861766520616E792070726F66697473000000000000 PUSH1 0x44 DUP3 ADD MSTORE PUSH1 0x64 ADD PUSH2 0xA1D JUMP JUMPDEST PUSH1 0x1 PUSH1 0x1 PUSH1 0xA0 SHL SUB DUP5 AND PUSH1 0x0 SWAP1 DUP2 MSTORE PUSH1 0xA PUSH1 0x20 MSTORE PUSH1 0x40 DUP2 KECCAK256 PUSH1 0x7 ADD SSTORE DUP1 ISZERO PUSH2 0xB6C JUMPI PUSH1 0x40 MLOAD PUSH1 0x1 PUSH1 0x1 PUSH1 0xA0 SHL SUB DUP4 AND SWAP1 DUP3 ISZERO PUSH2 0x8FC MUL SWAP1 DUP4 SWAP1 PUSH1 0x0 DUP2 DUP2 DUP2 DUP6 DUP9 DUP9 CALL SWAP4 POP POP POP POP ISZERO DUP1 ISZERO PUSH2 0xB6A JUMPI RETURNDATASIZE PUSH1 0x0 DUP1 RETURNDATACOPY RETURNDATASIZE PUSH1 0x0 REVERT JUMPDEST POP JUMPDEST PUSH2 0xB75 DUP5 PUSH2 0x1707 JUMP JUMPDEST POP PUSH1 0x40 DUP1 MLOAD DUP3 DUP2 MSTORE TIMESTAMP PUSH1 0x20 DUP3 ADD MSTORE PUSH1 0x1 PUSH1 0x1 PUSH1 0xA0 SHL SUB DUP1 DUP6 AND SWAP3 SWAP1 DUP8 AND SWAP2 PUSH32 0x51A69B4502F660774C9339825C7B5ADBF0B8622289134647E29728EC5D9B3BB9 SWAP2 ADD PUSH1 0x40 MLOAD DUP1 SWAP2 SUB SWAP1 LOG3 POP PUSH1 0x1 SWAP4 SWAP3 POP POP POP JUMP JUMPDEST PUSH2 0xBD0 PUSH2 0x3AAB JUMP JUMPDEST PUSH2 0xBDC DUP5 DUP5 DUP5 DUP5 PUSH2 0x3B05 JUMP JUMPDEST POP POP POP POP JUMP JUMPDEST ORIGIN PUSH1 0x0 DUP2 DUP2 MSTORE PUSH1 0xB PUSH1 0x20 SWAP1 DUP2 MSTORE PUSH1 0x40 DUP1 DUP4 KECCAK256 PUSH1 0x1 PUSH1 0x1 PUSH1 0xA0 SHL SUB DUP7 AND DUP5 MSTORE DUP3 MSTORE DUP1 DUP4 KECCAK256 PUSH1 0xA SWAP1 SWAP3 MSTORE DUP3 KECCAK256 SLOAD SWAP2 SWAP3 SWAP2 DUP4 SWAP1 PUSH1 0x1 PUSH1 0xA0 SHL SWAP1 DIV PUSH1 0xFF AND PUSH1 0x4 DUP2 GT ISZERO PUSH2 0xC2D JUMPI PUSH2 0xC2D PUSH2 0x4914 JUMP JUMPDEST SUB PUSH2 0xC70 JUMPI PUSH1 0x40 MLOAD PUSH3 0x461BCD PUSH1 0xE5 SHL DUP2 MSTORE PUSH1 0x20 PUSH1 0x4 DUP3 ADD MSTORE PUSH1 0x13 PUSH1 0x24 DUP3 ADD MSTORE PUSH19 0x1D985B1A59185D1BDC881B9BDD08195E1A5CDD PUSH1 0x6A SHL PUSH1 0x44 DUP3 ADD MSTORE PUSH1 0x64 ADD PUSH2 0xA1D JUMP JUMPDEST DUP1 PUSH1 0x1 ADD SLOAD PUSH1 0x0 SUB PUSH2 0xCC4 JUMPI PUSH1 0x40 MLOAD PUSH3 0x461BCD PUSH1 0xE5 SHL DUP2 MSTORE PUSH1 0x20 PUSH1 0x4 DUP3 ADD MSTORE PUSH1 0x19 PUSH1 0x24 DUP3 ADD MSTORE PUSH32 0x596F75206861766520746F20756E7374616B6520666972737400000000000000 PUSH1 0x44 DUP3 ADD MSTORE PUSH1 0x64 ADD PUSH2 0xA1D JUMP JUMPDEST PUSH1 0x1 DUP2 ADD SLOAD NUMBER SWAP1 PUSH2 0xCD9 SWAP1 PUSH3 0x15180 SWAP1 PUSH2 0x4EDE JUMP JUMPDEST GT ISZERO PUSH2 0xD31 JUMPI PUSH1 0x40 MLOAD PUSH3 0x461BCD PUSH1 0xE5 SHL DUP2 MSTORE PUSH1 0x20 PUSH1 0x4 DUP3 ADD MSTORE PUSH1 0x21 PUSH1 0x24 DUP3 ADD MSTORE PUSH32 0x596F7572207374616B696E6720686176656E277420756E6C6F636B6564207965 PUSH1 0x44 DUP3 ADD MSTORE PUSH1 0x1D PUSH1 0xFA SHL PUSH1 0x64 DUP3 ADD MSTORE PUSH1 0x84 ADD PUSH2 0xA1D JUMP JUMPDEST DUP1 SLOAD PUSH2 0xD7A JUMPI PUSH1 0x40 MLOAD PUSH3 0x461BCD PUSH1 0xE5 SHL DUP2 MSTORE PUSH1 0x20 PUSH1 0x4 DUP3 ADD MSTORE PUSH1 0x18 PUSH1 0x24 DUP3 ADD MSTORE PUSH24 0x596F7520646F6E2774206861766520616E79207374616B65 PUSH1 0x40 SHL PUSH1 0x44 DUP3 ADD MSTORE PUSH1 0x64 ADD PUSH2 0xA1D JUMP JUMPDEST DUP1 SLOAD PUSH1 0x0 DUP1 DUP4 SSTORE PUSH1 0x1 DUP4 ADD DUP2 SWAP1 SSTORE PUSH1 0x40 MLOAD PUSH1 0x1 PUSH1 0x1 PUSH1 0xA0 SHL SUB DUP6 AND SWAP2 DUP4 ISZERO PUSH2 0x8FC MUL SWAP2 DUP5 SWAP2 DUP2 DUP2 DUP2 DUP6 DUP9 DUP9 CALL SWAP4 POP POP POP POP ISZERO DUP1 ISZERO PUSH2 0xDBC JUMPI RETURNDATASIZE PUSH1 0x0 DUP1 RETURNDATACOPY RETURNDATASIZE PUSH1 0x0 REVERT JUMPDEST POP PUSH1 0x40 DUP1 MLOAD DUP3 DUP2 MSTORE TIMESTAMP PUSH1 0x20 DUP3 ADD MSTORE PUSH1 0x1 PUSH1 0x1 PUSH1 0xA0 SHL SUB DUP1 DUP9 AND SWAP3 SWAP1 DUP7 AND SWAP2 PUSH32 0xA70CD94070CD852339A76B32CF2D95A3C8F2A322269163D276071C1C14955619 SWAP2 ADD JUMPDEST PUSH1 0x40 MLOAD DUP1 SWAP2 SUB SWAP1 LOG3 POP PUSH1 0x1 SWAP5 SWAP4 POP POP POP POP JUMP JUMPDEST PUSH1 0x0 DUP1 SLOAD PUSH1 0xFF AND PUSH2 0xE34 JUMPI PUSH1 0x40 MLOAD PUSH3 0x461BCD PUSH1 0xE5 SHL DUP2 MSTORE PUSH1 0x4 ADD PUSH2 0xA1D SWAP1 PUSH2 0x4EF1 JUMP JUMPDEST ORIGIN CALLVALUE PUSH1 0x1 PUSH1 0x1 PUSH1 0x1 PUSH1 0xA0 SHL SUB DUP6 AND PUSH1 0x0 SWAP1 DUP2 MSTORE PUSH1 0xA PUSH1 0x20 MSTORE PUSH1 0x40 SWAP1 KECCAK256 SLOAD PUSH1 0x1 PUSH1 0xA0 SHL SWAP1 DIV PUSH1 0xFF AND PUSH1 0x4 DUP2 GT ISZERO PUSH2 0xE6C JUMPI PUSH2 0xE6C PUSH2 0x4914 JUMP JUMPDEST EQ DUP1 PUSH2 0xEAB JUMPI POP PUSH1 0x2 PUSH1 0x1 PUSH1 0x1 PUSH1 0xA0 SHL SUB DUP6 AND PUSH1 0x0 SWAP1 DUP2 MSTORE PUSH1 0xA PUSH1 0x20 MSTORE PUSH1 0x40 SWAP1 KECCAK256 SLOAD PUSH1 0x1 PUSH1 0xA0 SHL SWAP1 DIV PUSH1 0xFF AND PUSH1 0x4 DUP2 GT ISZERO PUSH2 0xEA9 JUMPI PUSH2 0xEA9 PUSH2 0x4914 JUMP JUMPDEST EQ JUMPDEST PUSH2 0xF0D JUMPI PUSH1 0x40 MLOAD PUSH3 0x461BCD PUSH1 0xE5 SHL DUP2 MSTORE PUSH1 0x20 PUSH1 0x4 DUP3 ADD MSTORE PUSH1 0x2D PUSH1 0x24 DUP3 ADD MSTORE PUSH32 0x43616E2774207374616B6520746F20612076616C696461746F7220696E206162 PUSH1 0x44 DUP3 ADD MSTORE PUSH13 0x6E6F726D616C20737461747573 PUSH1 0x98 SHL PUSH1 0x64 DUP3 ADD MSTORE PUSH1 0x84 ADD PUSH2 0xA1D JUMP JUMPDEST PUSH1 0x1 PUSH1 0x1 PUSH1 0xA0 SHL SUB DUP1 DUP4 AND PUSH1 0x0 SWAP1 DUP2 MSTORE PUSH1 0xB PUSH1 0x20 SWAP1 DUP2 MSTORE PUSH1 0x40 DUP1 DUP4 KECCAK256 SWAP4 DUP9 AND DUP4 MSTORE SWAP3 SWAP1 MSTORE KECCAK256 PUSH1 0x1 ADD SLOAD ISZERO PUSH2 0xF8E JUMPI PUSH1 0x40 MLOAD PUSH3 0x461BCD PUSH1 0xE5 SHL DUP2 MSTORE PUSH1 0x20 PUSH1 0x4 DUP3 ADD MSTORE PUSH1 0x22 PUSH1 0x24 DUP3 ADD MSTORE PUSH32 0x43616E2774207374616B65207768656E20796F752061726520756E7374616B69 PUSH1 0x44 DUP3 ADD MSTORE PUSH2 0x6E67 PUSH1 0xF0 SHL PUSH1 0x64 DUP3 ADD MSTORE PUSH1 0x84 ADD PUSH2 0xA1D JUMP JUMPDEST PUSH1 0x1 PUSH1 0x1 PUSH1 0xA0 SHL SUB DUP1 DUP6 AND PUSH1 0x0 DUP2 DUP2 MSTORE PUSH1 0xA PUSH1 0x20 MSTORE PUSH1 0x40 SWAP1 KECCAK256 SWAP2 DUP5 AND SUB PUSH2 0x1010 JUMPI PUSH1 0x1 SLOAD DUP3 DUP3 PUSH1 0x1 ADD SLOAD PUSH2 0xFC2 SWAP2 SWAP1 PUSH2 0x4EDE JUMP JUMPDEST LT ISZERO PUSH2 0x100B JUMPI PUSH1 0x40 MLOAD PUSH3 0x461BCD PUSH1 0xE5 SHL DUP2 MSTORE PUSH1 0x20 PUSH1 0x4 DUP3 ADD MSTORE PUSH1 0x18 PUSH1 0x24 DUP3 ADD MSTORE PUSH24 0xA6E8C2D6D2DCCE40C6DED2DCE640DCDEE840CADCDEEACED PUSH1 0x43 SHL PUSH1 0x44 DUP3 ADD MSTORE PUSH1 0x64 ADD PUSH2 0xA1D JUMP JUMPDEST PUSH2 0x105D JUMP JUMPDEST PUSH1 0x1 SLOAD DUP3 LT ISZERO PUSH2 0x105D JUMPI PUSH1 0x40 MLOAD PUSH3 0x461BCD PUSH1 0xE5 SHL DUP2 MSTORE PUSH1 0x20 PUSH1 0x4 DUP3 ADD MSTORE PUSH1 0x18 PUSH1 0x24 DUP3 ADD MSTORE PUSH24 0xA6E8C2D6D2DCCE40C6DED2DCE640DCDEE840CADCDEEACED PUSH1 0x43 SHL PUSH1 0x44 DUP3 ADD MSTORE PUSH1 0x64 ADD PUSH2 0xA1D JUMP JUMPDEST PUSH1 0x1 PUSH1 0x1 PUSH1 0xA0 SHL SUB DUP1 DUP5 AND PUSH1 0x0 SWAP1 DUP2 MSTORE PUSH1 0xB PUSH1 0x20 SWAP1 DUP2 MSTORE PUSH1 0x40 DUP1 DUP4 KECCAK256 SWAP4 DUP10 AND DUP4 MSTORE SWAP3 SWAP1 MSTORE SWAP1 DUP2 KECCAK256 SLOAD SWAP1 SUB PUSH2 0x1144 JUMPI PUSH1 0x9 DUP2 ADD DUP1 SLOAD PUSH1 0x1 PUSH1 0x1 PUSH1 0xA0 SHL SUB DUP1 DUP7 AND PUSH1 0x0 DUP2 DUP2 MSTORE PUSH1 0xB PUSH1 0x20 SWAP1 DUP2 MSTORE PUSH1 0x40 DUP1 DUP4 KECCAK256 SWAP5 DUP13 AND DUP1 DUP5 MSTORE SWAP5 DUP3 MSTORE DUP1 DUP4 KECCAK256 PUSH1 0x2 ADD DUP7 SWAP1 SSTORE PUSH1 0x1 DUP7 ADD DUP8 SSTORE SWAP6 DUP3 MSTORE DUP1 DUP3 KECCAK256 SWAP1 SWAP5 ADD DUP1 SLOAD PUSH1 0x1 PUSH1 0x1 PUSH1 0xA0 SHL SUB NOT AND SWAP1 SWAP3 OR SWAP1 SWAP2 SSTORE SWAP1 DUP2 MSTORE PUSH1 0x12 SWAP1 SWAP2 MSTORE SWAP1 DUP2 KECCAK256 SLOAD SWAP1 SUB PUSH2 0x110E JUMPI PUSH1 0x1 PUSH1 0x1 PUSH1 0xA0 SHL SUB DUP6 AND PUSH1 0x0 SWAP1 DUP2 MSTORE PUSH1 0x12 PUSH1 0x20 MSTORE PUSH1 0x40 SWAP1 KECCAK256 TIMESTAMP SWAP1 SSTORE JUMPDEST PUSH1 0x1 PUSH1 0x1 PUSH1 0xA0 SHL SUB DUP1 DUP7 AND PUSH1 0x0 DUP2 DUP2 MSTORE PUSH1 0x12 PUSH1 0x20 SWAP1 DUP2 MSTORE PUSH1 0x40 DUP1 DUP4 KECCAK256 SLOAD SWAP5 DUP9 AND DUP4 MSTORE PUSH1 0x11 DUP3 MSTORE DUP1 DUP4 KECCAK256 SWAP4 DUP4 MSTORE SWAP3 SWAP1 MSTORE KECCAK256 SSTORE PUSH2 0x114F JUMP JUMPDEST PUSH2 0x114D DUP6 PUSH2 0x1707 JUMP JUMPDEST POP JUMPDEST DUP2 DUP2 PUSH1 0x1 ADD SLOAD PUSH2 0x115F SWAP2 SWAP1 PUSH2 0x4EDE JUMP JUMPDEST PUSH1 0x1 DUP3 ADD SSTORE PUSH1 0x2 DUP2 SLOAD PUSH1 0x1 PUSH1 0xA0 SHL SWAP1 DIV PUSH1 0xFF AND PUSH1 0x4 DUP2 GT ISZERO PUSH2 0x1183 JUMPI PUSH2 0x1183 PUSH2 0x4914 JUMP JUMPDEST EQ PUSH2 0x119A JUMPI DUP1 SLOAD PUSH1 0xFF PUSH1 0xA0 SHL NOT AND PUSH1 0x1 PUSH1 0xA1 SHL OR DUP2 SSTORE JUMPDEST PUSH2 0x11A8 DUP6 DUP3 PUSH1 0x1 ADD SLOAD PUSH2 0x3BB1 JUMP JUMPDEST PUSH1 0x1 PUSH1 0x1 PUSH1 0xA0 SHL SUB DUP1 DUP5 AND PUSH1 0x0 SWAP1 DUP2 MSTORE PUSH1 0xB PUSH1 0x20 SWAP1 DUP2 MSTORE PUSH1 0x40 DUP1 DUP4 KECCAK256 SWAP4 DUP10 AND DUP4 MSTORE SWAP3 SWAP1 MSTORE KECCAK256 SLOAD PUSH2 0x11D9 SWAP1 DUP4 SWAP1 PUSH2 0x4EDE JUMP JUMPDEST PUSH1 0x1 PUSH1 0x1 PUSH1 0xA0 SHL SUB DUP1 DUP6 AND PUSH1 0x0 SWAP1 DUP2 MSTORE PUSH1 0xB PUSH1 0x20 SWAP1 DUP2 MSTORE PUSH1 0x40 DUP1 DUP4 KECCAK256 SWAP4 DUP11 AND DUP4 MSTORE SWAP3 SWAP1 MSTORE KECCAK256 SSTORE PUSH1 0xE SLOAD PUSH2 0x120D SWAP1 DUP4 SWAP1 PUSH2 0x4EDE JUMP JUMPDEST PUSH1 0xE SSTORE PUSH1 0x40 DUP1 MLOAD DUP4 DUP2 MSTORE TIMESTAMP PUSH1 0x20 DUP3 ADD MSTORE PUSH1 0x1 PUSH1 0x1 PUSH1 0xA0 SHL SUB DUP1 DUP9 AND SWAP3 SWAP1 DUP7 AND SWAP2 PUSH32 0xB9BA725934532316CFFE10975DA6EB25AD49C2D1C294D982C46C9F8D684EE075 SWAP2 ADD PUSH2 0xDFE JUMP JUMPDEST SWAP2 SWAP1 POP JUMP JUMPDEST PUSH1 0x1 PUSH1 0x1 PUSH1 0xA0 SHL SUB DUP1 DUP4 AND PUSH1 0x0 SWAP1 DUP2 MSTORE PUSH1 0x11 PUSH1 0x20 SWAP1 DUP2 MSTORE PUSH1 0x40 DUP1 DUP4 KECCAK256 SWAP4 DUP6 AND DUP4 MSTORE SWAP3 SWAP1 MSTORE SWAP1 DUP2 KECCAK256 SLOAD ISZERO PUSH2 0x1360 JUMPI PUSH1 0x1 PUSH1 0x1 PUSH1 0xA0 SHL SUB DUP1 DUP4 AND PUSH1 0x0 DUP2 DUP2 MSTORE PUSH1 0x13 PUSH1 0x20 SWAP1 DUP2 MSTORE PUSH1 0x40 DUP1 DUP4 KECCAK256 SWAP5 DUP9 AND DUP4 MSTORE PUSH1 0x11 DUP3 MSTORE DUP1 DUP4 KECCAK256 DUP5 DUP5 MSTORE DUP3 MSTORE DUP1 DUP4 KECCAK256 SLOAD DUP4 MSTORE DUP5 DUP3 MSTORE DUP1 DUP4 KECCAK256 SLOAD SWAP4 DUP4 MSTORE PUSH1 0x12 DUP3 MSTORE DUP1 DUP4 KECCAK256 SLOAD DUP4 MSTORE SWAP4 SWAP1 MSTORE SWAP2 DUP3 KECCAK256 SLOAD PUSH2 0x12DF SWAP2 SWAP1 PUSH2 0x4F17 JUMP JUMPDEST SWAP1 POP DUP1 ISZERO PUSH2 0x135E JUMPI PUSH1 0x1 PUSH1 0x1 PUSH1 0xA0 SHL SUB DUP1 DUP6 AND PUSH1 0x0 SWAP1 DUP2 MSTORE PUSH1 0xB PUSH1 0x20 SWAP1 DUP2 MSTORE PUSH1 0x40 DUP1 DUP4 KECCAK256 SWAP4 DUP8 AND DUP4 MSTORE SWAP3 DUP2 MSTORE SWAP1 DUP3 SWAP1 KECCAK256 DUP3 MLOAD PUSH1 0x60 DUP2 ADD DUP5 MSTORE DUP2 SLOAD DUP1 DUP3 MSTORE PUSH1 0x1 DUP4 ADD SLOAD SWAP4 DUP3 ADD SWAP4 SWAP1 SWAP4 MSTORE PUSH1 0x2 SWAP1 SWAP2 ADD SLOAD SWAP3 DUP2 ADD SWAP3 SWAP1 SWAP3 MSTORE PUSH9 0x56BC75E2D63100000 SWAP1 PUSH2 0x134B SWAP1 DUP5 SWAP1 PUSH2 0x4F2A JUMP JUMPDEST PUSH2 0x1355 SWAP2 SWAP1 PUSH2 0x4F57 JUMP JUMPDEST SWAP3 POP POP POP PUSH2 0x1364 JUMP JUMPDEST POP JUMPDEST POP PUSH1 0x0 JUMPDEST SWAP3 SWAP2 POP POP JUMP JUMPDEST PUSH1 0x0 DUP1 JUMPDEST PUSH1 0xC SLOAD DUP2 LT ISZERO PUSH2 0x1360 JUMPI DUP3 PUSH1 0x1 PUSH1 0x1 PUSH1 0xA0 SHL SUB AND PUSH1 0xC DUP3 DUP2 SLOAD DUP2 LT PUSH2 0x1395 JUMPI PUSH2 0x1395 PUSH2 0x4F6B JUMP JUMPDEST PUSH1 0x0 SWAP2 DUP3 MSTORE PUSH1 0x20 SWAP1 SWAP2 KECCAK256 ADD SLOAD PUSH1 0x1 PUSH1 0x1 PUSH1 0xA0 SHL SUB AND SUB PUSH2 0x13B8 JUMPI POP PUSH1 0x1 SWAP3 SWAP2 POP POP JUMP JUMPDEST DUP1 PUSH2 0x13C2 DUP2 PUSH2 0x4F81 JUMP JUMPDEST SWAP2 POP POP PUSH2 0x136E JUMP JUMPDEST CALLER PUSH2 0xF001 EQ PUSH2 0x1412 JUMPI PUSH1 0x40 MLOAD PUSH3 0x461BCD PUSH1 0xE5 SHL DUP2 MSTORE PUSH1 0x20 PUSH1 0x4 DUP3 ADD MSTORE PUSH1 0x14 PUSH1 0x24 DUP3 ADD MSTORE PUSH20 0x50756E69736820636F6E7472616374206F6E6C79 PUSH1 0x60 SHL PUSH1 0x44 DUP3 ADD MSTORE PUSH1 0x64 ADD PUSH2 0xA1D JUMP JUMPDEST PUSH1 0x1 PUSH1 0x1 PUSH1 0xA0 SHL SUB DUP2 AND PUSH1 0x0 SWAP1 DUP2 MSTORE PUSH1 0xA PUSH1 0x20 MSTORE PUSH1 0x40 SWAP1 KECCAK256 PUSH1 0x7 ADD SLOAD PUSH2 0x1437 DUP3 PUSH2 0x3E85 JUMP JUMPDEST PUSH1 0xD SLOAD PUSH1 0x1 LT ISZERO PUSH2 0x1490 JUMPI PUSH2 0x144B DUP3 PUSH2 0x3F9D JUMP JUMPDEST PUSH1 0x40 DUP1 MLOAD DUP3 DUP2 MSTORE TIMESTAMP PUSH1 0x20 DUP3 ADD MSTORE PUSH1 0x1 PUSH1 0x1 PUSH1 0xA0 SHL SUB DUP5 AND SWAP2 PUSH32 0xA26DE7AB324EAC08C596549F421E5C8741213D237D2E9A2C9C0EBDE0A7A849FE SWAP2 ADD JUMPDEST PUSH1 0x40 MLOAD DUP1 SWAP2 SUB SWAP1 LOG2 JUMPDEST POP POP JUMP JUMPDEST PUSH1 0xD DUP2 DUP2 SLOAD DUP2 LT PUSH2 0x14A4 JUMPI PUSH1 0x0 DUP1 REVERT JUMPDEST PUSH1 0x0 SWAP2 DUP3 MSTORE PUSH1 0x20 SWAP1 SWAP2 KECCAK256 ADD SLOAD PUSH1 0x1 PUSH1 0x1 PUSH1 0xA0 SHL SUB AND SWAP1 POP DUP2 JUMP JUMPDEST CALLER PUSH2 0xF001 EQ PUSH2 0x1506 JUMPI PUSH1 0x40 MLOAD PUSH3 0x461BCD PUSH1 0xE5 SHL DUP2 MSTORE PUSH1 0x20 PUSH1 0x4 DUP3 ADD MSTORE PUSH1 0x14 PUSH1 0x24 DUP3 ADD MSTORE PUSH20 0x50756E69736820636F6E7472616374206F6E6C79 PUSH1 0x60 SHL PUSH1 0x44 DUP3 ADD MSTORE PUSH1 0x64 ADD PUSH2 0xA1D JUMP JUMPDEST PUSH2 0x150F DUP2 PUSH2 0x3E85 JUMP JUMPDEST POP JUMP JUMPDEST CALLER COINBASE EQ PUSH2 0x154E JUMPI PUSH1 0x40 MLOAD PUSH3 0x461BCD PUSH1 0xE5 SHL DUP2 MSTORE PUSH1 0x20 PUSH1 0x4 DUP3 ADD MSTORE PUSH1 0xA PUSH1 0x24 DUP3 ADD MSTORE PUSH10 0x4D696E6572206F6E6C79 PUSH1 0xB0 SHL PUSH1 0x44 DUP3 ADD MSTORE PUSH1 0x64 ADD PUSH2 0xA1D JUMP JUMPDEST NUMBER PUSH1 0x0 SWAP1 DUP2 MSTORE PUSH1 0x15 PUSH1 0x20 SWAP1 DUP2 MSTORE PUSH1 0x40 DUP1 DUP4 KECCAK256 PUSH1 0x1 DUP5 MSTORE SWAP1 SWAP2 MSTORE SWAP1 KECCAK256 SLOAD PUSH1 0xFF AND ISZERO PUSH2 0x15BA JUMPI PUSH1 0x40 MLOAD PUSH3 0x461BCD PUSH1 0xE5 SHL DUP2 MSTORE PUSH1 0x20 PUSH1 0x4 DUP3 ADD MSTORE PUSH1 0x1A PUSH1 0x24 DUP3 ADD MSTORE PUSH32 0x56616C696461746F727320616C72656164792075706461746564000000000000 PUSH1 0x44 DUP3 ADD MSTORE PUSH1 0x64 ADD PUSH2 0xA1D JUMP JUMPDEST PUSH1 0x0 SLOAD PUSH1 0xFF AND PUSH2 0x15DC JUMPI PUSH1 0x40 MLOAD PUSH3 0x461BCD PUSH1 0xE5 SHL DUP2 MSTORE PUSH1 0x4 ADD PUSH2 0xA1D SWAP1 PUSH2 0x4EF1 JUMP JUMPDEST DUP1 PUSH2 0x15E7 DUP2 NUMBER PUSH2 0x4F9A JUMP JUMPDEST ISZERO PUSH2 0x1627 JUMPI PUSH1 0x40 MLOAD PUSH3 0x461BCD PUSH1 0xE5 SHL DUP2 MSTORE PUSH1 0x20 PUSH1 0x4 DUP3 ADD MSTORE PUSH1 0x10 PUSH1 0x24 DUP3 ADD MSTORE PUSH16 0x426C6F636B2065706F6368206F6E6C79 PUSH1 0x80 SHL PUSH1 0x44 DUP3 ADD MSTORE PUSH1 0x64 ADD PUSH2 0xA1D JUMP JUMPDEST NUMBER PUSH1 0x0 SWAP1 DUP2 MSTORE PUSH1 0x15 PUSH1 0x20 SWAP1 DUP2 MSTORE PUSH1 0x40 DUP1 DUP4 KECCAK256 PUSH1 0x1 DUP1 DUP6 MSTORE SWAP3 MSTORE SWAP1 SWAP2 KECCAK256 DUP1 SLOAD PUSH1 0xFF NOT AND SWAP1 SWAP2 OR SWAP1 SSTORE DUP3 MLOAD PUSH2 0x1693 JUMPI PUSH1 0x40 MLOAD PUSH3 0x461BCD PUSH1 0xE5 SHL DUP2 MSTORE PUSH1 0x20 PUSH1 0x4 DUP3 ADD MSTORE PUSH1 0x14 PUSH1 0x24 DUP3 ADD MSTORE PUSH20 0x56616C696461746F722073657420656D70747921 PUSH1 0x60 SHL PUSH1 0x44 DUP3 ADD MSTORE PUSH1 0x64 ADD PUSH2 0xA1D JUMP JUMPDEST DUP3 MLOAD PUSH2 0x16A6 SWAP1 PUSH1 0xC SWAP1 PUSH1 0x20 DUP7 ADD SWAP1 PUSH2 0x46AC JUMP JUMPDEST POP PUSH32 0xEACEA8F3C22F06C0B18306BDB04D0A967255129E8CE0094DEBB0A0FF89D006B5 DUP4 PUSH1 0x40 MLOAD PUSH2 0x16D6 SWAP2 SWAP1 PUSH2 0x49FE JUMP JUMPDEST PUSH1 0x40 MLOAD DUP1 SWAP2 SUB SWAP1 LOG1 POP POP POP JUMP JUMPDEST PUSH1 0xC DUP2 DUP2 SLOAD DUP2 LT PUSH2 0x14A4 JUMPI PUSH1 0x0 DUP1 REVERT JUMPDEST PUSH2 0x16FB PUSH2 0x3AAB JUMP JUMPDEST PUSH2 0x1705 PUSH1 0x0 PUSH2 0x400D JUMP JUMPDEST JUMP JUMPDEST ORIGIN PUSH1 0x0 SWAP1 DUP2 MSTORE PUSH1 0x11 PUSH1 0x20 SWAP1 DUP2 MSTORE PUSH1 0x40 DUP1 DUP4 KECCAK256 PUSH1 0x1 PUSH1 0x1 PUSH1 0xA0 SHL SUB DUP6 AND DUP5 MSTORE SWAP1 SWAP2 MSTORE DUP2 KECCAK256 SLOAD PUSH2 0x1768 JUMPI PUSH1 0x40 MLOAD PUSH3 0x461BCD PUSH1 0xE5 SHL DUP2 MSTORE PUSH1 0x20 PUSH1 0x4 DUP3 ADD MSTORE PUSH1 0xE PUSH1 0x24 DUP3 ADD MSTORE PUSH14 0x1B9BDD1A1A5B99C81CDD185AD959 PUSH1 0x92 SHL PUSH1 0x44 DUP3 ADD MSTORE PUSH1 0x64 ADD PUSH2 0xA1D JUMP JUMPDEST ORIGIN PUSH1 0x0 DUP2 DUP2 MSTORE PUSH1 0xB PUSH1 0x20 SWAP1 DUP2 MSTORE PUSH1 0x40 DUP1 DUP4 KECCAK256 PUSH1 0x1 PUSH1 0x1 PUSH1 0xA0 SHL SUB DUP8 AND DUP1 DUP6 MSTORE SWAP1 DUP4 MSTORE DUP2 DUP5 KECCAK256 PUSH1 0x13 DUP5 MSTORE DUP3 DUP6 KECCAK256 SWAP6 DUP6 MSTORE PUSH1 0x11 DUP5 MSTORE DUP3 DUP6 KECCAK256 DUP3 DUP7 MSTORE DUP5 MSTORE DUP3 DUP6 KECCAK256 SLOAD DUP6 MSTORE DUP6 DUP5 MSTORE DUP3 DUP6 KECCAK256 SLOAD SWAP2 DUP6 MSTORE PUSH1 0x12 DUP5 MSTORE DUP3 DUP6 KECCAK256 SLOAD DUP6 MSTORE SWAP5 SWAP1 SWAP3 MSTORE DUP3 KECCAK256 SLOAD PUSH2 0x17CE SWAP2 SWAP1 PUSH2 0x4F17 JUMP JUMPDEST SWAP1 POP DUP1 ISZERO PUSH2 0x18AD JUMPI PUSH1 0x1 PUSH1 0x1 PUSH1 0xA0 SHL SUB DUP5 AND PUSH1 0x0 DUP2 DUP2 MSTORE PUSH1 0x12 PUSH1 0x20 SWAP1 DUP2 MSTORE PUSH1 0x40 DUP1 DUP4 KECCAK256 SLOAD ORIGIN DUP5 MSTORE PUSH1 0x11 DUP4 MSTORE DUP2 DUP5 KECCAK256 SWAP5 DUP5 MSTORE SWAP4 SWAP1 SWAP2 MSTORE DUP2 KECCAK256 SWAP2 SWAP1 SWAP2 SSTORE DUP3 SLOAD PUSH9 0x56BC75E2D63100000 SWAP1 PUSH2 0x1821 SWAP1 DUP5 SWAP1 PUSH2 0x4F2A JUMP JUMPDEST PUSH2 0x182B SWAP2 SWAP1 PUSH2 0x4F57 JUMP JUMPDEST PUSH1 0x40 MLOAD SWAP1 SWAP2 POP ORIGIN SWAP1 DUP3 ISZERO PUSH2 0x8FC MUL SWAP1 DUP4 SWAP1 PUSH1 0x0 DUP2 DUP2 DUP2 DUP6 DUP9 DUP9 CALL SWAP4 POP POP POP POP ISZERO DUP1 ISZERO PUSH2 0x185B JUMPI RETURNDATASIZE PUSH1 0x0 DUP1 RETURNDATACOPY RETURNDATASIZE PUSH1 0x0 REVERT JUMPDEST POP PUSH1 0x40 DUP1 MLOAD ORIGIN DUP2 MSTORE PUSH1 0x1 PUSH1 0x1 PUSH1 0xA0 SHL SUB DUP8 AND PUSH1 0x20 DUP3 ADD MSTORE SWAP1 DUP2 ADD DUP3 SWAP1 MSTORE TIMESTAMP PUSH1 0x60 DUP3 ADD MSTORE PUSH32 0x7DAF1212D032F2F66DB6DBB919BBD591BE3D954B5B6EE491709CBB5FBE4F5170 SWAP1 PUSH1 0x80 ADD PUSH1 0x40 MLOAD DUP1 SWAP2 SUB SWAP1 LOG1 POP JUMPDEST POP PUSH1 0x1 SWAP4 SWAP3 POP POP POP JUMP JUMPDEST PUSH1 0x0 CALLER PUSH2 0xF002 EQ PUSH2 0x1903 JUMPI PUSH1 0x40 MLOAD PUSH3 0x461BCD PUSH1 0xE5 SHL DUP2 MSTORE PUSH1 0x20 PUSH1 0x4 DUP3 ADD MSTORE PUSH1 0x16 PUSH1 0x24 DUP3 ADD MSTORE PUSH22 0x50726F706F73616C20636F6E7472616374206F6E6C79 PUSH1 0x50 SHL PUSH1 0x44 DUP3 ADD MSTORE PUSH1 0x64 ADD PUSH2 0xA1D JUMP JUMPDEST PUSH1 0x0 SLOAD PUSH1 0xFF AND PUSH2 0x1925 JUMPI PUSH1 0x40 MLOAD PUSH3 0x461BCD PUSH1 0xE5 SHL DUP2 MSTORE PUSH1 0x4 ADD PUSH2 0xA1D SWAP1 PUSH2 0x4EF1 JUMP JUMPDEST PUSH1 0x3 PUSH1 0x1 PUSH1 0x1 PUSH1 0xA0 SHL SUB DUP4 AND PUSH1 0x0 SWAP1 DUP2 MSTORE PUSH1 0xA PUSH1 0x20 MSTORE PUSH1 0x40 SWAP1 KECCAK256 SLOAD PUSH1 0x1 PUSH1 0xA0 SHL SWAP1 DIV PUSH1 0xFF AND PUSH1 0x4 DUP2 GT ISZERO PUSH2 0x195B JUMPI PUSH2 0x195B PUSH2 0x4914 JUMP JUMPDEST EQ ISZERO DUP1 ISZERO PUSH2 0x199D JUMPI POP PUSH1 0x4 PUSH1 0x1 PUSH1 0x1 PUSH1 0xA0 SHL SUB DUP4 AND PUSH1 0x0 SWAP1 DUP2 MSTORE PUSH1 0xA PUSH1 0x20 MSTORE PUSH1 0x40 SWAP1 KECCAK256 SLOAD PUSH1 0x1 PUSH1 0xA0 SHL SWAP1 DIV PUSH1 0xFF AND PUSH1 0x4 DUP2 GT ISZERO PUSH2 0x199A JUMPI PUSH2 0x199A PUSH2 0x4914 JUMP JUMPDEST EQ ISZERO JUMPDEST ISZERO PUSH2 0x19AA JUMPI POP PUSH1 0x1 SWAP2 SWAP1 POP JUMP JUMPDEST PUSH1 0x4 PUSH1 0x1 PUSH1 0x1 PUSH1 0xA0 SHL SUB DUP4 AND PUSH1 0x0 SWAP1 DUP2 MSTORE PUSH1 0xA PUSH1 0x20 MSTORE PUSH1 0x40 SWAP1 KECCAK256 SLOAD PUSH1 0x1 PUSH1 0xA0 SHL SWAP1 DIV PUSH1 0xFF AND PUSH1 0x4 DUP2 GT ISZERO PUSH2 0x19E0 JUMPI PUSH2 0x19E0 PUSH2 0x4914 JUMP JUMPDEST SUB PUSH2 0x1A90 JUMPI PUSH1 0x14 SLOAD PUSH1 0x40 MLOAD PUSH4 0x63E1D451 PUSH1 0xE0 SHL DUP2 MSTORE PUSH1 0x1 PUSH1 0x1 PUSH1 0xA0 SHL SUB DUP5 DUP2 AND PUSH1 0x4 DUP4 ADD MSTORE SWAP1 SWAP2 AND SWAP1 PUSH4 0x63E1D451 SWAP1 PUSH1 0x24 ADD PUSH1 0x20 PUSH1 0x40 MLOAD DUP1 DUP4 SUB DUP2 PUSH1 0x0 DUP8 GAS CALL ISZERO DUP1 ISZERO PUSH2 0x1A31 JUMPI RETURNDATASIZE PUSH1 0x0 DUP1 RETURNDATACOPY RETURNDATASIZE PUSH1 0x0 REVERT JUMPDEST POP POP POP POP PUSH1 0x40 MLOAD RETURNDATASIZE PUSH1 0x1F NOT PUSH1 0x1F DUP3 ADD AND DUP3 ADD DUP1 PUSH1 0x40 MSTORE POP DUP2 ADD SWAP1 PUSH2 0x1A55 SWAP2 SWAP1 PUSH2 0x4FAE JUMP JUMPDEST PUSH2 0x1A90 JUMPI PUSH1 0x40 MLOAD PUSH3 0x461BCD PUSH1 0xE5 SHL DUP2 MSTORE PUSH1 0x20 PUSH1 0x4 DUP3 ADD MSTORE PUSH1 0xC PUSH1 0x24 DUP3 ADD MSTORE PUSH12 0x18DB19585B8819985A5B1959 PUSH1 0xA2 SHL PUSH1 0x44 DUP3 ADD MSTORE PUSH1 0x64 ADD PUSH2 0xA1D JUMP JUMPDEST PUSH1 0x1 PUSH1 0x1 PUSH1 0xA0 SHL SUB DUP3 AND PUSH1 0x0 DUP2 DUP2 MSTORE PUSH1 0xA PUSH1 0x20 SWAP1 DUP2 MSTORE PUSH1 0x40 SWAP2 DUP3 SWAP1 KECCAK256 DUP1 SLOAD PUSH1 0xFF PUSH1 0xA0 SHL NOT AND PUSH1 0x1 PUSH1 0xA1 SHL OR SWAP1 SSTORE SWAP1 MLOAD TIMESTAMP DUP2 MSTORE PUSH32 0xD8B2C426EC1BE69CA7583D26B1E893946E3227430D3EBC3BD64D9E1C469CB400 SWAP2 ADD PUSH1 0x40 MLOAD DUP1 SWAP2 SUB SWAP1 LOG2 POP PUSH1 0x1 SWAP2 SWAP1 POP JUMP JUMPDEST PUSH1 0x1 PUSH1 0x1 PUSH1 0xA0 SHL SUB DUP2 DUP2 AND PUSH1 0x0 SWAP1 DUP2 MSTORE PUSH1 0xA PUSH1 0x20 SWAP1 DUP2 MSTORE PUSH1 0x40 DUP1 DUP4 KECCAK256 DUP2 MLOAD PUSH1 0xE0 DUP2 ADD SWAP1 SWAP3 MSTORE DUP1 SLOAD SWAP5 DUP6 AND DUP3 MSTORE SWAP3 SWAP4 DUP5 SWAP4 DUP5 SWAP4 DUP5 SWAP4 DUP5 SWAP4 PUSH1 0x60 SWAP4 DUP6 SWAP4 SWAP1 SWAP2 SWAP1 DUP4 ADD SWAP1 PUSH1 0x1 PUSH1 0xA0 SHL SWAP1 DIV PUSH1 0xFF AND PUSH1 0x4 DUP2 GT ISZERO PUSH2 0x1B51 JUMPI PUSH2 0x1B51 PUSH2 0x4914 JUMP JUMPDEST PUSH1 0x4 DUP2 GT ISZERO PUSH2 0x1B62 JUMPI PUSH2 0x1B62 PUSH2 0x4914 JUMP JUMPDEST DUP2 MSTORE PUSH1 0x20 ADD PUSH1 0x1 DUP3 ADD SLOAD DUP2 MSTORE PUSH1 0x20 ADD PUSH1 0x2 DUP3 ADD PUSH1 0x40 MLOAD DUP1 PUSH1 0xA0 ADD PUSH1 0x40 MSTORE SWAP1 DUP2 PUSH1 0x0 DUP3 ADD DUP1 SLOAD PUSH2 0x1B90 SWAP1 PUSH2 0x4FD0 JUMP JUMPDEST DUP1 PUSH1 0x1F ADD PUSH1 0x20 DUP1 SWAP2 DIV MUL PUSH1 0x20 ADD PUSH1 0x40 MLOAD SWAP1 DUP2 ADD PUSH1 0x40 MSTORE DUP1 SWAP3 SWAP2 SWAP1 DUP2 DUP2 MSTORE PUSH1 0x20 ADD DUP3 DUP1 SLOAD PUSH2 0x1BBC SWAP1 PUSH2 0x4FD0 JUMP JUMPDEST DUP1 ISZERO PUSH2 0x1C09 JUMPI DUP1 PUSH1 0x1F LT PUSH2 0x1BDE JUMPI PUSH2 0x100 DUP1 DUP4 SLOAD DIV MUL DUP4 MSTORE SWAP2 PUSH1 0x20 ADD SWAP2 PUSH2 0x1C09 JUMP JUMPDEST DUP3 ADD SWAP2 SWAP1 PUSH1 0x0 MSTORE PUSH1 0x20 PUSH1 0x0 KECCAK256 SWAP1 JUMPDEST DUP2 SLOAD DUP2 MSTORE SWAP1 PUSH1 0x1 ADD SWAP1 PUSH1 0x20 ADD DUP1 DUP4 GT PUSH2 0x1BEC JUMPI DUP3 SWAP1 SUB PUSH1 0x1F AND DUP3 ADD SWAP2 JUMPDEST POP POP POP POP POP DUP2 MSTORE PUSH1 0x20 ADD PUSH1 0x1 DUP3 ADD DUP1 SLOAD PUSH2 0x1C22 SWAP1 PUSH2 0x4FD0 JUMP JUMPDEST DUP1 PUSH1 0x1F ADD PUSH1 0x20 DUP1 SWAP2 DIV MUL PUSH1 0x20 ADD PUSH1 0x40 MLOAD SWAP1 DUP2 ADD PUSH1 0x40 MSTORE DUP1 SWAP3 SWAP2 SWAP1 DUP2 DUP2 MSTORE PUSH1 0x20 ADD DUP3 DUP1 SLOAD PUSH2 0x1C4E SWAP1 PUSH2 0x4FD0 JUMP JUMPDEST DUP1 ISZERO PUSH2 0x1C9B JUMPI DUP1 PUSH1 0x1F LT PUSH2 0x1C70 JUMPI PUSH2 0x100 DUP1 DUP4 SLOAD DIV MUL DUP4 MSTORE SWAP2 PUSH1 0x20 ADD SWAP2 PUSH2 0x1C9B JUMP JUMPDEST DUP3 ADD SWAP2 SWAP1 PUSH1 0x0 MSTORE PUSH1 0x20 PUSH1 0x0 KECCAK256 SWAP1 JUMPDEST DUP2 SLOAD DUP2 MSTORE SWAP1 PUSH1 0x1 ADD SWAP1 PUSH1 0x20 ADD DUP1 DUP4 GT PUSH2 0x1C7E JUMPI DUP3 SWAP1 SUB PUSH1 0x1F AND DUP3 ADD SWAP2 JUMPDEST POP POP POP POP POP DUP2 MSTORE PUSH1 0x20 ADD PUSH1 0x2 DUP3 ADD DUP1 SLOAD PUSH2 0x1CB4 SWAP1 PUSH2 0x4FD0 JUMP JUMPDEST DUP1 PUSH1 0x1F ADD PUSH1 0x20 DUP1 SWAP2 DIV MUL PUSH1 0x20 ADD PUSH1 0x40 MLOAD SWAP1 DUP2 ADD PUSH1 0x40 MSTORE DUP1 SWAP3 SWAP2 SWAP1 DUP2 DUP2 MSTORE PUSH1 0x20 ADD DUP3 DUP1 SLOAD PUSH2 0x1CE0 SWAP1 PUSH2 0x4FD0 JUMP JUMPDEST DUP1 ISZERO PUSH2 0x1D2D JUMPI DUP1 PUSH1 0x1F LT PUSH2 0x1D02 JUMPI PUSH2 0x100 DUP1 DUP4 SLOAD DIV MUL DUP4 MSTORE SWAP2 PUSH1 0x20 ADD SWAP2 PUSH2 0x1D2D JUMP JUMPDEST DUP3 ADD SWAP2 SWAP1 PUSH1 0x0 MSTORE PUSH1 0x20 PUSH1 0x0 KECCAK256 SWAP1 JUMPDEST DUP2 SLOAD DUP2 MSTORE SWAP1 PUSH1 0x1 ADD SWAP1 PUSH1 0x20 ADD DUP1 DUP4 GT PUSH2 0x1D10 JUMPI DUP3 SWAP1 SUB PUSH1 0x1F AND DUP3 ADD SWAP2 JUMPDEST POP POP POP POP POP DUP2 MSTORE PUSH1 0x20 ADD PUSH1 0x3 DUP3 ADD DUP1 SLOAD PUSH2 0x1D46 SWAP1 PUSH2 0x4FD0 JUMP JUMPDEST DUP1 PUSH1 0x1F ADD PUSH1 0x20 DUP1 SWAP2 DIV MUL PUSH1 0x20 ADD PUSH1 0x40 MLOAD SWAP1 DUP2 ADD PUSH1 0x40 MSTORE DUP1 SWAP3 SWAP2 SWAP1 DUP2 DUP2 MSTORE PUSH1 0x20 ADD DUP3 DUP1 SLOAD PUSH2 0x1D72 SWAP1 PUSH2 0x4FD0 JUMP JUMPDEST DUP1 ISZERO PUSH2 0x1DBF JUMPI DUP1 PUSH1 0x1F LT PUSH2 0x1D94 JUMPI PUSH2 0x100 DUP1 DUP4 SLOAD DIV MUL DUP4 MSTORE SWAP2 PUSH1 0x20 ADD SWAP2 PUSH2 0x1DBF JUMP JUMPDEST DUP3 ADD SWAP2 SWAP1 PUSH1 0x0 MSTORE PUSH1 0x20 PUSH1 0x0 KECCAK256 SWAP1 JUMPDEST DUP2 SLOAD DUP2 MSTORE SWAP1 PUSH1 0x1 ADD SWAP1 PUSH1 0x20 ADD DUP1 DUP4 GT PUSH2 0x1DA2 JUMPI DUP3 SWAP1 SUB PUSH1 0x1F AND DUP3 ADD SWAP2 JUMPDEST POP POP POP POP POP DUP2 MSTORE PUSH1 0x20 ADD PUSH1 0x4 DUP3 ADD DUP1 SLOAD PUSH2 0x1DD8 SWAP1 PUSH2 0x4FD0 JUMP JUMPDEST DUP1 PUSH1 0x1F ADD PUSH1 0x20 DUP1 SWAP2 DIV MUL PUSH1 0x20 ADD PUSH1 0x40 MLOAD SWAP1 DUP2 ADD PUSH1 0x40 MSTORE DUP1 SWAP3 SWAP2 SWAP1 DUP2 DUP2 MSTORE PUSH1 0x20 ADD DUP3 DUP1 SLOAD PUSH2 0x1E04 SWAP1 PUSH2 0x4FD0 JUMP JUMPDEST DUP1 ISZERO PUSH2 0x1E51 JUMPI DUP1 PUSH1 0x1F LT PUSH2 0x1E26 JUMPI PUSH2 0x100 DUP1 DUP4 SLOAD DIV MUL DUP4 MSTORE SWAP2 PUSH1 0x20 ADD SWAP2 PUSH2 0x1E51 JUMP JUMPDEST DUP3 ADD SWAP2 SWAP1 PUSH1 0x0 MSTORE PUSH1 0x20 PUSH1 0x0 KECCAK256 SWAP1 JUMPDEST DUP2 SLOAD DUP2 MSTORE SWAP1 PUSH1 0x1 ADD SWAP1 PUSH1 0x20 ADD DUP1 DUP4 GT PUSH2 0x1E34 JUMPI DUP3 SWAP1 SUB PUSH1 0x1F AND DUP3 ADD SWAP2 JUMPDEST POP POP POP POP POP DUP2 MSTORE POP POP DUP2 MSTORE PUSH1 0x20 ADD PUSH1 0x7 DUP3 ADD SLOAD DUP2 MSTORE PUSH1 0x20 ADD PUSH1 0x8 DUP3 ADD SLOAD DUP2 MSTORE PUSH1 0x20 ADD PUSH1 0x9 DUP3 ADD DUP1 SLOAD DUP1 PUSH1 0x20 MUL PUSH1 0x20 ADD PUSH1 0x40 MLOAD SWAP1 DUP2 ADD PUSH1 0x40 MSTORE DUP1 SWAP3 SWAP2 SWAP1 DUP2 DUP2 MSTORE PUSH1 0x20 ADD DUP3 DUP1 SLOAD DUP1 ISZERO PUSH2 0x1ECB JUMPI PUSH1 0x20 MUL DUP3 ADD SWAP2 SWAP1 PUSH1 0x0 MSTORE PUSH1 0x20 PUSH1 0x0 KECCAK256 SWAP1 JUMPDEST DUP2 SLOAD PUSH1 0x1 PUSH1 0x1 PUSH1 0xA0 SHL SUB AND DUP2 MSTORE PUSH1 0x1 SWAP1 SWAP2 ADD SWAP1 PUSH1 0x20 ADD DUP1 DUP4 GT PUSH2 0x1EAD JUMPI JUMPDEST POP POP POP SWAP2 SWAP1 SWAP3 MSTORE POP POP DUP2 MLOAD PUSH1 0x20 DUP4 ADD MLOAD PUSH1 0x40 DUP5 ADD MLOAD PUSH1 0x80 DUP6 ADD MLOAD PUSH1 0xA0 DUP7 ADD MLOAD PUSH1 0xC0 SWAP1 SWAP7 ADD MLOAD SWAP4 SWAP15 SWAP3 SWAP14 POP SWAP1 SWAP12 POP SWAP10 POP SWAP3 SWAP8 POP SWAP6 POP SWAP1 SWAP4 POP POP POP POP JUMP JUMPDEST PUSH1 0x0 DUP1 JUMPDEST PUSH1 0xD SLOAD DUP2 LT ISZERO PUSH2 0x1360 JUMPI DUP3 PUSH1 0x1 PUSH1 0x1 PUSH1 0xA0 SHL SUB AND PUSH1 0xD DUP3 DUP2 SLOAD DUP2 LT PUSH2 0x1F32 JUMPI PUSH2 0x1F32 PUSH2 0x4F6B JUMP JUMPDEST PUSH1 0x0 SWAP2 DUP3 MSTORE PUSH1 0x20 SWAP1 SWAP2 KECCAK256 ADD SLOAD PUSH1 0x1 PUSH1 0x1 PUSH1 0xA0 SHL SUB AND SUB PUSH2 0x1F55 JUMPI POP PUSH1 0x1 SWAP3 SWAP2 POP POP JUMP JUMPDEST DUP1 PUSH2 0x1F5F DUP2 PUSH2 0x4F81 JUMP JUMPDEST SWAP2 POP POP PUSH2 0x1F0B JUMP JUMPDEST PUSH1 0x60 PUSH1 0xC DUP1 SLOAD DUP1 PUSH1 0x20 MUL PUSH1 0x20 ADD PUSH1 0x40 MLOAD SWAP1 DUP2 ADD PUSH1 0x40 MSTORE DUP1 SWAP3 SWAP2 SWAP1 DUP2 DUP2 MSTORE PUSH1 0x20 ADD DUP3 DUP1 SLOAD DUP1 ISZERO PUSH2 0x1FBF JUMPI PUSH1 0x20 MUL DUP3 ADD SWAP2 SWAP1 PUSH1 0x0 MSTORE PUSH1 0x20 PUSH1 0x0 KECCAK256 SWAP1 JUMPDEST DUP2 SLOAD PUSH1 0x1 PUSH1 0x1 PUSH1 0xA0 SHL SUB AND DUP2 MSTORE PUSH1 0x1 SWAP1 SWAP2 ADD SWAP1 PUSH1 0x20 ADD DUP1 DUP4 GT PUSH2 0x1FA1 JUMPI JUMPDEST POP POP POP POP POP SWAP1 POP SWAP1 JUMP JUMPDEST PUSH1 0x0 SLOAD PUSH1 0xFF AND ISZERO PUSH2 0x2012 JUMPI PUSH1 0x40 MLOAD PUSH3 0x461BCD PUSH1 0xE5 SHL DUP2 MSTORE PUSH1 0x20 PUSH1 0x4 DUP3 ADD MSTORE PUSH1 0x13 PUSH1 0x24 DUP3 ADD MSTORE PUSH19 0x105B1C9958591E481A5B9A5D1A585B1A5E9959 PUSH1 0x6A SHL PUSH1 0x44 DUP3 ADD MSTORE PUSH1 0x64 ADD PUSH2 0xA1D JUMP JUMPDEST PUSH1 0x14 DUP1 SLOAD PUSH1 0x1 PUSH1 0x1 PUSH1 0xA0 SHL SUB NOT AND PUSH2 0xF001 OR SWAP1 SSTORE PUSH2 0x2043 PUSH20 0x34ABFB62CA74ACB9DB3799C3F354FDDC69D3B479 PUSH2 0x400D JUMP JUMPDEST PUSH1 0x0 JUMPDEST DUP2 DUP2 LT ISZERO PUSH2 0x23DE JUMPI PUSH1 0x0 DUP4 DUP4 DUP4 DUP2 DUP2 LT PUSH2 0x2062 JUMPI PUSH2 0x2062 PUSH2 0x4F6B JUMP JUMPDEST SWAP1 POP PUSH1 0x20 MUL ADD PUSH1 0x20 DUP2 ADD SWAP1 PUSH2 0x2077 SWAP2 SWAP1 PUSH2 0x473B JUMP JUMPDEST PUSH1 0x1 PUSH1 0x1 PUSH1 0xA0 SHL SUB AND SUB PUSH2 0x20CD JUMPI PUSH1 0x40 MLOAD PUSH3 0x461BCD PUSH1 0xE5 SHL DUP2 MSTORE PUSH1 0x20 PUSH1 0x4 DUP3 ADD MSTORE PUSH1 0x19 PUSH1 0x24 DUP3 ADD MSTORE PUSH32 0x496E76616C69642076616C696461746F72206164647265737300000000000000 PUSH1 0x44 DUP3 ADD MSTORE PUSH1 0x64 ADD PUSH2 0xA1D JUMP JUMPDEST TIMESTAMP PUSH1 0x12 PUSH1 0x0 DUP6 DUP6 DUP6 DUP2 DUP2 LT PUSH2 0x20E4 JUMPI PUSH2 0x20E4 PUSH2 0x4F6B JUMP JUMPDEST SWAP1 POP PUSH1 0x20 MUL ADD PUSH1 0x20 DUP2 ADD SWAP1 PUSH2 0x20F9 SWAP2 SWAP1 PUSH2 0x473B JUMP JUMPDEST PUSH1 0x1 PUSH1 0x1 PUSH1 0xA0 SHL SUB AND DUP2 MSTORE PUSH1 0x20 DUP2 ADD SWAP2 SWAP1 SWAP2 MSTORE PUSH1 0x40 ADD PUSH1 0x0 KECCAK256 SSTORE PUSH2 0x213D DUP4 DUP4 DUP4 DUP2 DUP2 LT PUSH2 0x2128 JUMPI PUSH2 0x2128 PUSH2 0x4F6B JUMP JUMPDEST SWAP1 POP PUSH1 0x20 MUL ADD PUSH1 0x20 DUP2 ADD SWAP1 PUSH2 0x4C0 SWAP2 SWAP1 PUSH2 0x473B JUMP JUMPDEST PUSH2 0x219D JUMPI PUSH1 0xC DUP4 DUP4 DUP4 DUP2 DUP2 LT PUSH2 0x2155 JUMPI PUSH2 0x2155 PUSH2 0x4F6B JUMP JUMPDEST SWAP1 POP PUSH1 0x20 MUL ADD PUSH1 0x20 DUP2 ADD SWAP1 PUSH2 0x216A SWAP2 SWAP1 PUSH2 0x473B JUMP JUMPDEST DUP2 SLOAD PUSH1 0x1 DUP2 ADD DUP4 SSTORE PUSH1 0x0 SWAP3 DUP4 MSTORE PUSH1 0x20 SWAP1 SWAP3 KECCAK256 SWAP1 SWAP2 ADD DUP1 SLOAD PUSH1 0x1 PUSH1 0x1 PUSH1 0xA0 SHL SUB NOT AND PUSH1 0x1 PUSH1 0x1 PUSH1 0xA0 SHL SUB SWAP1 SWAP3 AND SWAP2 SWAP1 SWAP2 OR SWAP1 SSTORE JUMPDEST PUSH2 0x21C7 DUP4 DUP4 DUP4 DUP2 DUP2 LT PUSH2 0x21B2 JUMPI PUSH2 0x21B2 PUSH2 0x4F6B JUMP JUMPDEST SWAP1 POP PUSH1 0x20 MUL ADD PUSH1 0x20 DUP2 ADD SWAP1 PUSH2 0x739 SWAP2 SWAP1 PUSH2 0x473B JUMP JUMPDEST PUSH2 0x2227 JUMPI PUSH1 0xD DUP4 DUP4 DUP4 DUP2 DUP2 LT PUSH2 0x21DF JUMPI PUSH2 0x21DF PUSH2 0x4F6B JUMP JUMPDEST SWAP1 POP PUSH1 0x20 MUL ADD PUSH1 0x20 DUP2 ADD SWAP1 PUSH2 0x21F4 SWAP2 SWAP1 PUSH2 0x473B JUMP JUMPDEST DUP2 SLOAD PUSH1 0x1 DUP2 ADD DUP4 SSTORE PUSH1 0x0 SWAP3 DUP4 MSTORE PUSH1 0x20 SWAP1 SWAP3 KECCAK256 SWAP1 SWAP2 ADD DUP1 SLOAD PUSH1 0x1 PUSH1 0x1 PUSH1 0xA0 SHL SUB NOT AND PUSH1 0x1 PUSH1 0x1 PUSH1 0xA0 SHL SUB SWAP1 SWAP3 AND SWAP2 SWAP1 SWAP2 OR SWAP1 SSTORE JUMPDEST PUSH1 0x0 PUSH1 0xA DUP2 DUP6 DUP6 DUP6 DUP2 DUP2 LT PUSH2 0x223E JUMPI PUSH2 0x223E PUSH2 0x4F6B JUMP JUMPDEST SWAP1 POP PUSH1 0x20 MUL ADD PUSH1 0x20 DUP2 ADD SWAP1 PUSH2 0x2253 SWAP2 SWAP1 PUSH2 0x473B JUMP JUMPDEST PUSH1 0x1 PUSH1 0x1 PUSH1 0xA0 SHL SUB SWAP1 DUP2 AND DUP3 MSTORE PUSH1 0x20 DUP3 ADD SWAP3 SWAP1 SWAP3 MSTORE PUSH1 0x40 ADD PUSH1 0x0 KECCAK256 SLOAD AND SUB PUSH2 0x22F9 JUMPI DUP3 DUP3 DUP3 DUP2 DUP2 LT PUSH2 0x2287 JUMPI PUSH2 0x2287 PUSH2 0x4F6B JUMP JUMPDEST SWAP1 POP PUSH1 0x20 MUL ADD PUSH1 0x20 DUP2 ADD SWAP1 PUSH2 0x229C SWAP2 SWAP1 PUSH2 0x473B JUMP JUMPDEST PUSH1 0xA PUSH1 0x0 DUP6 DUP6 DUP6 DUP2 DUP2 LT PUSH2 0x22B2 JUMPI PUSH2 0x22B2 PUSH2 0x4F6B JUMP JUMPDEST SWAP1 POP PUSH1 0x20 MUL ADD PUSH1 0x20 DUP2 ADD SWAP1 PUSH2 0x22C7 SWAP2 SWAP1 PUSH2 0x473B JUMP JUMPDEST PUSH1 0x1 PUSH1 0x1 PUSH1 0xA0 SHL SUB SWAP1 DUP2 AND DUP3 MSTORE PUSH1 0x20 DUP3 ADD SWAP3 SWAP1 SWAP3 MSTORE PUSH1 0x40 ADD PUSH1 0x0 KECCAK256 DUP1 SLOAD PUSH1 0x1 PUSH1 0x1 PUSH1 0xA0 SHL SUB NOT AND SWAP3 SWAP1 SWAP2 AND SWAP2 SWAP1 SWAP2 OR SWAP1 SSTORE JUMPDEST PUSH1 0x0 PUSH1 0xA PUSH1 0x0 DUP6 DUP6 DUP6 DUP2 DUP2 LT PUSH2 0x2311 JUMPI PUSH2 0x2311 PUSH2 0x4F6B JUMP JUMPDEST SWAP1 POP PUSH1 0x20 MUL ADD PUSH1 0x20 DUP2 ADD SWAP1 PUSH2 0x2326 SWAP2 SWAP1 PUSH2 0x473B JUMP JUMPDEST PUSH1 0x1 PUSH1 0x1 PUSH1 0xA0 SHL SUB AND DUP2 MSTORE PUSH1 0x20 DUP2 ADD SWAP2 SWAP1 SWAP2 MSTORE PUSH1 0x40 ADD PUSH1 0x0 KECCAK256 SLOAD PUSH1 0x1 PUSH1 0xA0 SHL SWAP1 DIV PUSH1 0xFF AND PUSH1 0x4 DUP2 GT ISZERO PUSH2 0x235B JUMPI PUSH2 0x235B PUSH2 0x4914 JUMP JUMPDEST SUB PUSH2 0x23CC JUMPI PUSH1 0x2 PUSH1 0xA PUSH1 0x0 DUP6 DUP6 DUP6 DUP2 DUP2 LT PUSH2 0x2378 JUMPI PUSH2 0x2378 PUSH2 0x4F6B JUMP JUMPDEST SWAP1 POP PUSH1 0x20 MUL ADD PUSH1 0x20 DUP2 ADD SWAP1 PUSH2 0x238D SWAP2 SWAP1 PUSH2 0x473B JUMP JUMPDEST PUSH1 0x1 PUSH1 0x1 PUSH1 0xA0 SHL SUB AND DUP2 MSTORE PUSH1 0x20 DUP2 ADD SWAP2 SWAP1 SWAP2 MSTORE PUSH1 0x40 ADD PUSH1 0x0 KECCAK256 DUP1 SLOAD PUSH1 0xFF PUSH1 0xA0 SHL NOT AND PUSH1 0x1 PUSH1 0xA0 SHL DUP4 PUSH1 0x4 DUP2 GT ISZERO PUSH2 0x23C6 JUMPI PUSH2 0x23C6 PUSH2 0x4914 JUMP JUMPDEST MUL OR SWAP1 SSTORE POP JUMPDEST DUP1 PUSH2 0x23D6 DUP2 PUSH2 0x4F81 JUMP JUMPDEST SWAP2 POP POP PUSH2 0x2046 JUMP JUMPDEST POP PUSH2 0x23F5 PUSH1 0x0 PUSH3 0x186A0 PUSH4 0xEE6B280 PUSH1 0x0 DUP1 PUSH2 0x405F JUMP JUMPDEST PUSH2 0x2417 PUSH1 0x1E PUSH10 0xA968163F0A57B400000 PUSH10 0x69E10DE76676D0800000 PUSH1 0x5A PUSH2 0x3B05 JUMP JUMPDEST POP POP PUSH1 0x0 DUP1 SLOAD PUSH1 0xFF NOT AND PUSH1 0x1 OR SWAP1 SSTORE JUMP JUMPDEST PUSH1 0x0 DUP1 SLOAD PUSH1 0xFF AND PUSH2 0x244B JUMPI PUSH1 0x40 MLOAD PUSH3 0x461BCD PUSH1 0xE5 SHL DUP2 MSTORE PUSH1 0x4 ADD PUSH2 0xA1D SWAP1 PUSH2 0x4EF1 JUMP JUMPDEST PUSH1 0x1 PUSH1 0x1 PUSH1 0xA0 SHL SUB DUP13 AND PUSH2 0x2497 JUMPI PUSH1 0x40 MLOAD PUSH3 0x461BCD PUSH1 0xE5 SHL DUP2 MSTORE PUSH1 0x20 PUSH1 0x4 DUP3 ADD MSTORE PUSH1 0x13 PUSH1 0x24 DUP3 ADD MSTORE PUSH19 0x496E76616C6964206665652061646472657373 PUSH1 0x68 SHL PUSH1 0x44 DUP3 ADD MSTORE PUSH1 0x64 ADD PUSH2 0xA1D JUMP JUMPDEST PUSH2 0x25A6 DUP12 DUP12 DUP1 DUP1 PUSH1 0x1F ADD PUSH1 0x20 DUP1 SWAP2 DIV MUL PUSH1 0x20 ADD PUSH1 0x40 MLOAD SWAP1 DUP2 ADD PUSH1 0x40 MSTORE DUP1 SWAP4 SWAP3 SWAP2 SWAP1 DUP2 DUP2 MSTORE PUSH1 0x20 ADD DUP4 DUP4 DUP1 DUP3 DUP5 CALLDATACOPY PUSH1 0x0 SWAP3 ADD SWAP2 SWAP1 SWAP2 MSTORE POP POP PUSH1 0x40 DUP1 MLOAD PUSH1 0x20 PUSH1 0x1F DUP16 ADD DUP2 SWAP1 DIV DUP2 MUL DUP3 ADD DUP2 ADD SWAP1 SWAP3 MSTORE DUP14 DUP2 MSTORE SWAP3 POP DUP14 SWAP2 POP DUP13 SWAP1 DUP2 SWAP1 DUP5 ADD DUP4 DUP3 DUP1 DUP3 DUP5 CALLDATACOPY PUSH1 0x0 SWAP3 ADD SWAP2 SWAP1 SWAP2 MSTORE POP POP PUSH1 0x40 DUP1 MLOAD PUSH1 0x20 PUSH1 0x1F DUP15 ADD DUP2 SWAP1 DIV DUP2 MUL DUP3 ADD DUP2 ADD SWAP1 SWAP3 MSTORE DUP13 DUP2 MSTORE SWAP3 POP DUP13 SWAP2 POP DUP12 SWAP1 DUP2 SWAP1 DUP5 ADD DUP4 DUP3 DUP1 DUP3 DUP5 CALLDATACOPY PUSH1 0x0 SWAP3 ADD SWAP2 SWAP1 SWAP2 MSTORE POP POP PUSH1 0x40 DUP1 MLOAD PUSH1 0x20 PUSH1 0x1F DUP14 ADD DUP2 SWAP1 DIV DUP2 MUL DUP3 ADD DUP2 ADD SWAP1 SWAP3 MSTORE DUP12 DUP2 MSTORE SWAP3 POP DUP12 SWAP2 POP DUP11 SWAP1 DUP2 SWAP1 DUP5 ADD DUP4 DUP3 DUP1 DUP3 DUP5 CALLDATACOPY PUSH1 0x0 SWAP3 ADD SWAP2 SWAP1 SWAP2 MSTORE POP POP PUSH1 0x40 DUP1 MLOAD PUSH1 0x20 PUSH1 0x1F DUP13 ADD DUP2 SWAP1 DIV DUP2 MUL DUP3 ADD DUP2 ADD SWAP1 SWAP3 MSTORE DUP11 DUP2 MSTORE SWAP3 POP DUP11 SWAP2 POP DUP10 SWAP1 DUP2 SWAP1 DUP5 ADD DUP4 DUP3 DUP1 DUP3 DUP5 CALLDATACOPY PUSH1 0x0 SWAP3 ADD SWAP2 SWAP1 SWAP2 MSTORE POP PUSH2 0x2E04 SWAP3 POP POP POP JUMP JUMPDEST PUSH2 0x25E8 JUMPI PUSH1 0x40 MLOAD PUSH3 0x461BCD PUSH1 0xE5 SHL DUP2 MSTORE PUSH1 0x20 PUSH1 0x4 DUP3 ADD MSTORE PUSH1 0x13 PUSH1 0x24 DUP3 ADD MSTORE PUSH19 0x24B73B30B634B2103232B9B1B934B83A34B7B7 PUSH1 0x69 SHL PUSH1 0x44 DUP3 ADD MSTORE PUSH1 0x64 ADD PUSH2 0xA1D JUMP JUMPDEST ORIGIN PUSH1 0x0 DUP2 DUP2 MSTORE PUSH1 0xA PUSH1 0x20 MSTORE PUSH1 0x40 DUP2 KECCAK256 SLOAD DUP2 SWAP1 PUSH1 0x1 PUSH1 0xA0 SHL SWAP1 DIV PUSH1 0xFF AND PUSH1 0x4 DUP2 GT ISZERO PUSH2 0x2615 JUMPI PUSH2 0x2615 PUSH2 0x4914 JUMP JUMPDEST SUB PUSH2 0x264B JUMPI POP PUSH1 0x1 PUSH1 0x1 PUSH1 0xA0 SHL SUB DUP2 AND PUSH1 0x0 SWAP1 DUP2 MSTORE PUSH1 0xA PUSH1 0x20 MSTORE PUSH1 0x40 SWAP1 KECCAK256 DUP1 SLOAD PUSH1 0xFF PUSH1 0xA0 SHL NOT AND PUSH1 0x1 PUSH1 0xA0 SHL OR SWAP1 SSTORE PUSH1 0x1 PUSH2 0x265C JUMP JUMPDEST CALLVALUE ISZERO PUSH2 0x265C JUMPI PUSH1 0x0 SWAP3 POP POP POP PUSH2 0x2988 JUMP JUMPDEST PUSH1 0x1 PUSH1 0x1 PUSH1 0xA0 SHL SUB DUP3 DUP2 AND PUSH1 0x0 SWAP1 DUP2 MSTORE PUSH1 0xA PUSH1 0x20 MSTORE PUSH1 0x40 SWAP1 KECCAK256 SLOAD DUP2 AND SWAP1 DUP16 AND EQ PUSH2 0x26CE JUMPI DUP14 PUSH1 0xA PUSH1 0x0 DUP5 PUSH1 0x1 PUSH1 0x1 PUSH1 0xA0 SHL SUB AND PUSH1 0x1 PUSH1 0x1 PUSH1 0xA0 SHL SUB AND DUP2 MSTORE PUSH1 0x20 ADD SWAP1 DUP2 MSTORE PUSH1 0x20 ADD PUSH1 0x0 KECCAK256 PUSH1 0x0 ADD PUSH1 0x0 PUSH2 0x100 EXP DUP2 SLOAD DUP2 PUSH1 0x1 PUSH1 0x1 PUSH1 0xA0 SHL SUB MUL NOT AND SWAP1 DUP4 PUSH1 0x1 PUSH1 0x1 PUSH1 0xA0 SHL SUB AND MUL OR SWAP1 SSTORE POP JUMPDEST PUSH1 0x40 MLOAD DUP1 PUSH1 0xA0 ADD PUSH1 0x40 MSTORE DUP1 DUP15 DUP15 DUP1 DUP1 PUSH1 0x1F ADD PUSH1 0x20 DUP1 SWAP2 DIV MUL PUSH1 0x20 ADD PUSH1 0x40 MLOAD SWAP1 DUP2 ADD PUSH1 0x40 MSTORE DUP1 SWAP4 SWAP3 SWAP2 SWAP1 DUP2 DUP2 MSTORE PUSH1 0x20 ADD DUP4 DUP4 DUP1 DUP3 DUP5 CALLDATACOPY PUSH1 0x0 SWAP3 ADD SWAP2 SWAP1 SWAP2 MSTORE POP POP POP SWAP1 DUP3 MSTORE POP PUSH1 0x40 DUP1 MLOAD PUSH1 0x20 PUSH1 0x1F DUP16 ADD DUP2 SWAP1 DIV DUP2 MUL DUP3 ADD DUP2 ADD SWAP1 SWAP3 MSTORE DUP14 DUP2 MSTORE SWAP2 DUP2 ADD SWAP2 SWAP1 DUP15 SWAP1 DUP15 SWAP1 DUP2 SWAP1 DUP5 ADD DUP4 DUP3 DUP1 DUP3 DUP5 CALLDATACOPY PUSH1 0x0 SWAP3 ADD SWAP2 SWAP1 SWAP2 MSTORE POP POP POP SWAP1 DUP3 MSTORE POP PUSH1 0x40 DUP1 MLOAD PUSH1 0x20 PUSH1 0x1F DUP14 ADD DUP2 SWAP1 DIV DUP2 MUL DUP3 ADD DUP2 ADD SWAP1 SWAP3 MSTORE DUP12 DUP2 MSTORE SWAP2 DUP2 ADD SWAP2 SWAP1 DUP13 SWAP1 DUP13 SWAP1 DUP2 SWAP1 DUP5 ADD DUP4 DUP3 DUP1 DUP3 DUP5 CALLDATACOPY PUSH1 0x0 SWAP3 ADD SWAP2 SWAP1 SWAP2 MSTORE POP POP POP SWAP1 DUP3 MSTORE POP PUSH1 0x40 DUP1 MLOAD PUSH1 0x20 PUSH1 0x1F DUP12 ADD DUP2 SWAP1 DIV DUP2 MUL DUP3 ADD DUP2 ADD SWAP1 SWAP3 MSTORE DUP10 DUP2 MSTORE SWAP2 DUP2 ADD SWAP2 SWAP1 DUP11 SWAP1 DUP11 SWAP1 DUP2 SWAP1 DUP5 ADD DUP4 DUP3 DUP1 DUP3 DUP5 CALLDATACOPY PUSH1 0x0 SWAP3 ADD SWAP2 SWAP1 SWAP2 MSTORE POP POP POP SWAP1 DUP3 MSTORE POP PUSH1 0x40 DUP1 MLOAD PUSH1 0x20 PUSH1 0x1F DUP10 ADD DUP2 SWAP1 DIV DUP2 MUL DUP3 ADD DUP2 ADD SWAP1 SWAP3 MSTORE DUP8 DUP2 MSTORE SWAP2 DUP2 ADD SWAP2 SWAP1 DUP9 SWAP1 DUP9 SWAP1 DUP2 SWAP1 DUP5 ADD DUP4 DUP3 DUP1 DUP3 DUP5 CALLDATACOPY PUSH1 0x0 SWAP3 ADD DUP3 SWAP1 MSTORE POP SWAP4 SWAP1 SWAP5 MSTORE POP POP PUSH1 0x1 PUSH1 0x1 PUSH1 0xA0 SHL SUB DUP6 AND DUP2 MSTORE PUSH1 0xA PUSH1 0x20 MSTORE PUSH1 0x40 SWAP1 KECCAK256 DUP3 MLOAD PUSH1 0x2 SWAP1 SWAP2 ADD SWAP2 POP DUP2 SWAP1 PUSH2 0x2827 SWAP1 DUP3 PUSH2 0x5059 JUMP JUMPDEST POP PUSH1 0x20 DUP3 ADD MLOAD PUSH1 0x1 DUP3 ADD SWAP1 PUSH2 0x283C SWAP1 DUP3 PUSH2 0x5059 JUMP JUMPDEST POP PUSH1 0x40 DUP3 ADD MLOAD PUSH1 0x2 DUP3 ADD SWAP1 PUSH2 0x2851 SWAP1 DUP3 PUSH2 0x5059 JUMP JUMPDEST POP PUSH1 0x60 DUP3 ADD MLOAD PUSH1 0x3 DUP3 ADD SWAP1 PUSH2 0x2866 SWAP1 DUP3 PUSH2 0x5059 JUMP JUMPDEST POP PUSH1 0x80 DUP3 ADD MLOAD PUSH1 0x4 DUP3 ADD SWAP1 PUSH2 0x287B SWAP1 DUP3 PUSH2 0x5059 JUMP JUMPDEST POP SWAP1 POP POP DUP1 ISZERO PUSH2 0x2933 JUMPI PUSH1 0x2 SLOAD CALLVALUE LT ISZERO PUSH2 0x28D7 JUMPI PUSH1 0x40 MLOAD PUSH3 0x461BCD PUSH1 0xE5 SHL DUP2 MSTORE PUSH1 0x20 PUSH1 0x4 DUP3 ADD MSTORE PUSH1 0x18 PUSH1 0x24 DUP3 ADD MSTORE PUSH32 0x496E76616C69642076616C696461746F7220616D6F756E740000000000000000 PUSH1 0x44 DUP3 ADD MSTORE PUSH1 0x64 ADD PUSH2 0xA1D JUMP JUMPDEST PUSH2 0x28E0 DUP3 PUSH2 0xE11 JUMP JUMPDEST POP DUP14 PUSH1 0x1 PUSH1 0x1 PUSH1 0xA0 SHL SUB AND DUP3 PUSH1 0x1 PUSH1 0x1 PUSH1 0xA0 SHL SUB AND PUSH32 0x887EEC9D757B7247DD8E51198F9D1B8F27979BCEB34BDCC1BFFD4EC5EC736C22 TIMESTAMP PUSH1 0x40 MLOAD PUSH2 0x2926 SWAP2 DUP2 MSTORE PUSH1 0x20 ADD SWAP1 JUMP JUMPDEST PUSH1 0x40 MLOAD DUP1 SWAP2 SUB SWAP1 LOG3 PUSH2 0x2981 JUMP JUMPDEST DUP14 PUSH1 0x1 PUSH1 0x1 PUSH1 0xA0 SHL SUB AND DUP3 PUSH1 0x1 PUSH1 0x1 PUSH1 0xA0 SHL SUB AND PUSH32 0xB8421F65501371F54D58DE1937FF1E1CCDB76423EF6F84ACEA1814A0F6362CA0 TIMESTAMP PUSH1 0x40 MLOAD PUSH2 0x2978 SWAP2 DUP2 MSTORE PUSH1 0x20 ADD SWAP1 JUMP JUMPDEST PUSH1 0x40 MLOAD DUP1 SWAP2 SUB SWAP1 LOG3 JUMPDEST PUSH1 0x1 SWAP3 POP POP POP JUMPDEST SWAP12 SWAP11 POP POP POP POP POP POP POP POP POP POP POP JUMP JUMPDEST PUSH1 0x1 PUSH1 0x1 PUSH1 0xA0 SHL SUB DUP2 DUP2 AND PUSH1 0x0 SWAP1 DUP2 MSTORE PUSH1 0xA PUSH1 0x20 SWAP1 DUP2 MSTORE PUSH1 0x40 DUP1 DUP4 KECCAK256 DUP2 MLOAD PUSH1 0xE0 DUP2 ADD SWAP1 SWAP3 MSTORE DUP1 SLOAD SWAP5 DUP6 AND DUP3 MSTORE PUSH1 0x60 SWAP5 DUP6 SWAP5 DUP6 SWAP5 DUP6 SWAP5 DUP6 SWAP5 SWAP3 SWAP4 SWAP1 SWAP3 SWAP2 DUP4 ADD SWAP1 PUSH1 0x1 PUSH1 0xA0 SHL SWAP1 DIV PUSH1 0xFF AND PUSH1 0x4 DUP2 GT ISZERO PUSH2 0x29F1 JUMPI PUSH2 0x29F1 PUSH2 0x4914 JUMP JUMPDEST PUSH1 0x4 DUP2 GT ISZERO PUSH2 0x2A02 JUMPI PUSH2 0x2A02 PUSH2 0x4914 JUMP JUMPDEST DUP2 MSTORE PUSH1 0x20 ADD PUSH1 0x1 DUP3 ADD SLOAD DUP2 MSTORE PUSH1 0x20 ADD PUSH1 0x2 DUP3 ADD PUSH1 0x40 MLOAD DUP1 PUSH1 0xA0 ADD PUSH1 0x40 MSTORE SWAP1 DUP2 PUSH1 0x0 DUP3 ADD DUP1 SLOAD PUSH2 0x2A30 SWAP1 PUSH2 0x4FD0 JUMP JUMPDEST DUP1 PUSH1 0x1F ADD PUSH1 0x20 DUP1 SWAP2 DIV MUL PUSH1 0x20 ADD PUSH1 0x40 MLOAD SWAP1 DUP2 ADD PUSH1 0x40 MSTORE DUP1 SWAP3 SWAP2 SWAP1 DUP2 DUP2 MSTORE PUSH1 0x20 ADD DUP3 DUP1 SLOAD PUSH2 0x2A5C SWAP1 PUSH2 0x4FD0 JUMP JUMPDEST DUP1 ISZERO PUSH2 0x2AA9 JUMPI DUP1 PUSH1 0x1F LT PUSH2 0x2A7E JUMPI PUSH2 0x100 DUP1 DUP4 SLOAD DIV MUL DUP4 MSTORE SWAP2 PUSH1 0x20 ADD SWAP2 PUSH2 0x2AA9 JUMP JUMPDEST DUP3 ADD SWAP2 SWAP1 PUSH1 0x0 MSTORE PUSH1 0x20 PUSH1 0x0 KECCAK256 SWAP1 JUMPDEST DUP2 SLOAD DUP2 MSTORE SWAP1 PUSH1 0x1 ADD SWAP1 PUSH1 0x20 ADD DUP1 DUP4 GT PUSH2 0x2A8C JUMPI DUP3 SWAP1 SUB PUSH1 0x1F AND DUP3 ADD SWAP2 JUMPDEST POP POP POP POP POP DUP2 MSTORE PUSH1 0x20 ADD PUSH1 0x1 DUP3 ADD DUP1 SLOAD PUSH2 0x2AC2 SWAP1 PUSH2 0x4FD0 JUMP JUMPDEST DUP1 PUSH1 0x1F ADD PUSH1 0x20 DUP1 SWAP2 DIV MUL PUSH1 0x20 ADD PUSH1 0x40 MLOAD SWAP1 DUP2 ADD PUSH1 0x40 MSTORE DUP1 SWAP3 SWAP2 SWAP1 DUP2 DUP2 MSTORE PUSH1 0x20 ADD DUP3 DUP1 SLOAD PUSH2 0x2AEE SWAP1 PUSH2 0x4FD0 JUMP JUMPDEST DUP1 ISZERO PUSH2 0x2B3B JUMPI DUP1 PUSH1 0x1F LT PUSH2 0x2B10 JUMPI PUSH2 0x100 DUP1 DUP4 SLOAD DIV MUL DUP4 MSTORE SWAP2 PUSH1 0x20 ADD SWAP2 PUSH2 0x2B3B JUMP JUMPDEST DUP3 ADD SWAP2 SWAP1 PUSH1 0x0 MSTORE PUSH1 0x20 PUSH1 0x0 KECCAK256 SWAP1 JUMPDEST DUP2 SLOAD DUP2 MSTORE SWAP1 PUSH1 0x1 ADD SWAP1 PUSH1 0x20 ADD DUP1 DUP4 GT PUSH2 0x2B1E JUMPI DUP3 SWAP1 SUB PUSH1 0x1F AND DUP3 ADD SWAP2 JUMPDEST POP POP POP POP POP DUP2 MSTORE PUSH1 0x20 ADD PUSH1 0x2 DUP3 ADD DUP1 SLOAD PUSH2 0x2B54 SWAP1 PUSH2 0x4FD0 JUMP JUMPDEST DUP1 PUSH1 0x1F ADD PUSH1 0x20 DUP1 SWAP2 DIV MUL PUSH1 0x20 ADD PUSH1 0x40 MLOAD SWAP1 DUP2 ADD PUSH1 0x40 MSTORE DUP1 SWAP3 SWAP2 SWAP1 DUP2 DUP2 MSTORE PUSH1 0x20 ADD DUP3 DUP1 SLOAD PUSH2 0x2B80 SWAP1 PUSH2 0x4FD0 JUMP JUMPDEST DUP1 ISZERO PUSH2 0x2BCD JUMPI DUP1 PUSH1 0x1F LT PUSH2 0x2BA2 JUMPI PUSH2 0x100 DUP1 DUP4 SLOAD DIV MUL DUP4 MSTORE SWAP2 PUSH1 0x20 ADD SWAP2 PUSH2 0x2BCD JUMP JUMPDEST DUP3 ADD SWAP2 SWAP1 PUSH1 0x0 MSTORE PUSH1 0x20 PUSH1 0x0 KECCAK256 SWAP1 JUMPDEST DUP2 SLOAD DUP2 MSTORE SWAP1 PUSH1 0x1 ADD SWAP1 PUSH1 0x20 ADD DUP1 DUP4 GT PUSH2 0x2BB0 JUMPI DUP3 SWAP1 SUB PUSH1 0x1F AND DUP3 ADD SWAP2 JUMPDEST POP POP POP POP POP DUP2 MSTORE PUSH1 0x20 ADD PUSH1 0x3 DUP3 ADD DUP1 SLOAD PUSH2 0x2BE6 SWAP1 PUSH2 0x4FD0 JUMP JUMPDEST DUP1 PUSH1 0x1F ADD PUSH1 0x20 DUP1 SWAP2 DIV MUL PUSH1 0x20 ADD PUSH1 0x40 MLOAD SWAP1 DUP2 ADD PUSH1 0x40 MSTORE DUP1 SWAP3 SWAP2 SWAP1 DUP2 DUP2 MSTORE PUSH1 0x20 ADD DUP3 DUP1 SLOAD PUSH2 0x2C12 SWAP1 PUSH2 0x4FD0 JUMP JUMPDEST DUP1 ISZERO PUSH2 0x2C5F JUMPI DUP1 PUSH1 0x1F LT PUSH2 0x2C34 JUMPI PUSH2 0x100 DUP1 DUP4 SLOAD DIV MUL DUP4 MSTORE SWAP2 PUSH1 0x20 ADD SWAP2 PUSH2 0x2C5F JUMP JUMPDEST DUP3 ADD SWAP2 SWAP1 PUSH1 0x0 MSTORE PUSH1 0x20 PUSH1 0x0 KECCAK256 SWAP1 JUMPDEST DUP2 SLOAD DUP2 MSTORE SWAP1 PUSH1 0x1 ADD SWAP1 PUSH1 0x20 ADD DUP1 DUP4 GT PUSH2 0x2C42 JUMPI DUP3 SWAP1 SUB PUSH1 0x1F AND DUP3 ADD SWAP2 JUMPDEST POP POP POP POP POP DUP2 MSTORE PUSH1 0x20 ADD PUSH1 0x4 DUP3 ADD DUP1 SLOAD PUSH2 0x2C78 SWAP1 PUSH2 0x4FD0 JUMP JUMPDEST DUP1 PUSH1 0x1F ADD PUSH1 0x20 DUP1 SWAP2 DIV MUL PUSH1 0x20 ADD PUSH1 0x40 MLOAD SWAP1 DUP2 ADD PUSH1 0x40 MSTORE DUP1 SWAP3 SWAP2 SWAP1 DUP2 DUP2 MSTORE PUSH1 0x20 ADD DUP3 DUP1 SLOAD PUSH2 0x2CA4 SWAP1 PUSH2 0x4FD0 JUMP JUMPDEST DUP1 ISZERO PUSH2 0x2CF1 JUMPI DUP1 PUSH1 0x1F LT PUSH2 0x2CC6 JUMPI PUSH2 0x100 DUP1 DUP4 SLOAD DIV MUL DUP4 MSTORE SWAP2 PUSH1 0x20 ADD SWAP2 PUSH2 0x2CF1 JUMP JUMPDEST DUP3 ADD SWAP2 SWAP1 PUSH1 0x0 MSTORE PUSH1 0x20 PUSH1 0x0 KECCAK256 SWAP1 JUMPDEST DUP2 SLOAD DUP2 MSTORE SWAP1 PUSH1 0x1 ADD SWAP1 PUSH1 0x20 ADD DUP1 DUP4 GT PUSH2 0x2CD4 JUMPI DUP3 SWAP1 SUB PUSH1 0x1F AND DUP3 ADD SWAP2 JUMPDEST POP POP POP POP POP DUP2 MSTORE POP POP DUP2 MSTORE PUSH1 0x20 ADD PUSH1 0x7 DUP3 ADD SLOAD DUP2 MSTORE PUSH1 0x20 ADD PUSH1 0x8 DUP3 ADD SLOAD DUP2 MSTORE PUSH1 0x20 ADD PUSH1 0x9 DUP3 ADD DUP1 SLOAD DUP1 PUSH1 0x20 MUL PUSH1 0x20 ADD PUSH1 0x40 MLOAD SWAP1 DUP2 ADD PUSH1 0x40 MSTORE DUP1 SWAP3 SWAP2 SWAP1 DUP2 DUP2 MSTORE PUSH1 0x20 ADD DUP3 DUP1 SLOAD DUP1 ISZERO PUSH2 0x2D6B JUMPI PUSH1 0x20 MUL DUP3 ADD SWAP2 SWAP1 PUSH1 0x0 MSTORE PUSH1 0x20 PUSH1 0x0 KECCAK256 SWAP1 JUMPDEST DUP2 SLOAD PUSH1 0x1 PUSH1 0x1 PUSH1 0xA0 SHL SUB AND DUP2 MSTORE PUSH1 0x1 SWAP1 SWAP2 ADD SWAP1 PUSH1 0x20 ADD DUP1 DUP4 GT PUSH2 0x2D4D JUMPI JUMPDEST POP POP POP SWAP2 SWAP1 SWAP3 MSTORE POP POP POP PUSH1 0x60 SWAP1 DUP2 ADD MLOAD DUP1 MLOAD PUSH1 0x20 DUP3 ADD MLOAD PUSH1 0x40 DUP4 ADD MLOAD SWAP4 DUP4 ADD MLOAD PUSH1 0x80 SWAP1 SWAP4 ADD MLOAD SWAP2 SWAP12 SWAP1 SWAP11 POP SWAP3 SWAP9 POP SWAP1 SWAP7 POP SWAP5 POP SWAP3 POP POP POP JUMP JUMPDEST PUSH1 0x60 PUSH1 0xD DUP1 SLOAD DUP1 PUSH1 0x20 MUL PUSH1 0x20 ADD PUSH1 0x40 MLOAD SWAP1 DUP2 ADD PUSH1 0x40 MSTORE DUP1 SWAP3 SWAP2 SWAP1 DUP2 DUP2 MSTORE PUSH1 0x20 ADD DUP3 DUP1 SLOAD DUP1 ISZERO PUSH2 0x1FBF JUMPI PUSH1 0x20 MUL DUP3 ADD SWAP2 SWAP1 PUSH1 0x0 MSTORE PUSH1 0x20 PUSH1 0x0 KECCAK256 SWAP1 DUP2 SLOAD PUSH1 0x1 PUSH1 0x1 PUSH1 0xA0 SHL SUB AND DUP2 MSTORE PUSH1 0x1 SWAP1 SWAP2 ADD SWAP1 PUSH1 0x20 ADD DUP1 DUP4 GT PUSH2 0x1FA1 JUMPI POP POP POP POP POP SWAP1 POP SWAP1 JUMP JUMPDEST PUSH1 0x0 PUSH1 0x46 DUP7 MLOAD GT ISZERO PUSH2 0x2E51 JUMPI PUSH1 0x40 MLOAD PUSH3 0x461BCD PUSH1 0xE5 SHL DUP2 MSTORE PUSH1 0x20 PUSH1 0x4 DUP3 ADD MSTORE PUSH1 0x16 PUSH1 0x24 DUP3 ADD MSTORE PUSH22 0x92DCECC2D8D2C840DADEDCD2D6CAE440D8CADCCEE8D PUSH1 0x53 SHL PUSH1 0x44 DUP3 ADD MSTORE PUSH1 0x64 ADD PUSH2 0xA1D JUMP JUMPDEST PUSH2 0xBB8 DUP6 MLOAD GT ISZERO PUSH2 0x2EA4 JUMPI PUSH1 0x40 MLOAD PUSH3 0x461BCD PUSH1 0xE5 SHL DUP2 MSTORE PUSH1 0x20 PUSH1 0x4 DUP3 ADD MSTORE PUSH1 0x17 PUSH1 0x24 DUP3 ADD MSTORE PUSH32 0x496E76616C6964206964656E74697479206C656E677468000000000000000000 PUSH1 0x44 DUP3 ADD MSTORE PUSH1 0x64 ADD PUSH2 0xA1D JUMP JUMPDEST PUSH1 0x8C DUP5 MLOAD GT ISZERO PUSH2 0x2EEF JUMPI PUSH1 0x40 MLOAD PUSH3 0x461BCD PUSH1 0xE5 SHL DUP2 MSTORE PUSH1 0x20 PUSH1 0x4 DUP3 ADD MSTORE PUSH1 0x16 PUSH1 0x24 DUP3 ADD MSTORE PUSH22 0x92DCECC2D8D2C840EECAC4E6D2E8CA40D8CADCCEE8D PUSH1 0x53 SHL PUSH1 0x44 DUP3 ADD MSTORE PUSH1 0x64 ADD PUSH2 0xA1D JUMP JUMPDEST PUSH1 0x8C DUP4 MLOAD GT ISZERO PUSH2 0x2F38 JUMPI PUSH1 0x40 MLOAD PUSH3 0x461BCD PUSH1 0xE5 SHL DUP2 MSTORE PUSH1 0x20 PUSH1 0x4 DUP3 ADD MSTORE PUSH1 0x14 PUSH1 0x24 DUP3 ADD MSTORE PUSH20 0x92DCECC2D8D2C840CADAC2D2D840D8CADCCEE8D PUSH1 0x63 SHL PUSH1 0x44 DUP3 ADD MSTORE PUSH1 0x64 ADD PUSH2 0xA1D JUMP JUMPDEST PUSH2 0x118 DUP3 MLOAD GT ISZERO PUSH2 0x2F84 JUMPI PUSH1 0x40 MLOAD PUSH3 0x461BCD PUSH1 0xE5 SHL DUP2 MSTORE PUSH1 0x20 PUSH1 0x4 DUP3 ADD MSTORE PUSH1 0x16 PUSH1 0x24 DUP3 ADD MSTORE PUSH22 0x92DCECC2D8D2C840C8CAE8C2D2D8E640D8CADCCEE8D PUSH1 0x53 SHL PUSH1 0x44 DUP3 ADD MSTORE PUSH1 0x64 ADD PUSH2 0xA1D JUMP JUMPDEST POP PUSH1 0x1 SWAP6 SWAP5 POP POP POP POP POP JUMP JUMPDEST CALLER COINBASE EQ PUSH2 0x2FCC JUMPI PUSH1 0x40 MLOAD PUSH3 0x461BCD PUSH1 0xE5 SHL DUP2 MSTORE PUSH1 0x20 PUSH1 0x4 DUP3 ADD MSTORE PUSH1 0xA PUSH1 0x24 DUP3 ADD MSTORE PUSH10 0x4D696E6572206F6E6C79 PUSH1 0xB0 SHL PUSH1 0x44 DUP3 ADD MSTORE PUSH1 0x64 ADD PUSH2 0xA1D JUMP JUMPDEST NUMBER PUSH1 0x0 SWAP1 DUP2 MSTORE PUSH1 0x15 PUSH1 0x20 SWAP1 DUP2 MSTORE PUSH1 0x40 DUP1 DUP4 KECCAK256 DUP4 DUP1 MSTORE SWAP1 SWAP2 MSTORE SWAP1 KECCAK256 SLOAD PUSH1 0xFF AND ISZERO PUSH2 0x3037 JUMPI PUSH1 0x40 MLOAD PUSH3 0x461BCD PUSH1 0xE5 SHL DUP2 MSTORE PUSH1 0x20 PUSH1 0x4 DUP3 ADD MSTORE PUSH1 0x19 PUSH1 0x24 DUP3 ADD MSTORE PUSH32 0x426C6F636B20697320616C726561647920726577617264656400000000000000 PUSH1 0x44 DUP3 ADD MSTORE PUSH1 0x64 ADD PUSH2 0xA1D JUMP JUMPDEST PUSH1 0x0 SLOAD PUSH1 0xFF AND PUSH2 0x3059 JUMPI PUSH1 0x40 MLOAD PUSH3 0x461BCD PUSH1 0xE5 SHL DUP2 MSTORE PUSH1 0x4 ADD PUSH2 0xA1D SWAP1 PUSH2 0x4EF1 JUMP JUMPDEST NUMBER PUSH1 0x0 SWAP1 DUP2 MSTORE PUSH1 0x15 PUSH1 0x20 SWAP1 DUP2 MSTORE PUSH1 0x40 DUP1 DUP4 KECCAK256 DUP4 DUP1 MSTORE SWAP1 SWAP2 MSTORE DUP2 KECCAK256 DUP1 SLOAD PUSH1 0xFF NOT AND PUSH1 0x1 OR SWAP1 SSTORE PUSH1 0x4 SLOAD ORIGIN SWAP2 CALLVALUE SWAP2 DUP3 SWAP2 SWAP1 PUSH3 0x186A0 SWAP1 PUSH2 0x3097 SWAP1 DUP5 PUSH2 0x4F2A JUMP JUMPDEST PUSH2 0x30A1 SWAP2 SWAP1 PUSH2 0x4F57 JUMP JUMPDEST SWAP1 POP PUSH2 0x30AD DUP2 DUP4 PUSH2 0x4F17 JUMP JUMPDEST SWAP2 POP PUSH1 0x0 PUSH3 0x186A0 PUSH1 0x5 SLOAD DUP6 PUSH2 0x30C3 SWAP2 SWAP1 PUSH2 0x4F2A JUMP JUMPDEST PUSH2 0x30CD SWAP2 SWAP1 PUSH2 0x4F57 JUMP JUMPDEST SWAP1 POP PUSH1 0x7 SLOAD DUP2 PUSH1 0x8 SLOAD PUSH2 0x30E0 SWAP2 SWAP1 PUSH2 0x4EDE JUMP JUMPDEST GT PUSH2 0x313D JUMPI PUSH2 0x30EF DUP2 DUP5 PUSH2 0x4F17 JUMP JUMPDEST SWAP3 POP DUP1 PUSH1 0x8 PUSH1 0x0 DUP3 DUP3 SLOAD PUSH2 0x3103 SWAP2 SWAP1 PUSH2 0x4EDE JUMP JUMPDEST SWAP1 SWAP2 SSTORE POP POP DUP1 ISZERO PUSH2 0x313D JUMPI PUSH1 0x40 MLOAD PUSH1 0x0 SWAP1 DUP3 ISZERO PUSH2 0x8FC MUL SWAP1 DUP4 SWAP1 DUP4 DUP2 DUP2 DUP2 DUP6 DUP3 DUP9 CALL SWAP4 POP POP POP POP ISZERO DUP1 ISZERO PUSH2 0x313B JUMPI RETURNDATASIZE PUSH1 0x0 DUP1 RETURNDATACOPY RETURNDATASIZE PUSH1 0x0 REVERT JUMPDEST POP JUMPDEST DUP7 MLOAD ISZERO PUSH2 0x32EC JUMPI PUSH1 0x0 PUSH3 0x186A0 PUSH1 0x6 SLOAD DUP7 PUSH2 0x3158 SWAP2 SWAP1 PUSH2 0x4F2A JUMP JUMPDEST PUSH2 0x3162 SWAP2 SWAP1 PUSH2 0x4F57 JUMP JUMPDEST SWAP1 POP PUSH2 0x316E DUP2 DUP6 PUSH2 0x4F17 JUMP JUMPDEST SWAP4 POP PUSH1 0x0 DUP9 MLOAD DUP3 PUSH2 0x317F SWAP2 SWAP1 PUSH2 0x4F57 JUMP JUMPDEST SWAP1 POP DUP1 ISZERO PUSH2 0x32E9 JUMPI PUSH1 0x0 JUMPDEST DUP10 MLOAD DUP2 LT ISZERO PUSH2 0x32E7 JUMPI PUSH1 0x0 PUSH1 0x1 PUSH1 0x1 PUSH1 0xA0 SHL SUB AND DUP11 DUP3 DUP2 MLOAD DUP2 LT PUSH2 0x31B0 JUMPI PUSH2 0x31B0 PUSH2 0x4F6B JUMP JUMPDEST PUSH1 0x20 MUL PUSH1 0x20 ADD ADD MLOAD PUSH1 0x1 PUSH1 0x1 PUSH1 0xA0 SHL SUB AND EQ ISZERO DUP1 ISZERO PUSH2 0x3216 JUMPI POP PUSH1 0x0 PUSH1 0x1 PUSH1 0x1 PUSH1 0xA0 SHL SUB AND PUSH1 0x10 PUSH1 0x0 DUP13 DUP5 DUP2 MLOAD DUP2 LT PUSH2 0x31EB JUMPI PUSH2 0x31EB PUSH2 0x4F6B JUMP JUMPDEST PUSH1 0x20 SWAP1 DUP2 MUL SWAP2 SWAP1 SWAP2 ADD DUP2 ADD MLOAD PUSH1 0x1 PUSH1 0x1 PUSH1 0xA0 SHL SUB SWAP1 DUP2 AND DUP4 MSTORE SWAP1 DUP3 ADD SWAP3 SWAP1 SWAP3 MSTORE PUSH1 0x40 ADD PUSH1 0x0 KECCAK256 SLOAD AND EQ ISZERO JUMPDEST DUP1 ISZERO PUSH2 0x3244 JUMPI POP PUSH1 0x0 DUP10 DUP3 DUP2 MLOAD DUP2 LT PUSH2 0x3231 JUMPI PUSH2 0x3231 PUSH2 0x4F6B JUMP JUMPDEST PUSH1 0x20 MUL PUSH1 0x20 ADD ADD MLOAD PUSH1 0x1 PUSH1 0x1 PUSH1 0x40 SHL SUB AND GT JUMPDEST ISZERO PUSH2 0x32D5 JUMPI PUSH1 0x10 PUSH1 0x0 DUP12 DUP4 DUP2 MLOAD DUP2 LT PUSH2 0x325F JUMPI PUSH2 0x325F PUSH2 0x4F6B JUMP JUMPDEST PUSH1 0x20 MUL PUSH1 0x20 ADD ADD MLOAD PUSH1 0x1 PUSH1 0x1 PUSH1 0xA0 SHL SUB AND PUSH1 0x1 PUSH1 0x1 PUSH1 0xA0 SHL SUB AND DUP2 MSTORE PUSH1 0x20 ADD SWAP1 DUP2 MSTORE PUSH1 0x20 ADD PUSH1 0x0 KECCAK256 PUSH1 0x0 SWAP1 SLOAD SWAP1 PUSH2 0x100 EXP SWAP1 DIV PUSH1 0x1 PUSH1 0x1 PUSH1 0xA0 SHL SUB AND PUSH1 0x1 PUSH1 0x1 PUSH1 0xA0 SHL SUB AND PUSH2 0x8FC DUP4 SWAP1 DUP2 ISZERO MUL SWAP1 PUSH1 0x40 MLOAD PUSH1 0x0 PUSH1 0x40 MLOAD DUP1 DUP4 SUB DUP2 DUP6 DUP9 DUP9 CALL SWAP4 POP POP POP POP ISZERO DUP1 ISZERO PUSH2 0x32D3 JUMPI RETURNDATASIZE PUSH1 0x0 DUP1 RETURNDATACOPY RETURNDATASIZE PUSH1 0x0 REVERT JUMPDEST POP JUMPDEST DUP1 PUSH2 0x32DF DUP2 PUSH2 0x4F81 JUMP JUMPDEST SWAP2 POP POP PUSH2 0x318A JUMP JUMPDEST POP JUMPDEST POP POP JUMPDEST PUSH1 0x1 PUSH1 0x1 PUSH1 0xA0 SHL SUB DUP6 AND PUSH1 0x0 DUP2 DUP2 MSTORE PUSH1 0x13 PUSH1 0x20 SWAP1 DUP2 MSTORE PUSH1 0x40 DUP1 DUP4 KECCAK256 PUSH1 0x12 DUP4 MSTORE DUP2 DUP5 KECCAK256 DUP1 SLOAD DUP6 MSTORE SWAP1 DUP4 MSTORE DUP2 DUP5 KECCAK256 SLOAD SWAP5 DUP5 MSTORE TIMESTAMP SWAP1 SSTORE PUSH1 0xA SWAP1 SWAP2 MSTORE SWAP1 KECCAK256 PUSH1 0x1 ADD SLOAD ISZERO PUSH2 0x33A2 JUMPI PUSH1 0x1 PUSH1 0x1 PUSH1 0xA0 SHL SUB DUP7 AND PUSH1 0x0 SWAP1 DUP2 MSTORE PUSH1 0xA PUSH1 0x20 MSTORE PUSH1 0x40 SWAP1 KECCAK256 PUSH1 0x1 ADD SLOAD PUSH2 0x335E DUP6 PUSH9 0x56BC75E2D63100000 PUSH2 0x4F2A JUMP JUMPDEST PUSH2 0x3368 SWAP2 SWAP1 PUSH2 0x4F57 JUMP JUMPDEST PUSH2 0x3372 SWAP1 DUP3 PUSH2 0x4EDE JUMP JUMPDEST PUSH1 0x1 PUSH1 0x1 PUSH1 0xA0 SHL SUB DUP8 AND PUSH1 0x0 SWAP1 DUP2 MSTORE PUSH1 0x13 PUSH1 0x20 SWAP1 DUP2 MSTORE PUSH1 0x40 DUP1 DUP4 KECCAK256 PUSH1 0x12 DUP4 MSTORE DUP2 DUP5 KECCAK256 SLOAD DUP5 MSTORE SWAP1 SWAP2 MSTORE SWAP1 KECCAK256 SSTORE PUSH2 0x33DC JUMP JUMPDEST PUSH1 0x1 PUSH1 0x1 PUSH1 0xA0 SHL SUB DUP7 AND PUSH1 0x0 SWAP1 DUP2 MSTORE PUSH1 0x13 PUSH1 0x20 SWAP1 DUP2 MSTORE PUSH1 0x40 DUP1 DUP4 KECCAK256 PUSH1 0x12 DUP4 MSTORE DUP2 DUP5 KECCAK256 SLOAD DUP5 MSTORE SWAP1 SWAP2 MSTORE SWAP1 KECCAK256 DUP2 SWAP1 SSTORE PUSH2 0x33D9 DUP5 DUP5 PUSH2 0x4EDE JUMP JUMPDEST SWAP3 POP JUMPDEST PUSH1 0x0 PUSH1 0x1 PUSH1 0x1 PUSH1 0xA0 SHL SUB DUP8 AND PUSH1 0x0 SWAP1 DUP2 MSTORE PUSH1 0xA PUSH1 0x20 MSTORE PUSH1 0x40 SWAP1 KECCAK256 SLOAD PUSH1 0x1 PUSH1 0xA0 SHL SWAP1 DIV PUSH1 0xFF AND PUSH1 0x4 DUP2 GT ISZERO PUSH2 0x3412 JUMPI PUSH2 0x3412 PUSH2 0x4914 JUMP JUMPDEST SUB PUSH2 0x3421 JUMPI POP POP POP POP POP POP POP POP JUMP JUMPDEST PUSH2 0x342C DUP4 PUSH1 0x0 PUSH2 0x4101 JUMP JUMPDEST DUP6 PUSH1 0x1 PUSH1 0x1 PUSH1 0xA0 SHL SUB AND PUSH32 0x1D6CE8F9F300ECD90371399CE90DA8388BBA45019701A1FD6D6EE08EA5800776 DUP5 TIMESTAMP DUP12 DUP12 PUSH1 0x40 MLOAD PUSH2 0x346B SWAP5 SWAP4 SWAP3 SWAP2 SWAP1 PUSH2 0x5118 JUMP JUMPDEST PUSH1 0x40 MLOAD DUP1 SWAP2 SUB SWAP1 LOG2 POP POP POP POP POP POP POP POP JUMP JUMPDEST PUSH1 0x1 PUSH1 0x1 PUSH1 0xA0 SHL SUB DUP2 DUP2 AND PUSH1 0x0 SWAP1 DUP2 MSTORE PUSH1 0x10 PUSH1 0x20 MSTORE PUSH1 0x40 DUP2 KECCAK256 SLOAD SWAP1 SWAP2 AND ISZERO PUSH2 0x34D6 JUMPI PUSH1 0x40 MLOAD PUSH3 0x461BCD PUSH1 0xE5 SHL DUP2 MSTORE PUSH1 0x20 PUSH1 0x4 DUP3 ADD MSTORE PUSH1 0xC PUSH1 0x24 DUP3 ADD MSTORE PUSH12 0x1A5B9D985B1A590818D85B1B PUSH1 0xA2 SHL PUSH1 0x44 DUP3 ADD MSTORE PUSH1 0x64 ADD PUSH2 0xA1D JUMP JUMPDEST POP PUSH1 0x1 PUSH1 0x1 PUSH1 0xA0 SHL SUB AND PUSH1 0x0 SWAP1 DUP2 MSTORE PUSH1 0x10 PUSH1 0x20 MSTORE PUSH1 0x40 SWAP1 KECCAK256 DUP1 SLOAD PUSH1 0x1 PUSH1 0x1 PUSH1 0xA0 SHL SUB NOT AND ORIGIN OR SWAP1 SSTORE PUSH1 0x1 SWAP1 JUMP JUMPDEST PUSH1 0x0 DUP1 PUSH2 0x3510 PUSH1 0x0 PUSH2 0x4435 JUMP JUMPDEST SWAP2 POP SWAP2 POP SWAP1 SWAP2 JUMP JUMPDEST PUSH2 0x3520 PUSH2 0x3AAB JUMP JUMPDEST PUSH2 0x352D DUP6 DUP6 DUP6 DUP6 DUP6 PUSH2 0x405F JUMP JUMPDEST POP POP POP POP POP JUMP JUMPDEST PUSH1 0x0 DUP1 SLOAD PUSH1 0xFF AND PUSH2 0x3557 JUMPI PUSH1 0x40 MLOAD PUSH3 0x461BCD PUSH1 0xE5 SHL DUP2 MSTORE PUSH1 0x4 ADD PUSH2 0xA1D SWAP1 PUSH2 0x4EF1 JUMP JUMPDEST ORIGIN PUSH1 0x0 PUSH1 0x1 PUSH1 0x1 PUSH1 0xA0 SHL SUB DUP5 AND PUSH1 0x0 SWAP1 DUP2 MSTORE PUSH1 0xA PUSH1 0x20 MSTORE PUSH1 0x40 SWAP1 KECCAK256 SLOAD PUSH1 0x1 PUSH1 0xA0 SHL SWAP1 DIV PUSH1 0xFF AND PUSH1 0x4 DUP2 GT ISZERO PUSH2 0x358E JUMPI PUSH2 0x358E PUSH2 0x4914 JUMP JUMPDEST SUB PUSH2 0x35D1 JUMPI PUSH1 0x40 MLOAD PUSH3 0x461BCD PUSH1 0xE5 SHL DUP2 MSTORE PUSH1 0x20 PUSH1 0x4 DUP3 ADD MSTORE PUSH1 0x13 PUSH1 0x24 DUP3 ADD MSTORE PUSH19 0x15985B1A59185D1BDC881B9BDD08195E1A5CDD PUSH1 0x6A SHL PUSH1 0x44 DUP3 ADD MSTORE PUSH1 0x64 ADD PUSH2 0xA1D JUMP JUMPDEST PUSH1 0x16 SLOAD PUSH1 0x1 PUSH1 0x1 PUSH1 0xA0 SHL SUB DUP1 DUP4 AND PUSH1 0x0 SWAP1 DUP2 MSTORE PUSH1 0x11 PUSH1 0x20 SWAP1 DUP2 MSTORE PUSH1 0x40 DUP1 DUP4 KECCAK256 SWAP4 DUP9 AND DUP4 MSTORE SWAP3 SWAP1 MSTORE KECCAK256 SLOAD TIMESTAMP SWAP2 PUSH2 0x3605 SWAP2 PUSH2 0x4EDE JUMP JUMPDEST GT ISZERO PUSH2 0x365E JUMPI PUSH1 0x40 MLOAD PUSH3 0x461BCD PUSH1 0xE5 SHL DUP2 MSTORE PUSH1 0x20 PUSH1 0x4 DUP3 ADD MSTORE PUSH1 0x22 PUSH1 0x24 DUP3 ADD MSTORE PUSH32 0x596F752063616E6E6F7420756E7374616B65206265666F726520746865207469 PUSH1 0x44 DUP3 ADD MSTORE PUSH2 0x6D65 PUSH1 0xF0 SHL PUSH1 0x64 DUP3 ADD MSTORE PUSH1 0x84 ADD PUSH2 0xA1D JUMP JUMPDEST PUSH1 0x1 PUSH1 0x1 PUSH1 0xA0 SHL SUB DUP1 DUP3 AND PUSH1 0x0 SWAP1 DUP2 MSTORE PUSH1 0xB PUSH1 0x20 SWAP1 DUP2 MSTORE PUSH1 0x40 DUP1 DUP4 KECCAK256 SWAP4 DUP8 AND DUP4 MSTORE SWAP3 DUP2 MSTORE DUP3 DUP3 KECCAK256 PUSH1 0xA SWAP1 SWAP2 MSTORE SWAP2 SWAP1 KECCAK256 DUP2 SLOAD PUSH1 0x1 DUP4 ADD SLOAD ISZERO PUSH2 0x36ED JUMPI PUSH1 0x40 MLOAD PUSH3 0x461BCD PUSH1 0xE5 SHL DUP2 MSTORE PUSH1 0x20 PUSH1 0x4 DUP3 ADD MSTORE PUSH1 0x23 PUSH1 0x24 DUP3 ADD MSTORE PUSH32 0x596F752061726520616C726561647920696E20756E7374616B696E6720737461 PUSH1 0x44 DUP3 ADD MSTORE PUSH3 0x747573 PUSH1 0xE8 SHL PUSH1 0x64 DUP3 ADD MSTORE PUSH1 0x84 ADD PUSH2 0xA1D JUMP JUMPDEST PUSH1 0x0 DUP2 GT PUSH2 0x3738 JUMPI PUSH1 0x40 MLOAD PUSH3 0x461BCD PUSH1 0xE5 SHL DUP2 MSTORE PUSH1 0x20 PUSH1 0x4 DUP3 ADD MSTORE PUSH1 0x18 PUSH1 0x24 DUP3 ADD MSTORE PUSH24 0x596F7520646F6E2774206861766520616E79207374616B65 PUSH1 0x40 SHL PUSH1 0x44 DUP3 ADD MSTORE PUSH1 0x64 ADD PUSH2 0xA1D JUMP JUMPDEST PUSH1 0xD SLOAD PUSH1 0x1 EQ DUP1 ISZERO PUSH2 0x374E JUMPI POP PUSH2 0x374E DUP7 PUSH2 0x1F07 JUMP JUMPDEST DUP1 ISZERO PUSH2 0x376A JUMPI POP PUSH1 0x1 SLOAD DUP2 DUP4 PUSH1 0x1 ADD SLOAD PUSH2 0x3768 SWAP2 SWAP1 PUSH2 0x4F17 JUMP JUMPDEST LT JUMPDEST ISZERO PUSH2 0x37EB JUMPI PUSH1 0x40 MLOAD PUSH3 0x461BCD PUSH1 0xE5 SHL DUP2 MSTORE PUSH1 0x20 PUSH1 0x4 DUP3 ADD MSTORE PUSH1 0x45 PUSH1 0x24 DUP3 ADD MSTORE PUSH32 0x596F752063616E277420756E7374616B652C2076616C696461746F72206C6973 PUSH1 0x44 DUP3 ADD MSTORE PUSH32 0x742077696C6C20626520656D7074792061667465722074686973206F70657261 PUSH1 0x64 DUP3 ADD MSTORE PUSH5 0x74696F6E21 PUSH1 0xD8 SHL PUSH1 0x84 DUP3 ADD MSTORE PUSH1 0xA4 ADD PUSH2 0xA1D JUMP JUMPDEST PUSH1 0x9 DUP3 ADD SLOAD PUSH2 0x37FC SWAP1 PUSH1 0x1 SWAP1 PUSH2 0x4F17 JUMP JUMPDEST DUP4 PUSH1 0x2 ADD SLOAD EQ PUSH2 0x38E8 JUMPI PUSH1 0x9 DUP3 ADD DUP1 SLOAD PUSH2 0x3818 SWAP1 PUSH1 0x1 SWAP1 PUSH2 0x4F17 JUMP JUMPDEST DUP2 SLOAD DUP2 LT PUSH2 0x3828 JUMPI PUSH2 0x3828 PUSH2 0x4F6B JUMP JUMPDEST SWAP1 PUSH1 0x0 MSTORE PUSH1 0x20 PUSH1 0x0 KECCAK256 ADD PUSH1 0x0 SWAP1 SLOAD SWAP1 PUSH2 0x100 EXP SWAP1 DIV PUSH1 0x1 PUSH1 0x1 PUSH1 0xA0 SHL SUB AND DUP3 PUSH1 0x9 ADD DUP5 PUSH1 0x2 ADD SLOAD DUP2 SLOAD DUP2 LT PUSH2 0x385F JUMPI PUSH2 0x385F PUSH2 0x4F6B JUMP JUMPDEST SWAP1 PUSH1 0x0 MSTORE PUSH1 0x20 PUSH1 0x0 KECCAK256 ADD PUSH1 0x0 PUSH2 0x100 EXP DUP2 SLOAD DUP2 PUSH1 0x1 PUSH1 0x1 PUSH1 0xA0 SHL SUB MUL NOT AND SWAP1 DUP4 PUSH1 0x1 PUSH1 0x1 PUSH1 0xA0 SHL SUB AND MUL OR SWAP1 SSTORE POP DUP3 PUSH1 0x2 ADD SLOAD PUSH1 0xB PUSH1 0x0 DUP5 PUSH1 0x9 ADD DUP7 PUSH1 0x2 ADD SLOAD DUP2 SLOAD DUP2 LT PUSH2 0x38AF JUMPI PUSH2 0x38AF PUSH2 0x4F6B JUMP JUMPDEST PUSH1 0x0 SWAP2 DUP3 MSTORE PUSH1 0x20 DUP1 DUP4 KECCAK256 SWAP1 SWAP2 ADD SLOAD PUSH1 0x1 PUSH1 0x1 PUSH1 0xA0 SHL SUB SWAP1 DUP2 AND DUP5 MSTORE DUP4 DUP3 ADD SWAP5 SWAP1 SWAP5 MSTORE PUSH1 0x40 SWAP3 DUP4 ADD DUP3 KECCAK256 SWAP4 DUP12 AND DUP3 MSTORE SWAP3 SWAP1 SWAP3 MSTORE SWAP1 KECCAK256 PUSH1 0x2 ADD SSTORE JUMPDEST DUP2 PUSH1 0x9 ADD DUP1 SLOAD DUP1 PUSH2 0x38FB JUMPI PUSH2 0x38FB PUSH2 0x5183 JUMP JUMPDEST PUSH1 0x0 DUP3 DUP2 MSTORE PUSH1 0x20 SWAP1 KECCAK256 DUP2 ADD PUSH1 0x0 NOT SWAP1 DUP2 ADD DUP1 SLOAD PUSH1 0x1 PUSH1 0x1 PUSH1 0xA0 SHL SUB NOT AND SWAP1 SSTORE ADD SWAP1 SSTORE PUSH1 0x1 DUP3 ADD SLOAD PUSH2 0x392D SWAP1 DUP3 SWAP1 PUSH2 0x4F17 JUMP JUMPDEST PUSH1 0x1 DUP1 DUP5 ADD SWAP2 SWAP1 SWAP2 SSTORE NUMBER SWAP1 DUP5 ADD SSTORE PUSH1 0x0 PUSH1 0x2 DUP5 ADD SSTORE PUSH1 0xE SLOAD PUSH2 0x3950 SWAP1 DUP3 SWAP1 PUSH2 0x4F17 JUMP JUMPDEST PUSH1 0xE SSTORE PUSH1 0x1 DUP1 SLOAD SWAP1 DUP4 ADD SLOAD LT DUP1 ISZERO PUSH2 0x399C JUMPI POP PUSH1 0x4 PUSH1 0x1 PUSH1 0x1 PUSH1 0xA0 SHL SUB DUP8 AND PUSH1 0x0 SWAP1 DUP2 MSTORE PUSH1 0xA PUSH1 0x20 MSTORE PUSH1 0x40 SWAP1 KECCAK256 SLOAD PUSH1 0x1 PUSH1 0xA0 SHL SWAP1 DIV PUSH1 0xFF AND PUSH1 0x4 DUP2 GT ISZERO PUSH2 0x3999 JUMPI PUSH2 0x3999 PUSH2 0x4914 JUMP JUMPDEST EQ ISZERO JUMPDEST ISZERO PUSH2 0x39BB JUMPI DUP2 SLOAD PUSH1 0xFF PUSH1 0xA0 SHL NOT AND PUSH1 0x3 PUSH1 0xA0 SHL OR DUP3 SSTORE PUSH2 0x39BB DUP7 PUSH2 0x454D JUMP JUMPDEST PUSH2 0x39C4 DUP7 PUSH2 0x1707 JUMP JUMPDEST POP PUSH1 0x1 PUSH1 0x1 PUSH1 0xA0 SHL SUB DUP5 DUP2 AND PUSH1 0x0 DUP2 DUP2 MSTORE PUSH1 0x11 PUSH1 0x20 SWAP1 DUP2 MSTORE PUSH1 0x40 DUP1 DUP4 KECCAK256 SWAP5 DUP12 AND DUP1 DUP5 MSTORE SWAP5 DUP3 MSTORE DUP1 DUP4 KECCAK256 SWAP3 SWAP1 SWAP3 SSTORE DUP2 MLOAD DUP6 DUP2 MSTORE TIMESTAMP SWAP2 DUP2 ADD SWAP2 SWAP1 SWAP2 MSTORE PUSH32 0x449002AE18E748D69A55F38514400D64F966492E593E32D6E9B8B24DB98A0BC1 SWAP2 ADD PUSH1 0x40 MLOAD DUP1 SWAP2 SUB SWAP1 LOG3 POP PUSH1 0x1 SWAP6 SWAP5 POP POP POP POP POP JUMP JUMPDEST PUSH2 0x3A3D PUSH2 0x3AAB JUMP JUMPDEST PUSH1 0x1 PUSH1 0x1 PUSH1 0xA0 SHL SUB DUP2 AND PUSH2 0x3AA2 JUMPI PUSH1 0x40 MLOAD PUSH3 0x461BCD PUSH1 0xE5 SHL DUP2 MSTORE PUSH1 0x20 PUSH1 0x4 DUP3 ADD MSTORE PUSH1 0x26 PUSH1 0x24 DUP3 ADD MSTORE PUSH32 0x4F776E61626C653A206E6577206F776E657220697320746865207A65726F2061 PUSH1 0x44 DUP3 ADD MSTORE PUSH6 0x646472657373 PUSH1 0xD0 SHL PUSH1 0x64 DUP3 ADD MSTORE PUSH1 0x84 ADD PUSH2 0xA1D JUMP JUMPDEST PUSH2 0x150F DUP2 PUSH2 0x400D JUMP JUMPDEST PUSH1 0x9 SLOAD PUSH1 0x1 PUSH1 0x1 PUSH1 0xA0 SHL SUB AND CALLER EQ PUSH2 0x1705 JUMPI PUSH1 0x40 MLOAD PUSH3 0x461BCD PUSH1 0xE5 SHL DUP2 MSTORE PUSH1 0x20 PUSH1 0x4 DUP3 ADD DUP2 SWAP1 MSTORE PUSH1 0x24 DUP3 ADD MSTORE PUSH32 0x4F776E61626C653A2063616C6C6572206973206E6F7420746865206F776E6572 PUSH1 0x44 DUP3 ADD MSTORE PUSH1 0x64 ADD PUSH2 0xA1D JUMP JUMPDEST PUSH1 0x0 DUP5 PUSH2 0xFFFF AND GT DUP1 ISZERO PUSH2 0x3B19 JUMPI POP PUSH1 0x0 DUP4 GT JUMPDEST PUSH2 0x3B7B JUMPI PUSH1 0x40 MLOAD PUSH3 0x461BCD PUSH1 0xE5 SHL DUP2 MSTORE PUSH1 0x20 PUSH1 0x4 DUP3 ADD MSTORE PUSH1 0x2D PUSH1 0x24 DUP3 ADD MSTORE PUSH32 0x496E636F7272656374204D617856616C696461746F7273206F72204D696E696D PUSH1 0x44 DUP3 ADD MSTORE PUSH13 0x30B629BA30B5B4B733A1B7B4B7 PUSH1 0x99 SHL PUSH1 0x64 DUP3 ADD MSTORE PUSH1 0x84 ADD PUSH2 0xA1D JUMP JUMPDEST PUSH1 0x0 DUP1 SLOAD PUSH3 0xFFFF00 NOT AND PUSH2 0x100 PUSH2 0xFFFF DUP8 AND MUL OR SWAP1 SSTORE PUSH1 0x1 DUP4 SWAP1 SSTORE PUSH1 0x2 DUP3 SWAP1 SSTORE PUSH2 0x3BA8 DUP2 PUSH3 0x15180 PUSH2 0x4F2A JUMP JUMPDEST PUSH1 0x16 SSTORE POP POP POP POP JUMP JUMPDEST PUSH1 0x0 JUMPDEST PUSH1 0xD SLOAD DUP2 LT ISZERO PUSH2 0x3C0C JUMPI DUP3 PUSH1 0x1 PUSH1 0x1 PUSH1 0xA0 SHL SUB AND PUSH1 0xD DUP3 DUP2 SLOAD DUP2 LT PUSH2 0x3BDB JUMPI PUSH2 0x3BDB PUSH2 0x4F6B JUMP JUMPDEST PUSH1 0x0 SWAP2 DUP3 MSTORE PUSH1 0x20 SWAP1 SWAP2 KECCAK256 ADD SLOAD PUSH1 0x1 PUSH1 0x1 PUSH1 0xA0 SHL SUB AND SUB PUSH2 0x3BFA JUMPI POP POP POP JUMP JUMPDEST DUP1 PUSH2 0x3C04 DUP2 PUSH2 0x4F81 JUMP JUMPDEST SWAP2 POP POP PUSH2 0x3BB4 JUMP JUMPDEST POP PUSH1 0x0 SLOAD PUSH1 0xD SLOAD PUSH2 0x100 SWAP1 SWAP2 DIV PUSH2 0xFFFF AND GT ISZERO PUSH2 0x3CA1 JUMPI PUSH1 0xD DUP1 SLOAD PUSH1 0x1 DUP2 ADD DUP3 SSTORE PUSH1 0x0 SWAP2 SWAP1 SWAP2 MSTORE PUSH32 0xD7B6990105719101DABEB77144F2A3385C8033ACD3AF97E9423A695E81AD1EB5 ADD DUP1 SLOAD PUSH1 0x1 PUSH1 0x1 PUSH1 0xA0 SHL SUB NOT AND PUSH1 0x1 PUSH1 0x1 PUSH1 0xA0 SHL SUB DUP5 AND SWAP1 DUP2 OR SWAP1 SWAP2 SSTORE PUSH1 0x40 MLOAD TIMESTAMP DUP2 MSTORE PUSH32 0x1E3310AD6891B30E03874EC3D1422A6386C5DA63D9FAF595F5D99EEAF443B99A SWAP1 PUSH1 0x20 ADD PUSH2 0x1487 JUMP JUMPDEST PUSH1 0x0 PUSH1 0xA PUSH1 0x0 PUSH1 0xD PUSH1 0x0 DUP2 SLOAD DUP2 LT PUSH2 0x3CBB JUMPI PUSH2 0x3CBB PUSH2 0x4F6B JUMP JUMPDEST PUSH1 0x0 SWAP2 DUP3 MSTORE PUSH1 0x20 DUP1 DUP4 KECCAK256 SWAP1 SWAP2 ADD SLOAD PUSH1 0x1 PUSH1 0x1 PUSH1 0xA0 SHL SUB AND DUP4 MSTORE DUP3 ADD SWAP3 SWAP1 SWAP3 MSTORE PUSH1 0x40 ADD DUP2 KECCAK256 PUSH1 0x1 SWAP1 DUP2 ADD SLOAD SWAP3 POP JUMPDEST PUSH1 0xD SLOAD DUP2 LT ISZERO PUSH2 0x3D8F JUMPI DUP3 PUSH1 0xA PUSH1 0x0 PUSH1 0xD DUP5 DUP2 SLOAD DUP2 LT PUSH2 0x3D0A JUMPI PUSH2 0x3D0A PUSH2 0x4F6B JUMP JUMPDEST PUSH1 0x0 SWAP2 DUP3 MSTORE PUSH1 0x20 DUP1 DUP4 KECCAK256 SWAP1 SWAP2 ADD SLOAD PUSH1 0x1 PUSH1 0x1 PUSH1 0xA0 SHL SUB AND DUP4 MSTORE DUP3 ADD SWAP3 SWAP1 SWAP3 MSTORE PUSH1 0x40 ADD SWAP1 KECCAK256 PUSH1 0x1 ADD SLOAD LT ISZERO PUSH2 0x3D7D JUMPI PUSH1 0xA PUSH1 0x0 PUSH1 0xD DUP4 DUP2 SLOAD DUP2 LT PUSH2 0x3D4F JUMPI PUSH2 0x3D4F PUSH2 0x4F6B JUMP JUMPDEST PUSH1 0x0 SWAP2 DUP3 MSTORE PUSH1 0x20 DUP1 DUP4 KECCAK256 SWAP1 SWAP2 ADD SLOAD PUSH1 0x1 PUSH1 0x1 PUSH1 0xA0 SHL SUB AND DUP4 MSTORE DUP3 ADD SWAP3 SWAP1 SWAP3 MSTORE PUSH1 0x40 ADD SWAP1 KECCAK256 PUSH1 0x1 ADD SLOAD SWAP3 POP SWAP1 POP DUP1 JUMPDEST DUP1 PUSH2 0x3D87 DUP2 PUSH2 0x4F81 JUMP JUMPDEST SWAP2 POP POP PUSH2 0x3CE8 JUMP JUMPDEST POP DUP2 DUP4 GT PUSH2 0x3D9D JUMPI POP POP POP POP JUMP JUMPDEST DUP4 PUSH1 0x1 PUSH1 0x1 PUSH1 0xA0 SHL SUB AND PUSH32 0x1E3310AD6891B30E03874EC3D1422A6386C5DA63D9FAF595F5D99EEAF443B99A TIMESTAMP PUSH1 0x40 MLOAD PUSH2 0x3DD8 SWAP2 DUP2 MSTORE PUSH1 0x20 ADD SWAP1 JUMP JUMPDEST PUSH1 0x40 MLOAD DUP1 SWAP2 SUB SWAP1 LOG2 PUSH1 0xD DUP2 DUP2 SLOAD DUP2 LT PUSH2 0x3DF3 JUMPI PUSH2 0x3DF3 PUSH2 0x4F6B JUMP JUMPDEST PUSH1 0x0 SWAP2 DUP3 MSTORE PUSH1 0x20 SWAP2 DUP3 SWAP1 KECCAK256 ADD SLOAD PUSH1 0x40 MLOAD TIMESTAMP DUP2 MSTORE PUSH1 0x1 PUSH1 0x1 PUSH1 0xA0 SHL SUB SWAP1 SWAP2 AND SWAP2 PUSH32 0x7521E44559C870C316E84E60BC4785D9C034A8AB1D6ACDCE8134AC03F946C6ED SWAP2 ADD PUSH1 0x40 MLOAD DUP1 SWAP2 SUB SWAP1 LOG2 DUP4 PUSH1 0xD DUP3 DUP2 SLOAD DUP2 LT PUSH2 0x3E51 JUMPI PUSH2 0x3E51 PUSH2 0x4F6B JUMP JUMPDEST SWAP1 PUSH1 0x0 MSTORE PUSH1 0x20 PUSH1 0x0 KECCAK256 ADD PUSH1 0x0 PUSH2 0x100 EXP DUP2 SLOAD DUP2 PUSH1 0x1 PUSH1 0x1 PUSH1 0xA0 SHL SUB MUL NOT AND SWAP1 DUP4 PUSH1 0x1 PUSH1 0x1 PUSH1 0xA0 SHL SUB AND MUL OR SWAP1 SSTORE POP POP POP POP POP JUMP JUMPDEST PUSH1 0x0 PUSH1 0x1 PUSH1 0x1 PUSH1 0xA0 SHL SUB DUP3 AND PUSH1 0x0 SWAP1 DUP2 MSTORE PUSH1 0xA PUSH1 0x20 MSTORE PUSH1 0x40 SWAP1 KECCAK256 SLOAD PUSH1 0x1 PUSH1 0xA0 SHL SWAP1 DIV PUSH1 0xFF AND PUSH1 0x4 DUP2 GT ISZERO PUSH2 0x3EBB JUMPI PUSH2 0x3EBB PUSH2 0x4914 JUMP JUMPDEST EQ DUP1 PUSH2 0x3ECA JUMPI POP PUSH1 0xC SLOAD PUSH1 0x1 LT ISZERO JUMPDEST ISZERO PUSH2 0x3ED2 JUMPI POP JUMP JUMPDEST PUSH1 0x1 PUSH1 0x1 PUSH1 0xA0 SHL SUB DUP2 AND PUSH1 0x0 SWAP1 DUP2 MSTORE PUSH1 0xA PUSH1 0x20 MSTORE PUSH1 0x40 SWAP1 KECCAK256 PUSH1 0x7 ADD SLOAD DUP1 ISZERO PUSH2 0x3F5D JUMPI PUSH2 0x3EFE DUP2 DUP4 PUSH2 0x4101 JUMP JUMPDEST DUP1 PUSH1 0xF SLOAD PUSH2 0x3F0C SWAP2 SWAP1 PUSH2 0x4EDE JUMP JUMPDEST PUSH1 0xF SSTORE PUSH1 0x1 PUSH1 0x1 PUSH1 0xA0 SHL SUB DUP3 AND PUSH1 0x0 SWAP1 DUP2 MSTORE PUSH1 0xA PUSH1 0x20 MSTORE PUSH1 0x40 SWAP1 KECCAK256 PUSH1 0x8 ADD SLOAD PUSH2 0x3F36 SWAP1 DUP3 SWAP1 PUSH2 0x4EDE JUMP JUMPDEST PUSH1 0x1 PUSH1 0x1 PUSH1 0xA0 SHL SUB DUP4 AND PUSH1 0x0 SWAP1 DUP2 MSTORE PUSH1 0xA PUSH1 0x20 MSTORE PUSH1 0x40 DUP2 KECCAK256 PUSH1 0x8 DUP2 ADD SWAP3 SWAP1 SWAP3 SSTORE PUSH1 0x7 SWAP1 SWAP2 ADD SSTORE JUMPDEST PUSH1 0x40 DUP1 MLOAD DUP3 DUP2 MSTORE TIMESTAMP PUSH1 0x20 DUP3 ADD MSTORE PUSH1 0x1 PUSH1 0x1 PUSH1 0xA0 SHL SUB DUP5 AND SWAP2 PUSH32 0xE294E9D73F8EEE23E21B2E1567960625A6B5D339CB127B55D0D09473A9951235 SWAP2 ADD PUSH2 0x1487 JUMP JUMPDEST PUSH1 0x0 PUSH1 0x1 PUSH1 0x1 PUSH1 0xA0 SHL SUB DUP3 AND PUSH1 0x0 SWAP1 DUP2 MSTORE PUSH1 0xA PUSH1 0x20 MSTORE PUSH1 0x40 SWAP1 KECCAK256 SLOAD PUSH1 0x1 PUSH1 0xA0 SHL SWAP1 DIV PUSH1 0xFF AND PUSH1 0x4 DUP2 GT ISZERO PUSH2 0x3FD3 JUMPI PUSH2 0x3FD3 PUSH2 0x4914 JUMP JUMPDEST SUB PUSH2 0x3FDB JUMPI POP JUMP JUMPDEST PUSH1 0x1 PUSH1 0x1 PUSH1 0xA0 SHL SUB DUP2 AND PUSH1 0x0 SWAP1 DUP2 MSTORE PUSH1 0xA PUSH1 0x20 MSTORE PUSH1 0x40 SWAP1 KECCAK256 DUP1 SLOAD PUSH1 0xFF PUSH1 0xA0 SHL NOT AND PUSH1 0x1 PUSH1 0xA2 SHL OR SWAP1 SSTORE PUSH2 0x150F DUP2 PUSH2 0x454D JUMP JUMPDEST PUSH1 0x9 DUP1 SLOAD PUSH1 0x1 PUSH1 0x1 PUSH1 0xA0 SHL SUB DUP4 DUP2 AND PUSH1 0x1 PUSH1 0x1 PUSH1 0xA0 SHL SUB NOT DUP4 AND DUP2 OR SWAP1 SWAP4 SSTORE PUSH1 0x40 MLOAD SWAP2 AND SWAP2 SWAP1 DUP3 SWAP1 PUSH32 0x8BE0079C531659141344CD1FD0A4F28419497F9722A3DAAFE3B4186F6B6457E0 SWAP1 PUSH1 0x0 SWAP1 LOG3 POP POP JUMP JUMPDEST PUSH3 0x186A0 DUP2 DUP4 PUSH2 0x406F DUP8 DUP10 PUSH2 0x4EDE JUMP JUMPDEST PUSH2 0x4079 SWAP2 SWAP1 PUSH2 0x4EDE JUMP JUMPDEST PUSH2 0x4083 SWAP2 SWAP1 PUSH2 0x4EDE JUMP JUMPDEST GT ISZERO PUSH2 0x40D1 JUMPI PUSH1 0x40 MLOAD PUSH3 0x461BCD PUSH1 0xE5 SHL DUP2 MSTORE PUSH1 0x20 PUSH1 0x4 DUP3 ADD MSTORE PUSH1 0x1A PUSH1 0x24 DUP3 ADD MSTORE PUSH32 0x546F74616C206861732065786365656465642062792031303025000000000000 PUSH1 0x44 DUP3 ADD MSTORE PUSH1 0x64 ADD PUSH2 0xA1D JUMP JUMPDEST PUSH1 0x4 DUP6 SWAP1 SSTORE PUSH1 0x5 DUP5 SWAP1 SSTORE PUSH1 0x3 DUP3 SWAP1 SSTORE PUSH1 0x6 DUP2 SWAP1 SSTORE PUSH2 0x40F7 DUP4 PUSH8 0xDE0B6B3A7640000 PUSH2 0x4F2A JUMP JUMPDEST PUSH1 0x7 SSTORE POP POP POP POP POP JUMP JUMPDEST DUP2 PUSH1 0x0 SUB PUSH2 0x410D JUMPI POP POP JUMP JUMPDEST PUSH1 0x0 DUP1 PUSH2 0x4119 DUP4 PUSH2 0x4435 JUMP JUMPDEST SWAP1 SWAP3 POP SWAP1 POP PUSH1 0x0 DUP2 SWAP1 SUB PUSH2 0x412D JUMPI POP POP POP POP JUMP JUMPDEST PUSH1 0x0 DUP1 DUP4 PUSH1 0x0 SUB PUSH2 0x42B5 JUMPI PUSH1 0x0 PUSH2 0x4144 DUP5 DUP9 PUSH2 0x4F57 JUMP JUMPDEST SWAP1 POP PUSH2 0x4150 DUP5 DUP3 PUSH2 0x4F2A JUMP JUMPDEST PUSH2 0x415A SWAP1 DUP9 PUSH2 0x4F17 JUMP JUMPDEST SWAP3 POP PUSH1 0x0 JUMPDEST PUSH1 0xC SLOAD DUP2 LT ISZERO PUSH2 0x424A JUMPI PUSH1 0x0 PUSH1 0xC DUP3 DUP2 SLOAD DUP2 LT PUSH2 0x417E JUMPI PUSH2 0x417E PUSH2 0x4F6B JUMP JUMPDEST PUSH1 0x0 SWAP2 DUP3 MSTORE PUSH1 0x20 SWAP1 SWAP2 KECCAK256 ADD SLOAD PUSH1 0x1 PUSH1 0x1 PUSH1 0xA0 SHL SUB AND SWAP1 POP PUSH1 0x4 PUSH1 0x1 PUSH1 0x1 PUSH1 0xA0 SHL SUB DUP3 AND PUSH1 0x0 SWAP1 DUP2 MSTORE PUSH1 0xA PUSH1 0x20 MSTORE PUSH1 0x40 SWAP1 KECCAK256 SLOAD PUSH1 0x1 PUSH1 0xA0 SHL SWAP1 DIV PUSH1 0xFF AND PUSH1 0x4 DUP2 GT ISZERO PUSH2 0x41CB JUMPI PUSH2 0x41CB PUSH2 0x4914 JUMP JUMPDEST EQ ISZERO DUP1 ISZERO PUSH2 0x41EB JUMPI POP DUP8 PUSH1 0x1 PUSH1 0x1 PUSH1 0xA0 SHL SUB AND DUP2 PUSH1 0x1 PUSH1 0x1 PUSH1 0xA0 SHL SUB AND EQ ISZERO JUMPDEST ISZERO PUSH2 0x4237 JUMPI PUSH1 0x1 PUSH1 0x1 PUSH1 0xA0 SHL SUB DUP2 AND PUSH1 0x0 SWAP1 DUP2 MSTORE PUSH1 0xA PUSH1 0x20 MSTORE PUSH1 0x40 SWAP1 KECCAK256 PUSH1 0x7 ADD SLOAD PUSH2 0x4217 SWAP1 DUP5 SWAP1 PUSH2 0x4EDE JUMP JUMPDEST PUSH1 0x1 PUSH1 0x1 PUSH1 0xA0 SHL SUB DUP3 AND PUSH1 0x0 SWAP1 DUP2 MSTORE PUSH1 0xA PUSH1 0x20 MSTORE PUSH1 0x40 SWAP1 KECCAK256 PUSH1 0x7 ADD SSTORE SWAP3 POP DUP3 JUMPDEST POP DUP1 PUSH2 0x4242 DUP2 PUSH2 0x4F81 JUMP JUMPDEST SWAP2 POP POP PUSH2 0x415F JUMP JUMPDEST POP PUSH1 0x0 DUP4 GT DUP1 ISZERO PUSH2 0x4263 JUMPI POP PUSH1 0x1 PUSH1 0x1 PUSH1 0xA0 SHL SUB DUP3 AND ISZERO ISZERO JUMPDEST ISZERO PUSH2 0x42AC JUMPI PUSH1 0x1 PUSH1 0x1 PUSH1 0xA0 SHL SUB DUP3 AND PUSH1 0x0 SWAP1 DUP2 MSTORE PUSH1 0xA PUSH1 0x20 MSTORE PUSH1 0x40 SWAP1 KECCAK256 PUSH1 0x7 ADD SLOAD PUSH2 0x428F SWAP1 DUP5 SWAP1 PUSH2 0x4EDE JUMP JUMPDEST PUSH1 0x1 PUSH1 0x1 PUSH1 0xA0 SHL SUB DUP4 AND PUSH1 0x0 SWAP1 DUP2 MSTORE PUSH1 0xA PUSH1 0x20 MSTORE PUSH1 0x40 SWAP1 KECCAK256 PUSH1 0x7 ADD SSTORE JUMPDEST POP POP POP POP POP POP POP JUMP JUMPDEST PUSH1 0x0 DUP1 JUMPDEST PUSH1 0xC SLOAD DUP2 LT ISZERO PUSH2 0x43E7 JUMPI PUSH1 0x0 PUSH1 0xC DUP3 DUP2 SLOAD DUP2 LT PUSH2 0x42D8 JUMPI PUSH2 0x42D8 PUSH2 0x4F6B JUMP JUMPDEST PUSH1 0x0 SWAP2 DUP3 MSTORE PUSH1 0x20 SWAP1 SWAP2 KECCAK256 ADD SLOAD PUSH1 0x1 PUSH1 0x1 PUSH1 0xA0 SHL SUB AND SWAP1 POP PUSH1 0x4 PUSH1 0x1 PUSH1 0x1 PUSH1 0xA0 SHL SUB DUP3 AND PUSH1 0x0 SWAP1 DUP2 MSTORE PUSH1 0xA PUSH1 0x20 MSTORE PUSH1 0x40 SWAP1 KECCAK256 SLOAD PUSH1 0x1 PUSH1 0xA0 SHL SWAP1 DIV PUSH1 0xFF AND PUSH1 0x4 DUP2 GT ISZERO PUSH2 0x4325 JUMPI PUSH2 0x4325 PUSH2 0x4914 JUMP JUMPDEST EQ ISZERO DUP1 ISZERO PUSH2 0x4345 JUMPI POP DUP8 PUSH1 0x1 PUSH1 0x1 PUSH1 0xA0 SHL SUB AND DUP2 PUSH1 0x1 PUSH1 0x1 PUSH1 0xA0 SHL SUB AND EQ ISZERO JUMPDEST ISZERO PUSH2 0x43D4 JUMPI PUSH1 0x1 PUSH1 0x1 PUSH1 0xA0 SHL SUB DUP2 AND PUSH1 0x0 SWAP1 DUP2 MSTORE PUSH1 0xA PUSH1 0x20 MSTORE PUSH1 0x40 DUP2 KECCAK256 PUSH1 0x1 ADD SLOAD DUP9 SWAP1 PUSH2 0x4372 SWAP1 DUP13 PUSH2 0x4F2A JUMP JUMPDEST PUSH2 0x437C SWAP2 SWAP1 PUSH2 0x4F57 JUMP JUMPDEST SWAP1 POP PUSH2 0x4388 DUP2 DUP6 PUSH2 0x4EDE JUMP JUMPDEST PUSH1 0x1 PUSH1 0x1 PUSH1 0xA0 SHL SUB DUP4 AND PUSH1 0x0 SWAP1 DUP2 MSTORE PUSH1 0xA PUSH1 0x20 MSTORE PUSH1 0x40 SWAP1 KECCAK256 PUSH1 0x7 ADD SLOAD SWAP3 SWAP6 POP SWAP4 POP DUP5 SWAP2 PUSH2 0x43B6 SWAP1 DUP3 SWAP1 PUSH2 0x4EDE JUMP JUMPDEST PUSH1 0x1 PUSH1 0x1 PUSH1 0xA0 SHL SUB DUP4 AND PUSH1 0x0 SWAP1 DUP2 MSTORE PUSH1 0xA PUSH1 0x20 MSTORE PUSH1 0x40 SWAP1 KECCAK256 PUSH1 0x7 ADD SSTORE POP JUMPDEST POP DUP1 PUSH2 0x43DF DUP2 PUSH2 0x4F81 JUMP JUMPDEST SWAP2 POP POP PUSH2 0x42B9 JUMP JUMPDEST POP PUSH2 0x43F2 DUP2 DUP9 PUSH2 0x4F17 JUMP JUMPDEST SWAP3 POP PUSH1 0x0 DUP4 GT DUP1 ISZERO PUSH2 0x4263 JUMPI POP PUSH1 0x1 PUSH1 0x1 PUSH1 0xA0 SHL SUB DUP3 AND ISZERO PUSH2 0x42AC JUMPI PUSH1 0x1 PUSH1 0x1 PUSH1 0xA0 SHL SUB DUP3 AND PUSH1 0x0 SWAP1 DUP2 MSTORE PUSH1 0xA PUSH1 0x20 MSTORE PUSH1 0x40 SWAP1 KECCAK256 PUSH1 0x7 ADD SLOAD PUSH2 0x428F SWAP1 DUP5 SWAP1 PUSH2 0x4EDE JUMP JUMPDEST PUSH1 0x0 DUP1 PUSH1 0x0 JUMPDEST PUSH1 0xC SLOAD DUP2 LT ISZERO PUSH2 0x4547 JUMPI PUSH1 0x4 PUSH1 0xA PUSH1 0x0 PUSH1 0xC DUP5 DUP2 SLOAD DUP2 LT PUSH2 0x445E JUMPI PUSH2 0x445E PUSH2 0x4F6B JUMP JUMPDEST PUSH1 0x0 SWAP2 DUP3 MSTORE PUSH1 0x20 DUP1 DUP4 KECCAK256 SWAP1 SWAP2 ADD SLOAD PUSH1 0x1 PUSH1 0x1 PUSH1 0xA0 SHL SUB AND DUP4 MSTORE DUP3 ADD SWAP3 SWAP1 SWAP3 MSTORE PUSH1 0x40 ADD SWAP1 KECCAK256 SLOAD PUSH1 0xFF PUSH1 0x1 PUSH1 0xA0 SHL SWAP1 SWAP2 DIV AND PUSH1 0x4 DUP2 GT ISZERO PUSH2 0x449F JUMPI PUSH2 0x449F PUSH2 0x4914 JUMP JUMPDEST EQ ISZERO DUP1 ISZERO PUSH2 0x44D7 JUMPI POP PUSH1 0xC DUP2 DUP2 SLOAD DUP2 LT PUSH2 0x44BB JUMPI PUSH2 0x44BB PUSH2 0x4F6B JUMP JUMPDEST PUSH1 0x0 SWAP2 DUP3 MSTORE PUSH1 0x20 SWAP1 SWAP2 KECCAK256 ADD SLOAD PUSH1 0x1 PUSH1 0x1 PUSH1 0xA0 SHL SUB DUP6 DUP2 AND SWAP2 AND EQ ISZERO JUMPDEST ISZERO PUSH2 0x4535 JUMPI PUSH1 0xA PUSH1 0x0 PUSH1 0xC DUP4 DUP2 SLOAD DUP2 LT PUSH2 0x44F3 JUMPI PUSH2 0x44F3 PUSH2 0x4F6B JUMP JUMPDEST PUSH1 0x0 SWAP2 DUP3 MSTORE PUSH1 0x20 DUP1 DUP4 KECCAK256 SWAP1 SWAP2 ADD SLOAD PUSH1 0x1 PUSH1 0x1 PUSH1 0xA0 SHL SUB AND DUP4 MSTORE DUP3 ADD SWAP3 SWAP1 SWAP3 MSTORE PUSH1 0x40 ADD SWAP1 KECCAK256 PUSH1 0x1 ADD SLOAD PUSH2 0x4525 SWAP1 DUP5 PUSH2 0x4EDE JUMP JUMPDEST SWAP3 POP DUP2 PUSH2 0x4531 DUP2 PUSH2 0x4F81 JUMP JUMPDEST SWAP3 POP POP JUMPDEST DUP1 PUSH2 0x453F DUP2 PUSH2 0x4F81 JUMP JUMPDEST SWAP2 POP POP PUSH2 0x443B JUMP JUMPDEST POP SWAP2 POP SWAP2 JUMP JUMPDEST PUSH1 0x0 JUMPDEST PUSH1 0xD SLOAD DUP2 LT DUP1 ISZERO PUSH2 0x4563 JUMPI POP PUSH1 0xD SLOAD PUSH1 0x1 LT JUMPDEST ISZERO PUSH2 0x1490 JUMPI PUSH1 0xD DUP2 DUP2 SLOAD DUP2 LT PUSH2 0x457B JUMPI PUSH2 0x457B PUSH2 0x4F6B JUMP JUMPDEST PUSH1 0x0 SWAP2 DUP3 MSTORE PUSH1 0x20 SWAP1 SWAP2 KECCAK256 ADD SLOAD PUSH1 0x1 PUSH1 0x1 PUSH1 0xA0 SHL SUB SWAP1 DUP2 AND SWAP1 DUP4 AND SUB PUSH2 0x469A JUMPI PUSH1 0xD SLOAD PUSH2 0x45A9 SWAP1 PUSH1 0x1 SWAP1 PUSH2 0x4F17 JUMP JUMPDEST DUP2 EQ PUSH2 0x462A JUMPI PUSH1 0xD DUP1 SLOAD PUSH2 0x45BF SWAP1 PUSH1 0x1 SWAP1 PUSH2 0x4F17 JUMP JUMPDEST DUP2 SLOAD DUP2 LT PUSH2 0x45CF JUMPI PUSH2 0x45CF PUSH2 0x4F6B JUMP JUMPDEST PUSH1 0x0 SWAP2 DUP3 MSTORE PUSH1 0x20 SWAP1 SWAP2 KECCAK256 ADD SLOAD PUSH1 0xD DUP1 SLOAD PUSH1 0x1 PUSH1 0x1 PUSH1 0xA0 SHL SUB SWAP1 SWAP3 AND SWAP2 DUP4 SWAP1 DUP2 LT PUSH2 0x45FB JUMPI PUSH2 0x45FB PUSH2 0x4F6B JUMP JUMPDEST SWAP1 PUSH1 0x0 MSTORE PUSH1 0x20 PUSH1 0x0 KECCAK256 ADD PUSH1 0x0 PUSH2 0x100 EXP DUP2 SLOAD DUP2 PUSH1 0x1 PUSH1 0x1 PUSH1 0xA0 SHL SUB MUL NOT AND SWAP1 DUP4 PUSH1 0x1 PUSH1 0x1 PUSH1 0xA0 SHL SUB AND MUL OR SWAP1 SSTORE POP JUMPDEST PUSH1 0xD DUP1 SLOAD DUP1 PUSH2 0x463B JUMPI PUSH2 0x463B PUSH2 0x5183 JUMP JUMPDEST PUSH1 0x0 DUP3 DUP2 MSTORE PUSH1 0x20 SWAP1 KECCAK256 DUP2 ADD PUSH1 0x0 NOT SWAP1 DUP2 ADD DUP1 SLOAD PUSH1 0x1 PUSH1 0x1 PUSH1 0xA0 SHL SUB NOT AND SWAP1 SSTORE ADD SWAP1 SSTORE PUSH1 0x40 MLOAD PUSH1 0x1 PUSH1 0x1 PUSH1 0xA0 SHL SUB DUP4 AND SWAP1 PUSH32 0x7521E44559C870C316E84E60BC4785D9C034A8AB1D6ACDCE8134AC03F946C6ED SWAP1 PUSH2 0x1487 SWAP1 TIMESTAMP DUP2 MSTORE PUSH1 0x20 ADD SWAP1 JUMP JUMPDEST DUP1 PUSH2 0x46A4 DUP2 PUSH2 0x4F81 JUMP JUMPDEST SWAP2 POP POP PUSH2 0x4550 JUMP JUMPDEST DUP3 DUP1 SLOAD DUP3 DUP3 SSTORE SWAP1 PUSH1 0x0 MSTORE PUSH1 0x20 PUSH1 0x0 KECCAK256 SWAP1 DUP2 ADD SWAP3 DUP3 ISZERO PUSH2 0x4701 JUMPI SWAP2 PUSH1 0x20 MUL DUP3 ADD JUMPDEST DUP3 DUP2 GT ISZERO PUSH2 0x4701 JUMPI DUP3 MLOAD DUP3 SLOAD PUSH1 0x1 PUSH1 0x1 PUSH1 0xA0 SHL SUB NOT AND PUSH1 0x1 PUSH1 0x1 PUSH1 0xA0 SHL SUB SWAP1 SWAP2 AND OR DUP3 SSTORE PUSH1 0x20 SWAP1 SWAP3 ADD SWAP2 PUSH1 0x1 SWAP1 SWAP2 ADD SWAP1 PUSH2 0x46CC JUMP JUMPDEST POP PUSH2 0x470D SWAP3 SWAP2 POP PUSH2 0x4711 JUMP JUMPDEST POP SWAP1 JUMP JUMPDEST JUMPDEST DUP1 DUP3 GT ISZERO PUSH2 0x470D JUMPI PUSH1 0x0 DUP2 SSTORE PUSH1 0x1 ADD PUSH2 0x4712 JUMP JUMPDEST PUSH1 0x1 PUSH1 0x1 PUSH1 0xA0 SHL SUB DUP2 AND DUP2 EQ PUSH2 0x150F JUMPI PUSH1 0x0 DUP1 REVERT JUMPDEST PUSH1 0x0 PUSH1 0x20 DUP3 DUP5 SUB SLT ISZERO PUSH2 0x474D JUMPI PUSH1 0x0 DUP1 REVERT JUMPDEST DUP2 CALLDATALOAD PUSH2 0x4758 DUP2 PUSH2 0x4726 JUMP JUMPDEST SWAP4 SWAP3 POP POP POP JUMP JUMPDEST PUSH1 0x0 DUP1 PUSH1 0x40 DUP4 DUP6 SUB SLT ISZERO PUSH2 0x4772 JUMPI PUSH1 0x0 DUP1 REVERT JUMPDEST DUP3 CALLDATALOAD PUSH2 0x477D DUP2 PUSH2 0x4726 JUMP JUMPDEST SWAP2 POP PUSH1 0x20 DUP4 ADD CALLDATALOAD PUSH2 0x478D DUP2 PUSH2 0x4726 JUMP JUMPDEST DUP1 SWAP2 POP POP SWAP3 POP SWAP3 SWAP1 POP JUMP JUMPDEST PUSH1 0x0 DUP1 PUSH1 0x0 DUP1 PUSH1 0x80 DUP6 DUP8 SUB SLT ISZERO PUSH2 0x47AE JUMPI PUSH1 0x0 DUP1 REVERT JUMPDEST DUP5 CALLDATALOAD PUSH2 0xFFFF DUP2 AND DUP2 EQ PUSH2 0x47C0 JUMPI PUSH1 0x0 DUP1 REVERT JUMPDEST SWAP7 PUSH1 0x20 DUP7 ADD CALLDATALOAD SWAP7 POP PUSH1 0x40 DUP7 ADD CALLDATALOAD SWAP6 PUSH1 0x60 ADD CALLDATALOAD SWAP5 POP SWAP3 POP POP POP JUMP JUMPDEST PUSH1 0x0 PUSH1 0x20 DUP3 DUP5 SUB SLT ISZERO PUSH2 0x47EC JUMPI PUSH1 0x0 DUP1 REVERT JUMPDEST POP CALLDATALOAD SWAP2 SWAP1 POP JUMP JUMPDEST PUSH4 0x4E487B71 PUSH1 0xE0 SHL PUSH1 0x0 MSTORE PUSH1 0x41 PUSH1 0x4 MSTORE PUSH1 0x24 PUSH1 0x0 REVERT JUMPDEST PUSH1 0x40 MLOAD PUSH1 0x1F DUP3 ADD PUSH1 0x1F NOT AND DUP2 ADD PUSH1 0x1 PUSH1 0x1 PUSH1 0x40 SHL SUB DUP2 GT DUP3 DUP3 LT OR ISZERO PUSH2 0x4831 JUMPI PUSH2 0x4831 PUSH2 0x47F3 JUMP JUMPDEST PUSH1 0x40 MSTORE SWAP2 SWAP1 POP JUMP JUMPDEST PUSH1 0x0 PUSH1 0x1 PUSH1 0x1 PUSH1 0x40 SHL SUB DUP3 GT ISZERO PUSH2 0x4852 JUMPI PUSH2 0x4852 PUSH2 0x47F3 JUMP JUMPDEST POP PUSH1 0x5 SHL PUSH1 0x20 ADD SWAP1 JUMP JUMPDEST PUSH1 0x0 DUP3 PUSH1 0x1F DUP4 ADD SLT PUSH2 0x486D JUMPI PUSH1 0x0 DUP1 REVERT JUMPDEST DUP2 CALLDATALOAD PUSH1 0x20 PUSH2 0x4882 PUSH2 0x487D DUP4 PUSH2 0x4839 JUMP JUMPDEST PUSH2 0x4809 JUMP JUMPDEST DUP3 DUP2 MSTORE PUSH1 0x5 SWAP3 SWAP1 SWAP3 SHL DUP5 ADD DUP2 ADD SWAP2 DUP2 DUP2 ADD SWAP1 DUP7 DUP5 GT ISZERO PUSH2 0x48A1 JUMPI PUSH1 0x0 DUP1 REVERT JUMPDEST DUP3 DUP7 ADD JUMPDEST DUP5 DUP2 LT ISZERO PUSH2 0x48C5 JUMPI DUP1 CALLDATALOAD PUSH2 0x48B8 DUP2 PUSH2 0x4726 JUMP JUMPDEST DUP4 MSTORE SWAP2 DUP4 ADD SWAP2 DUP4 ADD PUSH2 0x48A5 JUMP JUMPDEST POP SWAP7 SWAP6 POP POP POP POP POP POP JUMP JUMPDEST PUSH1 0x0 DUP1 PUSH1 0x40 DUP4 DUP6 SUB SLT ISZERO PUSH2 0x48E3 JUMPI PUSH1 0x0 DUP1 REVERT JUMPDEST DUP3 CALLDATALOAD PUSH1 0x1 PUSH1 0x1 PUSH1 0x40 SHL SUB DUP2 GT ISZERO PUSH2 0x48F9 JUMPI PUSH1 0x0 DUP1 REVERT JUMPDEST PUSH2 0x4905 DUP6 DUP3 DUP7 ADD PUSH2 0x485C JUMP JUMPDEST SWAP6 PUSH1 0x20 SWAP5 SWAP1 SWAP5 ADD CALLDATALOAD SWAP5 POP POP POP POP JUMP JUMPDEST PUSH4 0x4E487B71 PUSH1 0xE0 SHL PUSH1 0x0 MSTORE PUSH1 0x21 PUSH1 0x4 MSTORE PUSH1 0x24 PUSH1 0x0 REVERT JUMPDEST PUSH1 0x0 DUP2 MLOAD DUP1 DUP5 MSTORE PUSH1 0x20 DUP1 DUP6 ADD SWAP5 POP DUP1 DUP5 ADD PUSH1 0x0 JUMPDEST DUP4 DUP2 LT ISZERO PUSH2 0x4963 JUMPI DUP2 MLOAD PUSH1 0x1 PUSH1 0x1 PUSH1 0xA0 SHL SUB AND DUP8 MSTORE SWAP6 DUP3 ADD SWAP6 SWAP1 DUP3 ADD SWAP1 PUSH1 0x1 ADD PUSH2 0x493E JUMP JUMPDEST POP SWAP5 SWAP6 SWAP5 POP POP POP POP POP JUMP JUMPDEST PUSH1 0x1 PUSH1 0x1 PUSH1 0xA0 SHL SUB DUP8 AND DUP2 MSTORE PUSH1 0x0 PUSH1 0x5 DUP8 LT PUSH2 0x499A JUMPI PUSH4 0x4E487B71 PUSH1 0xE0 SHL PUSH1 0x0 MSTORE PUSH1 0x21 PUSH1 0x4 MSTORE PUSH1 0x24 PUSH1 0x0 REVERT JUMPDEST DUP7 PUSH1 0x20 DUP4 ADD MSTORE DUP6 PUSH1 0x40 DUP4 ADD MSTORE DUP5 PUSH1 0x60 DUP4 ADD MSTORE DUP4 PUSH1 0x80 DUP4 ADD MSTORE PUSH1 0xC0 PUSH1 0xA0 DUP4 ADD MSTORE PUSH2 0x49C6 PUSH1 0xC0 DUP4 ADD DUP5 PUSH2 0x492A JUMP JUMPDEST SWAP9 SWAP8 POP POP POP POP POP POP POP POP JUMP JUMPDEST PUSH1 0x0 DUP1 PUSH1 0x40 DUP4 DUP6 SUB SLT ISZERO PUSH2 0x49E5 JUMPI PUSH1 0x0 DUP1 REVERT JUMPDEST DUP3 CALLDATALOAD PUSH2 0x49F0 DUP2 PUSH2 0x4726 JUMP JUMPDEST SWAP5 PUSH1 0x20 SWAP4 SWAP1 SWAP4 ADD CALLDATALOAD SWAP4 POP POP POP JUMP JUMPDEST PUSH1 0x20 DUP2 MSTORE PUSH1 0x0 PUSH2 0x4758 PUSH1 0x20 DUP4 ADD DUP5 PUSH2 0x492A JUMP JUMPDEST PUSH1 0x0 DUP1 PUSH1 0x20 DUP4 DUP6 SUB SLT ISZERO PUSH2 0x4A24 JUMPI PUSH1 0x0 DUP1 REVERT JUMPDEST DUP3 CALLDATALOAD PUSH1 0x1 PUSH1 0x1 PUSH1 0x40 SHL SUB DUP1 DUP3 GT ISZERO PUSH2 0x4A3B JUMPI PUSH1 0x0 DUP1 REVERT JUMPDEST DUP2 DUP6 ADD SWAP2 POP DUP6 PUSH1 0x1F DUP4 ADD SLT PUSH2 0x4A4F JUMPI PUSH1 0x0 DUP1 REVERT JUMPDEST DUP2 CALLDATALOAD DUP2 DUP2 GT ISZERO PUSH2 0x4A5E JUMPI PUSH1 0x0 DUP1 REVERT JUMPDEST DUP7 PUSH1 0x20 DUP3 PUSH1 0x5 SHL DUP6 ADD ADD GT ISZERO PUSH2 0x4A73 JUMPI PUSH1 0x0 DUP1 REVERT JUMPDEST PUSH1 0x20 SWAP3 SWAP1 SWAP3 ADD SWAP7 SWAP2 SWAP6 POP SWAP1 SWAP4 POP POP POP POP JUMP JUMPDEST DUP1 CALLDATALOAD PUSH2 0x1255 DUP2 PUSH2 0x4726 JUMP JUMPDEST PUSH1 0x0 DUP1 DUP4 PUSH1 0x1F DUP5 ADD SLT PUSH2 0x4AA2 JUMPI PUSH1 0x0 DUP1 REVERT JUMPDEST POP DUP2 CALLDATALOAD PUSH1 0x1 PUSH1 0x1 PUSH1 0x40 SHL SUB DUP2 GT ISZERO PUSH2 0x4AB9 JUMPI PUSH1 0x0 DUP1 REVERT JUMPDEST PUSH1 0x20 DUP4 ADD SWAP2 POP DUP4 PUSH1 0x20 DUP3 DUP6 ADD ADD GT ISZERO PUSH2 0x4AD1 JUMPI PUSH1 0x0 DUP1 REVERT JUMPDEST SWAP3 POP SWAP3 SWAP1 POP JUMP JUMPDEST PUSH1 0x0 DUP1 PUSH1 0x0 DUP1 PUSH1 0x0 DUP1 PUSH1 0x0 DUP1 PUSH1 0x0 DUP1 PUSH1 0x0 PUSH1 0xC0 DUP13 DUP15 SUB SLT ISZERO PUSH2 0x4AF9 JUMPI PUSH1 0x0 DUP1 REVERT JUMPDEST PUSH2 0x4B02 DUP13 PUSH2 0x4A85 JUMP JUMPDEST SWAP11 POP PUSH1 0x1 PUSH1 0x1 PUSH1 0x40 SHL SUB DUP1 PUSH1 0x20 DUP15 ADD CALLDATALOAD GT ISZERO PUSH2 0x4B1D JUMPI PUSH1 0x0 DUP1 REVERT JUMPDEST PUSH2 0x4B2D DUP15 PUSH1 0x20 DUP16 ADD CALLDATALOAD DUP16 ADD PUSH2 0x4A90 JUMP JUMPDEST SWAP1 SWAP12 POP SWAP10 POP PUSH1 0x40 DUP14 ADD CALLDATALOAD DUP2 LT ISZERO PUSH2 0x4B43 JUMPI PUSH1 0x0 DUP1 REVERT JUMPDEST PUSH2 0x4B53 DUP15 PUSH1 0x40 DUP16 ADD CALLDATALOAD DUP16 ADD PUSH2 0x4A90 JUMP JUMPDEST SWAP1 SWAP10 POP SWAP8 POP PUSH1 0x60 DUP14 ADD CALLDATALOAD DUP2 LT ISZERO PUSH2 0x4B69 JUMPI PUSH1 0x0 DUP1 REVERT JUMPDEST PUSH2 0x4B79 DUP15 PUSH1 0x60 DUP16 ADD CALLDATALOAD DUP16 ADD PUSH2 0x4A90 JUMP JUMPDEST SWAP1 SWAP8 POP SWAP6 POP PUSH1 0x80 DUP14 ADD CALLDATALOAD DUP2 LT ISZERO PUSH2 0x4B8F JUMPI PUSH1 0x0 DUP1 REVERT JUMPDEST PUSH2 0x4B9F DUP15 PUSH1 0x80 DUP16 ADD CALLDATALOAD DUP16 ADD PUSH2 0x4A90 JUMP JUMPDEST SWAP1 SWAP6 POP SWAP4 POP PUSH1 0xA0 DUP14 ADD CALLDATALOAD DUP2 LT ISZERO PUSH2 0x4BB5 JUMPI PUSH1 0x0 DUP1 REVERT JUMPDEST POP PUSH2 0x4BC6 DUP14 PUSH1 0xA0 DUP15 ADD CALLDATALOAD DUP15 ADD PUSH2 0x4A90 JUMP JUMPDEST DUP2 SWAP4 POP DUP1 SWAP3 POP POP POP SWAP3 SWAP6 SWAP9 SWAP12 POP SWAP3 SWAP6 SWAP9 SWAP12 SWAP1 SWAP4 SWAP7 SWAP10 POP JUMP JUMPDEST PUSH1 0x0 DUP2 MLOAD DUP1 DUP5 MSTORE PUSH1 0x0 JUMPDEST DUP2 DUP2 LT ISZERO PUSH2 0x4C04 JUMPI PUSH1 0x20 DUP2 DUP6 ADD DUP2 ADD MLOAD DUP7 DUP4 ADD DUP3 ADD MSTORE ADD PUSH2 0x4BE8 JUMP JUMPDEST POP PUSH1 0x0 PUSH1 0x20 DUP3 DUP7 ADD ADD MSTORE PUSH1 0x20 PUSH1 0x1F NOT PUSH1 0x1F DUP4 ADD AND DUP6 ADD ADD SWAP2 POP POP SWAP3 SWAP2 POP POP JUMP JUMPDEST PUSH1 0xA0 DUP2 MSTORE PUSH1 0x0 PUSH2 0x4C37 PUSH1 0xA0 DUP4 ADD DUP9 PUSH2 0x4BDE JUMP JUMPDEST DUP3 DUP2 SUB PUSH1 0x20 DUP5 ADD MSTORE PUSH2 0x4C49 DUP2 DUP9 PUSH2 0x4BDE JUMP JUMPDEST SWAP1 POP DUP3 DUP2 SUB PUSH1 0x40 DUP5 ADD MSTORE PUSH2 0x4C5D DUP2 DUP8 PUSH2 0x4BDE JUMP JUMPDEST SWAP1 POP DUP3 DUP2 SUB PUSH1 0x60 DUP5 ADD MSTORE PUSH2 0x4C71 DUP2 DUP7 PUSH2 0x4BDE JUMP JUMPDEST SWAP1 POP DUP3 DUP2 SUB PUSH1 0x80 DUP5 ADD MSTORE PUSH2 0x49C6 DUP2 DUP6 PUSH2 0x4BDE JUMP JUMPDEST PUSH1 0x0 DUP3 PUSH1 0x1F DUP4 ADD SLT PUSH2 0x4C96 JUMPI PUSH1 0x0 DUP1 REVERT JUMPDEST DUP2 CALLDATALOAD PUSH1 0x1 PUSH1 0x1 PUSH1 0x40 SHL SUB DUP2 GT ISZERO PUSH2 0x4CAF JUMPI PUSH2 0x4CAF PUSH2 0x47F3 JUMP JUMPDEST PUSH2 0x4CC2 PUSH1 0x1F DUP3 ADD PUSH1 0x1F NOT AND PUSH1 0x20 ADD PUSH2 0x4809 JUMP JUMPDEST DUP2 DUP2 MSTORE DUP5 PUSH1 0x20 DUP4 DUP7 ADD ADD GT ISZERO PUSH2 0x4CD7 JUMPI PUSH1 0x0 DUP1 REVERT JUMPDEST DUP2 PUSH1 0x20 DUP6 ADD PUSH1 0x20 DUP4 ADD CALLDATACOPY PUSH1 0x0 SWAP2 DUP2 ADD PUSH1 0x20 ADD SWAP2 SWAP1 SWAP2 MSTORE SWAP4 SWAP3 POP POP POP JUMP JUMPDEST PUSH1 0x0 DUP1 PUSH1 0x0 DUP1 PUSH1 0x0 PUSH1 0xA0 DUP7 DUP9 SUB SLT ISZERO PUSH2 0x4D0C JUMPI PUSH1 0x0 DUP1 REVERT JUMPDEST DUP6 CALLDATALOAD PUSH1 0x1 PUSH1 0x1 PUSH1 0x40 SHL SUB DUP1 DUP3 GT ISZERO PUSH2 0x4D23 JUMPI PUSH1 0x0 DUP1 REVERT JUMPDEST PUSH2 0x4D2F DUP10 DUP4 DUP11 ADD PUSH2 0x4C85 JUMP JUMPDEST SWAP7 POP PUSH1 0x20 DUP9 ADD CALLDATALOAD SWAP2 POP DUP1 DUP3 GT ISZERO PUSH2 0x4D45 JUMPI PUSH1 0x0 DUP1 REVERT JUMPDEST PUSH2 0x4D51 DUP10 DUP4 DUP11 ADD PUSH2 0x4C85 JUMP JUMPDEST SWAP6 POP PUSH1 0x40 DUP9 ADD CALLDATALOAD SWAP2 POP DUP1 DUP3 GT ISZERO PUSH2 0x4D67 JUMPI PUSH1 0x0 DUP1 REVERT JUMPDEST PUSH2 0x4D73 DUP10 DUP4 DUP11 ADD PUSH2 0x4C85 JUMP JUMPDEST SWAP5 POP PUSH1 0x60 DUP9 ADD CALLDATALOAD SWAP2 POP DUP1 DUP3 GT ISZERO PUSH2 0x4D89 JUMPI PUSH1 0x0 DUP1 REVERT JUMPDEST PUSH2 0x4D95 DUP10 DUP4 DUP11 ADD PUSH2 0x4C85 JUMP JUMPDEST SWAP4 POP PUSH1 0x80 DUP9 ADD CALLDATALOAD SWAP2 POP DUP1 DUP3 GT ISZERO PUSH2 0x4DAB JUMPI PUSH1 0x0 DUP1 REVERT JUMPDEST POP PUSH2 0x4DB8 DUP9 DUP3 DUP10 ADD PUSH2 0x4C85 JUMP JUMPDEST SWAP2 POP POP SWAP3 SWAP6 POP SWAP3 SWAP6 SWAP1 SWAP4 POP JUMP JUMPDEST PUSH1 0x0 DUP1 PUSH1 0x40 DUP4 DUP6 SUB SLT ISZERO PUSH2 0x4DD8 JUMPI PUSH1 0x0 DUP1 REVERT JUMPDEST DUP3 CALLDATALOAD PUSH1 0x1 PUSH1 0x1 PUSH1 0x40 SHL SUB DUP1 DUP3 GT ISZERO PUSH2 0x4DEF JUMPI PUSH1 0x0 DUP1 REVERT JUMPDEST PUSH2 0x4DFB DUP7 DUP4 DUP8 ADD PUSH2 0x485C JUMP JUMPDEST SWAP4 POP PUSH1 0x20 SWAP2 POP DUP2 DUP6 ADD CALLDATALOAD DUP2 DUP2 GT ISZERO PUSH2 0x4E12 JUMPI PUSH1 0x0 DUP1 REVERT JUMPDEST DUP6 ADD PUSH1 0x1F DUP2 ADD DUP8 SGT PUSH2 0x4E23 JUMPI PUSH1 0x0 DUP1 REVERT JUMPDEST DUP1 CALLDATALOAD PUSH2 0x4E31 PUSH2 0x487D DUP3 PUSH2 0x4839 JUMP JUMPDEST DUP2 DUP2 MSTORE PUSH1 0x5 SWAP2 SWAP1 SWAP2 SHL DUP3 ADD DUP5 ADD SWAP1 DUP5 DUP2 ADD SWAP1 DUP10 DUP4 GT ISZERO PUSH2 0x4E50 JUMPI PUSH1 0x0 DUP1 REVERT JUMPDEST SWAP3 DUP6 ADD SWAP3 JUMPDEST DUP3 DUP5 LT ISZERO PUSH2 0x4E7D JUMPI DUP4 CALLDATALOAD DUP6 DUP2 AND DUP2 EQ PUSH2 0x4E6E JUMPI PUSH1 0x0 DUP1 DUP2 REVERT JUMPDEST DUP3 MSTORE SWAP3 DUP6 ADD SWAP3 SWAP1 DUP6 ADD SWAP1 PUSH2 0x4E55 JUMP JUMPDEST DUP1 SWAP7 POP POP POP POP POP POP POP SWAP3 POP SWAP3 SWAP1 POP JUMP JUMPDEST PUSH1 0x0 DUP1 PUSH1 0x0 DUP1 PUSH1 0x0 PUSH1 0xA0 DUP7 DUP9 SUB SLT ISZERO PUSH2 0x4EA5 JUMPI PUSH1 0x0 DUP1 REVERT JUMPDEST POP POP DUP4 CALLDATALOAD SWAP6 PUSH1 0x20 DUP6 ADD CALLDATALOAD SWAP6 POP PUSH1 0x40 DUP6 ADD CALLDATALOAD SWAP5 PUSH1 0x60 DUP2 ADD CALLDATALOAD SWAP5 POP PUSH1 0x80 ADD CALLDATALOAD SWAP3 POP SWAP1 POP JUMP JUMPDEST PUSH4 0x4E487B71 PUSH1 0xE0 SHL PUSH1 0x0 MSTORE PUSH1 0x11 PUSH1 0x4 MSTORE PUSH1 0x24 PUSH1 0x0 REVERT JUMPDEST DUP1 DUP3 ADD DUP1 DUP3 GT ISZERO PUSH2 0x1364 JUMPI PUSH2 0x1364 PUSH2 0x4EC8 JUMP JUMPDEST PUSH1 0x20 DUP1 DUP3 MSTORE PUSH1 0xC SWAP1 DUP3 ADD MSTORE PUSH12 0x139BDD081A5B9A5D081E595D PUSH1 0xA2 SHL PUSH1 0x40 DUP3 ADD MSTORE PUSH1 0x60 ADD SWAP1 JUMP JUMPDEST DUP2 DUP2 SUB DUP2 DUP2 GT ISZERO PUSH2 0x1364 JUMPI PUSH2 0x1364 PUSH2 0x4EC8 JUMP JUMPDEST DUP1 DUP3 MUL DUP2 ISZERO DUP3 DUP3 DIV DUP5 EQ OR PUSH2 0x1364 JUMPI PUSH2 0x1364 PUSH2 0x4EC8 JUMP JUMPDEST PUSH4 0x4E487B71 PUSH1 0xE0 SHL PUSH1 0x0 MSTORE PUSH1 0x12 PUSH1 0x4 MSTORE PUSH1 0x24 PUSH1 0x0 REVERT JUMPDEST PUSH1 0x0 DUP3 PUSH2 0x4F66 JUMPI PUSH2 0x4F66 PUSH2 0x4F41 JUMP JUMPDEST POP DIV SWAP1 JUMP JUMPDEST PUSH4 0x4E487B71 PUSH1 0xE0 SHL PUSH1 0x0 MSTORE PUSH1 0x32 PUSH1 0x4 MSTORE PUSH1 0x24 PUSH1 0x0 REVERT JUMPDEST PUSH1 0x0 PUSH1 0x1 DUP3 ADD PUSH2 0x4F93 JUMPI PUSH2 0x4F93 PUSH2 0x4EC8 JUMP JUMPDEST POP PUSH1 0x1 ADD SWAP1 JUMP JUMPDEST PUSH1 0x0 DUP3 PUSH2 0x4FA9 JUMPI PUSH2 0x4FA9 PUSH2 0x4F41 JUMP JUMPDEST POP MOD SWAP1 JUMP JUMPDEST PUSH1 0x0 PUSH1 0x20 DUP3 DUP5 SUB SLT ISZERO PUSH2 0x4FC0 JUMPI PUSH1 0x0 DUP1 REVERT JUMPDEST DUP2 MLOAD DUP1 ISZERO ISZERO DUP2 EQ PUSH2 0x4758 JUMPI PUSH1 0x0 DUP1 REVERT JUMPDEST PUSH1 0x1 DUP2 DUP2 SHR SWAP1 DUP3 AND DUP1 PUSH2 0x4FE4 JUMPI PUSH1 0x7F DUP3 AND SWAP2 POP JUMPDEST PUSH1 0x20 DUP3 LT DUP2 SUB PUSH2 0x5004 JUMPI PUSH4 0x4E487B71 PUSH1 0xE0 SHL PUSH1 0x0 MSTORE PUSH1 0x22 PUSH1 0x4 MSTORE PUSH1 0x24 PUSH1 0x0 REVERT JUMPDEST POP SWAP2 SWAP1 POP JUMP JUMPDEST PUSH1 0x1F DUP3 GT ISZERO PUSH2 0x5054 JUMPI PUSH1 0x0 DUP2 DUP2 MSTORE PUSH1 0x20 DUP2 KECCAK256 PUSH1 0x1F DUP6 ADD PUSH1 0x5 SHR DUP2 ADD PUSH1 0x20 DUP7 LT ISZERO PUSH2 0x5031 JUMPI POP DUP1 JUMPDEST PUSH1 0x1F DUP6 ADD PUSH1 0x5 SHR DUP3 ADD SWAP2 POP JUMPDEST DUP2 DUP2 LT ISZERO PUSH2 0x5050 JUMPI DUP3 DUP2 SSTORE PUSH1 0x1 ADD PUSH2 0x503D JUMP JUMPDEST POP POP POP JUMPDEST POP POP POP JUMP JUMPDEST DUP2 MLOAD PUSH1 0x1 PUSH1 0x1 PUSH1 0x40 SHL SUB DUP2 GT ISZERO PUSH2 0x5072 JUMPI PUSH2 0x5072 PUSH2 0x47F3 JUMP JUMPDEST PUSH2 0x5086 DUP2 PUSH2 0x5080 DUP5 SLOAD PUSH2 0x4FD0 JUMP JUMPDEST DUP5 PUSH2 0x500A JUMP JUMPDEST PUSH1 0x20 DUP1 PUSH1 0x1F DUP4 GT PUSH1 0x1 DUP2 EQ PUSH2 0x50BB JUMPI PUSH1 0x0 DUP5 ISZERO PUSH2 0x50A3 JUMPI POP DUP6 DUP4 ADD MLOAD JUMPDEST PUSH1 0x0 NOT PUSH1 0x3 DUP7 SWAP1 SHL SHR NOT AND PUSH1 0x1 DUP6 SWAP1 SHL OR DUP6 SSTORE PUSH2 0x5050 JUMP JUMPDEST PUSH1 0x0 DUP6 DUP2 MSTORE PUSH1 0x20 DUP2 KECCAK256 PUSH1 0x1F NOT DUP7 AND SWAP2 JUMPDEST DUP3 DUP2 LT ISZERO PUSH2 0x50EA JUMPI DUP9 DUP7 ADD MLOAD DUP3 SSTORE SWAP5 DUP5 ADD SWAP5 PUSH1 0x1 SWAP1 SWAP2 ADD SWAP1 DUP5 ADD PUSH2 0x50CB JUMP JUMPDEST POP DUP6 DUP3 LT ISZERO PUSH2 0x5108 JUMPI DUP8 DUP6 ADD MLOAD PUSH1 0x0 NOT PUSH1 0x3 DUP9 SWAP1 SHL PUSH1 0xF8 AND SHR NOT AND DUP2 SSTORE JUMPDEST POP POP POP POP POP PUSH1 0x1 SWAP1 DUP2 SHL ADD SWAP1 SSTORE POP JUMP JUMPDEST DUP5 DUP2 MSTORE PUSH1 0x0 PUSH1 0x20 DUP6 DUP2 DUP5 ADD MSTORE PUSH1 0x80 PUSH1 0x40 DUP5 ADD MSTORE PUSH2 0x5138 PUSH1 0x80 DUP5 ADD DUP7 PUSH2 0x492A JUMP JUMPDEST DUP4 DUP2 SUB PUSH1 0x60 DUP6 ADD MSTORE DUP5 MLOAD DUP1 DUP3 MSTORE DUP3 DUP7 ADD SWAP2 DUP4 ADD SWAP1 PUSH1 0x0 JUMPDEST DUP2 DUP2 LT ISZERO PUSH2 0x5174 JUMPI DUP4 MLOAD PUSH1 0x1 PUSH1 0x1 PUSH1 0x40 SHL SUB AND DUP4 MSTORE SWAP3 DUP5 ADD SWAP3 SWAP2 DUP5 ADD SWAP2 PUSH1 0x1 ADD PUSH2 0x514F JUMP JUMPDEST POP SWAP1 SWAP10 SWAP9 POP POP POP POP POP POP POP POP POP JUMP JUMPDEST PUSH4 0x4E487B71 PUSH1 0xE0 SHL PUSH1 0x0 MSTORE PUSH1 0x31 PUSH1 0x4 MSTORE PUSH1 0x24 PUSH1 0x0 REVERT INVALID LOG2 PUSH5 0x6970667358 0x22 SLT KECCAK256 PUSH13 0xA315736786DBB81D03C471DF17 0xC SWAP2 0xE9 0x5C SWAP14 0xD2 LOG2 JUMPDEST 0xB1 0xD9 CREATE 0xB7 0xC0 0xE6 0xDD 0xB2 0x25 SGT PUSH5 0x736F6C6343 STOP ADDMOD GT STOP CALLER "
		},
		"gasEstimates": {
			"creation": {
				"codeDepositCost": "4188600",
				"executionCost": "180437",
				"totalCost": "4369037"
			},
			"external": {
				"MaxValidators()": "2391",
				"MinimalStakingCoin()": "2406",
				"ProposalAddr()": "306",
				"PunishContractAddr()": "262",
				"StakingLockPeriod()": "282",
				"ValidatorContractAddr()": "350",
				"burnPartPercent()": "2407",
				"burnStopAmount()": "2385",
				"contractCreator(address)": "2663",
				"contractPartPercent()": "2427",
				"createOrEditValidator(address,string,string,string,string,string)": "infinite",
				"currentValidatorSet(uint256)": "4681",
				"distributeBlockReward(address[],uint64[])": "infinite",
				"getActiveValidators()": "infinite",
				"getStakingInfo(address,address)": "infinite",
				"getTopValidators()": "infinite",
				"getTotalStakeOfActiveValidators()": "infinite",
				"getValidatorDescription(address)": "infinite",
				"getValidatorInfo(address)": "infinite",
				"highestValidatorsSet(uint256)": "4770",
				"initialize(address[])": "infinite",
				"initialized()": "2456",
				"isActiveValidator(address)": "infinite",
				"isTopValidator(address)": "infinite",
				"lastRewardTime(address)": "2559",
				"minimumValidatorStaking()": "2386",
				"owner()": "2443",
				"reflectionPercentSum(address,uint256)": "2740",
				"removeValidator(address)": "infinite",
				"removeValidatorIncoming(address)": "infinite",
				"renounceOwnership()": "infinite",
				"setContractCreator(address)": "26983",
				"stake(address)": "infinite",
				"stakeTime(address,address)": "infinite",
				"stakerPartPercent()": "2384",
				"totalBurnt()": "2451",
				"totalJailedHB()": "2430",
				"totalStake()": "2385",
				"transferOwnership(address)": "infinite",
				"tryReactive(address)": "infinite",
				"unstake(address)": "infinite",
				"unstakeWaitingTime()": "2429",
				"updateActiveValidatorSet(address[],uint256)": "infinite",
				"updateGasSettings(uint256,uint256,uint256,uint256,uint256)": "infinite",
				"updateParams(uint16,uint256,uint256,uint256)": "93349",
				"validateDescription(string,string,string,string,string)": "infinite",
				"validatorPartPercent()": "2407",
				"viewStakeReward(address,address)": "infinite",
				"withdrawProfits(address)": "infinite",
				"withdrawStaking(address)": "infinite",
				"withdrawStakingReward(address)": "infinite"
			},
			"internal": {
				"_updateGasSettings(uint256,uint256,uint256,uint256,uint256)": "infinite",
				"_updateParams(uint16,uint256,uint256,uint256)": "infinite",
				"addProfitsToActiveValidatorsByStakePercentExcept(uint256,address)": "infinite",
				"getTotalStakeOfActiveValidatorsExcept(address)": "infinite",
				"tryAddValidatorToHighestSet(address,uint256)": "infinite",
				"tryJailValidator(address)": "infinite",
				"tryRemoveValidatorInHighestSet(address)": "infinite",
				"tryRemoveValidatorIncoming(address)": "infinite"
			}
		},
		"methodIdentifiers": {
			"MaxValidators()": "c967f90f",
			"MinimalStakingCoin()": "be645692",
			"ProposalAddr()": "6233be5d",
			"PunishContractAddr()": "1b5e358c",
			"StakingLockPeriod()": "db78dd28",
			"ValidatorContractAddr()": "3a061bd3",
			"burnPartPercent()": "37dbc8cc",
			"burnStopAmount()": "9d7714ce",
			"contractCreator(address)": "d571770c",
			"contractPartPercent()": "fca737c0",
			"createOrEditValidator(address,string,string,string,string,string)": "a406fcb7",
			"currentValidatorSet(uint256)": "6969a25c",
			"distributeBlockReward(address[],uint64[])": "bb1c0310",
			"getActiveValidators()": "9de70258",
			"getStakingInfo(address,address)": "7f4f95fa",
			"getTopValidators()": "afeea115",
			"getTotalStakeOfActiveValidators()": "c253c384",
			"getValidatorDescription(address)": "a43569b3",
			"getValidatorInfo(address)": "8a11d7c9",
			"highestValidatorsSet(uint256)": "4b3d500b",
			"initialize(address[])": "a224cee7",
			"initialized()": "158ef93e",
			"isActiveValidator(address)": "40550a1c",
			"isTopValidator(address)": "98e3b626",
			"lastRewardTime(address)": "3b5d441e",
			"minimumValidatorStaking()": "0976c65d",
			"owner()": "8da5cb5b",
			"reflectionPercentSum(address,uint256)": "92f2c437",
			"removeValidator(address)": "40a141ff",
			"removeValidatorIncoming(address)": "5dd09590",
			"renounceOwnership()": "715018a6",
			"setContractCreator(address)": "bd10ba76",
			"stake(address)": "26476204",
			"stakeTime(address,address)": "01aec704",
			"stakerPartPercent()": "cd779d21",
			"totalBurnt()": "966ff650",
			"totalJailedHB()": "1303f7cf",
			"totalStake()": "8b0e9f3f",
			"transferOwnership(address)": "f2fde38b",
			"tryReactive(address)": "82bd3d92",
			"unstake(address)": "f2888dbb",
			"unstakeWaitingTime()": "45e9f8e5",
			"updateActiveValidatorSet(address[],uint256)": "6846992a",
			"updateGasSettings(uint256,uint256,uint256,uint256,uint256)": "c60033dd",
			"updateParams(uint16,uint256,uint256,uint256)": "0c66ebf7",
			"validateDescription(string,string,string,string,string)": "b6c88519",
			"validatorPartPercent()": "42127ee7",
			"viewStakeReward(address,address)": "3ae898ca",
			"withdrawProfits(address)": "00362a77",
			"withdrawStaking(address)": "222d3b05",
			"withdrawStakingReward(address)": "72d30a70"
		}
	},
	"abi": [
		{
			"anonymous": false,
			"inputs": [
				{
					"indexed": true,
					"internalType": "address",
					"name": "val",
					"type": "address"
				},
				{
					"indexed": false,
					"internalType": "uint256",
					"name": "time",
					"type": "uint256"
				}
			],
			"name": "LogAddToTopValidators",
			"type": "event"
		},
		{
			"anonymous": false,
			"inputs": [
				{
					"indexed": true,
					"internalType": "address",
					"name": "val",
					"type": "address"
				},
				{
					"indexed": true,
					"internalType": "address",
					"name": "fee",
					"type": "address"
				},
				{
					"indexed": false,
					"internalType": "uint256",
					"name": "time",
					"type": "uint256"
				}
			],
			"name": "LogCreateValidator",
			"type": "event"
		},
		{
			"anonymous": false,
			"inputs": [
				{
					"indexed": true,
					"internalType": "address",
					"name": "coinbase",
					"type": "address"
				},
				{
					"indexed": false,
					"internalType": "uint256",
					"name": "blockReward",
					"type": "uint256"
				},
				{
					"indexed": false,
					"internalType": "uint256",
					"name": "time",
					"type": "uint256"
				},
				{
					"indexed": false,
					"internalType": "address[]",
					"name": "To",
					"type": "address[]"
				},
				{
					"indexed": false,
					"internalType": "uint64[]",
					"name": "Gass",
					"type": "uint64[]"
				}
			],
			"name": "LogDistributeBlockReward",
			"type": "event"
		},
		{
			"anonymous": false,
			"inputs": [
				{
					"indexed": true,
					"internalType": "address",
					"name": "val",
					"type": "address"
				},
				{
					"indexed": true,
					"internalType": "address",
					"name": "fee",
					"type": "address"
				},
				{
					"indexed": false,
					"internalType": "uint256",
					"name": "time",
					"type": "uint256"
				}
			],
			"name": "LogEditValidator",
			"type": "event"
		},
		{
			"anonymous": false,
			"inputs": [
				{
					"indexed": true,
					"internalType": "address",
					"name": "val",
					"type": "address"
				},
				{
					"indexed": false,
					"internalType": "uint256",
					"name": "time",
					"type": "uint256"
				}
			],
			"name": "LogReactive",
			"type": "event"
		},
		{
			"anonymous": false,
			"inputs": [
				{
					"indexed": true,
					"internalType": "address",
					"name": "val",
					"type": "address"
				},
				{
					"indexed": false,
					"internalType": "uint256",
					"name": "time",
					"type": "uint256"
				}
			],
			"name": "LogRemoveFromTopValidators",
			"type": "event"
		},
		{
			"anonymous": false,
			"inputs": [
				{
					"indexed": true,
					"internalType": "address",
					"name": "val",
					"type": "address"
				},
				{
					"indexed": false,
					"internalType": "uint256",
					"name": "hb",
					"type": "uint256"
				},
				{
					"indexed": false,
					"internalType": "uint256",
					"name": "time",
					"type": "uint256"
				}
			],
			"name": "LogRemoveValidator",
			"type": "event"
		},
		{
			"anonymous": false,
			"inputs": [
				{
					"indexed": true,
					"internalType": "address",
					"name": "val",
					"type": "address"
				},
				{
					"indexed": false,
					"internalType": "uint256",
					"name": "hb",
					"type": "uint256"
				},
				{
					"indexed": false,
					"internalType": "uint256",
					"name": "time",
					"type": "uint256"
				}
			],
			"name": "LogRemoveValidatorIncoming",
			"type": "event"
		},
		{
			"anonymous": false,
			"inputs": [
				{
					"indexed": true,
					"internalType": "address",
					"name": "staker",
					"type": "address"
				},
				{
					"indexed": true,
					"internalType": "address",
					"name": "val",
					"type": "address"
				},
				{
					"indexed": false,
					"internalType": "uint256",
					"name": "staking",
					"type": "uint256"
				},
				{
					"indexed": false,
					"internalType": "uint256",
					"name": "time",
					"type": "uint256"
				}
			],
			"name": "LogStake",
			"type": "event"
		},
		{
			"anonymous": false,
			"inputs": [
				{
					"indexed": true,
					"internalType": "address",
					"name": "staker",
					"type": "address"
				},
				{
					"indexed": true,
					"internalType": "address",
					"name": "val",
					"type": "address"
				},
				{
					"indexed": false,
					"internalType": "uint256",
					"name": "amount",
					"type": "uint256"
				},
				{
					"indexed": false,
					"internalType": "uint256",
					"name": "time",
					"type": "uint256"
				}
			],
			"name": "LogUnstake",
			"type": "event"
		},
		{
			"anonymous": false,
			"inputs": [
				{
					"indexed": false,
					"internalType": "address[]",
					"name": "newSet",
					"type": "address[]"
				}
			],
			"name": "LogUpdateValidator",
			"type": "event"
		},
		{
			"anonymous": false,
			"inputs": [
				{
					"indexed": true,
					"internalType": "address",
					"name": "val",
					"type": "address"
				},
				{
					"indexed": true,
					"internalType": "address",
					"name": "fee",
					"type": "address"
				},
				{
					"indexed": false,
					"internalType": "uint256",
					"name": "hb",
					"type": "uint256"
				},
				{
					"indexed": false,
					"internalType": "uint256",
					"name": "time",
					"type": "uint256"
				}
			],
			"name": "LogWithdrawProfits",
			"type": "event"
		},
		{
			"anonymous": false,
			"inputs": [
				{
					"indexed": true,
					"internalType": "address",
					"name": "staker",
					"type": "address"
				},
				{
					"indexed": true,
					"internalType": "address",
					"name": "val",
					"type": "address"
				},
				{
					"indexed": false,
					"internalType": "uint256",
					"name": "amount",
					"type": "uint256"
				},
				{
					"indexed": false,
					"internalType": "uint256",
					"name": "time",
					"type": "uint256"
				}
			],
			"name": "LogWithdrawStaking",
			"type": "event"
		},
		{
			"anonymous": false,
			"inputs": [
				{
					"indexed": true,
					"internalType": "address",
					"name": "previousOwner",
					"type": "address"
				},
				{
					"indexed": true,
					"internalType": "address",
					"name": "newOwner",
					"type": "address"
				}
			],
			"name": "OwnershipTransferred",
			"type": "event"
		},
		{
			"anonymous": false,
			"inputs": [
				{
					"indexed": false,
					"internalType": "address",
					"name": "user",
					"type": "address"
				},
				{
					"indexed": false,
					"internalType": "address",
					"name": "validator",
					"type": "address"
				},
				{
					"indexed": false,
					"internalType": "uint256",
					"name": "reward",
					"type": "uint256"
				},
				{
					"indexed": false,
					"internalType": "uint256",
					"name": "timeStamp",
					"type": "uint256"
				}
			],
			"name": "withdrawStakingRewardEv",
			"type": "event"
		},
		{
			"inputs": [],
			"name": "MaxValidators",
			"outputs": [
				{
					"internalType": "uint16",
					"name": "",
					"type": "uint16"
				}
			],
			"stateMutability": "view",
			"type": "function"
		},
		{
			"inputs": [],
			"name": "MinimalStakingCoin",
			"outputs": [
				{
					"internalType": "uint256",
					"name": "",
					"type": "uint256"
				}
			],
			"stateMutability": "view",
			"type": "function"
		},
		{
			"inputs": [],
			"name": "ProposalAddr",
			"outputs": [
				{
					"internalType": "address",
					"name": "",
					"type": "address"
				}
			],
			"stateMutability": "view",
			"type": "function"
		},
		{
			"inputs": [],
			"name": "PunishContractAddr",
			"outputs": [
				{
					"internalType": "address",
					"name": "",
					"type": "address"
				}
			],
			"stateMutability": "view",
			"type": "function"
		},
		{
			"inputs": [],
			"name": "StakingLockPeriod",
			"outputs": [
				{
					"internalType": "uint64",
					"name": "",
					"type": "uint64"
				}
			],
			"stateMutability": "view",
			"type": "function"
		},
		{
			"inputs": [],
			"name": "ValidatorContractAddr",
			"outputs": [
				{
					"internalType": "address",
					"name": "",
					"type": "address"
				}
			],
			"stateMutability": "view",
			"type": "function"
		},
		{
			"inputs": [],
			"name": "burnPartPercent",
			"outputs": [
				{
					"internalType": "uint256",
					"name": "",
					"type": "uint256"
				}
			],
			"stateMutability": "view",
			"type": "function"
		},
		{
			"inputs": [],
			"name": "burnStopAmount",
			"outputs": [
				{
					"internalType": "uint256",
					"name": "",
					"type": "uint256"
				}
			],
			"stateMutability": "view",
			"type": "function"
		},
		{
			"inputs": [
				{
					"internalType": "address",
					"name": "",
					"type": "address"
				}
			],
			"name": "contractCreator",
			"outputs": [
				{
					"internalType": "address",
					"name": "",
					"type": "address"
				}
			],
			"stateMutability": "view",
			"type": "function"
		},
		{
			"inputs": [],
			"name": "contractPartPercent",
			"outputs": [
				{
					"internalType": "uint256",
					"name": "",
					"type": "uint256"
				}
			],
			"stateMutability": "view",
			"type": "function"
		},
		{
			"inputs": [
				{
					"internalType": "address payable",
					"name": "feeAddr",
					"type": "address"
				},
				{
					"internalType": "string",
					"name": "moniker",
					"type": "string"
				},
				{
					"internalType": "string",
					"name": "identity",
					"type": "string"
				},
				{
					"internalType": "string",
					"name": "website",
					"type": "string"
				},
				{
					"internalType": "string",
					"name": "email",
					"type": "string"
				},
				{
					"internalType": "string",
					"name": "details",
					"type": "string"
				}
			],
			"name": "createOrEditValidator",
			"outputs": [
				{
					"internalType": "bool",
					"name": "",
					"type": "bool"
				}
			],
			"stateMutability": "payable",
			"type": "function"
		},
		{
			"inputs": [
				{
					"internalType": "uint256",
					"name": "",
					"type": "uint256"
				}
			],
			"name": "currentValidatorSet",
			"outputs": [
				{
					"internalType": "address",
					"name": "",
					"type": "address"
				}
			],
			"stateMutability": "view",
			"type": "function"
		},
		{
			"inputs": [
				{
					"internalType": "address[]",
					"name": "_to",
					"type": "address[]"
				},
				{
					"internalType": "uint64[]",
					"name": "_gass",
					"type": "uint64[]"
				}
			],
			"name": "distributeBlockReward",
			"outputs": [],
			"stateMutability": "payable",
			"type": "function"
		},
		{
			"inputs": [],
			"name": "getActiveValidators",
			"outputs": [
				{
					"internalType": "address[]",
					"name": "",
					"type": "address[]"
				}
			],
			"stateMutability": "view",
			"type": "function"
		},
		{
			"inputs": [
				{
					"internalType": "address",
					"name": "staker",
					"type": "address"
				},
				{
					"internalType": "address",
					"name": "val",
					"type": "address"
				}
			],
			"name": "getStakingInfo",
			"outputs": [
				{
					"internalType": "uint256",
					"name": "",
					"type": "uint256"
				},
				{
					"internalType": "uint256",
					"name": "",
					"type": "uint256"
				},
				{
					"internalType": "uint256",
					"name": "",
					"type": "uint256"
				}
			],
			"stateMutability": "view",
			"type": "function"
		},
		{
			"inputs": [],
			"name": "getTopValidators",
			"outputs": [
				{
					"internalType": "address[]",
					"name": "",
					"type": "address[]"
				}
			],
			"stateMutability": "view",
			"type": "function"
		},
		{
			"inputs": [],
			"name": "getTotalStakeOfActiveValidators",
			"outputs": [
				{
					"internalType": "uint256",
					"name": "total",
					"type": "uint256"
				},
				{
					"internalType": "uint256",
					"name": "len",
					"type": "uint256"
				}
			],
			"stateMutability": "view",
			"type": "function"
		},
		{
			"inputs": [
				{
					"internalType": "address",
					"name": "val",
					"type": "address"
				}
			],
			"name": "getValidatorDescription",
			"outputs": [
				{
					"internalType": "string",
					"name": "",
					"type": "string"
				},
				{
					"internalType": "string",
					"name": "",
					"type": "string"
				},
				{
					"internalType": "string",
					"name": "",
					"type": "string"
				},
				{
					"internalType": "string",
					"name": "",
					"type": "string"
				},
				{
					"internalType": "string",
					"name": "",
					"type": "string"
				}
			],
			"stateMutability": "view",
			"type": "function"
		},
		{
			"inputs": [
				{
					"internalType": "address",
					"name": "val",
					"type": "address"
				}
			],
			"name": "getValidatorInfo",
			"outputs": [
				{
					"internalType": "address payable",
					"name": "",
					"type": "address"
				},
				{
					"internalType": "enum Validators.Status",
					"name": "",
					"type": "uint8"
				},
				{
					"internalType": "uint256",
					"name": "",
					"type": "uint256"
				},
				{
					"internalType": "uint256",
					"name": "",
					"type": "uint256"
				},
				{
					"internalType": "uint256",
					"name": "",
					"type": "uint256"
				},
				{
					"internalType": "address[]",
					"name": "",
					"type": "address[]"
				}
			],
			"stateMutability": "view",
			"type": "function"
		},
		{
			"inputs": [
				{
					"internalType": "uint256",
					"name": "",
					"type": "uint256"
				}
			],
			"name": "highestValidatorsSet",
			"outputs": [
				{
					"internalType": "address",
					"name": "",
					"type": "address"
				}
			],
			"stateMutability": "view",
			"type": "function"
		},
		{
			"inputs": [
				{
					"internalType": "address[]",
					"name": "vals",
					"type": "address[]"
				}
			],
			"name": "initialize",
			"outputs": [],
			"stateMutability": "nonpayable",
			"type": "function"
		},
		{
			"inputs": [],
			"name": "initialized",
			"outputs": [
				{
					"internalType": "bool",
					"name": "",
					"type": "bool"
				}
			],
			"stateMutability": "view",
			"type": "function"
		},
		{
			"inputs": [
				{
					"internalType": "address",
					"name": "who",
					"type": "address"
				}
			],
			"name": "isActiveValidator",
			"outputs": [
				{
					"internalType": "bool",
					"name": "",
					"type": "bool"
				}
			],
			"stateMutability": "view",
			"type": "function"
		},
		{
			"inputs": [
				{
					"internalType": "address",
					"name": "who",
					"type": "address"
				}
			],
			"name": "isTopValidator",
			"outputs": [
				{
					"internalType": "bool",
					"name": "",
					"type": "bool"
				}
			],
			"stateMutability": "view",
			"type": "function"
		},
		{
			"inputs": [
				{
					"internalType": "address",
					"name": "",
					"type": "address"
				}
			],
			"name": "lastRewardTime",
			"outputs": [
				{
					"internalType": "uint256",
					"name": "",
					"type": "uint256"
				}
			],
			"stateMutability": "view",
			"type": "function"
		},
		{
			"inputs": [],
			"name": "minimumValidatorStaking",
			"outputs": [
				{
					"internalType": "uint256",
					"name": "",
					"type": "uint256"
				}
			],
			"stateMutability": "view",
			"type": "function"
		},
		{
			"inputs": [],
			"name": "owner",
			"outputs": [
				{
					"internalType": "address",
					"name": "",
					"type": "address"
				}
			],
			"stateMutability": "view",
			"type": "function"
		},
		{
			"inputs": [
				{
					"internalType": "address",
					"name": "",
					"type": "address"
				},
				{
					"internalType": "uint256",
					"name": "",
					"type": "uint256"
				}
			],
			"name": "reflectionPercentSum",
			"outputs": [
				{
					"internalType": "uint256",
					"name": "",
					"type": "uint256"
				}
			],
			"stateMutability": "view",
			"type": "function"
		},
		{
			"inputs": [
				{
					"internalType": "address",
					"name": "val",
					"type": "address"
				}
			],
			"name": "removeValidator",
			"outputs": [],
			"stateMutability": "nonpayable",
			"type": "function"
		},
		{
			"inputs": [
				{
					"internalType": "address",
					"name": "val",
					"type": "address"
				}
			],
			"name": "removeValidatorIncoming",
			"outputs": [],
			"stateMutability": "nonpayable",
			"type": "function"
		},
		{
			"inputs": [],
			"name": "renounceOwnership",
			"outputs": [],
			"stateMutability": "nonpayable",
			"type": "function"
		},
		{
			"inputs": [
				{
					"internalType": "address",
					"name": "_contract",
					"type": "address"
				}
			],
			"name": "setContractCreator",
			"outputs": [
				{
					"internalType": "bool",
					"name": "",
					"type": "bool"
				}
			],
			"stateMutability": "nonpayable",
			"type": "function"
		},
		{
			"inputs": [
				{
					"internalType": "address",
					"name": "validator",
					"type": "address"
				}
			],
			"name": "stake",
			"outputs": [
				{
					"internalType": "bool",
					"name": "",
					"type": "bool"
				}
			],
			"stateMutability": "payable",
			"type": "function"
		},
		{
			"inputs": [
				{
					"internalType": "address",
					"name": "",
					"type": "address"
				},
				{
					"internalType": "address",
					"name": "",
					"type": "address"
				}
			],
			"name": "stakeTime",
			"outputs": [
				{
					"internalType": "uint256",
					"name": "",
					"type": "uint256"
				}
			],
			"stateMutability": "view",
			"type": "function"
		},
		{
			"inputs": [],
			"name": "stakerPartPercent",
			"outputs": [
				{
					"internalType": "uint256",
					"name": "",
					"type": "uint256"
				}
			],
			"stateMutability": "view",
			"type": "function"
		},
		{
			"inputs": [],
			"name": "totalBurnt",
			"outputs": [
				{
					"internalType": "uint256",
					"name": "",
					"type": "uint256"
				}
			],
			"stateMutability": "view",
			"type": "function"
		},
		{
			"inputs": [],
			"name": "totalJailedHB",
			"outputs": [
				{
					"internalType": "uint256",
					"name": "",
					"type": "uint256"
				}
			],
			"stateMutability": "view",
			"type": "function"
		},
		{
			"inputs": [],
			"name": "totalStake",
			"outputs": [
				{
					"internalType": "uint256",
					"name": "",
					"type": "uint256"
				}
			],
			"stateMutability": "view",
			"type": "function"
		},
		{
			"inputs": [
				{
					"internalType": "address",
					"name": "newOwner",
					"type": "address"
				}
			],
			"name": "transferOwnership",
			"outputs": [],
			"stateMutability": "nonpayable",
			"type": "function"
		},
		{
			"inputs": [
				{
					"internalType": "address",
					"name": "validator",
					"type": "address"
				}
			],
			"name": "tryReactive",
			"outputs": [
				{
					"internalType": "bool",
					"name": "",
					"type": "bool"
				}
			],
			"stateMutability": "nonpayable",
			"type": "function"
		},
		{
			"inputs": [
				{
					"internalType": "address",
					"name": "validator",
					"type": "address"
				}
			],
			"name": "unstake",
			"outputs": [
				{
					"internalType": "bool",
					"name": "",
					"type": "bool"
				}
			],
			"stateMutability": "nonpayable",
			"type": "function"
		},
		{
			"inputs": [],
			"name": "unstakeWaitingTime",
			"outputs": [
				{
					"internalType": "uint256",
					"name": "",
					"type": "uint256"
				}
			],
			"stateMutability": "view",
			"type": "function"
		},
		{
			"inputs": [
				{
					"internalType": "address[]",
					"name": "newSet",
					"type": "address[]"
				},
				{
					"internalType": "uint256",
					"name": "epoch",
					"type": "uint256"
				}
			],
			"name": "updateActiveValidatorSet",
			"outputs": [],
			"stateMutability": "nonpayable",
			"type": "function"
		},
		{
			"inputs": [
				{
					"internalType": "uint256",
					"name": "_validatorPartPercent",
					"type": "uint256"
				},
				{
					"internalType": "uint256",
					"name": "_burnPartPercent",
					"type": "uint256"
				},
				{
					"internalType": "uint256",
					"name": "_burnStopAmount",
					"type": "uint256"
				},
				{
					"internalType": "uint256",
					"name": "_stakerPartPercent",
					"type": "uint256"
				},
				{
					"internalType": "uint256",
					"name": "_contractPartPercent",
					"type": "uint256"
				}
			],
			"name": "updateGasSettings",
			"outputs": [],
			"stateMutability": "nonpayable",
			"type": "function"
		},
		{
			"inputs": [
				{
					"internalType": "uint16",
					"name": "_MaxValidators",
					"type": "uint16"
				},
				{
					"internalType": "uint256",
					"name": "_MinimalStakingCoin",
					"type": "uint256"
				},
				{
					"internalType": "uint256",
					"name": "_minimumValidatorStaking",
					"type": "uint256"
				},
				{
					"internalType": "uint256",
					"name": "_unstakeWaitingTime",
					"type": "uint256"
				}
			],
			"name": "updateParams",
			"outputs": [],
			"stateMutability": "nonpayable",
			"type": "function"
		},
		{
			"inputs": [
				{
					"internalType": "string",
					"name": "moniker",
					"type": "string"
				},
				{
					"internalType": "string",
					"name": "identity",
					"type": "string"
				},
				{
					"internalType": "string",
					"name": "website",
					"type": "string"
				},
				{
					"internalType": "string",
					"name": "email",
					"type": "string"
				},
				{
					"internalType": "string",
					"name": "details",
					"type": "string"
				}
			],
			"name": "validateDescription",
			"outputs": [
				{
					"internalType": "bool",
					"name": "",
					"type": "bool"
				}
			],
			"stateMutability": "pure",
			"type": "function"
		},
		{
			"inputs": [],
			"name": "validatorPartPercent",
			"outputs": [
				{
					"internalType": "uint256",
					"name": "",
					"type": "uint256"
				}
			],
			"stateMutability": "view",
			"type": "function"
		},
		{
			"inputs": [
				{
					"internalType": "address",
					"name": "_staker",
					"type": "address"
				},
				{
					"internalType": "address",
					"name": "_validator",
					"type": "address"
				}
			],
			"name": "viewStakeReward",
			"outputs": [
				{
					"internalType": "uint256",
					"name": "",
					"type": "uint256"
				}
			],
			"stateMutability": "view",
			"type": "function"
		},
		{
			"inputs": [
				{
					"internalType": "address",
					"name": "validator",
					"type": "address"
				}
			],
			"name": "withdrawProfits",
			"outputs": [
				{
					"internalType": "bool",
					"name": "",
					"type": "bool"
				}
			],
			"stateMutability": "nonpayable",
			"type": "function"
		},
		{
			"inputs": [
				{
					"internalType": "address",
					"name": "validator",
					"type": "address"
				}
			],
			"name": "withdrawStaking",
			"outputs": [
				{
					"internalType": "bool",
					"name": "",
					"type": "bool"
				}
			],
			"stateMutability": "nonpayable",
			"type": "function"
		},
		{
			"inputs": [
				{
					"internalType": "address",
					"name": "validator",
					"type": "address"
				}
			],
			"name": "withdrawStakingReward",
			"outputs": [
				{
					"internalType": "bool",
					"name": "",
					"type": "bool"
				}
			],
			"stateMutability": "nonpayable",
			"type": "function"
		}
	]
}